{
  "contractName": "DandelionVoting",
  "abi": [
    {
      "constant": true,
      "inputs": [],
      "name": "hasInitialized",
      "outputs": [
        {
          "name": "",
          "type": "bool"
        }
      ],
      "payable": false,
      "stateMutability": "view",
      "type": "function"
    },
    {
      "constant": true,
      "inputs": [
        {
          "name": "_script",
          "type": "bytes"
        }
      ],
      "name": "getEVMScriptExecutor",
      "outputs": [
        {
          "name": "",
          "type": "address"
        }
      ],
      "payable": false,
      "stateMutability": "view",
      "type": "function"
    },
    {
      "constant": true,
      "inputs": [],
      "name": "getRecoveryVault",
      "outputs": [
        {
          "name": "",
          "type": "address"
        }
      ],
      "payable": false,
      "stateMutability": "view",
      "type": "function"
    },
    {
      "constant": true,
      "inputs": [],
      "name": "MODIFY_QUORUM_ROLE",
      "outputs": [
        {
          "name": "",
          "type": "bytes32"
        }
      ],
      "payable": false,
      "stateMutability": "view",
      "type": "function"
    },
    {
      "constant": true,
      "inputs": [
        {
          "name": "",
          "type": "address"
        }
      ],
      "name": "latestYeaVoteId",
      "outputs": [
        {
          "name": "",
          "type": "uint256"
        }
      ],
      "payable": false,
      "stateMutability": "view",
      "type": "function"
    },
    {
      "constant": false,
      "inputs": [
        {
          "name": "_from",
          "type": "address"
        },
        {
          "name": "_to",
          "type": "address"
        },
        {
          "name": "_amount",
          "type": "uint256"
        }
      ],
      "name": "onTransfer",
      "outputs": [
        {
          "name": "",
          "type": "bool"
        }
      ],
      "payable": false,
      "stateMutability": "nonpayable",
      "type": "function"
    },
    {
      "constant": false,
      "inputs": [
        {
          "name": "_hookId",
          "type": "uint256"
        },
        {
          "name": "_token",
          "type": "address"
        }
      ],
      "name": "onRegisterAsHook",
      "outputs": [],
      "payable": false,
      "stateMutability": "nonpayable",
      "type": "function"
    },
    {
      "constant": true,
      "inputs": [],
      "name": "MODIFY_EXECUTION_DELAY_ROLE",
      "outputs": [
        {
          "name": "",
          "type": "bytes32"
        }
      ],
      "payable": false,
      "stateMutability": "view",
      "type": "function"
    },
    {
      "constant": true,
      "inputs": [],
      "name": "MODIFY_SUPPORT_ROLE",
      "outputs": [
        {
          "name": "",
          "type": "bytes32"
        }
      ],
      "payable": false,
      "stateMutability": "view",
      "type": "function"
    },
    {
      "constant": true,
      "inputs": [],
      "name": "durationBlocks",
      "outputs": [
        {
          "name": "",
          "type": "uint64"
        }
      ],
      "payable": false,
      "stateMutability": "view",
      "type": "function"
    },
    {
      "constant": true,
      "inputs": [],
      "name": "MODIFY_BUFFER_BLOCKS_ROLE",
      "outputs": [
        {
          "name": "",
          "type": "bytes32"
        }
      ],
      "payable": false,
      "stateMutability": "view",
      "type": "function"
    },
    {
      "constant": true,
      "inputs": [
        {
          "name": "token",
          "type": "address"
        }
      ],
      "name": "allowRecoverability",
      "outputs": [
        {
          "name": "",
          "type": "bool"
        }
      ],
      "payable": false,
      "stateMutability": "view",
      "type": "function"
    },
    {
      "constant": true,
      "inputs": [],
      "name": "appId",
      "outputs": [
        {
          "name": "",
          "type": "bytes32"
        }
      ],
      "payable": false,
      "stateMutability": "view",
      "type": "function"
    },
    {
      "constant": true,
      "inputs": [],
      "name": "getInitializationBlock",
      "outputs": [
        {
          "name": "",
          "type": "uint256"
        }
      ],
      "payable": false,
      "stateMutability": "view",
      "type": "function"
    },
    {
      "constant": true,
      "inputs": [],
      "name": "bufferBlocks",
      "outputs": [
        {
          "name": "",
          "type": "uint64"
        }
      ],
      "payable": false,
      "stateMutability": "view",
      "type": "function"
    },
    {
      "constant": false,
      "inputs": [
        {
          "name": "_token",
          "type": "address"
        }
      ],
      "name": "transferToVault",
      "outputs": [],
      "payable": false,
      "stateMutability": "nonpayable",
      "type": "function"
    },
    {
      "constant": true,
      "inputs": [],
      "name": "getEVMScriptRegistry",
      "outputs": [
        {
          "name": "",
          "type": "address"
        }
      ],
      "payable": false,
      "stateMutability": "view",
      "type": "function"
    },
    {
      "constant": true,
      "inputs": [],
      "name": "CREATE_VOTES_ROLE",
      "outputs": [
        {
          "name": "",
          "type": "bytes32"
        }
      ],
      "payable": false,
      "stateMutability": "view",
      "type": "function"
    },
    {
      "constant": false,
      "inputs": [
        {
          "name": "_hookId",
          "type": "uint256"
        },
        {
          "name": "_token",
          "type": "address"
        }
      ],
      "name": "onRevokeAsHook",
      "outputs": [],
      "payable": false,
      "stateMutability": "nonpayable",
      "type": "function"
    },
    {
      "constant": true,
      "inputs": [],
      "name": "executionDelayBlocks",
      "outputs": [
        {
          "name": "",
          "type": "uint64"
        }
      ],
      "payable": false,
      "stateMutability": "view",
      "type": "function"
    },
    {
      "constant": true,
      "inputs": [],
      "name": "kernel",
      "outputs": [
        {
          "name": "",
          "type": "address"
        }
      ],
      "payable": false,
      "stateMutability": "view",
      "type": "function"
    },
    {
      "constant": false,
      "inputs": [
        {
          "name": "_holder",
          "type": "address"
        },
        {
          "name": "_spender",
          "type": "address"
        },
        {
          "name": "_amount",
          "type": "uint256"
        }
      ],
      "name": "onApprove",
      "outputs": [
        {
          "name": "",
          "type": "bool"
        }
      ],
      "payable": false,
      "stateMutability": "nonpayable",
      "type": "function"
    },
    {
      "constant": true,
      "inputs": [],
      "name": "minAcceptQuorumPct",
      "outputs": [
        {
          "name": "",
          "type": "uint64"
        }
      ],
      "payable": false,
      "stateMutability": "view",
      "type": "function"
    },
    {
      "constant": true,
      "inputs": [],
      "name": "isPetrified",
      "outputs": [
        {
          "name": "",
          "type": "bool"
        }
      ],
      "payable": false,
      "stateMutability": "view",
      "type": "function"
    },
    {
      "constant": true,
      "inputs": [],
      "name": "votesLength",
      "outputs": [
        {
          "name": "",
          "type": "uint256"
        }
      ],
      "payable": false,
      "stateMutability": "view",
      "type": "function"
    },
    {
      "constant": true,
      "inputs": [],
      "name": "supportRequiredPct",
      "outputs": [
        {
          "name": "",
          "type": "uint64"
        }
      ],
      "payable": false,
      "stateMutability": "view",
      "type": "function"
    },
    {
      "constant": true,
      "inputs": [],
      "name": "token",
      "outputs": [
        {
          "name": "",
          "type": "address"
        }
      ],
      "payable": false,
      "stateMutability": "view",
      "type": "function"
    },
    {
      "constant": true,
      "inputs": [],
      "name": "PCT_BASE",
      "outputs": [
        {
          "name": "",
          "type": "uint64"
        }
      ],
      "payable": false,
      "stateMutability": "view",
      "type": "function"
    },
    {
      "anonymous": false,
      "inputs": [
        {
          "indexed": true,
          "name": "voteId",
          "type": "uint256"
        },
        {
          "indexed": true,
          "name": "creator",
          "type": "address"
        },
        {
          "indexed": false,
          "name": "metadata",
          "type": "string"
        }
      ],
      "name": "StartVote",
      "type": "event"
    },
    {
      "anonymous": false,
      "inputs": [
        {
          "indexed": true,
          "name": "voteId",
          "type": "uint256"
        },
        {
          "indexed": true,
          "name": "voter",
          "type": "address"
        },
        {
          "indexed": false,
          "name": "supports",
          "type": "bool"
        },
        {
          "indexed": false,
          "name": "stake",
          "type": "uint256"
        }
      ],
      "name": "CastVote",
      "type": "event"
    },
    {
      "anonymous": false,
      "inputs": [
        {
          "indexed": true,
          "name": "voteId",
          "type": "uint256"
        }
      ],
      "name": "ExecuteVote",
      "type": "event"
    },
    {
      "anonymous": false,
      "inputs": [
        {
          "indexed": false,
          "name": "supportRequiredPct",
          "type": "uint64"
        }
      ],
      "name": "ChangeSupportRequired",
      "type": "event"
    },
    {
      "anonymous": false,
      "inputs": [
        {
          "indexed": false,
          "name": "minAcceptQuorumPct",
          "type": "uint64"
        }
      ],
      "name": "ChangeMinQuorum",
      "type": "event"
    },
    {
      "anonymous": false,
      "inputs": [
        {
          "indexed": false,
          "name": "bufferBlocks",
          "type": "uint64"
        }
      ],
      "name": "ChangeBufferBlocks",
      "type": "event"
    },
    {
      "anonymous": false,
      "inputs": [
        {
          "indexed": false,
          "name": "executionDelayBlocks",
          "type": "uint64"
        }
      ],
      "name": "ChangeExecutionDelayBlocks",
      "type": "event"
    },
    {
      "anonymous": false,
      "inputs": [
        {
          "indexed": true,
          "name": "executor",
          "type": "address"
        },
        {
          "indexed": false,
          "name": "script",
          "type": "bytes"
        },
        {
          "indexed": false,
          "name": "input",
          "type": "bytes"
        },
        {
          "indexed": false,
          "name": "returnData",
          "type": "bytes"
        }
      ],
      "name": "ScriptResult",
      "type": "event"
    },
    {
      "anonymous": false,
      "inputs": [
        {
          "indexed": true,
          "name": "vault",
          "type": "address"
        },
        {
          "indexed": true,
          "name": "token",
          "type": "address"
        },
        {
          "indexed": false,
          "name": "amount",
          "type": "uint256"
        }
      ],
      "name": "RecoverToVault",
      "type": "event"
    },
    {
      "constant": false,
      "inputs": [
        {
          "name": "_token",
          "type": "address"
        },
        {
          "name": "_supportRequiredPct",
          "type": "uint64"
        },
        {
          "name": "_minAcceptQuorumPct",
          "type": "uint64"
        },
        {
          "name": "_durationBlocks",
          "type": "uint64"
        },
        {
          "name": "_bufferBlocks",
          "type": "uint64"
        },
        {
          "name": "_executionDelayBlocks",
          "type": "uint64"
        }
      ],
      "name": "initialize",
      "outputs": [],
      "payable": false,
      "stateMutability": "nonpayable",
      "type": "function"
    },
    {
      "constant": false,
      "inputs": [
        {
          "name": "_supportRequiredPct",
          "type": "uint64"
        }
      ],
      "name": "changeSupportRequiredPct",
      "outputs": [],
      "payable": false,
      "stateMutability": "nonpayable",
      "type": "function"
    },
    {
      "constant": false,
      "inputs": [
        {
          "name": "_minAcceptQuorumPct",
          "type": "uint64"
        }
      ],
      "name": "changeMinAcceptQuorumPct",
      "outputs": [],
      "payable": false,
      "stateMutability": "nonpayable",
      "type": "function"
    },
    {
      "constant": false,
      "inputs": [
        {
          "name": "_bufferBlocks",
          "type": "uint64"
        }
      ],
      "name": "changeBufferBlocks",
      "outputs": [],
      "payable": false,
      "stateMutability": "nonpayable",
      "type": "function"
    },
    {
      "constant": false,
      "inputs": [
        {
          "name": "_executionDelayBlocks",
          "type": "uint64"
        }
      ],
      "name": "changeExecutionDelayBlocks",
      "outputs": [],
      "payable": false,
      "stateMutability": "nonpayable",
      "type": "function"
    },
    {
      "constant": false,
      "inputs": [
        {
          "name": "_executionScript",
          "type": "bytes"
        },
        {
          "name": "_metadata",
          "type": "string"
        },
        {
          "name": "_castVote",
          "type": "bool"
        }
      ],
      "name": "newVote",
      "outputs": [
        {
          "name": "voteId",
          "type": "uint256"
        }
      ],
      "payable": false,
      "stateMutability": "nonpayable",
      "type": "function"
    },
    {
      "constant": false,
      "inputs": [
        {
          "name": "_voteId",
          "type": "uint256"
        },
        {
          "name": "_supports",
          "type": "bool"
        }
      ],
      "name": "vote",
      "outputs": [],
      "payable": false,
      "stateMutability": "nonpayable",
      "type": "function"
    },
    {
      "constant": false,
      "inputs": [
        {
          "name": "_voteId",
          "type": "uint256"
        }
      ],
      "name": "executeVote",
      "outputs": [],
      "payable": false,
      "stateMutability": "nonpayable",
      "type": "function"
    },
    {
      "constant": true,
      "inputs": [],
      "name": "isForwarder",
      "outputs": [
        {
          "name": "",
          "type": "bool"
        }
      ],
      "payable": false,
      "stateMutability": "pure",
      "type": "function"
    },
    {
      "constant": false,
      "inputs": [
        {
          "name": "_evmScript",
          "type": "bytes"
        }
      ],
      "name": "forward",
      "outputs": [],
      "payable": false,
      "stateMutability": "nonpayable",
      "type": "function"
    },
    {
      "constant": true,
      "inputs": [
        {
          "name": "_sender",
          "type": "address"
        },
        {
          "name": "",
          "type": "bytes"
        }
      ],
      "name": "canForward",
      "outputs": [
        {
          "name": "",
          "type": "bool"
        }
      ],
      "payable": false,
      "stateMutability": "view",
      "type": "function"
    },
    {
      "constant": true,
      "inputs": [
        {
          "name": "_sender",
          "type": "address"
        },
        {
          "name": "_role",
          "type": "bytes32"
        },
        {
          "name": "_params",
          "type": "uint256[]"
        }
      ],
      "name": "canPerform",
      "outputs": [
        {
          "name": "",
          "type": "bool"
        }
      ],
      "payable": false,
      "stateMutability": "view",
      "type": "function"
    },
    {
      "constant": true,
      "inputs": [
        {
          "name": "",
          "type": "address"
        },
        {
          "name": "",
          "type": "address"
        },
        {
          "name": "",
          "type": "bytes32"
        },
        {
          "name": "_how",
          "type": "uint256[]"
        }
      ],
      "name": "canPerform",
      "outputs": [
        {
          "name": "",
          "type": "bool"
        }
      ],
      "payable": false,
      "stateMutability": "view",
      "type": "function"
    },
    {
      "constant": true,
      "inputs": [
        {
          "name": "_voteId",
          "type": "uint256"
        }
      ],
      "name": "canExecute",
      "outputs": [
        {
          "name": "",
          "type": "bool"
        }
      ],
      "payable": false,
      "stateMutability": "view",
      "type": "function"
    },
    {
      "constant": true,
      "inputs": [
        {
          "name": "_voteId",
          "type": "uint256"
        },
        {
          "name": "_voter",
          "type": "address"
        }
      ],
      "name": "canVote",
      "outputs": [
        {
          "name": "",
          "type": "bool"
        }
      ],
      "payable": false,
      "stateMutability": "view",
      "type": "function"
    },
    {
      "constant": true,
      "inputs": [
        {
          "name": "_voteId",
          "type": "uint256"
        }
      ],
      "name": "getVote",
      "outputs": [
        {
          "name": "open",
          "type": "bool"
        },
        {
          "name": "executed",
          "type": "bool"
        },
        {
          "name": "startBlock",
          "type": "uint64"
        },
        {
          "name": "executionBlock",
          "type": "uint64"
        },
        {
          "name": "snapshotBlock",
          "type": "uint64"
        },
        {
          "name": "supportRequired",
          "type": "uint64"
        },
        {
          "name": "minAcceptQuorum",
          "type": "uint64"
        },
        {
          "name": "votingPower",
          "type": "uint256"
        },
        {
          "name": "yea",
          "type": "uint256"
        },
        {
          "name": "nay",
          "type": "uint256"
        },
        {
          "name": "script",
          "type": "bytes"
        }
      ],
      "payable": false,
      "stateMutability": "view",
      "type": "function"
    },
    {
      "constant": true,
      "inputs": [
        {
          "name": "_voteId",
          "type": "uint256"
        },
        {
          "name": "_voter",
          "type": "address"
        }
      ],
      "name": "getVoterState",
      "outputs": [
        {
          "name": "",
          "type": "uint8"
        }
      ],
      "payable": false,
      "stateMutability": "view",
      "type": "function"
    }
  ],
  "bytecode": "0x6080604052620000176401000000006200001d810204565b6200023b565b6200003064010000000062000125810204565b60408051808201909152601881527f494e49545f414c52454144595f494e495449414c495a45440000000000000000602082015290156200010c576040517f08c379a00000000000000000000000000000000000000000000000000000000081526004018080602001828103825283818151815260200191508051906020019080838360005b83811015620000d0578181015183820152602001620000b6565b50505050905090810190601f168015620000fe5780820380516001836020036101000a031916815260200191505b509250505060405180910390fd5b506200012360001964010000000062000154810204565b565b60006200014f6000805160206200553683398151915264010000000062003c7c6200023382021704565b905090565b6200016764010000000062000125810204565b60408051808201909152601881527f494e49545f414c52454144595f494e495449414c495a454400000000000000006020820152901562000206576040517f08c379a000000000000000000000000000000000000000000000000000000000815260040180806020018281038252838181518152602001915080519060200190808383600083811015620000d0578181015183820152602001620000b6565b5062000230600080516020620055368339815191528264010000000062003c806200023782021704565b50565b5490565b9055565b6152eb806200024b6000396000f3006080604052600436106102245763ffffffff7c01000000000000000000000000000000000000000000000000000000006000350416630803fac0811461022957806324160baa146102525780632914b9bd146102955780632a1510901461031757806332f0a3b51461035d5780633c624c751461037257806344737f2f146103875780634a393149146103b55780634b12311c146103ec5780634d4eb6ce146104415780635a55c1f0146104745780635bd5cd8b146105b65780635eb24332146105cb57806362de7e5a146105ed57806365f6328f146106025780636b5c5ec7146106345780637c1d0b87146106495780637e7db6e11461066b57806380afdea8146106995780638b3dd749146106ae5780639780a752146106c35780639d4941d8146106d8578063a1658fad14610706578063a23e3a971461077a578063a479e508146107cd578063a5095199146107e2578063be2c64d414610804578063c0774df314610819578063c2239b241461088d578063c92422a3146108be578063c9d27afe146108d3578063cc63604a146108f0578063cdb2867b14610908578063d4aae0c414610939578063d948d4681461094e578063da682aeb146109a7578063dc474b1a146109de578063de4796ed146109f3578063de4f634714610a08578063f98a4eca14610a1d578063fac1347e14610a35578063fad167ab14610a57578063fc0c546a14610a6c578063fc157cb414610a81578063fd64eccb14610a96575b600080fd5b34801561023557600080fd5b5061023e610aab565b604080519115158252519081900360200190f35b34801561025e57600080fd5b5061028360246004803582810192908201359181359182019101356044351515610ad5565b60408051918252519081900360200190f35b3480156102a157600080fd5b506040805160206004803580820135601f81018490048402850184019095528484526102ee943694929360249392840191908190840183828082843750949750610c729650505050505050565b6040805173ffffffffffffffffffffffffffffffffffffffff9092168252519081900360200190f35b34801561032357600080fd5b5061023e73ffffffffffffffffffffffffffffffffffffffff60048035821691602480359091169160443591606435908101910135610d7e565b34801561036957600080fd5b506102ee61103e565b34801561037e57600080fd5b506102836110dd565b34801561039357600080fd5b5061028373ffffffffffffffffffffffffffffffffffffffff60043516611112565b3480156103c157600080fd5b5061023e73ffffffffffffffffffffffffffffffffffffffff60043581169060243516604435611124565b3480156103f857600080fd5b5061041d60043573ffffffffffffffffffffffffffffffffffffffff6024351661130d565b6040518082600281111561042d57fe5b60ff16815260200191505060405180910390f35b34801561044d57600080fd5b5061047260043573ffffffffffffffffffffffffffffffffffffffff60243516611492565b005b34801561048057600080fd5b5061048c6004356116a1565b604051808c1515151581526020018b1515151581526020018a67ffffffffffffffff1667ffffffffffffffff1681526020018967ffffffffffffffff1667ffffffffffffffff1681526020018867ffffffffffffffff1667ffffffffffffffff1681526020018767ffffffffffffffff1667ffffffffffffffff1681526020018667ffffffffffffffff1667ffffffffffffffff16815260200185815260200184815260200183815260200180602001828103825283818151815260200191508051906020019080838360005b83811015610571578181015183820152602001610559565b50505050905090810190601f16801561059e5780820380516001836020036101000a031916815260200191505b509c5050505050505050505050505060405180910390f35b3480156105c257600080fd5b50610283611a60565b3480156105d757600080fd5b5061047267ffffffffffffffff60043516611a95565b3480156105f957600080fd5b50610283611ce9565b34801561060e57600080fd5b50610617611d1e565b6040805167ffffffffffffffff9092168252519081900360200190f35b34801561064057600080fd5b50610283611d3a565b34801561065557600080fd5b5061047267ffffffffffffffff60043516611d6f565b34801561067757600080fd5b5061023e73ffffffffffffffffffffffffffffffffffffffff600435166120b4565b3480156106a557600080fd5b506102836120ba565b3480156106ba57600080fd5b506102836120ea565b3480156106cf57600080fd5b50610617612115565b3480156106e457600080fd5b5061047273ffffffffffffffffffffffffffffffffffffffff60043516612139565b34801561071257600080fd5b50604080516020600460443581810135838102808601850190965280855261023e95833573ffffffffffffffffffffffffffffffffffffffff1695602480359636969560649593949201929182918501908490808284375094975061245b9650505050505050565b34801561078657600080fd5b5061047273ffffffffffffffffffffffffffffffffffffffff6004351667ffffffffffffffff60243581169060443581169060643581169060843581169060a435166125eb565b3480156107d957600080fd5b506102ee612989565b3480156107ee57600080fd5b5061047267ffffffffffffffff60043516612a4b565b34801561081057600080fd5b50610283612bba565b34801561082557600080fd5b5060408051602060046024803582810135601f810185900485028601850190965285855261023e95833573ffffffffffffffffffffffffffffffffffffffff16953695604494919390910191908190840183828082843750949750612bef9650505050505050565b34801561089957600080fd5b5061047260043573ffffffffffffffffffffffffffffffffffffffff60243516612c38565b3480156108ca57600080fd5b50610617612de6565b3480156108df57600080fd5b506104726004356024351515612e12565b3480156108fc57600080fd5b5061023e60043561300c565b34801561091457600080fd5b5061023e60043573ffffffffffffffffffffffffffffffffffffffff6024351661301d565b34801561094557600080fd5b506102ee613174565b34801561095a57600080fd5b506040805160206004803580820135601f810184900484028501840190955284845261047294369492936024939284019190819084018382808284375094975061319f9650505050505050565b3480156109b357600080fd5b5061023e73ffffffffffffffffffffffffffffffffffffffff60043581169060243516604435613265565b3480156109ea57600080fd5b50610617613414565b3480156109ff57600080fd5b5061023e613424565b348015610a1457600080fd5b50610283613455565b348015610a2957600080fd5b5061047260043561345b565b348015610a4157600080fd5b5061047267ffffffffffffffff6004351661364c565b348015610a6357600080fd5b506106176137bb565b348015610a7857600080fd5b506102ee6137e3565b348015610a8d57600080fd5b506106176137ff565b348015610aa257600080fd5b5061023e61380b565b600080610ab66120ea565b90508015801590610ace575080610acb613810565b10155b91505b5090565b604080517f4352454154455f564f5445535f524f4c450000000000000000000000000000008152815190819003601101812060008083526020830190935290610b249033908390855b5061245b565b60408051808201909152600f81527f4150505f415554485f4641494c454400000000000000000000000000000000006020820152901515610bfd576040517f08c379a00000000000000000000000000000000000000000000000000000000081526004018080602001828103825283818151815260200191508051906020019080838360005b83811015610bc2578181015183820152602001610baa565b50505050905090810190601f168015610bef5780820380516001836020036101000a031916815260200191505b509250505060405180910390fd5b50610c6787878080601f0160208091040260200160405190810160405280939291908181526020018383808284375050604080516020601f8d018190048102820181019092528b815294508b93508a92508291508401838280828437508a94506138149350505050565b979650505050505050565b6000610c7c612989565b73ffffffffffffffffffffffffffffffffffffffff166304bf2a7f836040518263ffffffff167c01000000000000000000000000000000000000000000000000000000000281526004018080602001828103825283818151815260200191508051906020019080838360005b83811015610d00578181015183820152602001610ce8565b50505050905090810190601f168015610d2d5780820380516001836020036101000a031916815260200191505b5092505050602060405180830381600087803b158015610d4c57600080fd5b505af1158015610d60573d6000803e3d6000fd5b505050506040513d6020811015610d7657600080fd5b505192915050565b60408051606081018252602681527f44414e44454c494f4e5f564f54494e475f4f5241434c455f53454e4445525f4d60208201527f495353494e47000000000000000000000000000000000000000000000000000091810191909152600090818311610e46576040517f08c379a000000000000000000000000000000000000000000000000000000000815260040180806020018281038252838181518152602001915080519060200190808383600083811015610bc2578181015183820152602001610baa565b507401000000000000000000000000000000000000000083836000818110610e6a57fe5b9050602002013510606060405190810160405280602681526020017f44414e44454c494f4e5f564f54494e475f4f5241434c455f53454e4445525f5481526020017f4f4f5f4249470000000000000000000000000000000000000000000000000000815250901515610f38576040517f08c379a000000000000000000000000000000000000000000000000000000000815260040180806020018281038252838181518152602001915080519060200190808383600083811015610bc2578181015183820152602001610baa565b5082826000818110610f4657fe5b9050602002013560001415606060405190810160405280602381526020017f44414e44454c494f4e5f564f54494e475f4f5241434c455f53454e4445525f5a81526020017f45524f0000000000000000000000000000000000000000000000000000000000815250901515611017576040517f08c379a000000000000000000000000000000000000000000000000000000000815260040180806020018281038252838181518152602001915080519060200190808383600083811015610bc2578181015183820152602001610baa565b506110348383600081811061102857fe5b90506020020135613b7c565b9695505050505050565b6000611048613174565b73ffffffffffffffffffffffffffffffffffffffff166332f0a3b56040518163ffffffff167c0100000000000000000000000000000000000000000000000000000000028152600401602060405180830381600087803b1580156110ab57600080fd5b505af11580156110bf573d6000803e3d6000fd5b505050506040513d60208110156110d557600080fd5b505190505b90565b604080517f4d4f444946595f51554f52554d5f524f4c4500000000000000000000000000008152905190819003601201902081565b60056020526000908152604090205481565b6000805473ffffffffffffffffffffffffffffffffffffffff1633146111d157604080517f08c379a000000000000000000000000000000000000000000000000000000000815260206004820152602760248201527f486f6f6b73206d7573742062652063616c6c65642066726f6d20546f6b656e2060448201527f4d616e6167657200000000000000000000000000000000000000000000000000606482015290519081900360840190fd5b6111fa7fe855346402235fdd185c890e68d2c4ecad599b88587635ee285bce2fda58dacb613c7c565b60408051808201909152601981527f5245454e5452414e43595f5245454e5452414e545f43414c4c0000000000000060208201529015611296576040517f08c379a000000000000000000000000000000000000000000000000000000000815260040180806020018281038252838181518152602001915080519060200190808383600083811015610bc2578181015183820152602001610baa565b506112c87fe855346402235fdd185c890e68d2c4ecad599b88587635ee285bce2fda58dacb600163ffffffff613c8016565b6112d3848484613c84565b90506113067fe855346402235fdd185c890e68d2c4ecad599b88587635ee285bce2fda58dacb600063ffffffff613c8016565b9392505050565b60408051808201909152601d81527f44414e44454c494f4e5f564f54494e475f564f54455f49445f5a45524f000000602082015260009083908115156113af576040517f08c379a000000000000000000000000000000000000000000000000000000000815260040180806020018281038252838181518152602001915080519060200190808383600083811015610bc2578181015183820152602001610baa565b5060045460408051808201909152601881527f44414e44454c494f4e5f564f54494e475f4e4f5f564f54450000000000000000602082015290821115611451576040517f08c379a000000000000000000000000000000000000000000000000000000000815260040180806020018281038252838181518152602001915080519060200190808383600083811015610bc2578181015183820152602001610baa565b50600084815260036020908152604080832073ffffffffffffffffffffffffffffffffffffffff8716845260050190915290205460ff1691505b5092915050565b6114bb7fe855346402235fdd185c890e68d2c4ecad599b88587635ee285bce2fda58dacb613c7c565b60408051808201909152601981527f5245454e5452414e43595f5245454e5452414e545f43414c4c0000000000000060208201529015611557576040517f08c379a000000000000000000000000000000000000000000000000000000000815260040180806020018281038252838181518152602001915080519060200190808383600083811015610bc2578181015183820152602001610baa565b506115897fe855346402235fdd185c890e68d2c4ecad599b88587635ee285bce2fda58dacb600163ffffffff613c8016565b60005473ffffffffffffffffffffffffffffffffffffffff161561163457604080517f08c379a000000000000000000000000000000000000000000000000000000000815260206004820152602860248201527f486f6f6b20616c7265616479207265676973746572656420627920546f6b656e60448201527f204d616e61676572000000000000000000000000000000000000000000000000606482015290519081900360840190fd5b600080547fffffffffffffffffffffffff0000000000000000000000000000000000000000163390811790915561166c908383613007565b61169d7fe855346402235fdd185c890e68d2c4ecad599b88587635ee285bce2fda58dacb600063ffffffff613c8016565b5050565b600080600080600080600080600080606060008c80600014156040805190810160405280601d81526020017f44414e44454c494f4e5f564f54494e475f564f54455f49445f5a45524f000000815250901515611759576040517f08c379a000000000000000000000000000000000000000000000000000000000815260040180806020018281038252838181518152602001915080519060200190808383600083811015610bc2578181015183820152602001610baa565b5060045460408051808201909152601881527f44414e44454c494f4e5f564f54494e475f4e4f5f564f544500000000000000006020820152908211156117fb576040517f08c379a000000000000000000000000000000000000000000000000000000000815260040180806020018281038252838181518152602001915080519060200190808383600083811015610bc2578181015183820152602001610baa565b5060008e8152600360205260409020915061181582613c8f565b9c508160000160009054906101000a900460ff169b508160000160019054906101000a900467ffffffffffffffff169a508160000160099054906101000a900467ffffffffffffffff1699508160000160119054906101000a900467ffffffffffffffff169850600160009054906101000a900473ffffffffffffffffffffffffffffffffffffffff1673ffffffffffffffffffffffffffffffffffffffff1663981b24d08360000160119054906101000a900467ffffffffffffffff166040518263ffffffff167c0100000000000000000000000000000000000000000000000000000000028152600401808267ffffffffffffffff168152602001915050602060405180830381600087803b15801561192f57600080fd5b505af1158015611943573d6000803e3d6000fd5b505050506040513d602081101561195957600080fd5b810190808051906020019092919050505095508160010160009054906101000a900467ffffffffffffffff1697508160010160089054906101000a900467ffffffffffffffff1696508160020154945081600301549350816004018054600181600116156101000203166002900480601f016020809104026020016040519081016040528092919081815260200182805460018160011615610100020316600290048015611a485780601f10611a1d57610100808354040283529160200191611a48565b820191906000526020600020905b815481529060010190602001808311611a2b57829003601f168201915b50505050509250505091939597999b90929496989a50565b604080517f4d4f444946595f455845435554494f4e5f44454c41595f524f4c4500000000008152905190819003601b01902081565b604080517f4d4f444946595f51554f52554d5f524f4c45000000000000000000000000000081529051908190036012019020600254611ae19067ffffffffffffffff8085169116613de0565b611aec33838361245b565b60408051808201909152600f81527f4150505f415554485f4641494c454400000000000000000000000000000000006020820152901515611b89576040517f08c379a000000000000000000000000000000000000000000000000000000000815260040180806020018281038252838181518152602001915080519060200190808383600083811015610bc2578181015183820152602001610baa565b5060015460408051606081018252602381527f44414e44454c494f4e5f564f54494e475f4348414e47455f51554f52554d5f5060208201527f4354530000000000000000000000000000000000000000000000000000000000918101919091529067ffffffffffffffff7401000000000000000000000000000000000000000090910481169085161115611c79576040517f08c379a000000000000000000000000000000000000000000000000000000000815260040180806020018281038252838181518152602001915080519060200190808383600083811015610bc2578181015183820152602001610baa565b506002805467ffffffffffffffff85167fffffffffffffffffffffffffffffffffffffffffffffffff0000000000000000909116811790915560408051918252517f3172f2e9273c729c2a47cc8bf7e7f18506e3e3035126d562602bd2155bc78a509181900360200190a1505050565b604080517f4d4f444946595f535550504f52545f524f4c45000000000000000000000000008152905190819003601301902081565b60025468010000000000000000900467ffffffffffffffff1681565b604080517f4d4f444946595f4255464645525f424c4f434b535f524f4c45000000000000008152905190819003601901902081565b604080517f4d4f444946595f535550504f52545f524f4c450000000000000000000000000081529051908190036013019020600154611dd39067ffffffffffffffff8085169174010000000000000000000000000000000000000000900416613de0565b611dde33838361245b565b60408051808201909152600f81527f4150505f415554485f4641494c454400000000000000000000000000000000006020820152901515611e7b576040517f08c379a000000000000000000000000000000000000000000000000000000000815260040180806020018281038252838181518152602001915080519060200190808383600083811015610bc2578181015183820152602001610baa565b5060025460408051606081018252602481527f44414e44454c494f4e5f564f54494e475f4348414e47455f535550504f52545f60208201527f5043545300000000000000000000000000000000000000000000000000000000918101919091529067ffffffffffffffff80861691161115611f52576040517f08c379a000000000000000000000000000000000000000000000000000000000815260040180806020018281038252838181518152602001915080519060200190808383600083811015610bc2578181015183820152602001610baa565b5060408051606081018252602481527f44414e44454c494f4e5f564f54494e475f4348414e47455f535550505f544f4f60208201527f5f4249470000000000000000000000000000000000000000000000000000000091810191909152670de0b6b3a764000067ffffffffffffffff85161061202a576040517f08c379a000000000000000000000000000000000000000000000000000000000815260040180806020018281038252838181518152602001915080519060200190808383600083811015610bc2578181015183820152602001610baa565b506001805467ffffffffffffffff85167401000000000000000000000000000000000000000081027fffffffff0000000000000000ffffffffffffffffffffffffffffffffffffffff9092169190911790915560408051918252517f903b617f7f36eb047a29b89d1bf7885fdae31d250c3320fccf11d045c11b396e9181900360200190a1505050565b50600190565b60006120e57fd625496217aa6a3453eecb9c3489dc5a53e6c67b444329ea2b2cbc9ff547639b613c7c565b905090565b60006120e57febb05b386a8d34882b8711d156f463690983dc47815980fb82aeeff1aa43579e613c7c565b600254700100000000000000000000000000000000900467ffffffffffffffff1681565b6000806000612147846120b4565b60408051808201909152601281527f5245434f5645525f444953414c4c4f574544000000000000000000000000000060208201529015156121e4576040517f08c379a000000000000000000000000000000000000000000000000000000000815260040180806020018281038252838181518152602001915080519060200190808383600083811015610bc2578181015183820152602001610baa565b506121ed61103e565b92506121f883613e3f565b60408051808201909152601a81527f5245434f5645525f5641554c545f4e4f545f434f4e54524143540000000000006020820152901515612295576040517f08c379a000000000000000000000000000000000000000000000000000000000815260040180806020018281038252838181518152602001915080519060200190808383600083811015610bc2578181015183820152602001610baa565b5073ffffffffffffffffffffffffffffffffffffffff84161515612300576040513031925073ffffffffffffffffffffffffffffffffffffffff84169083156108fc029084906000818181858888f193505050501580156122fa573d6000803e3d6000fd5b506123f0565b508261232873ffffffffffffffffffffffffffffffffffffffff82163063ffffffff613e7916565b915061235173ffffffffffffffffffffffffffffffffffffffff8216848463ffffffff613fb216565b60408051808201909152601d81527f5245434f5645525f544f4b454e5f5452414e534645525f4641494c454400000060208201529015156123ee576040517f08c379a000000000000000000000000000000000000000000000000000000000815260040180806020018281038252838181518152602001915080519060200190808383600083811015610bc2578181015183820152602001610baa565b505b8373ffffffffffffffffffffffffffffffffffffffff168373ffffffffffffffffffffffffffffffffffffffff167f596caf56044b55fb8c4ca640089bbc2b63cae3e978b851f5745cbb7c5b288e02846040518082815260200191505060405180910390a350505050565b600080612466610aab565b151561247557600091506125e3565b61247d613174565b905073ffffffffffffffffffffffffffffffffffffffff811615156124a557600091506125e3565b8073ffffffffffffffffffffffffffffffffffffffff1663fdef91068630876124cd8861404a565b6040517c010000000000000000000000000000000000000000000000000000000063ffffffff871602815273ffffffffffffffffffffffffffffffffffffffff808616600483019081529085166024830152604482018490526080606483019081528351608484015283519192909160a490910190602085019080838360005b8381101561256557818101518382015260200161254d565b50505050905090810190601f1680156125925780820380516001836020036101000a031916815260200191505b5095505050505050602060405180830381600087803b1580156125b457600080fd5b505af11580156125c8573d6000803e3d6000fd5b505050506040513d60208110156125de57600080fd5b505191505b509392505050565b6125f36120ea565b60408051808201909152601881527f494e49545f414c52454144595f494e495449414c495a454400000000000000006020820152901561268f576040517f08c379a000000000000000000000000000000000000000000000000000000000815260040180806020018281038252838181518152602001915080519060200190808383600083811015610bc2578181015183820152602001610baa565b50612698614054565b60408051808201909152601a81527f44414e44454c494f4e5f564f54494e475f494e49545f50435453000000000000602082015267ffffffffffffffff8087169086161115612743576040517f08c379a000000000000000000000000000000000000000000000000000000000815260040180806020018281038252838181518152602001915080519060200190808383600083811015610bc2578181015183820152602001610baa565b5060408051606081018252602581527f44414e44454c494f4e5f564f54494e475f494e49545f535550504f52545f544f60208201527f4f5f42494700000000000000000000000000000000000000000000000000000091810191909152670de0b6b3a764000067ffffffffffffffff87161061281b576040517f08c379a000000000000000000000000000000000000000000000000000000000815260040180806020018281038252838181518152602001915080519060200190808383600083811015610bc2578181015183820152602001610baa565b50600180547fffffffffffffffffffffffff00000000000000000000000000000000000000001673ffffffffffffffffffffffffffffffffffffffff97909716969096177fffffffff0000000000000000ffffffffffffffffffffffffffffffffffffffff167401000000000000000000000000000000000000000067ffffffffffffffff9687160217909555600280547fffffffffffffffffffffffffffffffffffffffffffffffff000000000000000016938516939093177fffffffffffffffffffffffffffffffff0000000000000000ffffffffffffffff166801000000000000000092851692909202919091177fffffffffffffffff0000000000000000ffffffffffffffffffffffffffffffff16700100000000000000000000000000000000918416919091021777ffffffffffffffffffffffffffffffffffffffffffffffff1678010000000000000000000000000000000000000000000000009390921692909202179055565b600080612994613174565b604080517fbe00bbd80000000000000000000000000000000000000000000000000000000081527fd6f028ca0e8edb4a8c9757ca4fdccab25fa1e0317da1188108f7d2dee14902fb60048201527fddbcfd564f642ab5627cf68b9b7d374fb4f8a36e941a75d89c87998cef03bd616024820152905173ffffffffffffffffffffffffffffffffffffffff929092169163be00bbd8916044808201926020929091908290030181600087803b158015610d4c57600080fd5b604080517f4d4f444946595f4255464645525f424c4f434b535f524f4c45000000000000008152815190819003601901812060008083526020830190935291612a98913391849190610b1e565b60408051808201909152600f81527f4150505f415554485f4641494c454400000000000000000000000000000000006020820152901515612b35576040517f08c379a000000000000000000000000000000000000000000000000000000000815260040180806020018281038252838181518152602001915080519060200190808383600083811015610bc2578181015183820152602001610baa565b506002805467ffffffffffffffff841670010000000000000000000000000000000081027fffffffffffffffff0000000000000000ffffffffffffffffffffffffffffffff9092169190911790915560408051918252517f758eab8b7cd18c019b0f5c0033b5452a277a89d6e8037d01d796216f5dbab4da9181900360200190a15050565b604080517f4352454154455f564f5445535f524f4c450000000000000000000000000000008152905190819003601101902081565b60006113068360405180807f4352454154455f564f5445535f524f4c4500000000000000000000000000000081525060110190506040518091039020612c33614133565b61245b565b60005473ffffffffffffffffffffffffffffffffffffffff163314612ce457604080517f08c379a000000000000000000000000000000000000000000000000000000000815260206004820152602760248201527f486f6f6b73206d7573742062652063616c6c65642066726f6d20546f6b656e2060448201527f4d616e6167657200000000000000000000000000000000000000000000000000606482015290519081900360840190fd5b612d0d7fe855346402235fdd185c890e68d2c4ecad599b88587635ee285bce2fda58dacb613c7c565b60408051808201909152601981527f5245454e5452414e43595f5245454e5452414e545f43414c4c0000000000000060208201529015612da9576040517f08c379a000000000000000000000000000000000000000000000000000000000815260040180806020018281038252838181518152602001915080519060200190808383600083811015610bc2578181015183820152602001610baa565b50612ddb7fe855346402235fdd185c890e68d2c4ecad599b88587635ee285bce2fda58dacb600163ffffffff613c8016565b61166c338383613007565b6002547801000000000000000000000000000000000000000000000000900467ffffffffffffffff1681565b60408051808201909152601d81527f44414e44454c494f4e5f564f54494e475f564f54455f49445f5a45524f00000060208201528290811515612eb1576040517f08c379a000000000000000000000000000000000000000000000000000000000815260040180806020018281038252838181518152602001915080519060200190808383600083811015610bc2578181015183820152602001610baa565b5060045460408051808201909152601881527f44414e44454c494f4e5f564f54494e475f4e4f5f564f54450000000000000000602082015290821115612f53576040517f08c379a000000000000000000000000000000000000000000000000000000000815260040180806020018281038252838181518152602001915080519060200190808383600083811015610bc2578181015183820152602001610baa565b50612f5e8333614145565b60408051808201909152601d81527f44414e44454c494f4e5f564f54494e475f43414e5f4e4f545f564f54450000006020820152901515612ffb576040517f08c379a000000000000000000000000000000000000000000000000000000000815260040180806020018281038252838181518152602001915080519060200190808383600083811015610bc2578181015183820152602001610baa565b506130078383336141c1565b505050565b60006130178261433d565b92915050565b60408051808201909152601d81527f44414e44454c494f4e5f564f54494e475f564f54455f49445f5a45524f000000602082015260009083908115156130bf576040517f08c379a000000000000000000000000000000000000000000000000000000000815260040180806020018281038252838181518152602001915080519060200190808383600083811015610bc2578181015183820152602001610baa565b5060045460408051808201909152601881527f44414e44454c494f4e5f564f54494e475f4e4f5f564f54450000000000000000602082015290821115613161576040517f08c379a000000000000000000000000000000000000000000000000000000000815260040180806020018281038252838181518152602001915080519060200190808383600083811015610bc2578181015183820152602001610baa565b5061316c8484614145565b949350505050565b60006120e57f4172f0f7d2289153072b0a6ca36959e0cbe2efc3afe50fc81636caa96338137b613c7c565b6131a93382612bef565b6040805190810160405280602081526020017f44414e44454c494f4e5f564f54494e475f43414e5f4e4f545f464f5257415244815250901515613248576040517f08c379a000000000000000000000000000000000000000000000000000000000815260040180806020018281038252838181518152602001915080519060200190808383600083811015610bc2578181015183820152602001610baa565b5061169d8160206040519081016040528060008152506001613814565b6000805473ffffffffffffffffffffffffffffffffffffffff16331461331257604080517f08c379a000000000000000000000000000000000000000000000000000000000815260206004820152602760248201527f486f6f6b73206d7573742062652063616c6c65642066726f6d20546f6b656e2060448201527f4d616e6167657200000000000000000000000000000000000000000000000000606482015290519081900360840190fd5b61333b7fe855346402235fdd185c890e68d2c4ecad599b88587635ee285bce2fda58dacb613c7c565b60408051808201909152601981527f5245454e5452414e43595f5245454e5452414e545f43414c4c00000000000000602082015290156133d7576040517f08c379a000000000000000000000000000000000000000000000000000000000815260040180806020018281038252838181518152602001915080519060200190808383600083811015610bc2578181015183820152602001610baa565b506134097fe855346402235fdd185c890e68d2c4ecad599b88587635ee285bce2fda58dacb600163ffffffff613c8016565b6112d38484846144eb565b60025467ffffffffffffffff1681565b60007fffffffffffffffffffffffffffffffffffffffffffffffffffffffffffffffff61344f6120ea565b14905090565b60045481565b600060606134688361433d565b6040805190810160405280602081526020017f44414e44454c494f4e5f564f54494e475f43414e5f4e4f545f45584543555445815250901515613507576040517f08c379a000000000000000000000000000000000000000000000000000000000815260040180806020018281038252838181518152602001915080519060200190808383600083811015610bc2578181015183820152602001610baa565b50600083815260036020908152604080832080547fffffffffffffffffffffffffffffffffffffffffffffffffffffffffffffff0016600117815581518481529283019091529350905060048301805460408051602060026001851615610100027fffffffffffffffffffffffffffffffffffffffffffffffffffffffffffffffff0190941693909304601f810184900484028201840190925281815293945061361b9392918301828280156135fe5780601f106135d3576101008083540402835291602001916135fe565b820191906000526020600020905b8154815290600101906020018083116135e157829003601f168201915b505060408051600081526020810190915286935091506144f49050565b5060405183907fbf8e2b108bb7c980e08903a8a46527699d5e84905a082d56dacb4150725c8cab90600090a2505050565b604080517f4d4f444946595f455845435554494f4e5f44454c41595f524f4c4500000000008152815190819003601b01812060008083526020830190935291613699913391849190610b1e565b60408051808201909152600f81527f4150505f415554485f4641494c454400000000000000000000000000000000006020820152901515613736576040517f08c379a000000000000000000000000000000000000000000000000000000000815260040180806020018281038252838181518152602001915080519060200190808383600083811015610bc2578181015183820152602001610baa565b506002805467ffffffffffffffff84167801000000000000000000000000000000000000000000000000810277ffffffffffffffffffffffffffffffffffffffffffffffff9092169190911790915560408051918252517f1a288a4aad7791b03be13892a66fe136e8463f57755e8b0ef910a2fba3fd319b9181900360200190a15050565b60015474010000000000000000000000000000000000000000900467ffffffffffffffff1681565b60015473ffffffffffffffffffffffffffffffffffffffff1681565b670de0b6b3a764000081565b600190565b4390565b600480546001810191829055600090815260036020526040812054610100900467ffffffffffffffff169080808084156138815760025461387c9067ffffffffffffffff8781169170010000000000000000000000000000000090041663ffffffff614bca16565b613884565b60005b935061388e614c7c565b67ffffffffffffffff168467ffffffffffffffff16106138ae57836138b6565b6138b6614c7c565b60025490935061391e9067ffffffffffffffff7801000000000000000000000000000000000000000000000000820481169161390891808816916801000000000000000090041663ffffffff614bca16565b67ffffffffffffffff169063ffffffff614bca16565b600087815260036020908152604090912080547fffffffffffffffffffffffffffffffffffffffffffffff0000000000000000ff1661010067ffffffffffffffff80891691909102919091177fffffffffffffffffffffffffffffff0000000000000000ffffffffffffffffff16690100000000000000000085831602177fffffffffffffff0000000000000000ffffffffffffffffffffffffffffffffff16710100000000000000000000000000000000007fffffffffffffffffffffffffffffffffffffffffffffffffffffffffffffffff89018316021782556001805490830180547401000000000000000000000000000000000000000090920483167fffffffffffffffffffffffffffffffffffffffffffffffff0000000000000000909216919091178082556002547fffffffffffffffffffffffffffffffff0000000000000000ffffffffffffffff909116921668010000000000000000029190911790558b519294509250613a9b9160048401918c0190615231565b503373ffffffffffffffffffffffffffffffffffffffff16867f4d72fe0577a3a3f7da968d7b892779dde102519c25527b29cf7054f245c791b98a6040518080602001828103825283818151815260200191508051906020019080838360005b83811015613b13578181015183820152602001613afb565b50505050905090810190601f168015613b405780820380516001836020036101000a031916815260200191505b509250505060405180910390a3868015613b5f5750613b5f8633614145565b15613b7057613b70866001336141c1565b50505050509392505050565b60008060008060008060008060045460001415613b9c5760019750613c70565b73ffffffffffffffffffffffffffffffffffffffff891660009081526005602090815260408083205480845260039092529091209097509550613bdd614c7c565b9450613be886614c8e565b86546002805492159650690100000000000000000090910467ffffffffffffffff908116888216811115965070010000000000000000000000000000000090930416049250613c379083614bca565b67ffffffffffffffff168567ffffffffffffffff16119050838015613c595750825b80613c655750855460ff165b80613c6d5750805b97505b50505050505050919050565b5490565b9055565b600061316c84613b7c565b6001548154604080517f981b24d00000000000000000000000000000000000000000000000000000000081527101000000000000000000000000000000000090920467ffffffffffffffff166004830152516000928392839273ffffffffffffffffffffffffffffffffffffffff9092169163981b24d09160248082019260209290919082900301818787803b158015613d2857600080fd5b505af1158015613d3c573d6000803e3d6000fd5b505050506040513d6020811015613d5257600080fd5b50519150613d5e614c7c565b9050600082118015613d845750835467ffffffffffffffff610100909104811690821610155b8015613dd657506002548454613dbf9161010090910467ffffffffffffffff908116916801000000000000000090041663ffffffff614bca16565b67ffffffffffffffff168167ffffffffffffffff16105b92505b5050919050565b604080516002808252606080830184529260208301908038833901905050905082816000815181101515613e1057fe5b602090810290910101528051829082906001908110613e2b57fe5b6020908102909101015292915050565b5490565b60008073ffffffffffffffffffffffffffffffffffffffff83161515613e685760009150613e73565b823b90506000811191505b50919050565b6040805173ffffffffffffffffffffffffffffffffffffffff83166024808301919091528251808303909101815260449091019091526020810180517bffffffffffffffffffffffffffffffffffffffffffffffffffffffff167f70a08231000000000000000000000000000000000000000000000000000000001790526000908180613f068684614dd6565b60408051808201909152601c81527f534146455f4552435f32305f42414c414e43455f52455645525445440000000060208201529193509150821515613fa8576040517f08c379a000000000000000000000000000000000000000000000000000000000815260040180806020018281038252838181518152602001915080519060200190808383600083811015610bc2578181015183820152602001610baa565b5095945050505050565b6040805173ffffffffffffffffffffffffffffffffffffffff8416602482015260448082018490528251808303909101815260649091019091526020810180517bffffffffffffffffffffffffffffffffffffffffffffffffffffffff167fa9059cbb000000000000000000000000000000000000000000000000000000001790526000906140418582614e07565b95945050505050565b8051602002815290565b61405c6120ea565b60408051808201909152601881527f494e49545f414c52454144595f494e495449414c495a45440000000000000000602082015290156140f8576040517f08c379a000000000000000000000000000000000000000000000000000000000815260040180806020018281038252838181518152602001915080519060200190808383600083811015610bc2578181015183820152602001610baa565b50614131614104613810565b7febb05b386a8d34882b8711d156f463690983dc47815980fb82aeeff1aa43579e9063ffffffff613c8016565b565b60408051600081526020810190915290565b6000828152600360205260408120818061415f8386614e59565b9150600073ffffffffffffffffffffffffffffffffffffffff8616600090815260058501602052604090205460ff16600281111561419957fe5b1490506141a583613c8f565b80156141b15750600082115b8015611034575095945050505050565b6000838152600360205260408120906141da8284614e59565b905083156142575760028201546141f7908263ffffffff614fd816565b600283015573ffffffffffffffffffffffffffffffffffffffff83166000908152600560205260409020548511156142525773ffffffffffffffffffffffffffffffffffffffff831660009081526005602052604090208590555b614272565b600382015461426c908263ffffffff614fd816565b60038301555b8361427e576002614281565b60015b73ffffffffffffffffffffffffffffffffffffffff84166000908152600584016020526040902080547fffffffffffffffffffffffffffffffffffffffffffffffffffffffffffffff001660018360028111156142da57fe5b021790555060408051851515815260208101839052815173ffffffffffffffffffffffffffffffffffffffff86169288927fb34ee265e3d4f5ec4e8b52d59b2a9be8fceca2f274ebc080d8fba797fea9391f929081900390910190a35050505050565b60408051808201909152601d81527f44414e44454c494f4e5f564f54494e475f564f54455f49445f5a45524f0000006020820152600090819083908115156143e1576040517f08c379a000000000000000000000000000000000000000000000000000000000815260040180806020018281038252838181518152602001915080519060200190808383600083811015610bc2578181015183820152602001610baa565b5060045460408051808201909152601881527f44414e44454c494f4e5f564f54494e475f4e4f5f564f54450000000000000000602082015290821115614483576040517f08c379a000000000000000000000000000000000000000000000000000000000815260040180806020018281038252838181518152602001915080519060200190808383600083811015610bc2578181015183820152602001610baa565b506000848152600360205260409020805490925060ff16156144a85760009250613dd9565b81546901000000000000000000900467ffffffffffffffff166144c9614c7c565b67ffffffffffffffff1610156144e25760009250613dd9565b613dd682614c8e565b60019392505050565b6060600080606080614504610aab565b60408051808201909152601481527f494e49545f4e4f545f494e495449414c495a454400000000000000000000000060208201529015156145a1576040517f08c379a000000000000000000000000000000000000000000000000000000000815260040180806020018281038252838181518152602001915080519060200190808383600083811015610bc2578181015183820152602001610baa565b506000806145ad613174565b91506145b76120ba565b90506145c28a610c72565b60408051808201909152601b81527f45564d52554e5f4558454355544f525f554e415641494c41424c450000000000602082015290965073ffffffffffffffffffffffffffffffffffffffff87161515614678576040517f08c379a000000000000000000000000000000000000000000000000000000000815260040180806020018281038252838181518152602001915080519060200190808383600083811015610bc2578181015183820152602001610baa565b506040516060602482019081528b5160848301528b517f279cea3500000000000000000000000000000000000000000000000000000000975087928d928d928d9282916044820191606481019160a490910190602089019080838360005b838110156146ee5781810151838201526020016146d6565b50505050905090810190601f16801561471b5780820380516001836020036101000a031916815260200191505b50848103835286518152865160209182019188019080838360005b8381101561474e578181015183820152602001614736565b50505050905090810190601f16801561477b5780820380516001836020036101000a031916815260200191505b508481038252855181528551602091820191808801910280838360005b838110156147b0578181015183820152602001614798565b505050509050019650505050505050604051602081830303815290604052907bffffffffffffffffffffffffffffffffffffffffffffffffffffffff19166020820180517bffffffffffffffffffffffffffffffffffffffffffffffffffffffff83818316178352505050509350600080855160208701895af460405193508080156148b557603f3d1180156148535760203d03806020883e86016040526148af565b7f08c379a000000000000000000000000000000000000000000000000000000000865260206004870152601e60248701527f45564d52554e5f4558454355544f525f494e56414c49445f52455455524e00006044870152606486fd5b506148be565b3d6000863e3d85fd5b50508573ffffffffffffffffffffffffffffffffffffffff167f5229a5dba83a54ae8cb5b51bdd6de9474cacbe9dd332f5185f3a4f4f2e3f4ad98b8b8660405180806020018060200180602001848103845287818151815260200191508051906020019080838360005b83811015614940578181015183820152602001614928565b50505050905090810190601f16801561496d5780820380516001836020036101000a031916815260200191505b50848103835286518152865160209182019188019080838360005b838110156149a0578181015183820152602001614988565b50505050905090810190601f1680156149cd5780820380516001836020036101000a031916815260200191505b50848103825285518152855160209182019187019080838360005b83811015614a005781810151838201526020016149e8565b50505050905090810190601f168015614a2d5780820380516001836020036101000a031916815260200191505b50965050505050505060405180910390a28296508173ffffffffffffffffffffffffffffffffffffffff16614a60613174565b73ffffffffffffffffffffffffffffffffffffffff16146040805190810160405280601f81526020017f45564d52554e5f50524f5445435445445f53544154455f4d4f44494649454400815250901515614b16576040517f08c379a000000000000000000000000000000000000000000000000000000000815260040180806020018281038252838181518152602001915080519060200190808383600083811015610bc2578181015183820152602001610baa565b5080614b206120ba565b60408051808201909152601f81527f45564d52554e5f50524f5445435445445f53544154455f4d4f4449464945440060208201529114614bbc576040517f08c379a000000000000000000000000000000000000000000000000000000000815260040180806020018281038252838181518152602001915080519060200190808383600083811015610bc2578181015183820152602001610baa565b505050505050509392505050565b60408051808201909152601381527f4d41544836345f4144445f4f564552464c4f570000000000000000000000000060208201526000908383019067ffffffffffffffff80861690831610156125e3576040517f08c379a000000000000000000000000000000000000000000000000000000000815260040180806020018281038252838181518152602001915080519060200190808383600083811015610bc2578181015183820152602001610baa565b60006120e5614c89613810565b61507d565b6000806000806000614cb186600301548760020154614fd890919063ffffffff16565b6001548754604080517f981b24d00000000000000000000000000000000000000000000000000000000081527101000000000000000000000000000000000090920467ffffffffffffffff1660048301525192965073ffffffffffffffffffffffffffffffffffffffff9091169163981b24d0916024808201926020929091908290030181600087803b158015614d4757600080fd5b505af1158015614d5b573d6000803e3d6000fd5b505050506040513d6020811015614d7157600080fd5b505160028701546001880154919450614d9591869067ffffffffffffffff1661512d565b60028701546001880154919350614dc391859068010000000000000000900467ffffffffffffffff1661512d565b9050818015611034575095945050505050565b6000806000806040516020818751602089018a5afa92506000831115614dfb57805191505b50909590945092505050565b6000806040516020818551602087016000895af16000811115614e4b573d8015614e385760208114614e4157614e49565b60019350614e49565b600183511493505b505b5090949350505050565b9055565b6001548254604080517f4ee2cd7e00000000000000000000000000000000000000000000000000000000815273ffffffffffffffffffffffffffffffffffffffff85811660048301527101000000000000000000000000000000000090930467ffffffffffffffff166024820152905160009384938493911691634ee2cd7e9160448082019260209290919082900301818787803b158015614efa57600080fd5b505af1158015614f0e573d6000803e3d6000fd5b505050506040513d6020811015614f2457600080fd5b5051600154604080517f70a0823100000000000000000000000000000000000000000000000000000000815273ffffffffffffffffffffffffffffffffffffffff888116600483015291519395509116916370a08231916024808201926020929091908290030181600087803b158015614f9d57600080fd5b505af1158015614fb1573d6000803e3d6000fd5b505050506040513d6020811015614fc757600080fd5b505190508082106125e35780614041565b60408051808201909152601181527f4d4154485f4144445f4f564552464c4f57000000000000000000000000000000602082015260009083830190848210156125e3576040517f08c379a000000000000000000000000000000000000000000000000000000000815260040180806020018281038252838181518152602001915080519060200190808383600083811015610bc2578181015183820152602001610baa565b60408051808201909152601581527f55494e5436345f4e554d4245525f544f4f5f4249470000000000000000000000602082015260009067ffffffffffffffff831115615126576040517f08c379a000000000000000000000000000000000000000000000000000000000815260040180806020018281038252838181518152602001915080519060200190808383600083811015610bc2578181015183820152602001610baa565b5090919050565b60008083151561514057600091506125e3565b8361515986670de0b6b3a764000063ffffffff61516f16565b81151561516257fe5b0492909211949350505050565b600080831515615182576000915061148b565b5082820282848281151561519257fe5b60408051808201909152601181527f4d4154485f4d554c5f4f564552464c4f57000000000000000000000000000000602082015292919004146125e3576040517f08c379a000000000000000000000000000000000000000000000000000000000815260040180806020018281038252838181518152602001915080519060200190808383600083811015610bc2578181015183820152602001610baa565b828054600181600116156101000203166002900490600052602060002090601f016020900481019282601f1061527257805160ff191683800117855561529f565b8280016001018555821561529f579182015b8281111561529f578251825591602001919060010190615284565b50610ad1926110da9250905b80821115610ad157600081556001016152ab5600a165627a7a7230582069ad455d03f16e3784705f9d55c634fbaf9d54dbb996cc96b3ac857dacbec4020029ebb05b386a8d34882b8711d156f463690983dc47815980fb82aeeff1aa43579e",
  "source": "/*\n * SPDX-License-Identitifer:    GPL-3.0-or-later\n */\n\npragma solidity 0.4.24;\n\nimport \"@aragon/os/contracts/apps/AragonApp.sol\";\nimport \"@aragon/os/contracts/common/IForwarder.sol\";\nimport \"@aragon/os/contracts/acl/IACLOracle.sol\";\n\nimport \"@aragon/os/contracts/lib/math/SafeMath.sol\";\nimport \"@aragon/os/contracts/lib/math/SafeMath64.sol\";\n\nimport \"@aragon/apps-shared-minime/contracts/MiniMeToken.sol\";\nimport \"@1hive/apps-token-manager/contracts/TokenManagerHook.sol\";\n\n\ncontract DandelionVoting is IForwarder, IACLOracle, TokenManagerHook, AragonApp {\n    using SafeMath for uint256;\n    using SafeMath64 for uint64;\n\n    bytes32 public constant CREATE_VOTES_ROLE = keccak256(\"CREATE_VOTES_ROLE\");\n    bytes32 public constant MODIFY_SUPPORT_ROLE = keccak256(\"MODIFY_SUPPORT_ROLE\");\n    bytes32 public constant MODIFY_QUORUM_ROLE = keccak256(\"MODIFY_QUORUM_ROLE\");\n    bytes32 public constant MODIFY_BUFFER_BLOCKS_ROLE = keccak256(\"MODIFY_BUFFER_BLOCKS_ROLE\");\n    bytes32 public constant MODIFY_EXECUTION_DELAY_ROLE = keccak256(\"MODIFY_EXECUTION_DELAY_ROLE\");\n\n    uint64 public constant PCT_BASE = 10 ** 18; // 0% = 0; 1% = 10^16; 100% = 10^18\n    uint8 private constant EXECUTION_PERIOD_FALLBACK_DIVISOR = 2;\n\n    string private constant ERROR_VOTE_ID_ZERO = \"DANDELION_VOTING_VOTE_ID_ZERO\";\n    string private constant ERROR_NO_VOTE = \"DANDELION_VOTING_NO_VOTE\";\n    string private constant ERROR_INIT_PCTS = \"DANDELION_VOTING_INIT_PCTS\";\n    string private constant ERROR_CHANGE_SUPPORT_PCTS = \"DANDELION_VOTING_CHANGE_SUPPORT_PCTS\";\n    string private constant ERROR_CHANGE_QUORUM_PCTS = \"DANDELION_VOTING_CHANGE_QUORUM_PCTS\";\n    string private constant ERROR_INIT_SUPPORT_TOO_BIG = \"DANDELION_VOTING_INIT_SUPPORT_TOO_BIG\";\n    string private constant ERROR_CHANGE_SUPPORT_TOO_BIG = \"DANDELION_VOTING_CHANGE_SUPP_TOO_BIG\";\n    string private constant ERROR_CAN_NOT_VOTE = \"DANDELION_VOTING_CAN_NOT_VOTE\";\n    string private constant ERROR_CAN_NOT_EXECUTE = \"DANDELION_VOTING_CAN_NOT_EXECUTE\";\n    string private constant ERROR_CAN_NOT_FORWARD = \"DANDELION_VOTING_CAN_NOT_FORWARD\";\n    string private constant ERROR_ORACLE_SENDER_MISSING = \"DANDELION_VOTING_ORACLE_SENDER_MISSING\";\n    string private constant ERROR_ORACLE_SENDER_TOO_BIG = \"DANDELION_VOTING_ORACLE_SENDER_TOO_BIG\";\n    string private constant ERROR_ORACLE_SENDER_ZERO = \"DANDELION_VOTING_ORACLE_SENDER_ZERO\";\n\n    enum VoterState { Absent, Yea, Nay }\n\n    struct Vote {\n        bool executed;\n        uint64 startBlock;\n        uint64 executionBlock;\n        uint64 snapshotBlock;\n        uint64 supportRequiredPct;\n        uint64 minAcceptQuorumPct;\n        uint256 yea;\n        uint256 nay;\n        bytes executionScript;\n        mapping (address => VoterState) voters;\n    }\n\n    MiniMeToken public token;\n    uint64 public supportRequiredPct;\n    uint64 public minAcceptQuorumPct;\n    uint64 public durationBlocks;\n    uint64 public bufferBlocks;\n    uint64 public executionDelayBlocks;\n\n    // We are mimicing an array, we use a mapping instead to make app upgrade more graceful\n    mapping (uint256 => Vote) internal votes;\n    uint256 public votesLength;\n    mapping (address => uint256) public latestYeaVoteId;\n\n    event StartVote(uint256 indexed voteId, address indexed creator, string metadata);\n    event CastVote(uint256 indexed voteId, address indexed voter, bool supports, uint256 stake);\n    event ExecuteVote(uint256 indexed voteId);\n    event ChangeSupportRequired(uint64 supportRequiredPct);\n    event ChangeMinQuorum(uint64 minAcceptQuorumPct);\n    event ChangeBufferBlocks(uint64 bufferBlocks);\n    event ChangeExecutionDelayBlocks(uint64 executionDelayBlocks);\n\n    modifier voteExists(uint256 _voteId) {\n        require(_voteId != 0, ERROR_VOTE_ID_ZERO);\n        require(_voteId <= votesLength, ERROR_NO_VOTE);\n        _;\n    }\n\n    /**\n    * @notice Initialize Voting app with `_token.symbol(): string` for governance, minimum support of `@formatPct(_supportRequiredPct)`%, minimum acceptance quorum of `@formatPct(_minAcceptQuorumPct)`%, a voting duration of `_voteDurationBlocks` blocks, and a vote buffer of `_voteBufferBlocks` blocks\n    * @param _token MiniMeToken Address that will be used as governance token\n    * @param _supportRequiredPct Percentage of yeas in casted votes for a vote to succeed (expressed as a percentage of 10^18; eg. 10^16 = 1%, 10^18 = 100%)\n    * @param _minAcceptQuorumPct Percentage of yeas in total possible votes for a vote to succeed (expressed as a percentage of 10^18; eg. 10^16 = 1%, 10^18 = 100%)\n    * @param _durationBlocks Blocks that a vote will be open for token holders to vote\n    * @param _bufferBlocks Minimum number of blocks between the start block of each vote\n    * @param _executionDelayBlocks Minimum number of blocks between the end of a vote and when it can be executed\n    */\n    function initialize(\n        MiniMeToken _token,\n        uint64 _supportRequiredPct,\n        uint64 _minAcceptQuorumPct,\n        uint64 _durationBlocks,\n        uint64 _bufferBlocks,\n        uint64 _executionDelayBlocks\n    )\n        external\n        onlyInit\n    {\n        initialized();\n\n        require(_minAcceptQuorumPct <= _supportRequiredPct, ERROR_INIT_PCTS);\n        require(_supportRequiredPct < PCT_BASE, ERROR_INIT_SUPPORT_TOO_BIG);\n\n        token = _token;\n        supportRequiredPct = _supportRequiredPct;\n        minAcceptQuorumPct = _minAcceptQuorumPct;\n        durationBlocks = _durationBlocks;\n        bufferBlocks = _bufferBlocks;\n        executionDelayBlocks = _executionDelayBlocks;\n    }\n\n    /**\n    * @notice Change required support to `@formatPct(_supportRequiredPct)`%\n    * @param _supportRequiredPct New required support\n    */\n    function changeSupportRequiredPct(uint64 _supportRequiredPct)\n        external\n        authP(MODIFY_SUPPORT_ROLE, arr(uint256(_supportRequiredPct), uint256(supportRequiredPct)))\n    {\n        require(minAcceptQuorumPct <= _supportRequiredPct, ERROR_CHANGE_SUPPORT_PCTS);\n        require(_supportRequiredPct < PCT_BASE, ERROR_CHANGE_SUPPORT_TOO_BIG);\n        supportRequiredPct = _supportRequiredPct;\n\n        emit ChangeSupportRequired(_supportRequiredPct);\n    }\n\n    /**\n    * @notice Change minimum acceptance quorum to `@formatPct(_minAcceptQuorumPct)`%\n    * @param _minAcceptQuorumPct New acceptance quorum\n    */\n    function changeMinAcceptQuorumPct(uint64 _minAcceptQuorumPct)\n        external\n        authP(MODIFY_QUORUM_ROLE, arr(uint256(_minAcceptQuorumPct), uint256(minAcceptQuorumPct)))\n    {\n        require(_minAcceptQuorumPct <= supportRequiredPct, ERROR_CHANGE_QUORUM_PCTS);\n        minAcceptQuorumPct = _minAcceptQuorumPct;\n\n        emit ChangeMinQuorum(_minAcceptQuorumPct);\n    }\n\n    /**\n    * @notice Change vote buffer to `_voteBufferBlocks` blocks\n    * @param _bufferBlocks New vote buffer defined in blocks\n    */\n    function changeBufferBlocks(uint64 _bufferBlocks) external auth(MODIFY_BUFFER_BLOCKS_ROLE) {\n        bufferBlocks = _bufferBlocks;\n        emit ChangeBufferBlocks(_bufferBlocks);\n    }\n\n    /**\n    * @notice Change execution delay to `_executionDelayBlocks` blocks\n    * @param _executionDelayBlocks New vote execution delay defined in blocks\n    */\n    function changeExecutionDelayBlocks(uint64 _executionDelayBlocks) external auth(MODIFY_EXECUTION_DELAY_ROLE) {\n        executionDelayBlocks = _executionDelayBlocks;\n        emit ChangeExecutionDelayBlocks(_executionDelayBlocks);\n    }\n\n    /**\n    * @notice Create a new vote about \"`_metadata`\"\n    * @param _executionScript EVM script to be executed on approval\n    * @param _metadata Vote metadata\n    * @param _castVote Whether to also cast newly created vote\n    * @return voteId id for newly created vote\n    */\n    function newVote(bytes _executionScript, string _metadata, bool _castVote)\n        external\n        auth(CREATE_VOTES_ROLE)\n        returns (uint256 voteId)\n    {\n        return _newVote(_executionScript, _metadata, _castVote);\n    }\n\n    /**\n    * @notice Vote `_supports ? 'yes' : 'no'` in vote #`_voteId`\n    * @dev Initialization check is implicitly provided by `voteExists()` as new votes can only be\n    *      created via `newVote(),` which requires initialization\n    * @param _voteId Id for vote\n    * @param _supports Whether voter supports the vote\n    */\n    function vote(uint256 _voteId, bool _supports) external voteExists(_voteId) {\n        require(_canVote(_voteId, msg.sender), ERROR_CAN_NOT_VOTE);\n        _vote(_voteId, _supports, msg.sender);\n    }\n\n    /**\n    * @notice Execute vote #`_voteId`\n    * @dev Initialization check is implicitly provided by `voteExists()` as new votes can only be\n    *      created via `newVote(),` which requires initialization\n    * @param _voteId Id for vote\n    */\n    function executeVote(uint256 _voteId) external {\n        require(_canExecute(_voteId), ERROR_CAN_NOT_EXECUTE);\n\n        Vote storage vote_ = votes[_voteId];\n\n        vote_.executed = true;\n\n        bytes memory input = new bytes(0); // TODO: Consider input for voting scripts\n        runScript(vote_.executionScript, input, new address[](0));\n\n        emit ExecuteVote(_voteId);\n    }\n\n    // Forwarding fns\n\n    /**\n    * @notice Returns whether the Voting app is a forwarder or not\n    * @dev IForwarder interface conformance\n    * @return Always true\n    */\n    function isForwarder() external pure returns (bool) {\n        return true;\n    }\n\n    /**\n    * @notice Creates a vote to execute the desired action, and casts a support vote if possible\n    * @dev IForwarder interface conformance\n    * @param _evmScript Start vote with script\n    */\n    function forward(bytes _evmScript) public {\n        require(canForward(msg.sender, _evmScript), ERROR_CAN_NOT_FORWARD);\n        _newVote(_evmScript, \"\", true);\n    }\n\n    /**\n    * @notice Returns whether `_sender` can forward actions or not\n    * @dev IForwarder interface conformance\n    * @param _sender Address of the account intending to forward an action\n    * @return True if the given address can create votes, false otherwise\n    */\n    function canForward(address _sender, bytes) public view returns (bool) {\n        // Note that `canPerform()` implicitly does an initialization check itself\n        return canPerform(_sender, CREATE_VOTES_ROLE, arr());\n    }\n\n    // ACL Oracle fns\n\n    /**\n    * @dev IACLOracle interface conformance. The ACLOracle permissioned function should specify the sender\n    *      with 'authP(SOME_ACL_ROLE, arr(sender))', where sender is typically set to 'msg.sender'.\n    * @param _how Array passed by Kernel when using 'authP()'. First item should be the address to check can perform.\n    * return False if the sender has voted on the most recent open vote or closed unexecuted vote, true if they haven't.\n    */\n    function canPerform(address, address, bytes32, uint256[] _how) external view returns (bool) {\n        require(_how.length > 0, ERROR_ORACLE_SENDER_MISSING);\n        require(_how[0] < 2**160, ERROR_ORACLE_SENDER_TOO_BIG);\n        require(_how[0] != 0, ERROR_ORACLE_SENDER_ZERO);\n\n        return _noRecentPositiveVotes(address(_how[0]));\n    }\n\n    // Token Manager Hook fns\n\n    /**\n    * @dev TokenManagerHook interface conformance.\n    * @param _from The address from which funds will be transferred\n    * return False if `_from` has voted on the most recent open vote or closed unexecuted vote, true if they haven't.\n    */\n    function _onTransfer(address _from, address _to, uint256 _amount) internal returns (bool) {\n        return _noRecentPositiveVotes(_from);\n    }\n\n    // Getter fns\n\n    /**\n    * @notice Tells whether a vote #`_voteId` can be executed or not\n    * @dev Initialization check is implicitly provided by `voteExists()` as new votes can only be\n    *      created via `newVote(),` which requires initialization\n    * @return True if the given vote can be executed, false otherwise\n    */\n    function canExecute(uint256 _voteId) public view returns (bool) {\n        return _canExecute(_voteId);\n    }\n\n    /**\n    * @notice Tells whether `_sender` can participate in the vote #`_voteId` or not\n    * @dev Initialization check is implicitly provided by `voteExists()` as new votes can only be\n    *      created via `newVote(),` which requires initialization\n    * @return True if the given voter can participate a certain vote, false otherwise\n    */\n    function canVote(uint256 _voteId, address _voter) public view voteExists(_voteId) returns (bool) {\n        return _canVote(_voteId, _voter);\n    }\n\n    /**\n    * @dev Return all information for a vote by its ID\n    * @param _voteId Vote identifier\n    * @return Vote open status\n    * @return Vote executed status\n    * @return Vote start block\n    * @return Vote snapshot block\n    * @return Vote support required\n    * @return Vote minimum acceptance quorum\n    * @return Vote yeas amount\n    * @return Vote nays amount\n    * @return Vote power\n    * @return Vote script\n    */\n    function getVote(uint256 _voteId)\n        public\n        view\n        voteExists(_voteId)\n        returns (\n            bool open,\n            bool executed,\n            uint64 startBlock,\n            uint64 executionBlock,\n            uint64 snapshotBlock,\n            uint64 supportRequired,\n            uint64 minAcceptQuorum,\n            uint256 votingPower,\n            uint256 yea,\n            uint256 nay,\n            bytes script\n        )\n    {\n        Vote storage vote_ = votes[_voteId];\n\n        open = _isVoteOpen(vote_);\n        executed = vote_.executed;\n        startBlock = vote_.startBlock;\n        executionBlock = vote_.executionBlock;\n        snapshotBlock = vote_.snapshotBlock;\n        votingPower = token.totalSupplyAt(vote_.snapshotBlock);\n        supportRequired = vote_.supportRequiredPct;\n        minAcceptQuorum = vote_.minAcceptQuorumPct;\n        yea = vote_.yea;\n        nay = vote_.nay;\n        script = vote_.executionScript;\n    }\n\n    /**\n    * @dev Return the state of a voter for a given vote by its ID\n    * @param _voteId Vote identifier\n    * @return VoterState of the requested voter for a certain vote\n    */\n    function getVoterState(uint256 _voteId, address _voter) public view voteExists(_voteId) returns (VoterState) {\n        return votes[_voteId].voters[_voter];\n    }\n\n    // Internal fns\n\n    /**\n    * @dev Internal function to create a new vote\n    * @return voteId id for newly created vote\n    */\n    function _newVote(bytes _executionScript, string _metadata, bool _castVote) internal returns (uint256 voteId) {\n        voteId = ++votesLength; // Increment votesLength before assigning to votedId. The first voteId is 1.\n\n        uint64 previousVoteStartBlock = votes[voteId - 1].startBlock;\n        uint64 earliestStartBlock = previousVoteStartBlock == 0 ? 0 : previousVoteStartBlock.add(bufferBlocks);\n        uint64 startBlock = earliestStartBlock < getBlockNumber64() ? getBlockNumber64() : earliestStartBlock;\n\n        uint64 executionBlock = startBlock.add(durationBlocks).add(executionDelayBlocks);\n\n        Vote storage vote_ = votes[voteId];\n        vote_.startBlock = startBlock;\n        vote_.executionBlock = executionBlock;\n        vote_.snapshotBlock = startBlock - 1; // avoid double voting in this very block\n        vote_.supportRequiredPct = supportRequiredPct;\n        vote_.minAcceptQuorumPct = minAcceptQuorumPct;\n        vote_.executionScript = _executionScript;\n\n        emit StartVote(voteId, msg.sender, _metadata);\n\n        if (_castVote && _canVote(voteId, msg.sender)) {\n            _vote(voteId, true, msg.sender);\n        }\n    }\n\n    /**\n    * @dev Internal function to cast a vote. It assumes the queried vote exists.\n    */\n    function _vote(uint256 _voteId, bool _supports, address _voter) internal {\n        Vote storage vote_ = votes[_voteId];\n\n        uint256 voterStake = _voterStake(vote_, _voter);\n\n        if (_supports) {\n            vote_.yea = vote_.yea.add(voterStake);\n            if (latestYeaVoteId[_voter] < _voteId) {\n                latestYeaVoteId[_voter] = _voteId;\n            }\n        } else {\n            vote_.nay = vote_.nay.add(voterStake);\n        }\n\n        vote_.voters[_voter] = _supports ? VoterState.Yea : VoterState.Nay;\n\n        emit CastVote(_voteId, _voter, _supports, voterStake);\n    }\n\n    /**\n    * @dev Internal function to check if a vote can be executed. It assumes the queried vote exists.\n    * @return True if the given vote can be executed, false otherwise\n    */\n    function _canExecute(uint256 _voteId) internal view voteExists(_voteId) returns (bool) {\n        Vote storage vote_ = votes[_voteId];\n\n        if (vote_.executed) {\n            return false;\n        }\n\n        // This will always be later than the end of the previous vote\n        if (getBlockNumber64() < vote_.executionBlock) {\n            return false;\n        }\n\n        return _votePassed(vote_);\n    }\n\n    /**\n    * @dev Internal function to check if a vote has passed. It assumes the vote period has passed.\n    * @return True if the given vote has passed, false otherwise.\n    */\n    function _votePassed(Vote storage vote_) internal view returns (bool) {\n        uint256 totalVotes = vote_.yea.add(vote_.nay);\n        uint256 votingPowerAtSnapshot = token.totalSupplyAt(vote_.snapshotBlock);\n\n        bool hasSupportRequired = _isValuePct(vote_.yea, totalVotes, vote_.supportRequiredPct);\n        bool hasMinQuorum = _isValuePct(vote_.yea, votingPowerAtSnapshot, vote_.minAcceptQuorumPct);\n\n        return hasSupportRequired && hasMinQuorum;\n    }\n\n    /**\n    * @dev Internal function to check if a voter can participate on a vote. It assumes the queried vote exists.\n    * @return True if the given voter can participate a certain vote, false otherwise\n    */\n    function _canVote(uint256 _voteId, address _voter) internal view returns (bool) {\n        Vote storage vote_ = votes[_voteId];\n\n        uint256 voterStake = _voterStake(vote_, _voter);\n        bool hasNotVoted = vote_.voters[_voter] == VoterState.Absent;\n\n        return _isVoteOpen(vote_) && voterStake > 0 && hasNotVoted;\n    }\n\n    /**\n    * @dev Internal function to determine a voters stake which is the minimum of snapshot balance and current balance.\n    * @return Voters current stake.\n    */\n    function _voterStake(Vote storage vote_, address _voter) internal view returns (uint256) {\n        uint256 balanceAtSnapshot = token.balanceOfAt(_voter, vote_.snapshotBlock);\n        uint256 currentBalance = token.balanceOf(_voter);\n\n        return balanceAtSnapshot < currentBalance ? balanceAtSnapshot : currentBalance;\n    }\n\n    /**\n    * @dev Internal function to check if a vote is still open\n    * @return True if the given vote is open, false otherwise\n    */\n    function _isVoteOpen(Vote storage vote_) internal view returns (bool) {\n        uint256 votingPowerAtSnapshot = token.totalSupplyAt(vote_.snapshotBlock);\n        uint64 blockNumber = getBlockNumber64();\n        return votingPowerAtSnapshot > 0 && blockNumber >= vote_.startBlock && blockNumber < vote_.startBlock.add(durationBlocks);\n    }\n\n    /**\n    * @dev Calculates whether `_value` is more than a percentage `_pct` of `_total`\n    */\n    function _isValuePct(uint256 _value, uint256 _total, uint256 _pct) internal pure returns (bool) {\n        if (_total == 0) {\n            return false;\n        }\n\n        uint256 computedPct = _value.mul(PCT_BASE) / _total;\n        return computedPct > _pct;\n    }\n\n    /**\n    * @notice Returns whether the sender has voted on the most recent open vote or closed unexecuted vote.\n    * @dev IACLOracle interface conformance. The ACLOracle permissioned function should specify the sender\n    *      with 'authP(SOME_ACL_ROLE, arr(sender))', where sender is typically set to 'msg.sender'.\n    * @param _sender Voter to check if they can vote\n    * return False if the sender has voted on the most recent open vote or closed unexecuted vote, true if they haven't.\n    */\n    function _noRecentPositiveVotes(address _sender) internal returns (bool) {\n        if (votesLength == 0) {\n            return true;\n        }\n\n        uint256 senderLatestYeaVoteId = latestYeaVoteId[_sender];\n        Vote storage senderLatestYeaVote_ = votes[senderLatestYeaVoteId];\n        uint64 blockNumber = getBlockNumber64();\n\n        bool senderLatestYeaVoteFailed = !_votePassed(senderLatestYeaVote_);\n        bool senderLatestYeaVoteExecutionBlockPassed = blockNumber >= senderLatestYeaVote_.executionBlock;\n\n        uint64 fallbackPeriodLength = bufferBlocks / EXECUTION_PERIOD_FALLBACK_DIVISOR;\n        bool senderLatestYeaVoteFallbackPeriodPassed = blockNumber > senderLatestYeaVote_.executionBlock.add(fallbackPeriodLength);\n\n        return senderLatestYeaVoteFailed && senderLatestYeaVoteExecutionBlockPassed || senderLatestYeaVote_.executed || senderLatestYeaVoteFallbackPeriodPassed;\n    }\n}\n",
  "sourcePath": "/Users/rodrigoperez/Development/1Hive/Gardens/dandelion-voting-app/contracts/DandelionVoting.sol",
  "compiler": {
    "name": "solc",
    "version": "0.4.24+commit.e67f0147.Emscripten.clang"
  },
  "schemaVersion": "2.0.1",
  "updatedAt": "2020-05-28T23:55:41.052Z"
}