{
  "contractName": "APMRegistryFactory",
  "abi": [
    {
      "constant": true,
      "inputs": [],
      "name": "REPO_APP_NAME",
      "outputs": [
        {
          "name": "",
          "type": "string"
        }
      ],
      "payable": false,
      "stateMutability": "view",
      "type": "function"
    },
    {
      "constant": true,
      "inputs": [],
      "name": "APM_APP_NAME",
      "outputs": [
        {
          "name": "",
          "type": "string"
        }
      ],
      "payable": false,
      "stateMutability": "view",
      "type": "function"
    },
    {
      "constant": true,
      "inputs": [],
      "name": "ENS_SUB_APP_NAME",
      "outputs": [
        {
          "name": "",
          "type": "string"
        }
      ],
      "payable": false,
      "stateMutability": "view",
      "type": "function"
    },
    {
      "constant": true,
      "inputs": [],
      "name": "registryBase",
      "outputs": [
        {
          "name": "",
          "type": "address"
        }
      ],
      "payable": false,
      "stateMutability": "view",
      "type": "function"
    },
    {
      "constant": true,
      "inputs": [],
      "name": "ensSubdomainRegistrarBase",
      "outputs": [
        {
          "name": "",
          "type": "address"
        }
      ],
      "payable": false,
      "stateMutability": "view",
      "type": "function"
    },
    {
      "constant": true,
      "inputs": [],
      "name": "ens",
      "outputs": [
        {
          "name": "",
          "type": "address"
        }
      ],
      "payable": false,
      "stateMutability": "view",
      "type": "function"
    },
    {
      "constant": true,
      "inputs": [],
      "name": "daoFactory",
      "outputs": [
        {
          "name": "",
          "type": "address"
        }
      ],
      "payable": false,
      "stateMutability": "view",
      "type": "function"
    },
    {
      "constant": false,
      "inputs": [
        {
          "name": "_tld",
          "type": "bytes32"
        },
        {
          "name": "_label",
          "type": "bytes32"
        },
        {
          "name": "_root",
          "type": "address"
        }
      ],
      "name": "newAPM",
      "outputs": [
        {
          "name": "",
          "type": "address"
        }
      ],
      "payable": false,
      "stateMutability": "nonpayable",
      "type": "function"
    },
    {
      "constant": true,
      "inputs": [],
      "name": "repoBase",
      "outputs": [
        {
          "name": "",
          "type": "address"
        }
      ],
      "payable": false,
      "stateMutability": "view",
      "type": "function"
    },
    {
      "inputs": [
        {
          "name": "_daoFactory",
          "type": "address"
        },
        {
          "name": "_registryBase",
          "type": "address"
        },
        {
          "name": "_repoBase",
          "type": "address"
        },
        {
          "name": "_ensSubBase",
          "type": "address"
        },
        {
          "name": "_ens",
          "type": "address"
        },
        {
          "name": "_ensFactory",
          "type": "address"
        }
      ],
      "payable": false,
      "stateMutability": "nonpayable",
      "type": "constructor"
    },
    {
      "anonymous": false,
      "inputs": [
        {
          "indexed": true,
          "name": "node",
          "type": "bytes32"
        },
        {
          "indexed": false,
          "name": "apm",
          "type": "address"
        }
      ],
      "name": "DeployAPM",
      "type": "event"
    }
  ],
  "bytecode": "0x6060604052341561000f57600080fd5b60405160c08062002c9583398101604052808051906020019091908051906020019091908051906020019091908051906020019091908051906020019091908051906020019091905050856000806101000a81548173ffffffffffffffffffffffffffffffffffffffff021916908373ffffffffffffffffffffffffffffffffffffffff16021790555084600160006101000a81548173ffffffffffffffffffffffffffffffffffffffff021916908373ffffffffffffffffffffffffffffffffffffffff16021790555083600260006101000a81548173ffffffffffffffffffffffffffffffffffffffff021916908373ffffffffffffffffffffffffffffffffffffffff16021790555082600360006101000a81548173ffffffffffffffffffffffffffffffffffffffff021916908373ffffffffffffffffffffffffffffffffffffffff160217905550600073ffffffffffffffffffffffffffffffffffffffff168273ffffffffffffffffffffffffffffffffffffffff161415610254578073ffffffffffffffffffffffffffffffffffffffff1663e9358b01306000604051602001526040518263ffffffff167c0100000000000000000000000000000000000000000000000000000000028152600401808273ffffffffffffffffffffffffffffffffffffffff1673ffffffffffffffffffffffffffffffffffffffff168152602001915050602060405180830381600087803b151561023457600080fd5b6102c65a03f1151561024557600080fd5b50505060405180519050610256565b815b600460006101000a81548173ffffffffffffffffffffffffffffffffffffffff021916908373ffffffffffffffffffffffffffffffffffffffff1602179055505050505050506129e980620002ac6000396000f300606060405260043610610099576000357c0100000000000000000000000000000000000000000000000000000000900463ffffffff168063023d6c031461009e5780631219d5c81461012c578063231cb6ab146101ba57806339ca6e86146102485780633cfb35aa1461029d5780633f15457f146102f257806348f7f2a314610347578063aac57b3a1461039c578063caf1bb7c1461042f575b600080fd5b34156100a957600080fd5b6100b1610484565b6040518080602001828103825283818151815260200191508051906020019080838360005b838110156100f15780820151818401526020810190506100d6565b50505050905090810190601f16801561011e5780820380516001836020036101000a031916815260200191505b509250505060405180910390f35b341561013757600080fd5b61013f6104bd565b6040518080602001828103825283818151815260200191508051906020019080838360005b8381101561017f578082015181840152602081019050610164565b50505050905090810190601f1680156101ac5780820380516001836020036101000a031916815260200191505b509250505060405180910390f35b34156101c557600080fd5b6101cd6104f6565b6040518080602001828103825283818151815260200191508051906020019080838360005b8381101561020d5780820151818401526020810190506101f2565b50505050905090810190601f16801561023a5780820380516001836020036101000a031916815260200191505b509250505060405180910390f35b341561025357600080fd5b61025b61052f565b604051808273ffffffffffffffffffffffffffffffffffffffff1673ffffffffffffffffffffffffffffffffffffffff16815260200191505060405180910390f35b34156102a857600080fd5b6102b0610555565b604051808273ffffffffffffffffffffffffffffffffffffffff1673ffffffffffffffffffffffffffffffffffffffff16815260200191505060405180910390f35b34156102fd57600080fd5b61030561057b565b604051808273ffffffffffffffffffffffffffffffffffffffff1673ffffffffffffffffffffffffffffffffffffffff16815260200191505060405180910390f35b341561035257600080fd5b61035a6105a1565b604051808273ffffffffffffffffffffffffffffffffffffffff1673ffffffffffffffffffffffffffffffffffffffff16815260200191505060405180910390f35b34156103a757600080fd5b6103ed6004808035600019169060200190919080356000191690602001909190803573ffffffffffffffffffffffffffffffffffffffff169060200190919050506105c6565b604051808273ffffffffffffffffffffffffffffffffffffffff1673ffffffffffffffffffffffffffffffffffffffff16815260200191505060405180910390f35b341561043a57600080fd5b610442612652565b604051808273ffffffffffffffffffffffffffffffffffffffff1673ffffffffffffffffffffffffffffffffffffffff16815260200191505060405180910390f35b6040805190810160405280600881526020017f61706d2d7265706f00000000000000000000000000000000000000000000000081525081565b6040805190810160405280600c81526020017f61706d2d7265676973747279000000000000000000000000000000000000000081525081565b6040805190810160405280600a81526020017f61706d2d656e737375620000000000000000000000000000000000000000000081525081565b600160009054906101000a900473ffffffffffffffffffffffffffffffffffffffff1681565b600360009054906101000a900473ffffffffffffffffffffffffffffffffffffffff1681565b600460009054906101000a900473ffffffffffffffffffffffffffffffffffffffff1681565b6000809054906101000a900473ffffffffffffffffffffffffffffffffffffffff1681565b6000806000806000806000806105da61297d565b8b8b604051808360001916600019168152602001826000191660001916815260200192505050604051809103902097503073ffffffffffffffffffffffffffffffffffffffff16600460009054906101000a900473ffffffffffffffffffffffffffffffffffffffff1673ffffffffffffffffffffffffffffffffffffffff166302571be38a6000604051602001526040518263ffffffff167c0100000000000000000000000000000000000000000000000000000000028152600401808260001916600019168152602001915050602060405180830381600087803b15156106c257600080fd5b6102c65a03f115156106d357600080fd5b5050506040518051905073ffffffffffffffffffffffffffffffffffffffff161415156107eb57600460009054906101000a900473ffffffffffffffffffffffffffffffffffffffff1673ffffffffffffffffffffffffffffffffffffffff166306ab59238d8d306040518463ffffffff167c010000000000000000000000000000000000000000000000000000000002815260040180846000191660001916815260200183600019166000191681526020018273ffffffffffffffffffffffffffffffffffffffff1673ffffffffffffffffffffffffffffffffffffffff1681526020019350505050600060405180830381600087803b15156107d657600080fd5b6102c65a03f115156107e757600080fd5b5050505b6000809054906101000a900473ffffffffffffffffffffffffffffffffffffffff1673ffffffffffffffffffffffffffffffffffffffff166321687444306000604051602001526040518263ffffffff167c0100000000000000000000000000000000000000000000000000000000028152600401808273ffffffffffffffffffffffffffffffffffffffff1673ffffffffffffffffffffffffffffffffffffffff168152602001915050602060405180830381600087803b15156108af57600080fd5b6102c65a03f115156108c057600080fd5b5050506040518051905096508673ffffffffffffffffffffffffffffffffffffffff1663de2873596000604051602001526040518163ffffffff167c0100000000000000000000000000000000000000000000000000000000028152600401602060405180830381600087803b151561093857600080fd5b6102c65a03f1151561094957600080fd5b5050506040518051905095508573ffffffffffffffffffffffffffffffffffffffff1663be03847830898a73ffffffffffffffffffffffffffffffffffffffff16638ea8dc9d6000604051602001526040518163ffffffff167c0100000000000000000000000000000000000000000000000000000000028152600401602060405180830381600087803b15156109df57600080fd5b6102c65a03f115156109f057600080fd5b50505060405180519050306040518563ffffffff167c0100000000000000000000000000000000000000000000000000000000028152600401808573ffffffffffffffffffffffffffffffffffffffff1673ffffffffffffffffffffffffffffffffffffffff1681526020018473ffffffffffffffffffffffffffffffffffffffff1673ffffffffffffffffffffffffffffffffffffffff16815260200183600019166000191681526020018273ffffffffffffffffffffffffffffffffffffffff1673ffffffffffffffffffffffffffffffffffffffff168152602001945050505050600060405180830381600087803b1515610aed57600080fd5b6102c65a03f11515610afe57600080fd5b5050508673ffffffffffffffffffffffffffffffffffffffff1663db8a61d46000604051602001526040518163ffffffff167c0100000000000000000000000000000000000000000000000000000000028152600401602060405180830381600087803b1515610b6d57600080fd5b6102c65a03f11515610b7e57600080fd5b5050506040518051905094508673ffffffffffffffffffffffffffffffffffffffff166380cd5ac3896040805190810160405280600a81526020017f61706d2d656e73737562000000000000000000000000000000000000000000008152506040518082805190602001908083835b602083101515610c125780518252602082019150602081019050602083039250610bed565b6001836020036101000a03801982511681845116808217855250505050505090500191505060405180910390206040518083600019166000191681526020018260001916600019168152602001925050506040518091039020600360009054906101000a900473ffffffffffffffffffffffffffffffffffffffff166000604051602001526040518363ffffffff167c01000000000000000000000000000000000000000000000000000000000281526004018083600019166000191681526020018273ffffffffffffffffffffffffffffffffffffffff1673ffffffffffffffffffffffffffffffffffffffff16815260200192505050602060405180830381600087803b1515610d2357600080fd5b6102c65a03f11515610d3457600080fd5b5050506040518051905093508673ffffffffffffffffffffffffffffffffffffffff166380cd5ac3896040805190810160405280600c81526020017f61706d2d726567697374727900000000000000000000000000000000000000008152506040518082805190602001908083835b602083101515610dc85780518252602082019150602081019050602083039250610da3565b6001836020036101000a03801982511681845116808217855250505050505090500191505060405180910390206040518083600019166000191681526020018260001916600019168152602001925050506040518091039020600160009054906101000a900473ffffffffffffffffffffffffffffffffffffffff166000604051602001526040518363ffffffff167c01000000000000000000000000000000000000000000000000000000000281526004018083600019166000191681526020018273ffffffffffffffffffffffffffffffffffffffff1673ffffffffffffffffffffffffffffffffffffffff16815260200192505050602060405180830381600087803b1515610ed957600080fd5b6102c65a03f11515610eea57600080fd5b5050506040518051905092508673ffffffffffffffffffffffffffffffffffffffff1663ae5b2540868a6040805190810160405280600881526020017f61706d2d7265706f0000000000000000000000000000000000000000000000008152506040518082805190602001908083835b602083101515610f7f5780518252602082019150602081019050602083039250610f5a565b6001836020036101000a03801982511681845116808217855250505050505090500191505060405180910390206040518083600019166000191681526020018260001916600019168152602001925050506040518091039020600260009054906101000a900473ffffffffffffffffffffffffffffffffffffffff166000604051602001526040518463ffffffff167c010000000000000000000000000000000000000000000000000000000002815260040180846000191660001916815260200183600019166000191681526020018273ffffffffffffffffffffffffffffffffffffffff1673ffffffffffffffffffffffffffffffffffffffff1681526020019350505050602060405180830381600087803b151561109f57600080fd5b6102c65a03f115156110b057600080fd5b505050604051805190505087600019167f5dd941cb8701bb50205e5aef88c8532b8d6e75b7b65e2c458e9acdf261f0f29284604051808273ffffffffffffffffffffffffffffffffffffffff1673ffffffffffffffffffffffffffffffffffffffff16815260200191505060405180910390a28573ffffffffffffffffffffffffffffffffffffffff1663be03847884868773ffffffffffffffffffffffffffffffffffffffff1663fef47e386000604051602001526040518163ffffffff167c0100000000000000000000000000000000000000000000000000000000028152600401602060405180830381600087803b15156111ad57600080fd5b6102c65a03f115156111be57600080fd5b505050604051805190508e6040518563ffffffff167c0100000000000000000000000000000000000000000000000000000000028152600401808573ffffffffffffffffffffffffffffffffffffffff1673ffffffffffffffffffffffffffffffffffffffff1681526020018473ffffffffffffffffffffffffffffffffffffffff1673ffffffffffffffffffffffffffffffffffffffff16815260200183600019166000191681526020018273ffffffffffffffffffffffffffffffffffffffff1673ffffffffffffffffffffffffffffffffffffffff168152602001945050505050600060405180830381600087803b15156112bb57600080fd5b6102c65a03f115156112cc57600080fd5b5050508573ffffffffffffffffffffffffffffffffffffffff1663be03847884868773ffffffffffffffffffffffffffffffffffffffff1663307482cf6000604051602001526040518163ffffffff167c0100000000000000000000000000000000000000000000000000000000028152600401602060405180830381600087803b151561135957600080fd5b6102c65a03f1151561136a57600080fd5b505050604051805190508e6040518563ffffffff167c0100000000000000000000000000000000000000000000000000000000028152600401808573ffffffffffffffffffffffffffffffffffffffff1673ffffffffffffffffffffffffffffffffffffffff1681526020018473ffffffffffffffffffffffffffffffffffffffff1673ffffffffffffffffffffffffffffffffffffffff16815260200183600019166000191681526020018273ffffffffffffffffffffffffffffffffffffffff1673ffffffffffffffffffffffffffffffffffffffff168152602001945050505050600060405180830381600087803b151561146757600080fd5b6102c65a03f1151561147857600080fd5b5050508573ffffffffffffffffffffffffffffffffffffffff16633d6ab68f6000604051602001526040518163ffffffff167c0100000000000000000000000000000000000000000000000000000000028152600401602060405180830381600087803b15156114e757600080fd5b6102c65a03f115156114f857600080fd5b5050506040518051905091508573ffffffffffffffffffffffffffffffffffffffff16630a8ed3db8488856040518463ffffffff167c0100000000000000000000000000000000000000000000000000000000028152600401808473ffffffffffffffffffffffffffffffffffffffff1673ffffffffffffffffffffffffffffffffffffffff1681526020018373ffffffffffffffffffffffffffffffffffffffff1673ffffffffffffffffffffffffffffffffffffffff16815260200182600019166000191681526020019350505050600060405180830381600087803b15156115e257600080fd5b6102c65a03f115156115f357600080fd5b505050600460009054906101000a900473ffffffffffffffffffffffffffffffffffffffff1673ffffffffffffffffffffffffffffffffffffffff16635b0fc9c389866040518363ffffffff167c01000000000000000000000000000000000000000000000000000000000281526004018083600019166000191681526020018273ffffffffffffffffffffffffffffffffffffffff1673ffffffffffffffffffffffffffffffffffffffff16815260200192505050600060405180830381600087803b15156116c257600080fd5b6102c65a03f115156116d357600080fd5b5050508373ffffffffffffffffffffffffffffffffffffffff1663be13f47c600460009054906101000a900473ffffffffffffffffffffffffffffffffffffffff168a6040518363ffffffff167c0100000000000000000000000000000000000000000000000000000000028152600401808373ffffffffffffffffffffffffffffffffffffffff1673ffffffffffffffffffffffffffffffffffffffff168152602001826000191660001916815260200192505050600060405180830381600087803b15156117a257600080fd5b6102c65a03f115156117b357600080fd5b5050508273ffffffffffffffffffffffffffffffffffffffff1663c4d66de8856040518263ffffffff167c0100000000000000000000000000000000000000000000000000000000028152600401808273ffffffffffffffffffffffffffffffffffffffff1673ffffffffffffffffffffffffffffffffffffffff168152602001915050600060405180830381600087803b151561185057600080fd5b6102c65a03f1151561186157600080fd5b505050600181600060038110151561187557fe5b602002019061ffff16908161ffff16815250508573ffffffffffffffffffffffffffffffffffffffff1663be03847830858673ffffffffffffffffffffffffffffffffffffffff16635e1f3fa86000604051602001526040518163ffffffff167c0100000000000000000000000000000000000000000000000000000000028152600401602060405180830381600087803b151561191257600080fd5b6102c65a03f1151561192357600080fd5b50505060405180519050306040518563ffffffff167c0100000000000000000000000000000000000000000000000000000000028152600401808573ffffffffffffffffffffffffffffffffffffffff1673ffffffffffffffffffffffffffffffffffffffff1681526020018473ffffffffffffffffffffffffffffffffffffffff1673ffffffffffffffffffffffffffffffffffffffff16815260200183600019166000191681526020018273ffffffffffffffffffffffffffffffffffffffff1673ffffffffffffffffffffffffffffffffffffffff168152602001945050505050600060405180830381600087803b1515611a2057600080fd5b6102c65a03f11515611a3157600080fd5b5050508273ffffffffffffffffffffffffffffffffffffffff166332ab6af06040805190810160405280600c81526020017f61706d2d726567697374727900000000000000000000000000000000000000008152508c84600160009054906101000a900473ffffffffffffffffffffffffffffffffffffffff16611ae96040805190810160405280600881526020017f697066733a61706d000000000000000000000000000000000000000000000000815250612678565b6000604051602001526040518663ffffffff167c010000000000000000000000000000000000000000000000000000000002815260040180806020018673ffffffffffffffffffffffffffffffffffffffff1673ffffffffffffffffffffffffffffffffffffffff16815260200185600360200280838360005b83811015611b7e578082015181840152602081019050611b63565b505050509050018473ffffffffffffffffffffffffffffffffffffffff1673ffffffffffffffffffffffffffffffffffffffff16815260200180602001838103835288818151815260200191508051906020019080838360005b83811015611bf3578082015181840152602081019050611bd8565b50505050905090810190601f168015611c205780820380516001836020036101000a031916815260200191505b50838103825284818151815260200191508051906020019080838360005b83811015611c59578082015181840152602081019050611c3e565b50505050905090810190601f168015611c865780820380516001836020036101000a031916815260200191505b50975050505050505050602060405180830381600087803b1515611ca957600080fd5b6102c65a03f11515611cba57600080fd5b50505060405180519050508273ffffffffffffffffffffffffffffffffffffffff166332ab6af06040805190810160405280600a81526020017f61706d2d656e73737562000000000000000000000000000000000000000000008152508c84600360009054906101000a900473ffffffffffffffffffffffffffffffffffffffff16611d7a6040805190810160405280600b81526020017f697066733a656e73737562000000000000000000000000000000000000000000815250612678565b6000604051602001526040518663ffffffff167c010000000000000000000000000000000000000000000000000000000002815260040180806020018673ffffffffffffffffffffffffffffffffffffffff1673ffffffffffffffffffffffffffffffffffffffff16815260200185600360200280838360005b83811015611e0f578082015181840152602081019050611df4565b505050509050018473ffffffffffffffffffffffffffffffffffffffff1673ffffffffffffffffffffffffffffffffffffffff16815260200180602001838103835288818151815260200191508051906020019080838360005b83811015611e84578082015181840152602081019050611e69565b50505050905090810190601f168015611eb15780820380516001836020036101000a031916815260200191505b50838103825284818151815260200191508051906020019080838360005b83811015611eea578082015181840152602081019050611ecf565b50505050905090810190601f168015611f175780820380516001836020036101000a031916815260200191505b50975050505050505050602060405180830381600087803b1515611f3a57600080fd5b6102c65a03f11515611f4b57600080fd5b50505060405180519050508273ffffffffffffffffffffffffffffffffffffffff166332ab6af06040805190810160405280600881526020017f61706d2d7265706f0000000000000000000000000000000000000000000000008152508c84600260009054906101000a900473ffffffffffffffffffffffffffffffffffffffff1661200b6040805190810160405280600981526020017f697066733a7265706f0000000000000000000000000000000000000000000000815250612678565b6000604051602001526040518663ffffffff167c010000000000000000000000000000000000000000000000000000000002815260040180806020018673ffffffffffffffffffffffffffffffffffffffff1673ffffffffffffffffffffffffffffffffffffffff16815260200185600360200280838360005b838110156120a0578082015181840152602081019050612085565b505050509050018473ffffffffffffffffffffffffffffffffffffffff1673ffffffffffffffffffffffffffffffffffffffff16815260200180602001838103835288818151815260200191508051906020019080838360005b838110156121155780820151818401526020810190506120fa565b50505050905090810190601f1680156121425780820380516001836020036101000a031916815260200191505b50838103825284818151815260200191508051906020019080838360005b8381101561217b578082015181840152602081019050612160565b50505050905090810190601f1680156121a85780820380516001836020036101000a031916815260200191505b50975050505050505050602060405180830381600087803b15156121cb57600080fd5b6102c65a03f115156121dc57600080fd5b50505060405180519050506121f286848c612688565b8573ffffffffffffffffffffffffffffffffffffffff1663afd925df8b898a73ffffffffffffffffffffffffffffffffffffffff16638ea8dc9d6000604051602001526040518163ffffffff167c0100000000000000000000000000000000000000000000000000000000028152600401602060405180830381600087803b151561227c57600080fd5b6102c65a03f1151561228d57600080fd5b505050604051805190506040518463ffffffff167c0100000000000000000000000000000000000000000000000000000000028152600401808473ffffffffffffffffffffffffffffffffffffffff1673ffffffffffffffffffffffffffffffffffffffff1681526020018373ffffffffffffffffffffffffffffffffffffffff1673ffffffffffffffffffffffffffffffffffffffff16815260200182600019166000191681526020019350505050600060405180830381600087803b151561235657600080fd5b6102c65a03f1151561236757600080fd5b5050508573ffffffffffffffffffffffffffffffffffffffff16639d0effdb3088856040518463ffffffff167c0100000000000000000000000000000000000000000000000000000000028152600401808473ffffffffffffffffffffffffffffffffffffffff1673ffffffffffffffffffffffffffffffffffffffff1681526020018373ffffffffffffffffffffffffffffffffffffffff1673ffffffffffffffffffffffffffffffffffffffff16815260200182600019166000191681526020019350505050600060405180830381600087803b151561244857600080fd5b6102c65a03f1151561245957600080fd5b5050508573ffffffffffffffffffffffffffffffffffffffff16630a8ed3db8b88856040518463ffffffff167c0100000000000000000000000000000000000000000000000000000000028152600401808473ffffffffffffffffffffffffffffffffffffffff1673ffffffffffffffffffffffffffffffffffffffff1681526020018373ffffffffffffffffffffffffffffffffffffffff1673ffffffffffffffffffffffffffffffffffffffff16815260200182600019166000191681526020019350505050600060405180830381600087803b151561253a57600080fd5b6102c65a03f1151561254b57600080fd5b5050508573ffffffffffffffffffffffffffffffffffffffff1663afd925df8b88856040518463ffffffff167c0100000000000000000000000000000000000000000000000000000000028152600401808473ffffffffffffffffffffffffffffffffffffffff1673ffffffffffffffffffffffffffffffffffffffff1681526020018373ffffffffffffffffffffffffffffffffffffffff1673ffffffffffffffffffffffffffffffffffffffff16815260200182600019166000191681526020019350505050600060405180830381600087803b151561262c57600080fd5b6102c65a03f1151561263d57600080fd5b50505082985050505050505050509392505050565b600260009054906101000a900473ffffffffffffffffffffffffffffffffffffffff1681565b6126806129a9565b819050919050565b8273ffffffffffffffffffffffffffffffffffffffff16630a8ed3db82848573ffffffffffffffffffffffffffffffffffffffff16635e1f3fa86000604051602001526040518163ffffffff167c0100000000000000000000000000000000000000000000000000000000028152600401602060405180830381600087803b151561271257600080fd5b6102c65a03f1151561272357600080fd5b505050604051805190506040518463ffffffff167c0100000000000000000000000000000000000000000000000000000000028152600401808473ffffffffffffffffffffffffffffffffffffffff1673ffffffffffffffffffffffffffffffffffffffff1681526020018373ffffffffffffffffffffffffffffffffffffffff1673ffffffffffffffffffffffffffffffffffffffff16815260200182600019166000191681526020019350505050600060405180830381600087803b15156127ec57600080fd5b6102c65a03f115156127fd57600080fd5b5050508273ffffffffffffffffffffffffffffffffffffffff1663afd925df82848573ffffffffffffffffffffffffffffffffffffffff16635e1f3fa86000604051602001526040518163ffffffff167c0100000000000000000000000000000000000000000000000000000000028152600401602060405180830381600087803b151561288a57600080fd5b6102c65a03f1151561289b57600080fd5b505050604051805190506040518463ffffffff167c0100000000000000000000000000000000000000000000000000000000028152600401808473ffffffffffffffffffffffffffffffffffffffff1673ffffffffffffffffffffffffffffffffffffffff1681526020018373ffffffffffffffffffffffffffffffffffffffff1673ffffffffffffffffffffffffffffffffffffffff16815260200182600019166000191681526020019350505050600060405180830381600087803b151561296457600080fd5b6102c65a03f1151561297557600080fd5b505050505050565b6060604051908101604052806003905b600061ffff1681526020019060019003908161298d5790505090565b6020604051908101604052806000815250905600a165627a7a723058201a780cb0a57007271bcb4d994425e0ef3910cebcac788b8cdc4c0244dccf48400029",
  "source": "pragma solidity 0.4.18;\n\n\nimport \"../apm/APMRegistry.sol\";\nimport \"../ens/ENSSubdomainRegistrar.sol\";\n\nimport \"./DAOFactory.sol\";\nimport \"./ENSFactory.sol\";\nimport \"./AppProxyFactory.sol\";\n\n\ncontract APMRegistryFactory is APMRegistryConstants {\n    DAOFactory public daoFactory;\n    APMRegistry public registryBase;\n    Repo public repoBase;\n    ENSSubdomainRegistrar public ensSubdomainRegistrarBase;\n    ENS public ens;\n\n    event DeployAPM(bytes32 indexed node, address apm);\n\n    // Needs either one ENS or ENSFactory\n    function APMRegistryFactory(\n        DAOFactory _daoFactory,\n        APMRegistry _registryBase,\n        Repo _repoBase,\n        ENSSubdomainRegistrar _ensSubBase,\n        ENS _ens,\n        ENSFactory _ensFactory\n    ) public // DAO initialized without evmscript run support\n    {\n        daoFactory = _daoFactory;\n        registryBase = _registryBase;\n        repoBase = _repoBase;\n        ensSubdomainRegistrarBase = _ensSubBase;\n\n        // Either the ENS address provided is used, if any.\n        // Or we use the ENSFactory to generate a test instance of ENS\n        // If not the ENS address nor factory address are provided, this will revert\n        ens = _ens != address(0) ? _ens : _ensFactory.newENS(this);\n    }\n\n    function newAPM(bytes32 _tld, bytes32 _label, address _root) public returns (APMRegistry) {\n        bytes32 node = keccak256(_tld, _label);\n\n        // Assume it is the test ENS\n        if (ens.owner(node) != address(this)) {\n            // If we weren't in test ens and factory doesn't have ownership, will fail\n            ens.setSubnodeOwner(_tld, _label, this);\n        }\n\n        Kernel dao = daoFactory.newDAO(this);\n        ACL acl = ACL(dao.acl());\n\n        acl.createPermission(this, dao, dao.APP_MANAGER_ROLE(), this);\n\n        bytes32 namespace = dao.APP_BASES_NAMESPACE();\n\n        // Deploy app proxies\n        ENSSubdomainRegistrar ensSub = ENSSubdomainRegistrar(dao.newAppInstance(keccak256(node, keccak256(ENS_SUB_APP_NAME)), ensSubdomainRegistrarBase));\n        APMRegistry apm = APMRegistry(dao.newAppInstance(keccak256(node, keccak256(APM_APP_NAME)), registryBase));\n\n        // APMRegistry controls Repos\n        dao.setApp(namespace, keccak256(node, keccak256(REPO_APP_NAME)), repoBase);\n\n        DeployAPM(node, apm);\n\n        // Grant permissions needed for APM on ENSSubdomainRegistrar\n        acl.createPermission(apm, ensSub, ensSub.CREATE_NAME_ROLE(), _root);\n        acl.createPermission(apm, ensSub, ensSub.POINT_ROOTNODE_ROLE(), _root);\n\n        // allow apm to create permissions for Repos in Kernel\n        bytes32 permRole = acl.CREATE_PERMISSIONS_ROLE();\n\n        acl.grantPermission(apm, acl, permRole);\n\n        // Initialize\n        ens.setOwner(node, ensSub);\n        ensSub.initialize(ens, node);\n        apm.initialize(ensSub);\n\n        uint16[3] memory firstVersion;\n        firstVersion[0] = 1;\n\n        acl.createPermission(this, apm, apm.CREATE_REPO_ROLE(), this);\n\n        apm.newRepoWithVersion(APM_APP_NAME, _root, firstVersion, registryBase, b(\"ipfs:apm\"));\n        apm.newRepoWithVersion(ENS_SUB_APP_NAME, _root, firstVersion, ensSubdomainRegistrarBase, b(\"ipfs:enssub\"));\n        apm.newRepoWithVersion(REPO_APP_NAME, _root, firstVersion, repoBase, b(\"ipfs:repo\"));\n\n        configureAPMPermissions(acl, apm, _root);\n\n        // Permission transition to _root\n        acl.setPermissionManager(_root, dao, dao.APP_MANAGER_ROLE());\n        acl.revokePermission(this, acl, permRole);\n        acl.grantPermission(_root, acl, permRole);\n        acl.setPermissionManager(_root, acl, permRole);\n\n        return apm;\n    }\n\n    function b(string memory x) internal pure returns (bytes memory y) {\n        y = bytes(x);\n    }\n\n    // Factory can be subclassed and permissions changed\n    function configureAPMPermissions(ACL _acl, APMRegistry _apm, address _root) internal {\n        _acl.grantPermission(_root, _apm, _apm.CREATE_REPO_ROLE());\n        _acl.setPermissionManager(_root, _apm, _apm.CREATE_REPO_ROLE());\n    }\n}\n",
  "sourcePath": "@aragon/os/contracts/factory/APMRegistryFactory.sol",
  "compiler": {
    "name": "solc",
    "version": "0.4.18+commit.9cf6e910.Emscripten.clang"
  },
  "schemaVersion": "1.0.1",
  "updatedAt": "2018-02-26T13:03:29.234Z"
}