{
  "contractName": "AragonApp",
  "abi": [
    {
      "constant": true,
      "inputs": [],
      "name": "EVMSCRIPT_REGISTRY_APP_ID",
      "outputs": [
        {
          "name": "",
          "type": "bytes32"
        }
      ],
      "payable": false,
      "stateMutability": "view",
      "type": "function"
    },
    {
      "constant": true,
      "inputs": [],
      "name": "appId",
      "outputs": [
        {
          "name": "",
          "type": "bytes32"
        }
      ],
      "payable": false,
      "stateMutability": "view",
      "type": "function"
    },
    {
      "constant": true,
      "inputs": [],
      "name": "getInitializationBlock",
      "outputs": [
        {
          "name": "",
          "type": "uint256"
        }
      ],
      "payable": false,
      "stateMutability": "view",
      "type": "function"
    },
    {
      "constant": true,
      "inputs": [],
      "name": "EVMSCRIPT_REGISTRY_APP",
      "outputs": [
        {
          "name": "",
          "type": "bytes32"
        }
      ],
      "payable": false,
      "stateMutability": "view",
      "type": "function"
    },
    {
      "constant": true,
      "inputs": [
        {
          "name": "_sender",
          "type": "address"
        },
        {
          "name": "_role",
          "type": "bytes32"
        },
        {
          "name": "params",
          "type": "uint256[]"
        }
      ],
      "name": "canPerform",
      "outputs": [
        {
          "name": "",
          "type": "bool"
        }
      ],
      "payable": false,
      "stateMutability": "view",
      "type": "function"
    },
    {
      "constant": true,
      "inputs": [],
      "name": "kernel",
      "outputs": [
        {
          "name": "",
          "type": "address"
        }
      ],
      "payable": false,
      "stateMutability": "view",
      "type": "function"
    },
    {
      "constant": true,
      "inputs": [
        {
          "name": "_script",
          "type": "bytes"
        }
      ],
      "name": "getExecutor",
      "outputs": [
        {
          "name": "",
          "type": "address"
        }
      ],
      "payable": false,
      "stateMutability": "view",
      "type": "function"
    }
  ],
  "bytecode": "0x6060604052341561000f57600080fd5b6108828061001e6000396000f300606060405260043610610083576000357c0100000000000000000000000000000000000000000000000000000000900463ffffffff16806360b1e0571461008857806380afdea8146100b95780638b3dd749146100ea5780639b3fdf4c14610113578063a1658fad14610144578063d4aae0c4146101e2578063f92a79ff14610237575b600080fd5b341561009357600080fd5b61009b6102d4565b60405180826000191660001916815260200191505060405180910390f35b34156100c457600080fd5b6100cc61030d565b60405180826000191660001916815260200191505060405180910390f35b34156100f557600080fd5b6100fd610313565b6040518082815260200191505060405180910390f35b341561011e57600080fd5b61012661031d565b60405180826000191660001916815260200191505060405180910390f35b341561014f57600080fd5b6101c8600480803573ffffffffffffffffffffffffffffffffffffffff1690602001909190803560001916906020019091908035906020019082018035906020019080806020026020016040519081016040528093929190818152602001838360200280828437820191505050505050919050506103b8565b604051808215151515815260200191505060405180910390f35b34156101ed57600080fd5b6101f56105b8565b604051808273ffffffffffffffffffffffffffffffffffffffff1673ffffffffffffffffffffffffffffffffffffffff16815260200191505060405180910390f35b341561024257600080fd5b610292600480803590602001908201803590602001908080601f016020809104026020016040519081016040528093929190818152602001838380828437820191505050505050919050506105dd565b604051808273ffffffffffffffffffffffffffffffffffffffff1673ffffffffffffffffffffffffffffffffffffffff16815260200191505060405180910390f35b60405180807f65766d7265672e617261676f6e706d2e657468000000000000000000000000008152506013019050604051809103902081565b60015481565b6000600354905090565b60405180807f61707000000000000000000000000000000000000000000000000000000000008152506003019050604051809103902060405180807f65766d7265672e617261676f6e706d2e6574680000000000000000000000000081525060130190506040518091039020604051808360001916600019168152602001826000191660001916815260200192505050604051809103902081565b60006103c2610842565b600080845111156103db57602084510290508391508082525b60008060009054906101000a900473ffffffffffffffffffffffffffffffffffffffff1673ffffffffffffffffffffffffffffffffffffffff1614806105ad57506000809054906101000a900473ffffffffffffffffffffffffffffffffffffffff1673ffffffffffffffffffffffffffffffffffffffff1663fdef9106873088866000604051602001526040518563ffffffff167c0100000000000000000000000000000000000000000000000000000000028152600401808573ffffffffffffffffffffffffffffffffffffffff1673ffffffffffffffffffffffffffffffffffffffff1681526020018473ffffffffffffffffffffffffffffffffffffffff1673ffffffffffffffffffffffffffffffffffffffff168152602001836000191660001916815260200180602001828103825283818151815260200191508051906020019080838360005b83811015610543578082015181840152602081019050610528565b50505050905090810190601f1680156105705780820380516001836020036101000a031916815260200191505b5095505050505050602060405180830381600087803b151561059157600080fd5b6102c65a03f115156105a257600080fd5b505050604051805190505b925050509392505050565b6000809054906101000a900473ffffffffffffffffffffffffffffffffffffffff1681565b60006105e76106e4565b73ffffffffffffffffffffffffffffffffffffffff166304bf2a7f836000604051602001526040518263ffffffff167c01000000000000000000000000000000000000000000000000000000000281526004018080602001828103825283818151815260200191508051906020019080838360005b8381101561067757808201518184015260208101905061065c565b50505050905090810190601f1680156106a45780820380516001836020036101000a031916815260200191505b5092505050602060405180830381600087803b15156106c257600080fd5b6102c65a03f115156106d357600080fd5b505050604051805190509050919050565b6000806000809054906101000a900473ffffffffffffffffffffffffffffffffffffffff1673ffffffffffffffffffffffffffffffffffffffff166342c71f1d60405180807f61707000000000000000000000000000000000000000000000000000000000008152506003019050604051809103902060405180807f65766d7265672e617261676f6e706d2e657468000000000000000000000000008152506013019050604051809103902060405180836000191660001916815260200182600019166000191681526020019250505060405180910390206000604051602001526040518263ffffffff167c0100000000000000000000000000000000000000000000000000000000028152600401808260001916600019168152602001915050602060405180830381600087803b151561081e57600080fd5b6102c65a03f1151561082f57600080fd5b5050506040518051905090508091505090565b6020604051908101604052806000815250905600a165627a7a72305820059f2de876ea220522f7272b2d952f6c2394786eab6b4fee81d15d3dd2eacefc0029",
  "source": "pragma solidity ^0.4.18;\n\nimport \"./AppStorage.sol\";\nimport \"../common/Initializable.sol\";\nimport \"../evmscript/EVMScriptRunner.sol\";\nimport \"../acl/ACLSyntaxSugar.sol\";\n\n\ncontract AragonApp is AppStorage, Initializable, ACLSyntaxSugar, EVMScriptRunner {\n    modifier auth(bytes32 _role) {\n        require(canPerform(msg.sender, _role, new uint256[](0)));\n        _;\n    }\n\n    modifier authP(bytes32 _role, uint256[] params) {\n        require(canPerform(msg.sender, _role, params));\n        _;\n    }\n\n    function canPerform(address _sender, bytes32 _role, uint256[] params) public view returns (bool) {\n        bytes memory how; // no need to init memory as it is never used\n        if (params.length > 0) {\n            uint256 byteLength = params.length * 32;\n            assembly {\n                how := params // forced casting\n                mstore(how, byteLength)\n            }\n        }\n        return address(kernel) == 0 || kernel.hasPermission(_sender, address(this), _role, how);\n    }\n}\n",
  "sourcePath": "@aragon/os/contracts/apps/AragonApp.sol",
  "compiler": {
    "name": "solc",
    "version": "0.4.18+commit.9cf6e910.Emscripten.clang"
  },
  "schemaVersion": "1.0.1",
  "updatedAt": "2018-02-26T13:03:29.229Z"
}