{
  "contractName": "CallsScript",
  "abi": [
    {
      "constant": false,
      "inputs": [
        {
          "name": "_script",
          "type": "bytes"
        },
        {
          "name": "_input",
          "type": "bytes"
        },
        {
          "name": "_blacklist",
          "type": "address[]"
        }
      ],
      "name": "execScript",
      "outputs": [
        {
          "name": "",
          "type": "bytes"
        }
      ],
      "payable": false,
      "stateMutability": "nonpayable",
      "type": "function"
    },
    {
      "anonymous": false,
      "inputs": [
        {
          "indexed": true,
          "name": "sender",
          "type": "address"
        },
        {
          "indexed": true,
          "name": "src",
          "type": "address"
        },
        {
          "indexed": true,
          "name": "dst",
          "type": "address"
        }
      ],
      "name": "LogScriptCall",
      "type": "event"
    }
  ],
  "bytecode": "0x6060604052341561000f57600080fd5b6104508061001e6000396000f300606060405260043610610041576000357c0100000000000000000000000000000000000000000000000000000000900463ffffffff168063279cea3514610046575b600080fd5b341561005157600080fd5b61009a6004808035906020019082018035906020019190919290803590602001908201803590602001919091929080359060200190820180359060200191909192905050610115565b6040518080602001828103825283818151815260200191508051906020019080838360005b838110156100da5780820151818401526020810190506100bf565b50505050905090810190601f1680156101075780820380516001836020036101000a031916815260200191505b509250505060405180910390f35b61011d610410565b6000806000806000600494505b8b8b905085101561033c5761017a858d8d8080601f01602080910402602001604051908101604052809392919081815260200183838082843782019150505050505061034b90919063ffffffff16565b9350600092505b878790508310156101fe57878784818110151561019a57fe5b9050602002013573ffffffffffffffffffffffffffffffffffffffff1673ffffffffffffffffffffffffffffffffffffffff168473ffffffffffffffffffffffffffffffffffffffff16141515156101f157600080fd5b8280600101935050610181565b8373ffffffffffffffffffffffffffffffffffffffff163073ffffffffffffffffffffffffffffffffffffffff163373ffffffffffffffffffffffffffffffffffffffff167f9dcff9d94fbfdb4622d11edb383005f95e78efb446c72d92f8e615c6025c470360405160405180910390a46102b7601486018d8d8080601f01602080910402602001604051908101604052809392919081815260200183838082843782019150505050505061039590919063ffffffff16565b63ffffffff16915061030a600460148701018d8d8080601f0160208091040260200160405190810160405280939291908181526020018383808284378201915050505050506103ef90919063ffffffff16565b905060008083836000886113885a03f180600081146103285761032d565b600080fd5b5050816018018501945061012a565b50505050509695505050505050565b60008061035884846103ff565b90506c010000000000000000000000007fffffffffffffffffffffffffffffffffffffffff00000000000000000000000082160491505092915050565b6000806103a284846103ff565b90507c01000000000000000000000000000000000000000000000000000000007fffffffff0000000000000000000000000000000000000000000000000000000082160491505092915050565b6000816020018301905092915050565b600081602001830151905092915050565b6020604051908101604052806000815250905600a165627a7a72305820d5ecd9ccd01f8fd5ebfdef9d29e760b8c7db500a215d9cac3e52d00cc7bb8c160029",
  "source": "pragma solidity ^0.4.18;\n\n// Inspired by https://github.com/reverendus/tx-manager\n\nimport \"../ScriptHelpers.sol\";\nimport \"../IEVMScriptExecutor.sol\";\n\n\ncontract CallsScript is IEVMScriptExecutor {\n    using ScriptHelpers for bytes;\n\n    uint256 constant internal SCRIPT_START_LOCATION = 4;\n\n    event LogScriptCall(address indexed sender, address indexed src, address indexed dst);\n\n    /**\n    * @notice Executes a number of call scripts\n    * @param _script [ specId (uint32) ] many calls with this structure ->\n    *    [ to (address: 20 bytes) ] [ calldataLength (uint32: 4 bytes) ] [ calldata (calldataLength bytes) ]\n    * @param _input Input is ignored in callscript\n    * @param _blacklist Addresses the script cannot call to, or will revert.\n    * @return always returns empty byte array\n    */\n    function execScript(bytes _script, bytes _input, address[] _blacklist) external returns (bytes) {\n        uint256 location = SCRIPT_START_LOCATION; // first 32 bits are spec id\n        while (location < _script.length) {\n            address contractAddress = _script.addressAt(location);\n            // Check address being called is not blacklist\n            for (uint i = 0; i < _blacklist.length; i++) {\n                require(contractAddress != _blacklist[i]);\n            }\n\n            // logged before execution to ensure event ordering in receipt\n            // if failed entire execution is reverted regardless\n            LogScriptCall(msg.sender, address(this), contractAddress);\n\n            uint256 calldataLength = uint256(_script.uint32At(location + 0x14));\n            uint256 calldataStart = _script.locationOf(location + 0x14 + 0x04);\n\n            assembly {\n                let success := call(sub(gas, 5000), contractAddress, 0, calldataStart, calldataLength, 0, 0)\n                switch success case 0 { revert(0, 0) }\n            }\n\n            location += (0x14 + 0x04 + calldataLength);\n        }\n    }\n}",
  "sourcePath": "@aragon/os/contracts/evmscript/executors/CallsScript.sol",
  "compiler": {
    "name": "solc",
    "version": "0.4.18+commit.9cf6e910.Emscripten.clang"
  },
  "schemaVersion": "1.0.1",
  "updatedAt": "2018-02-26T13:03:29.233Z"
}