{
  "contractName": "DelegateScript",
  "abi": [
    {
      "constant": false,
      "inputs": [
        {
          "name": "_script",
          "type": "bytes"
        },
        {
          "name": "_input",
          "type": "bytes"
        },
        {
          "name": "_blacklist",
          "type": "address[]"
        }
      ],
      "name": "execScript",
      "outputs": [
        {
          "name": "",
          "type": "bytes"
        }
      ],
      "payable": false,
      "stateMutability": "nonpayable",
      "type": "function"
    }
  ],
  "bytecode": "0x6060604052341561000f57600080fd5b6105a28061001e6000396000f300606060405260043610610041576000357c0100000000000000000000000000000000000000000000000000000000900463ffffffff168063279cea3514610046575b600080fd5b341561005157600080fd5b61009a6004808035906020019082018035906020019190919290803590602001908201803590602001919091929080359060200190820180359060200191909192905050610115565b6040518080602001828103825283818151815260200191508051906020019080838360005b838110156100da5780820151818401526020810190506100bf565b50505050905090810190601f1680156101075780820380516001836020036101000a031916815260200191505b509250505060405180910390f35b61011d610562565b60008383905014151561012f57600080fd5b60146004018787905014151561014457600080fd5b6101c561018d600489898080601f0160208091040260200160405190810160405280939291908181526020018383808284378201915050505050506101d190919063ffffffff16565b86868080601f01602080910402602001604051908101604052809392919081815260200183838082843782019150505050505061021b565b90509695505050505050565b6000806101de84846102f2565b90506c010000000000000000000000007fffffffffffffffffffffffffffffffffffffffff00000000000000000000000082160491505092915050565b610223610562565b61022c83610303565b151561023757600080fd5b8273ffffffffffffffffffffffffffffffffffffffff1660008351116102645761025f610316565b610266565b825b60405180828051906020019080838360005b83811015610293578082015181840152602081019050610278565b50505050905090810190601f1680156102c05780820380516001836020036101000a031916815260200191505b509150506000604051808303818561646e5a03f491505015156102e257600080fd5b6102ea610388565b905092915050565b600081602001830151905092915050565b600080823b905060008111915050919050565b61031e610562565b610383600073ffffffffffffffffffffffffffffffffffffffff1663c1c0e9c490507c0100000000000000000000000000000000000000000000000000000000027bffffffffffffffffffffffffffffffffffffffffffffffffffffffff19166103b1565b905090565b610390610562565b3d6040519150602081018201604052808252806000602084013e5080905090565b6103b9610562565b6103c1610562565b60046040518059106103d05750595b9080825280601f01601f19166020018201604052509050828160008151811015156103f757fe5b9060200101907effffffffffffffffffffffffffffffffffffffffffffffffffffffffffffff1916908160001a9053506008837bffffffffffffffffffffffffffffffffffffffffffffffffffffffff19169060020a0281600181518110151561045d57fe5b9060200101907effffffffffffffffffffffffffffffffffffffffffffffffffffffffffffff1916908160001a9053506010837bffffffffffffffffffffffffffffffffffffffffffffffffffffffff19169060020a028160028151811015156104c357fe5b9060200101907effffffffffffffffffffffffffffffffffffffffffffffffffffffffffffff1916908160001a9053506018837bffffffffffffffffffffffffffffffffffffffffffffffffffffffff19169060020a0281600381518110151561052957fe5b9060200101907effffffffffffffffffffffffffffffffffffffffffffffffffffffffffffff1916908160001a90535080915050919050565b6020604051908101604052806000815250905600a165627a7a723058203efcc7eae6186e34007fbcedc8179d925e755a99e9580e41849751888aeadefd0029",
  "source": "pragma solidity 0.4.18;\n\nimport \"../ScriptHelpers.sol\";\nimport \"../IEVMScriptExecutor.sol\";\n\n\ninterface DelegateScriptTarget {\n    function exec() public;\n}\n\n\ncontract DelegateScript is IEVMScriptExecutor {\n    using ScriptHelpers for *;\n\n    uint256 constant internal SCRIPT_START_LOCATION = 4;\n\n    /**\n    * @notice Executes script by delegatecall into a contract\n    * @param _script [ specId (uint32) ][ contract address (20 bytes) ]\n    * @param _input ABI encoded call to be made to contract (if empty executes default exec() function)\n    * @param _blacklist If any address is passed, will revert.\n    * @return Call return data\n    */\n    function execScript(bytes _script, bytes _input, address[] _blacklist) external returns (bytes) {\n        require(_blacklist.length == 0); // dont have ability to control bans, so fail.\n\n        // Script should be spec id + address (20 bytes)\n        require(_script.length == SCRIPT_START_LOCATION + 20);\n        return delegate(_script.addressAt(SCRIPT_START_LOCATION), _input);\n    }\n\n    /**\n    * @dev Delegatecall to contract with input data\n    */\n    function delegate(address _addr, bytes memory _input) internal returns (bytes memory output) {\n        require(isContract(_addr));\n        require(_addr.delegatecall(_input.length > 0 ? _input : defaultInput()));\n        return returnedData();\n    }\n\n    function isContract(address _target) internal view returns (bool) {\n        uint256 size;\n        assembly { size := extcodesize(_target) }\n        return size > 0;\n    }\n\n    function defaultInput() internal pure returns (bytes) {\n        return DelegateScriptTarget(0).exec.selector.toBytes();\n    }\n\n    /**\n    * @dev copies and returns last's call data\n    */\n    function returnedData() internal view returns (bytes ret) {\n        assembly {\n            let size := returndatasize\n            ret := mload(0x40) // free mem ptr get\n            mstore(0x40, add(ret, add(size, 0x20))) // free mem ptr set\n            mstore(ret, size) // set array length\n            returndatacopy(add(ret, 0x20), 0, size) // copy return data\n        }\n        return ret;\n    }\n}",
  "sourcePath": "@aragon/os/contracts/evmscript/executors/DelegateScript.sol",
  "compiler": {
    "name": "solc",
    "version": "0.4.18+commit.9cf6e910.Emscripten.clang"
  },
  "schemaVersion": "1.0.1",
  "updatedAt": "2018-02-26T13:03:29.233Z"
}