{
  "contractName": "ScriptHelpers",
  "abi": [
    {
      "constant": true,
      "inputs": [
        {
          "name": "_dest",
          "type": "uint256"
        },
        {
          "name": "_src",
          "type": "uint256"
        },
        {
          "name": "_len",
          "type": "uint256"
        }
      ],
      "name": "memcpy",
      "outputs": [],
      "payable": false,
      "stateMutability": "pure",
      "type": "function"
    },
    {
      "constant": true,
      "inputs": [
        {
          "name": "_a",
          "type": "bytes"
        },
        {
          "name": "_b",
          "type": "bytes"
        },
        {
          "name": "_c",
          "type": "address[]"
        }
      ],
      "name": "abiEncode",
      "outputs": [
        {
          "name": "d",
          "type": "bytes"
        }
      ],
      "payable": false,
      "stateMutability": "pure",
      "type": "function"
    }
  ],
  "bytecode": "0x6060604052341561000f57600080fd5b6103c38061001e6000396000f30060606040526004361061004c576000357c0100000000000000000000000000000000000000000000000000000000900463ffffffff16806311fe773d14610051578063137d70261461007b575b600080fd5b61007960048080359060200190919080359060200190919080359060200190919050506101c9565b005b61014e600480803590602001908201803590602001908080601f0160208091040260200160405190810160405280939291908181526020018383808284378201915050505050509190803590602001908201803590602001908080601f0160208091040260200160405190810160405280939291908181526020018383808284378201915050505050509190803590602001908201803590602001908080602002602001604051908101604052809392919081815260200183836020028082843782019150505050505091905050610224565b6040518080602001828103825283818151815260200191508051906020019080838360005b8381101561018e578082015181840152602081019050610173565b50505050905090810190601f1680156101bb5780820380516001836020036101000a031916815260200191505b509250505060405180910390f35b6000806000808593508692508491505b6020821015156101fe57835183526020830192506020840193506020820391506101d9565b6001826020036101000a0390508019845116818451168181178552505050505050505050565b61022c610383565b610237848484610240565b90509392505050565b610248610383565b6000806000806060935061025b88610306565b6020028401925061026b87610306565b6020028301915061027b86610342565b60200282019050806040518059106102905750595b9080825280601f01601f191660200182016040525094508360208601528260408601528160608601526102ce856102c68a610350565b868b5161035a565b6102e3856102db89610350565b858a5161035a565b6102fb856102f088610379565b8460208a510261035a565b505050509392505050565b6000806020835181151561031657fe5b0611610323576000610326565b60015b60ff166020835181151561033657fe5b04600101019050919050565b600081516001019050919050565b6000819050919050565b600082602086010190506103728185602085016101c9565b5050505050565b6000819050919050565b6020604051908101604052806000815250905600a165627a7a72305820f5d5d3841d63f85f35ff713977d99a8cf601b0696f47df2aad5bc046fe2cd7180029",
  "source": "pragma solidity 0.4.18;\n\n\nlibrary ScriptHelpers {\n    // To test with JS and compare with actual encoder. Maintaining for reference.\n    // t = function() { return IEVMScriptExecutor.at('0x4bcdd59d6c77774ee7317fc1095f69ec84421e49').contract.execScript.getData(...[].slice.call(arguments)).slice(10).match(/.{1,64}/g) }\n    // run = function() { return ScriptHelpers.new().then(sh => { sh.abiEncode.call(...[].slice.call(arguments)).then(a => console.log(a.slice(2).match(/.{1,64}/g)) ) }) }\n    // This is truly not beautiful but lets no daydream to the day solidity gets reflection features\n\n    function abiEncode(bytes _a, bytes _b, address[] _c) public pure returns (bytes d) {\n        return encode(_a, _b, _c);\n    }\n\n    function encode(bytes memory _a, bytes memory _b, address[] memory _c) internal pure returns (bytes memory d) {\n        // A is positioned after the 3 position words\n        uint256 aPosition = 0x60;\n        uint256 bPosition = aPosition + 32 * abiLength(_a);\n        uint256 cPosition = bPosition + 32 * abiLength(_b);\n        uint256 length = cPosition + 32 * abiLength(_c);\n\n        d = new bytes(length);\n        assembly {\n            // Store positions\n            mstore(add(d, 0x20), aPosition)\n            mstore(add(d, 0x40), bPosition)\n            mstore(add(d, 0x60), cPosition)\n        }\n\n        // Copy memory to correct position\n        copy(d, getPtr(_a), aPosition, _a.length);\n        copy(d, getPtr(_b), bPosition, _b.length);\n        copy(d, getPtr(_c), cPosition, _c.length * 32); // 1 word per address\n    }\n\n    function abiLength(bytes memory _a) internal pure returns (uint256) {\n        // 1 for length +\n        // memory words + 1 if not divisible for 32 to offset word\n        return 1 + (_a.length / 32) + (_a.length % 32 > 0 ? 1 : 0);\n    }\n\n    function abiLength(address[] _a) internal pure returns (uint256) {\n        // 1 for length + 1 per item\n        return 1 + _a.length;\n    }\n\n    function copy(bytes _d, uint256 _src, uint256 _pos, uint256 _length) internal pure {\n        uint dest;\n        assembly {\n            dest := add(add(_d, 0x20), _pos)\n        }\n        memcpy(dest, _src, _length + 32);\n    }\n\n    function getPtr(bytes memory _x) internal pure returns (uint256 ptr) {\n        assembly {\n            ptr := _x\n        }\n    }\n\n    function getPtr(address[] memory _x) internal pure returns (uint256 ptr) {\n        assembly {\n            ptr := _x\n        }\n    }\n\n    function getSpecId(bytes _script) internal pure returns (uint32) {\n        return uint32At(_script, 0);\n    }\n\n    function uint256At(bytes _data, uint256 _location) internal pure returns (uint256 result) {\n        assembly {\n            result := mload(add(_data, add(0x20, _location)))\n        }\n    }\n\n    function addressAt(bytes _data, uint256 _location) internal pure returns (address result) {\n        uint256 word = uint256At(_data, _location);\n\n        assembly {\n            result := div(and(word, 0xffffffffffffffffffffffffffffffffffffffff000000000000000000000000),\n            0x1000000000000000000000000)\n        }\n    }\n\n    function uint32At(bytes _data, uint256 _location) internal pure returns (uint32 result) {\n        uint256 word = uint256At(_data, _location);\n\n        assembly {\n            result := div(and(word, 0xffffffff00000000000000000000000000000000000000000000000000000000),\n            0x100000000000000000000000000000000000000000000000000000000)\n        }\n    }\n\n    function locationOf(bytes _data, uint256 _location) internal pure returns (uint256 result) {\n        assembly {\n            result := add(_data, add(0x20, _location))\n        }\n    }\n\n    function toBytes(bytes4 _sig) internal pure returns (bytes) {\n        bytes memory payload = new bytes(4);\n        payload[0] = bytes1(_sig);\n        payload[1] = bytes1(_sig << 8);\n        payload[2] = bytes1(_sig << 16);\n        payload[3] = bytes1(_sig << 24);\n        return payload;\n    }\n\n    function memcpy(uint _dest, uint _src, uint _len) public pure {\n        uint256 src = _src;\n        uint256 dest = _dest;\n        uint256 len = _len;\n\n        // Copy word-length chunks while possible\n        for (; len >= 32; len -= 32) {\n            assembly {\n                mstore(dest, mload(src))\n            }\n            dest += 32;\n            src += 32;\n        }\n\n        // Copy remaining bytes\n        uint mask = 256 ** (32 - len) - 1;\n        assembly {\n            let srcpart := and(mload(src), not(mask))\n            let destpart := and(mload(dest), mask)\n            mstore(dest, or(destpart, srcpart))\n        }\n    }\n}",
  "sourcePath": "@aragon/os/contracts/evmscript/ScriptHelpers.sol",
  "compiler": {
    "name": "solc",
    "version": "0.4.18+commit.9cf6e910.Emscripten.clang"
  },
  "schemaVersion": "1.0.1",
  "updatedAt": "2018-02-26T13:03:29.232Z"
}