{
  "contractName": "Vault",
  "abi": [
    {
      "constant": false,
      "inputs": [
        {
          "name": "_token",
          "type": "address"
        },
        {
          "name": "_amount",
          "type": "uint256"
        }
      ],
      "name": "requestAllowance",
      "outputs": [],
      "payable": false,
      "stateMutability": "nonpayable",
      "type": "function"
    },
    {
      "constant": true,
      "inputs": [],
      "name": "TRANSFER_ROLE",
      "outputs": [
        {
          "name": "",
          "type": "bytes32"
        }
      ],
      "payable": false,
      "stateMutability": "view",
      "type": "function"
    },
    {
      "constant": false,
      "inputs": [
        {
          "name": "_tokens",
          "type": "address[]"
        },
        {
          "name": "_amounts",
          "type": "uint256[]"
        }
      ],
      "name": "requestAllowances",
      "outputs": [],
      "payable": false,
      "stateMutability": "nonpayable",
      "type": "function"
    },
    {
      "constant": true,
      "inputs": [],
      "name": "EVMSCRIPT_REGISTRY_APP_ID",
      "outputs": [
        {
          "name": "",
          "type": "bytes32"
        }
      ],
      "payable": false,
      "stateMutability": "view",
      "type": "function"
    },
    {
      "constant": true,
      "inputs": [],
      "name": "appId",
      "outputs": [
        {
          "name": "",
          "type": "bytes32"
        }
      ],
      "payable": false,
      "stateMutability": "view",
      "type": "function"
    },
    {
      "constant": true,
      "inputs": [],
      "name": "getInitializationBlock",
      "outputs": [
        {
          "name": "",
          "type": "uint256"
        }
      ],
      "payable": false,
      "stateMutability": "view",
      "type": "function"
    },
    {
      "constant": true,
      "inputs": [],
      "name": "EVMSCRIPT_REGISTRY_APP",
      "outputs": [
        {
          "name": "",
          "type": "bytes32"
        }
      ],
      "payable": false,
      "stateMutability": "view",
      "type": "function"
    },
    {
      "constant": true,
      "inputs": [],
      "name": "REQUEST_ALLOWANCES_ROLE",
      "outputs": [
        {
          "name": "",
          "type": "bytes32"
        }
      ],
      "payable": false,
      "stateMutability": "view",
      "type": "function"
    },
    {
      "constant": true,
      "inputs": [
        {
          "name": "_sender",
          "type": "address"
        },
        {
          "name": "_role",
          "type": "bytes32"
        },
        {
          "name": "params",
          "type": "uint256[]"
        }
      ],
      "name": "canPerform",
      "outputs": [
        {
          "name": "",
          "type": "bool"
        }
      ],
      "payable": false,
      "stateMutability": "view",
      "type": "function"
    },
    {
      "constant": false,
      "inputs": [
        {
          "name": "_token",
          "type": "address"
        },
        {
          "name": "_receiver",
          "type": "address"
        },
        {
          "name": "_amount",
          "type": "uint256"
        }
      ],
      "name": "transferTokens",
      "outputs": [],
      "payable": false,
      "stateMutability": "nonpayable",
      "type": "function"
    },
    {
      "constant": true,
      "inputs": [],
      "name": "kernel",
      "outputs": [
        {
          "name": "",
          "type": "address"
        }
      ],
      "payable": false,
      "stateMutability": "view",
      "type": "function"
    },
    {
      "constant": true,
      "inputs": [
        {
          "name": "_script",
          "type": "bytes"
        }
      ],
      "name": "getExecutor",
      "outputs": [
        {
          "name": "",
          "type": "address"
        }
      ],
      "payable": false,
      "stateMutability": "view",
      "type": "function"
    },
    {
      "anonymous": false,
      "inputs": [
        {
          "indexed": true,
          "name": "token",
          "type": "address"
        },
        {
          "indexed": true,
          "name": "spender",
          "type": "address"
        },
        {
          "indexed": false,
          "name": "amount",
          "type": "uint256"
        }
      ],
      "name": "SetAllowance",
      "type": "event"
    },
    {
      "anonymous": false,
      "inputs": [
        {
          "indexed": true,
          "name": "token",
          "type": "address"
        },
        {
          "indexed": true,
          "name": "receiver",
          "type": "address"
        },
        {
          "indexed": false,
          "name": "amount",
          "type": "uint256"
        }
      ],
      "name": "TokenTransfer",
      "type": "event"
    }
  ],
  "bytecode": "0x6060604052341561000f57600080fd5b6111dc8061001e6000396000f3006060604052600436106100ba576000357c0100000000000000000000000000000000000000000000000000000000900463ffffffff1680631a10be1d146100bf578063206b60f91461010157806344a1cf2f1461013257806360b1e0571461017457806380afdea8146101a55780638b3dd749146101d65780639b3fdf4c146101ff578063a07fde5b14610230578063a1658fad14610261578063a64b6e5f146102ff578063d4aae0c414610360578063f92a79ff146103b5575b600080fd5b34156100ca57600080fd5b6100ff600480803573ffffffffffffffffffffffffffffffffffffffff16906020019091908035906020019091905050610452565b005b341561010c57600080fd5b6101146107ba565b60405180826000191660001916815260200191505060405180910390f35b341561013d57600080fd5b6101726004808035906020019082018035906020019190919290803590602001908201803590602001919091929050506107f3565b005b341561017f57600080fd5b6101876108e1565b60405180826000191660001916815260200191505060405180910390f35b34156101b057600080fd5b6101b861091a565b60405180826000191660001916815260200191505060405180910390f35b34156101e157600080fd5b6101e9610920565b6040518082815260200191505060405180910390f35b341561020a57600080fd5b61021261092a565b60405180826000191660001916815260200191505060405180910390f35b341561023b57600080fd5b6102436109c5565b60405180826000191660001916815260200191505060405180910390f35b341561026c57600080fd5b6102e5600480803573ffffffffffffffffffffffffffffffffffffffff1690602001909190803560001916906020019091908035906020019082018035906020019080806020026020016040519081016040528093929190818152602001838360200280828437820191505050505050919050506109fe565b604051808215151515815260200191505060405180910390f35b341561030a57600080fd5b61035e600480803573ffffffffffffffffffffffffffffffffffffffff1690602001909190803573ffffffffffffffffffffffffffffffffffffffff16906020019091908035906020019091905050610bfe565b005b341561036b57600080fd5b610373610d8f565b604051808273ffffffffffffffffffffffffffffffffffffffff1673ffffffffffffffffffffffffffffffffffffffff16815260200191505060405180910390f35b34156103c057600080fd5b610410600480803590602001908201803590602001908080601f01602080910402602001604051908101604052809392919081815260200183838082843782019150505050505091905050610db4565b604051808273ffffffffffffffffffffffffffffffffffffffff1673ffffffffffffffffffffffffffffffffffffffff16815260200191505060405180910390f35b600060405180807f524551554553545f414c4c4f57414e4345535f524f4c45000000000000000000815250601701905060405180910390206104948484610ebb565b61049f3383836109fe565b15156104aa57600080fd5b33925060008573ffffffffffffffffffffffffffffffffffffffff1663dd62ed3e30866000604051602001526040518363ffffffff167c0100000000000000000000000000000000000000000000000000000000028152600401808373ffffffffffffffffffffffffffffffffffffffff1673ffffffffffffffffffffffffffffffffffffffff1681526020018273ffffffffffffffffffffffffffffffffffffffff1673ffffffffffffffffffffffffffffffffffffffff16815260200192505050602060405180830381600087803b151561058657600080fd5b6102c65a03f1151561059757600080fd5b505050604051805190501115610676578473ffffffffffffffffffffffffffffffffffffffff1663095ea7b384600080604051602001526040518363ffffffff167c0100000000000000000000000000000000000000000000000000000000028152600401808373ffffffffffffffffffffffffffffffffffffffff1673ffffffffffffffffffffffffffffffffffffffff16815260200182815260200192505050602060405180830381600087803b151561065257600080fd5b6102c65a03f1151561066357600080fd5b50505060405180519050151561067557fe5b5b600084111561074e578473ffffffffffffffffffffffffffffffffffffffff1663095ea7b384866000604051602001526040518363ffffffff167c0100000000000000000000000000000000000000000000000000000000028152600401808373ffffffffffffffffffffffffffffffffffffffff1673ffffffffffffffffffffffffffffffffffffffff16815260200182815260200192505050602060405180830381600087803b151561072a57600080fd5b6102c65a03f1151561073b57600080fd5b50505060405180519050151561074d57fe5b5b8273ffffffffffffffffffffffffffffffffffffffff168573ffffffffffffffffffffffffffffffffffffffff167f3c07380f6fcae3bac39771c60e5c680334073911f2176b65f1d6925ba0badcdf866040518082815260200191505060405180910390a35050505050565b60405180807f5452414e534645525f524f4c4500000000000000000000000000000000000000815250600d019050604051809103902081565b600060405180807f524551554553545f414c4c4f57414e4345535f524f4c45000000000000000000815250601701905060405180910390206108553382600060405180591061083f5750595b90808252806020026020018201604052506109fe565b151561086057600080fd5b838390508686905014151561087457600080fd5b600091505b858590508210156108d9576108cc868684818110151561089557fe5b9050602002013573ffffffffffffffffffffffffffffffffffffffff1685858581811015156108c057fe5b90506020020135610452565b8180600101925050610879565b505050505050565b60405180807f65766d7265672e617261676f6e706d2e657468000000000000000000000000008152506013019050604051809103902081565b60015481565b6000600354905090565b60405180807f61707000000000000000000000000000000000000000000000000000000000008152506003019050604051809103902060405180807f65766d7265672e617261676f6e706d2e6574680000000000000000000000000081525060130190506040518091039020604051808360001916600019168152602001826000191660001916815260200192505050604051809103902081565b60405180807f524551554553545f414c4c4f57414e4345535f524f4c450000000000000000008152506017019050604051809103902081565b6000610a08611188565b60008084511115610a2157602084510290508391508082525b60008060009054906101000a900473ffffffffffffffffffffffffffffffffffffffff1673ffffffffffffffffffffffffffffffffffffffff161480610bf357506000809054906101000a900473ffffffffffffffffffffffffffffffffffffffff1673ffffffffffffffffffffffffffffffffffffffff1663fdef9106873088866000604051602001526040518563ffffffff167c0100000000000000000000000000000000000000000000000000000000028152600401808573ffffffffffffffffffffffffffffffffffffffff1673ffffffffffffffffffffffffffffffffffffffff1681526020018473ffffffffffffffffffffffffffffffffffffffff1673ffffffffffffffffffffffffffffffffffffffff168152602001836000191660001916815260200180602001828103825283818151815260200191508051906020019080838360005b83811015610b89578082015181840152602081019050610b6e565b50505050905090810190601f168015610bb65780820380516001836020036101000a031916815260200191505b5095505050505050602060405180830381600087803b1515610bd757600080fd5b6102c65a03f11515610be857600080fd5b505050604051805190505b925050509392505050565b60405180807f5452414e534645525f524f4c4500000000000000000000000000000000000000815250600d0190506040518091039020610c3f848484610eeb565b610c4a3383836109fe565b1515610c5557600080fd5b8473ffffffffffffffffffffffffffffffffffffffff1663a9059cbb85856000604051602001526040518363ffffffff167c0100000000000000000000000000000000000000000000000000000000028152600401808373ffffffffffffffffffffffffffffffffffffffff1673ffffffffffffffffffffffffffffffffffffffff16815260200182815260200192505050602060405180830381600087803b1515610d0057600080fd5b6102c65a03f11515610d1157600080fd5b505050604051805190501515610d2357fe5b8373ffffffffffffffffffffffffffffffffffffffff168573ffffffffffffffffffffffffffffffffffffffff167fd0ed88a3f042c6bbb1e3ea406079b5f2b4b198afccaa535d837f4c63abbc4de6856040518082815260200191505060405180910390a35050505050565b6000809054906101000a900473ffffffffffffffffffffffffffffffffffffffff1681565b6000610dbe610f33565b73ffffffffffffffffffffffffffffffffffffffff166304bf2a7f836000604051602001526040518263ffffffff167c01000000000000000000000000000000000000000000000000000000000281526004018080602001828103825283818151815260200191508051906020019080838360005b83811015610e4e578082015181840152602081019050610e33565b50505050905090810190601f168015610e7b5780820380516001836020036101000a031916815260200191505b5092505050602060405180830381600087803b1515610e9957600080fd5b6102c65a03f11515610eaa57600080fd5b505050604051805190509050919050565b610ec361119c565b610ee38373ffffffffffffffffffffffffffffffffffffffff1683611091565b905092915050565b610ef361119c565b610f2a8473ffffffffffffffffffffffffffffffffffffffff168473ffffffffffffffffffffffffffffffffffffffff16846110fd565b90509392505050565b6000806000809054906101000a900473ffffffffffffffffffffffffffffffffffffffff1673ffffffffffffffffffffffffffffffffffffffff166342c71f1d60405180807f61707000000000000000000000000000000000000000000000000000000000008152506003019050604051809103902060405180807f65766d7265672e617261676f6e706d2e657468000000000000000000000000008152506013019050604051809103902060405180836000191660001916815260200182600019166000191681526020019250505060405180910390206000604051602001526040518263ffffffff167c0100000000000000000000000000000000000000000000000000000000028152600401808260001916600019168152602001915050602060405180830381600087803b151561106d57600080fd5b6102c65a03f1151561107e57600080fd5b5050506040518051905090508091505090565b61109961119c565b60026040518059106110a85750595b90808252806020026020018201604052509050828160008151811015156110cb57fe5b9060200190602002018181525050818160018151811015156110e957fe5b906020019060200201818152505092915050565b61110561119c565b60036040518059106111145750595b908082528060200260200182016040525090508381600081518110151561113757fe5b90602001906020020181815250508281600181518110151561115557fe5b90602001906020020181815250508181600281518110151561117357fe5b90602001906020020181815250509392505050565b602060405190810160405280600081525090565b6020604051908101604052806000815250905600a165627a7a7230582038bac4e397220f298dba731a4377dda96500f82df9da4c7539b4d11b94b31edc0029",
  "source": "pragma solidity 0.4.18;\n\nimport \"@aragon/os/contracts/apps/AragonApp.sol\";\n\nimport \"@aragon/os/contracts/lib/zeppelin/token/ERC20.sol\";\nimport \"@aragon/os/contracts/lib/misc/Migrations.sol\";\n\n\ncontract Vault is AragonApp {\n    event SetAllowance(address indexed token, address indexed spender, uint256 amount);\n    event TokenTransfer(address indexed token, address indexed receiver, uint256 amount);\n\n    bytes32 constant public REQUEST_ALLOWANCES_ROLE = keccak256(\"REQUEST_ALLOWANCES_ROLE\");\n    bytes32 constant public TRANSFER_ROLE = keccak256(\"TRANSFER_ROLE\");\n\n    /**\n    * @notice Request for `_spender` to spend up to `_amounts` in `_tokens`\n    * @dev This action creates an ERC20 and will allow the spender to transferFrom the Vault address until the allowance is completely spent or it is overiden\n    * @param _tokens Array of token addresses\n    * @param _amounts Array of token amounts\n    */\n    function requestAllowances(ERC20[] _tokens, uint256[] _amounts) auth(REQUEST_ALLOWANCES_ROLE) external {\n        require(_tokens.length == _amounts.length);\n\n        for (uint i = 0; i < _tokens.length; i++) {\n            requestAllowance(_tokens[i], _amounts[i]);\n        }\n    }\n\n    function requestAllowance(ERC20 _token, uint256 _amount) authP(REQUEST_ALLOWANCES_ROLE, arr(address(_token), _amount)) public {\n        address spender = msg.sender;\n\n        // Some token implementations will throw when changing an allowance from non-zero to non-zero\n        // https://github.com/ethereum/EIPs/issues/20#issuecomment-263524729\n        if (_token.allowance(address(this), spender) > 0)\n            assert(_token.approve(spender, 0));\n\n        if (_amount > 0)\n            assert(_token.approve(spender, _amount));\n\n        SetAllowance(_token, spender, _amount);\n    }\n\n    /**\n    * @notice Transfer `_amount` `_token` from the Vault to `_receiver`\n    * @dev This function should be used as little as possible, in favor of using allowances\n    * @param _token Address of the token being transferred\n    * @param _receiver Address of the recipient of tokens\n    * @param _amount Amount of tokens being transferred\n    */\n    function transferTokens(ERC20 _token, address _receiver, uint256 _amount) authP(TRANSFER_ROLE, arr(address(_token), _receiver, _amount)) external {\n        assert(_token.transfer(_receiver, _amount));\n        TokenTransfer(_token, _receiver, _amount);\n    }\n}\n",
  "sourcePath": "@aragon/apps-vault/contracts/Vault.sol",
  "compiler": {
    "name": "solc",
    "version": "0.4.18+commit.9cf6e910.Emscripten.clang"
  },
  "schemaVersion": "1.0.1",
  "updatedAt": "2018-02-26T13:03:29.215Z"
}