{
  "contractName": "DeployDelegateScript",
  "abi": [
    {
      "constant": false,
      "inputs": [
        {
          "name": "_script",
          "type": "bytes"
        },
        {
          "name": "_input",
          "type": "bytes"
        },
        {
          "name": "_blacklist",
          "type": "address[]"
        }
      ],
      "name": "execScript",
      "outputs": [
        {
          "name": "",
          "type": "bytes"
        }
      ],
      "payable": false,
      "stateMutability": "nonpayable",
      "type": "function"
    }
  ],
  "bytecode": "0x6060604052341561000f57600080fd5b6106458061001e6000396000f300606060405260043610610041576000357c0100000000000000000000000000000000000000000000000000000000900463ffffffff168063279cea3514610046575b600080fd5b341561005157600080fd5b61009a6004808035906020019082018035906020019190919290803590602001908201803590602001919091929080359060200190820180359060200191909192905050610115565b6040518080602001828103825283818151815260200191508051906020019080838360005b838110156100da5780820151818401526020810190506100bf565b50505050905090810190601f1680156101075780820380516001836020036101000a031916815260200191505b509250505060405180910390f35b61011d610605565b60008060008585905014151561013257600080fd5b88886040518083838082843782019150509250505060405180910390209150600080836000191660001916815260200190815260200160002060009054906101000a900473ffffffffffffffffffffffffffffffffffffffff169050600073ffffffffffffffffffffffffffffffffffffffff168173ffffffffffffffffffffffffffffffffffffffff16141561025a576101fe89898080601f0160208091040260200160405190810160405280939291908181526020018383808284378201915050505050506102a4565b905080600080846000191660001916815260200190815260200160002060006101000a81548173ffffffffffffffffffffffffffffffffffffffff021916908373ffffffffffffffffffffffffffffffffffffffff1602179055505b6102968188888080601f0160208091040260200160405190810160405280939291908181526020018383808284378201915050505050506102cf565b925050509695505050505050565b60006004825103602483016000f09050803b15600181146102c4576102c9565b600080fd5b50919050565b6102d7610605565b6102e0836103a6565b15156102eb57600080fd5b8273ffffffffffffffffffffffffffffffffffffffff166000835111610318576103136103b9565b61031a565b825b60405180828051906020019080838360005b8381101561034757808201518184015260208101905061032c565b50505050905090810190601f1680156103745780820380516001836020036101000a031916815260200191505b509150506000604051808303818561646e5a03f4915050151561039657600080fd5b61039e61042b565b905092915050565b600080823b905060008111915050919050565b6103c1610605565b610426600073ffffffffffffffffffffffffffffffffffffffff1663c1c0e9c490507c0100000000000000000000000000000000000000000000000000000000027bffffffffffffffffffffffffffffffffffffffffffffffffffffffff1916610454565b905090565b610433610605565b3d6040519150602081018201604052808252806000602084013e5080905090565b61045c610605565b610464610605565b60046040518059106104735750595b9080825280601f01601f191660200182016040525090508281600081518110151561049a57fe5b9060200101907effffffffffffffffffffffffffffffffffffffffffffffffffffffffffffff1916908160001a9053506008837bffffffffffffffffffffffffffffffffffffffffffffffffffffffff19169060020a0281600181518110151561050057fe5b9060200101907effffffffffffffffffffffffffffffffffffffffffffffffffffffffffffff1916908160001a9053506010837bffffffffffffffffffffffffffffffffffffffffffffffffffffffff19169060020a0281600281518110151561056657fe5b9060200101907effffffffffffffffffffffffffffffffffffffffffffffffffffffffffffff1916908160001a9053506018837bffffffffffffffffffffffffffffffffffffffffffffffffffffffff19169060020a028160038151811015156105cc57fe5b9060200101907effffffffffffffffffffffffffffffffffffffffffffffffffffffffffffff1916908160001a90535080915050919050565b6020604051908101604052806000815250905600a165627a7a723058209f0adb1a26ba248f3124cb5a1169e1bba113d933e95932e16456c8de6151b9630029",
  "source": "pragma solidity 0.4.18;\n\nimport \"./DelegateScript.sol\";\n\n// Inspired by: https://github.com/dapphub/ds-proxy/blob/master/src/proxy.sol\n\n\ncontract DeployDelegateScript is DelegateScript {\n    uint256 constant internal SCRIPT_START_LOCATION = 4;\n\n    mapping (bytes32 => address) cache;\n\n    /**\n    * @notice Executes script by delegatecall into a deployed contract (exec() function)\n    * @param _script [ specId (uint32) ][ contractInitcode (bytecode) ]\n    * @param _input ABI encoded call to be made to contract (if empty executes default exec() function)\n    * @param _blacklist If any address is passed, will revert.\n    * @return Call return data\n    */\n    function execScript(bytes _script, bytes _input, address[] _blacklist) external returns (bytes) {\n        require(_blacklist.length == 0); // dont have ability to control bans, so fail.\n\n        bytes32 id = keccak256(_script);\n        address deployed = cache[id];\n        if (deployed == address(0)) {\n            deployed = deploy(_script);\n            cache[id] = deployed;\n        }\n\n        return DelegateScript.delegate(deployed, _input);\n    }\n\n    /**\n    * @dev Deploys contract byte code to network\n    */\n    function deploy(bytes _script) internal returns (address addr) {\n        assembly {\n            // 0x24 = 0x20 (length) + 0x04 (spec id uint32)\n            // Length of code is 4 bytes less than total script size\n            addr := create(0, add(_script, 0x24), sub(mload(_script), 0x04))\n            switch iszero(extcodesize(addr))\n            case 1 { revert(0, 0) } // throw if contract failed to deploy\n        }\n    }\n}",
  "sourcePath": "@aragon/os/contracts/evmscript/executors/DeployDelegateScript.sol",
  "compiler": {
    "name": "solc",
    "version": "0.4.18+commit.9cf6e910.Emscripten.clang"
  },
  "schemaVersion": "1.0.1",
  "updatedAt": "2018-02-26T13:03:29.096Z"
}