{
  "contractName": "DevTemplate",
  "abi": [
    {
      "constant": true,
      "inputs": [],
      "name": "vaultAppId",
      "outputs": [
        {
          "name": "",
          "type": "bytes32"
        }
      ],
      "payable": false,
      "stateMutability": "view",
      "type": "function"
    },
    {
      "constant": false,
      "inputs": [],
      "name": "createInstance",
      "outputs": [],
      "payable": false,
      "stateMutability": "nonpayable",
      "type": "function"
    },
    {
      "constant": true,
      "inputs": [],
      "name": "votingAppId",
      "outputs": [
        {
          "name": "",
          "type": "bytes32"
        }
      ],
      "payable": false,
      "stateMutability": "view",
      "type": "function"
    },
    {
      "constant": false,
      "inputs": [
        {
          "name": "votingBase",
          "type": "address"
        },
        {
          "name": "votingContentURI",
          "type": "bytes"
        },
        {
          "name": "vaultBase",
          "type": "address"
        },
        {
          "name": "vaultContentURI",
          "type": "bytes"
        }
      ],
      "name": "apmInit",
      "outputs": [],
      "payable": false,
      "stateMutability": "nonpayable",
      "type": "function"
    },
    {
      "inputs": [
        {
          "name": "_fac",
          "type": "address"
        },
        {
          "name": "_minimeFac",
          "type": "address"
        },
        {
          "name": "_apm",
          "type": "address"
        }
      ],
      "payable": false,
      "stateMutability": "nonpayable",
      "type": "constructor"
    },
    {
      "anonymous": false,
      "inputs": [
        {
          "indexed": false,
          "name": "dao",
          "type": "address"
        }
      ],
      "name": "DeployInstance",
      "type": "event"
    },
    {
      "anonymous": false,
      "inputs": [
        {
          "indexed": false,
          "name": "appProxy",
          "type": "address"
        },
        {
          "indexed": false,
          "name": "appId",
          "type": "bytes32"
        }
      ],
      "name": "InstalledApp",
      "type": "event"
    }
  ],
  "bytecode": "0x6060604052341561000f57600080fd5b604051606080611b3983398101604052808051906020019091908051906020019091908051906020019091905050806000806101000a81548173ffffffffffffffffffffffffffffffffffffffff021916908373ffffffffffffffffffffffffffffffffffffffff16021790555082600160006101000a81548173ffffffffffffffffffffffffffffffffffffffff021916908373ffffffffffffffffffffffffffffffffffffffff16021790555081600260006101000a81548173ffffffffffffffffffffffffffffffffffffffff021916908373ffffffffffffffffffffffffffffffffffffffff160217905550505050611a28806101116000396000f300606060405260043610610062576000357c0100000000000000000000000000000000000000000000000000000000900463ffffffff168063370fea3414610067578063ad50146714610098578063c08921f7146100ad578063fe6e8ae5146100de575b600080fd5b341561007257600080fd5b61007a6101bc565b60405180826000191660001916815260200191505060405180910390f35b34156100a357600080fd5b6100ab610353565b005b34156100b857600080fd5b6100c0611228565b60405180826000191660001916815260200191505060405180910390f35b34156100e957600080fd5b6101ba600480803573ffffffffffffffffffffffffffffffffffffffff1690602001909190803590602001908201803590602001908080601f0160208091040260200160405190810160405280939291908181526020018383808284378201915050505050509190803573ffffffffffffffffffffffffffffffffffffffff1690602001909190803590602001908201803590602001908080601f016020809104026020016040519081016040528093929190818152602001838380828437820191505050505050919050506113bf565b005b60008060009054906101000a900473ffffffffffffffffffffffffffffffffffffffff1673ffffffffffffffffffffffffffffffffffffffff16632b20e3976000604051602001526040518163ffffffff167c0100000000000000000000000000000000000000000000000000000000028152600401602060405180830381600087803b151561024b57600080fd5b6102c65a03f1151561025c57600080fd5b5050506040518051905073ffffffffffffffffffffffffffffffffffffffff1663faff50a86000604051602001526040518163ffffffff167c0100000000000000000000000000000000000000000000000000000000028152600401602060405180830381600087803b15156102d157600080fd5b6102c65a03f115156102e257600080fd5b5050506040518051905060405180807f7661756c74000000000000000000000000000000000000000000000000000000815250600501905060405180910390206040518083600019166000191681526020018260001916600019168152602001925050506040518091039020905090565b600080600080600080600160009054906101000a900473ffffffffffffffffffffffffffffffffffffffff1673ffffffffffffffffffffffffffffffffffffffff1663216874447fffffffffffffffffffffffffffffffffffffffffffffffffffffffffffffffff6000604051602001526040518263ffffffff167c0100000000000000000000000000000000000000000000000000000000028152600401808273ffffffffffffffffffffffffffffffffffffffff1673ffffffffffffffffffffffffffffffffffffffff168152602001915050602060405180830381600087803b151561044157600080fd5b6102c65a03f1151561045257600080fd5b5050506040518051905095508573ffffffffffffffffffffffffffffffffffffffff1663de2873596000604051602001526040518163ffffffff167c0100000000000000000000000000000000000000000000000000000000028152600401602060405180830381600087803b15156104ca57600080fd5b6102c65a03f115156104db57600080fd5b5050506040518051905094508473ffffffffffffffffffffffffffffffffffffffff1663be0384787fffffffffffffffffffffffffffffffffffffffffffffffffffffffffffffffff888973ffffffffffffffffffffffffffffffffffffffff16638ea8dc9d6000604051602001526040518163ffffffff167c0100000000000000000000000000000000000000000000000000000000028152600401602060405180830381600087803b151561059157600080fd5b6102c65a03f115156105a257600080fd5b50505060405180519050336040518563ffffffff167c0100000000000000000000000000000000000000000000000000000000028152600401808573ffffffffffffffffffffffffffffffffffffffff1673ffffffffffffffffffffffffffffffffffffffff1681526020018473ffffffffffffffffffffffffffffffffffffffff1673ffffffffffffffffffffffffffffffffffffffff16815260200183600019166000191681526020018273ffffffffffffffffffffffffffffffffffffffff1673ffffffffffffffffffffffffffffffffffffffff168152602001945050505050600060405180830381600087803b151561069f57600080fd5b6102c65a03f115156106b057600080fd5b5050508573ffffffffffffffffffffffffffffffffffffffff166380cd5ac36106d7611228565b6106e76106e2611228565b611445565b6000604051602001526040518363ffffffff167c01000000000000000000000000000000000000000000000000000000000281526004018083600019166000191681526020018273ffffffffffffffffffffffffffffffffffffffff1673ffffffffffffffffffffffffffffffffffffffff16815260200192505050602060405180830381600087803b151561077c57600080fd5b6102c65a03f1151561078d57600080fd5b5050506040518051905093508573ffffffffffffffffffffffffffffffffffffffff166380cd5ac36107bd6101bc565b6107cd6107c86101bc565b611445565b6000604051602001526040518363ffffffff167c01000000000000000000000000000000000000000000000000000000000281526004018083600019166000191681526020018273ffffffffffffffffffffffffffffffffffffffff1673ffffffffffffffffffffffffffffffffffffffff16815260200192505050602060405180830381600087803b151561086257600080fd5b6102c65a03f1151561087357600080fd5b505050604051805190509250600260009054906101000a900473ffffffffffffffffffffffffffffffffffffffff1673ffffffffffffffffffffffffffffffffffffffff16635b7b72c1600080601260016000604051602001526040518563ffffffff167c0100000000000000000000000000000000000000000000000000000000028152600401808573ffffffffffffffffffffffffffffffffffffffff1673ffffffffffffffffffffffffffffffffffffffff168152602001848152602001806020018460ff1681526020018060200184151515158152602001838103835260088152602001807f446576546f6b656e000000000000000000000000000000000000000000000000815250602001838103825260038152602001807f58445400000000000000000000000000000000000000000000000000000000008152506020019650505050505050602060405180830381600087803b15156109d857600080fd5b6102c65a03f115156109e957600080fd5b5050506040518051905091508173ffffffffffffffffffffffffffffffffffffffff16633cebb823336040518263ffffffff167c0100000000000000000000000000000000000000000000000000000000028152600401808273ffffffffffffffffffffffffffffffffffffffff1673ffffffffffffffffffffffffffffffffffffffff168152602001915050600060405180830381600087803b1515610a8f57600080fd5b6102c65a03f11515610aa057600080fd5b505050662386f26fc1000090508373ffffffffffffffffffffffffffffffffffffffff16633ee31e70838360320284600f02610e106040518563ffffffff167c0100000000000000000000000000000000000000000000000000000000028152600401808573ffffffffffffffffffffffffffffffffffffffff1673ffffffffffffffffffffffffffffffffffffffff1681526020018481526020018381526020018267ffffffffffffffff168152602001945050505050600060405180830381600087803b1515610b7157600080fd5b6102c65a03f11515610b8257600080fd5b5050508473ffffffffffffffffffffffffffffffffffffffff1663be0384787fffffffffffffffffffffffffffffffffffffffffffffffffffffffffffffffff868773ffffffffffffffffffffffffffffffffffffffff1663be2c64d46000604051602001526040518163ffffffff167c0100000000000000000000000000000000000000000000000000000000028152600401602060405180830381600087803b1515610c2f57600080fd5b6102c65a03f11515610c4057600080fd5b50505060405180519050336040518563ffffffff167c0100000000000000000000000000000000000000000000000000000000028152600401808573ffffffffffffffffffffffffffffffffffffffff1673ffffffffffffffffffffffffffffffffffffffff1681526020018473ffffffffffffffffffffffffffffffffffffffff1673ffffffffffffffffffffffffffffffffffffffff16815260200183600019166000191681526020018273ffffffffffffffffffffffffffffffffffffffff1673ffffffffffffffffffffffffffffffffffffffff168152602001945050505050600060405180830381600087803b1515610d3d57600080fd5b6102c65a03f11515610d4e57600080fd5b5050508473ffffffffffffffffffffffffffffffffffffffff1663be0384787fffffffffffffffffffffffffffffffffffffffffffffffffffffffffffffffff868773ffffffffffffffffffffffffffffffffffffffff16633c624c756000604051602001526040518163ffffffff167c0100000000000000000000000000000000000000000000000000000000028152600401602060405180830381600087803b1515610dfb57600080fd5b6102c65a03f11515610e0c57600080fd5b50505060405180519050336040518563ffffffff167c0100000000000000000000000000000000000000000000000000000000028152600401808573ffffffffffffffffffffffffffffffffffffffff1673ffffffffffffffffffffffffffffffffffffffff1681526020018473ffffffffffffffffffffffffffffffffffffffff1673ffffffffffffffffffffffffffffffffffffffff16815260200183600019166000191681526020018273ffffffffffffffffffffffffffffffffffffffff1673ffffffffffffffffffffffffffffffffffffffff168152602001945050505050600060405180830381600087803b1515610f0957600080fd5b6102c65a03f11515610f1a57600080fd5b5050507f2b183a501d4b1bbd30e6611ebac40ab18a00390e6c6bed324bf92a265c9ce6e384610f47611228565b604051808373ffffffffffffffffffffffffffffffffffffffff1673ffffffffffffffffffffffffffffffffffffffff16815260200182600019166000191681526020019250505060405180910390a18473ffffffffffffffffffffffffffffffffffffffff1663be03847885858673ffffffffffffffffffffffffffffffffffffffff1663206b60f96000604051602001526040518163ffffffff167c0100000000000000000000000000000000000000000000000000000000028152600401602060405180830381600087803b151561102157600080fd5b6102c65a03f1151561103257600080fd5b50505060405180519050336040518563ffffffff167c0100000000000000000000000000000000000000000000000000000000028152600401808573ffffffffffffffffffffffffffffffffffffffff1673ffffffffffffffffffffffffffffffffffffffff1681526020018473ffffffffffffffffffffffffffffffffffffffff1673ffffffffffffffffffffffffffffffffffffffff16815260200183600019166000191681526020018273ffffffffffffffffffffffffffffffffffffffff1673ffffffffffffffffffffffffffffffffffffffff168152602001945050505050600060405180830381600087803b151561112f57600080fd5b6102c65a03f1151561114057600080fd5b5050507f2b183a501d4b1bbd30e6611ebac40ab18a00390e6c6bed324bf92a265c9ce6e38361116d6101bc565b604051808373ffffffffffffffffffffffffffffffffffffffff1673ffffffffffffffffffffffffffffffffffffffff16815260200182600019166000191681526020019250505060405180910390a17f8f42a14c9fe9e09f4fe8eeee69ae878731c838b6497425d4c30e1d09336cf34b86604051808273ffffffffffffffffffffffffffffffffffffffff1673ffffffffffffffffffffffffffffffffffffffff16815260200191505060405180910390a1505050505050565b60008060009054906101000a900473ffffffffffffffffffffffffffffffffffffffff1673ffffffffffffffffffffffffffffffffffffffff16632b20e3976000604051602001526040518163ffffffff167c0100000000000000000000000000000000000000000000000000000000028152600401602060405180830381600087803b15156112b757600080fd5b6102c65a03f115156112c857600080fd5b5050506040518051905073ffffffffffffffffffffffffffffffffffffffff1663faff50a86000604051602001526040518163ffffffff167c0100000000000000000000000000000000000000000000000000000000028152600401602060405180830381600087803b151561133d57600080fd5b6102c65a03f1151561134e57600080fd5b5050506040518051905060405180807f766f74696e670000000000000000000000000000000000000000000000000000815250600601905060405180910390206040518083600019166000191681526020018260001916600019168152602001925050506040518091039020905090565b6113ff6040805190810160405280600681526020017f766f74696e670000000000000000000000000000000000000000000000000000815250858561162b565b61143f6040805190810160405280600581526020017f7661756c74000000000000000000000000000000000000000000000000000000815250838361162b565b50505050565b60008061145061189b565b73ffffffffffffffffffffffffffffffffffffffff16630178b8bf846000604051602001526040518263ffffffff167c0100000000000000000000000000000000000000000000000000000000028152600401808260001916600019168152602001915050602060405180830381600087803b15156114ce57600080fd5b6102c65a03f115156114df57600080fd5b5050506040518051905073ffffffffffffffffffffffffffffffffffffffff16633b3b57de846000604051602001526040518263ffffffff167c0100000000000000000000000000000000000000000000000000000000028152600401808260001916600019168152602001915050602060405180830381600087803b151561156757600080fd5b6102c65a03f1151561157857600080fd5b5050506040518051905090508073ffffffffffffffffffffffffffffffffffffffff1663c36af460600060405160a001526040518163ffffffff167c010000000000000000000000000000000000000000000000000000000002815260040160a060405180830381600087803b15156115f057600080fd5b6102c65a03f1151561160157600080fd5b50505060405180606001805190602001805190602001604052909150508092505081915050919050565b6116336119d0565b600181600060038110151561164457fe5b602002019061ffff16908161ffff16815250506000809054906101000a900473ffffffffffffffffffffffffffffffffffffffff1673ffffffffffffffffffffffffffffffffffffffff166332ab6af0857fffffffffffffffffffffffffffffffffffffffffffffffffffffffffffffffff8487876000604051602001526040518663ffffffff167c010000000000000000000000000000000000000000000000000000000002815260040180806020018673ffffffffffffffffffffffffffffffffffffffff1673ffffffffffffffffffffffffffffffffffffffff16815260200185600360200280838360005b8381101561174e578082015181840152602081019050611733565b505050509050018473ffffffffffffffffffffffffffffffffffffffff1673ffffffffffffffffffffffffffffffffffffffff16815260200180602001838103835288818151815260200191508051906020019080838360005b838110156117c35780820151818401526020810190506117a8565b50505050905090810190601f1680156117f05780820380516001836020036101000a031916815260200191505b50838103825284818151815260200191508051906020019080838360005b8381101561182957808201518184015260208101905061180e565b50505050905090810190601f1680156118565780820380516001836020036101000a031916815260200191505b50975050505050505050602060405180830381600087803b151561187957600080fd5b6102c65a03f1151561188a57600080fd5b505050604051805190505050505050565b60008060009054906101000a900473ffffffffffffffffffffffffffffffffffffffff1673ffffffffffffffffffffffffffffffffffffffff16632b20e3976000604051602001526040518163ffffffff167c0100000000000000000000000000000000000000000000000000000000028152600401602060405180830381600087803b151561192a57600080fd5b6102c65a03f1151561193b57600080fd5b5050506040518051905073ffffffffffffffffffffffffffffffffffffffff16633f15457f6000604051602001526040518163ffffffff167c0100000000000000000000000000000000000000000000000000000000028152600401602060405180830381600087803b15156119b057600080fd5b6102c65a03f115156119c157600080fd5b50505060405180519050905090565b6060604051908101604052806003905b600061ffff168152602001906001900390816119e057905050905600a165627a7a72305820e7e7781f653974aaad2ca9f6e7af7f8a0b75049207878e754b63f27d0b0dad440029",
  "source": "pragma solidity 0.4.18;\n\nimport \"@aragon/os/contracts/apm/APMRegistry.sol\";\nimport \"@aragon/os/contracts/factory/DAOFactory.sol\";\nimport \"@aragon/os/contracts/kernel/Kernel.sol\";\nimport \"@aragon/os/contracts/acl/ACL.sol\";\nimport \"@aragon/os/contracts/lib/minime/MiniMeToken.sol\";\nimport \"@aragon/os/contracts/lib/ens/ENS.sol\";\nimport \"@aragon/os/contracts/lib/ens/PublicResolver.sol\";\n\nimport \"@aragon/apps-voting/contracts/Voting.sol\";\nimport \"@aragon/apps-vault/contracts/Vault.sol\";\n\n\ncontract DevTemplate {\n    APMRegistry apm;\n    DAOFactory fac;\n    MiniMeTokenFactory minimeFac;\n\n    address constant ANY_ENTITY = address(-1);\n\n    event DeployInstance(address dao);\n    event InstalledApp(address appProxy, bytes32 appId);\n\n    function DevTemplate(DAOFactory _fac, MiniMeTokenFactory _minimeFac, APMRegistry _apm) {\n        apm = _apm;\n        fac = _fac;\n        minimeFac = _minimeFac;\n    }\n\n    function apmInit(address votingBase, bytes votingContentURI, address vaultBase, bytes vaultContentURI) {\n        createRepo(\"voting\", votingBase, votingContentURI);\n        createRepo(\"vault\", vaultBase, vaultContentURI);\n    }\n\n    function createInstance() {\n        Kernel dao = fac.newDAO(ANY_ENTITY);\n        ACL acl = ACL(dao.acl());\n\n        acl.createPermission(ANY_ENTITY, dao, dao.APP_MANAGER_ROLE(), msg.sender);\n\n        Voting voting = Voting(dao.newAppInstance(votingAppId(), latestVersionAppBase(votingAppId())));\n        Vault vault = Vault(dao.newAppInstance(vaultAppId(), latestVersionAppBase(vaultAppId())));\n        MiniMeToken token = minimeFac.createCloneToken(address(0), 0, \"DevToken\", 18, \"XDT\", true);\n\n        token.changeController(msg.sender); // sender has to create tokens\n\n        uint256 pct = 10 ** 16;\n        // 50% support, 15% accept quorum, 1 hour vote duration\n        voting.initialize(token, 50 * pct, 15 * pct, 1 hours);\n\n        // voting app permissions\n        acl.createPermission(ANY_ENTITY, voting, voting.CREATE_VOTES_ROLE(), msg.sender);\n        acl.createPermission(ANY_ENTITY, voting, voting.MODIFY_QUORUM_ROLE(), msg.sender);\n        InstalledApp(voting, votingAppId());\n\n        acl.createPermission(voting, vault, vault.TRANSFER_ROLE(), msg.sender);\n        InstalledApp(vault, vaultAppId());\n\n        DeployInstance(dao);\n    }\n\n    function createRepo(string name, address votingBase, bytes votingContentURI) internal {\n        uint16[3] memory firstVersion;\n        firstVersion[0] = 1;\n\n        apm.newRepoWithVersion(name, ANY_ENTITY, firstVersion, votingBase, votingContentURI);\n    }\n\n    function votingAppId() public view returns (bytes32) {\n        return keccak256(apm.registrar().rootNode(), keccak256(\"voting\"));\n    }\n\n    function vaultAppId() public view returns (bytes32) {\n        return keccak256(apm.registrar().rootNode(), keccak256(\"vault\"));\n    }\n\n    function ens() internal view returns (AbstractENS) {\n        return apm.registrar().ens();\n    }\n\n    function latestVersionAppBase(bytes32 appId) internal view returns (address base) {\n        Repo repo = Repo(PublicResolver(ens().resolver(appId)).addr(appId));\n        (,base,) = repo.getLatest();\n\n        return base;\n    }\n}\n",
  "sourcePath": "/Users/jorge/provident/aragon-apps/templates/dev/contracts/DevTemplate.sol",
  "compiler": {
    "name": "solc",
    "version": "0.4.18+commit.9cf6e910.Emscripten.clang"
  },
  "schemaVersion": "1.0.1",
  "updatedAt": "2018-02-26T13:03:29.075Z"
}