{
  "contractName": "ENSSubdomainRegistrar",
  "abi": [
    {
      "constant": true,
      "inputs": [],
      "name": "POINT_ROOTNODE_ROLE",
      "outputs": [
        {
          "name": "",
          "type": "bytes32"
        }
      ],
      "payable": false,
      "stateMutability": "view",
      "type": "function"
    },
    {
      "constant": true,
      "inputs": [],
      "name": "ens",
      "outputs": [
        {
          "name": "",
          "type": "address"
        }
      ],
      "payable": false,
      "stateMutability": "view",
      "type": "function"
    },
    {
      "constant": true,
      "inputs": [],
      "name": "PUBLIC_RESOLVER_NODE",
      "outputs": [
        {
          "name": "",
          "type": "bytes32"
        }
      ],
      "payable": false,
      "stateMutability": "view",
      "type": "function"
    },
    {
      "constant": true,
      "inputs": [],
      "name": "EVMSCRIPT_REGISTRY_APP_ID",
      "outputs": [
        {
          "name": "",
          "type": "bytes32"
        }
      ],
      "payable": false,
      "stateMutability": "view",
      "type": "function"
    },
    {
      "constant": false,
      "inputs": [
        {
          "name": "_label",
          "type": "bytes32"
        },
        {
          "name": "_target",
          "type": "address"
        }
      ],
      "name": "createNameAndPoint",
      "outputs": [
        {
          "name": "node",
          "type": "bytes32"
        }
      ],
      "payable": false,
      "stateMutability": "nonpayable",
      "type": "function"
    },
    {
      "constant": false,
      "inputs": [
        {
          "name": "_label",
          "type": "bytes32"
        },
        {
          "name": "_owner",
          "type": "address"
        }
      ],
      "name": "createName",
      "outputs": [
        {
          "name": "node",
          "type": "bytes32"
        }
      ],
      "payable": false,
      "stateMutability": "nonpayable",
      "type": "function"
    },
    {
      "constant": true,
      "inputs": [],
      "name": "appId",
      "outputs": [
        {
          "name": "",
          "type": "bytes32"
        }
      ],
      "payable": false,
      "stateMutability": "view",
      "type": "function"
    },
    {
      "constant": true,
      "inputs": [],
      "name": "getInitializationBlock",
      "outputs": [
        {
          "name": "",
          "type": "uint256"
        }
      ],
      "payable": false,
      "stateMutability": "view",
      "type": "function"
    },
    {
      "constant": true,
      "inputs": [],
      "name": "ETH_TLD_LABEL",
      "outputs": [
        {
          "name": "",
          "type": "bytes32"
        }
      ],
      "payable": false,
      "stateMutability": "view",
      "type": "function"
    },
    {
      "constant": true,
      "inputs": [],
      "name": "EVMSCRIPT_REGISTRY_APP",
      "outputs": [
        {
          "name": "",
          "type": "bytes32"
        }
      ],
      "payable": false,
      "stateMutability": "view",
      "type": "function"
    },
    {
      "constant": true,
      "inputs": [
        {
          "name": "_sender",
          "type": "address"
        },
        {
          "name": "_role",
          "type": "bytes32"
        },
        {
          "name": "params",
          "type": "uint256[]"
        }
      ],
      "name": "canPerform",
      "outputs": [
        {
          "name": "",
          "type": "bool"
        }
      ],
      "payable": false,
      "stateMutability": "view",
      "type": "function"
    },
    {
      "constant": true,
      "inputs": [],
      "name": "ENS_ROOT",
      "outputs": [
        {
          "name": "",
          "type": "bytes32"
        }
      ],
      "payable": false,
      "stateMutability": "view",
      "type": "function"
    },
    {
      "constant": true,
      "inputs": [],
      "name": "DELETE_NAME_ROLE",
      "outputs": [
        {
          "name": "",
          "type": "bytes32"
        }
      ],
      "payable": false,
      "stateMutability": "view",
      "type": "function"
    },
    {
      "constant": false,
      "inputs": [
        {
          "name": "_ens",
          "type": "address"
        },
        {
          "name": "_rootNode",
          "type": "bytes32"
        }
      ],
      "name": "initialize",
      "outputs": [],
      "payable": false,
      "stateMutability": "nonpayable",
      "type": "function"
    },
    {
      "constant": true,
      "inputs": [],
      "name": "PUBLIC_RESOLVER_LABEL",
      "outputs": [
        {
          "name": "",
          "type": "bytes32"
        }
      ],
      "payable": false,
      "stateMutability": "view",
      "type": "function"
    },
    {
      "constant": true,
      "inputs": [],
      "name": "kernel",
      "outputs": [
        {
          "name": "",
          "type": "address"
        }
      ],
      "payable": false,
      "stateMutability": "view",
      "type": "function"
    },
    {
      "constant": false,
      "inputs": [
        {
          "name": "_target",
          "type": "address"
        }
      ],
      "name": "pointRootNode",
      "outputs": [],
      "payable": false,
      "stateMutability": "nonpayable",
      "type": "function"
    },
    {
      "constant": false,
      "inputs": [
        {
          "name": "_label",
          "type": "bytes32"
        }
      ],
      "name": "deleteName",
      "outputs": [],
      "payable": false,
      "stateMutability": "nonpayable",
      "type": "function"
    },
    {
      "constant": true,
      "inputs": [
        {
          "name": "_script",
          "type": "bytes"
        }
      ],
      "name": "getExecutor",
      "outputs": [
        {
          "name": "",
          "type": "address"
        }
      ],
      "payable": false,
      "stateMutability": "view",
      "type": "function"
    },
    {
      "constant": true,
      "inputs": [],
      "name": "rootNode",
      "outputs": [
        {
          "name": "",
          "type": "bytes32"
        }
      ],
      "payable": false,
      "stateMutability": "view",
      "type": "function"
    },
    {
      "constant": true,
      "inputs": [],
      "name": "ETH_TLD_NODE",
      "outputs": [
        {
          "name": "",
          "type": "bytes32"
        }
      ],
      "payable": false,
      "stateMutability": "view",
      "type": "function"
    },
    {
      "constant": true,
      "inputs": [],
      "name": "CREATE_NAME_ROLE",
      "outputs": [
        {
          "name": "",
          "type": "bytes32"
        }
      ],
      "payable": false,
      "stateMutability": "view",
      "type": "function"
    },
    {
      "anonymous": false,
      "inputs": [
        {
          "indexed": true,
          "name": "node",
          "type": "bytes32"
        },
        {
          "indexed": true,
          "name": "label",
          "type": "bytes32"
        }
      ],
      "name": "NewName",
      "type": "event"
    },
    {
      "anonymous": false,
      "inputs": [
        {
          "indexed": true,
          "name": "node",
          "type": "bytes32"
        },
        {
          "indexed": true,
          "name": "label",
          "type": "bytes32"
        }
      ],
      "name": "DeleteName",
      "type": "event"
    }
  ],
  "bytecode": "0x6060604052341561000f57600080fd5b611ba98061001e6000396000f300606060405260043610610128576000357c0100000000000000000000000000000000000000000000000000000000900463ffffffff168063307482cf1461012d5780633f15457f1461015e5780633f82e2c6146101b357806360b1e057146101e457806365b0bc85146102155780636b62cb1b1461027757806380afdea8146102d95780638b3dd7491461030a5780639b227a97146103335780639b3fdf4c14610364578063a1658fad14610395578063a9bf1c9f14610433578063bdbf7d4c14610464578063be13f47c14610495578063c84b1ce7146104db578063d4aae0c41461050c578063db60693114610561578063dc371e541461059a578063f92a79ff146105c1578063faff50a81461065e578063fdee38a91461068f578063fef47e38146106c0575b600080fd5b341561013857600080fd5b6101406106f1565b60405180826000191660001916815260200191505060405180910390f35b341561016957600080fd5b6101716106f9565b604051808273ffffffffffffffffffffffffffffffffffffffff1673ffffffffffffffffffffffffffffffffffffffff16815260200191505060405180910390f35b34156101be57600080fd5b6101c661071f565b60405180826000191660001916815260200191505060405180910390f35b34156101ef57600080fd5b6101f76107eb565b60405180826000191660001916815260200191505060405180910390f35b341561022057600080fd5b61025960048080356000191690602001909190803573ffffffffffffffffffffffffffffffffffffffff16906020019091905050610824565b60405180826000191660001916815260200191505060405180910390f35b341561028257600080fd5b6102bb60048080356000191690602001909190803573ffffffffffffffffffffffffffffffffffffffff1690602001909190505061087c565b60405180826000191660001916815260200191505060405180910390f35b34156102e457600080fd5b6102ec6108ca565b60405180826000191660001916815260200191505060405180910390f35b341561031557600080fd5b61031d6108d0565b6040518082815260200191505060405180910390f35b341561033e57600080fd5b6103466108da565b60405180826000191660001916815260200191505060405180910390f35b341561036f57600080fd5b610377610913565b60405180826000191660001916815260200191505060405180910390f35b34156103a057600080fd5b610419600480803573ffffffffffffffffffffffffffffffffffffffff1690602001909190803560001916906020019091908035906020019082018035906020019080806020026020016040519081016040528093929190818152602001838360200280828437820191505050505050919050506109ae565b604051808215151515815260200191505060405180910390f35b341561043e57600080fd5b610446610bae565b60405180826000191660001916815260200191505060405180910390f35b341561046f57600080fd5b610477610bb6565b60405180826000191660001916815260200191505060405180910390f35b34156104a057600080fd5b6104d9600480803573ffffffffffffffffffffffffffffffffffffffff1690602001909190803560001916906020019091905050610bbe565b005b34156104e657600080fd5b6104ee610cfa565b60405180826000191660001916815260200191505060405180910390f35b341561051757600080fd5b61051f610d33565b604051808273ffffffffffffffffffffffffffffffffffffffff1673ffffffffffffffffffffffffffffffffffffffff16815260200191505060405180910390f35b341561056c57600080fd5b610598600480803573ffffffffffffffffffffffffffffffffffffffff16906020019091905050610d58565b005b34156105a557600080fd5b6105bf600480803560001916906020019091905050610da2565b005b34156105cc57600080fd5b61061c600480803590602001908201803590602001908080601f01602080910402602001604051908101604052809392919081815260200183838082843782019150505050505091905050611231565b604051808273ffffffffffffffffffffffffffffffffffffffff1673ffffffffffffffffffffffffffffffffffffffff16815260200191505060405180910390f35b341561066957600080fd5b610671611338565b60405180826000191660001916815260200191505060405180910390f35b341561069a57600080fd5b6106a261133e565b60405180826000191660001916815260200191505060405180910390f35b34156106cb57600080fd5b6106d36113a8565b60405180826000191660001916815260200191505060405180910390f35b600360010281565b606460009054906101000a900473ffffffffffffffffffffffffffffffffffffffff1681565b600060010260405180807f657468000000000000000000000000000000000000000000000000000000000081525060030190506040518091039020604051808360001916600019168152602001826000191660001916815260200192505050604051809103902060405180807f7265736f6c76657200000000000000000000000000000000000000000000000081525060080190506040518091039020604051808360001916600019168152602001826000191660001916815260200192505050604051809103902081565b60405180807f65766d7265672e617261676f6e706d2e657468000000000000000000000000008152506013019050604051809103902081565b6000600180026108543382600060405180591061083e5750595b90808252806020026020018201604052506109ae565b151561085f57600080fd5b61086984306113af565b91506108758284611607565b5092915050565b6000600180026108ac338260006040518059106108965750595b90808252806020026020018201604052506109ae565b15156108b757600080fd5b6108c184846113af565b91505092915050565b60015481565b6000600354905090565b60405180807f65746800000000000000000000000000000000000000000000000000000000008152506003019050604051809103902081565b60405180807f61707000000000000000000000000000000000000000000000000000000000008152506003019050604051809103902060405180807f65766d7265672e617261676f6e706d2e6574680000000000000000000000000081525060130190506040518091039020604051808360001916600019168152602001826000191660001916815260200192505050604051809103902081565b60006109b8611b69565b600080845111156109d157602084510290508391508082525b60008060009054906101000a900473ffffffffffffffffffffffffffffffffffffffff1673ffffffffffffffffffffffffffffffffffffffff161480610ba357506000809054906101000a900473ffffffffffffffffffffffffffffffffffffffff1673ffffffffffffffffffffffffffffffffffffffff1663fdef9106873088866000604051602001526040518563ffffffff167c0100000000000000000000000000000000000000000000000000000000028152600401808573ffffffffffffffffffffffffffffffffffffffff1673ffffffffffffffffffffffffffffffffffffffff1681526020018473ffffffffffffffffffffffffffffffffffffffff1673ffffffffffffffffffffffffffffffffffffffff168152602001836000191660001916815260200180602001828103825283818151815260200191508051906020019080838360005b83811015610b39578082015181840152602081019050610b1e565b50505050905090810190601f168015610b665780820380516001836020036101000a031916815260200191505b5095505050505050602060405180830381600087803b1515610b8757600080fd5b6102c65a03f11515610b9857600080fd5b505050604051805190505b925050509392505050565b600060010281565b600260010281565b6000600354141515610bcf57600080fd5b610bd761187f565b3073ffffffffffffffffffffffffffffffffffffffff168273ffffffffffffffffffffffffffffffffffffffff166302571be3836000604051602001526040518263ffffffff167c0100000000000000000000000000000000000000000000000000000000028152600401808260001916600019168152602001915050602060405180830381600087803b1515610c6d57600080fd5b6102c65a03f11515610c7e57600080fd5b5050506040518051905073ffffffffffffffffffffffffffffffffffffffff16141515610caa57600080fd5b81606460006101000a81548173ffffffffffffffffffffffffffffffffffffffff021916908373ffffffffffffffffffffffffffffffffffffffff16021790555080606581600019169055505050565b60405180807f7265736f6c7665720000000000000000000000000000000000000000000000008152506008019050604051809103902081565b6000809054906101000a900473ffffffffffffffffffffffffffffffffffffffff1681565b6003600102610d8733826000604051805910610d715750595b90808252806020026020018201604052506109ae565b1515610d9257600080fd5b610d9e60655483611607565b5050565b6000806002600102610dd433826000604051805910610dbe5750595b90808252806020026020018201604052506109ae565b1515610ddf57600080fd5b6065548460405180836000191660001916815260200182600019166000191681526020019250505060405180910390209250606460009054906101000a900473ffffffffffffffffffffffffffffffffffffffff1673ffffffffffffffffffffffffffffffffffffffff166302571be3846000604051602001526040518263ffffffff167c0100000000000000000000000000000000000000000000000000000000028152600401808260001916600019168152602001915050602060405180830381600087803b1515610eb257600080fd5b6102c65a03f11515610ec357600080fd5b505050604051805190509150600073ffffffffffffffffffffffffffffffffffffffff168273ffffffffffffffffffffffffffffffffffffffff1614151515610f0b57600080fd5b3073ffffffffffffffffffffffffffffffffffffffff168273ffffffffffffffffffffffffffffffffffffffff1614151561103357606460009054906101000a900473ffffffffffffffffffffffffffffffffffffffff1673ffffffffffffffffffffffffffffffffffffffff166306ab592360655486306040518463ffffffff167c010000000000000000000000000000000000000000000000000000000002815260040180846000191660001916815260200183600019166000191681526020018273ffffffffffffffffffffffffffffffffffffffff1673ffffffffffffffffffffffffffffffffffffffff1681526020019350505050600060405180830381600087803b151561101e57600080fd5b6102c65a03f1151561102f57600080fd5b5050505b606460009054906101000a900473ffffffffffffffffffffffffffffffffffffffff1673ffffffffffffffffffffffffffffffffffffffff16631896f70a8460006040518363ffffffff167c01000000000000000000000000000000000000000000000000000000000281526004018083600019166000191681526020018273ffffffffffffffffffffffffffffffffffffffff1673ffffffffffffffffffffffffffffffffffffffff16815260200192505050600060405180830381600087803b151561110057600080fd5b6102c65a03f1151561111157600080fd5b505050606460009054906101000a900473ffffffffffffffffffffffffffffffffffffffff1673ffffffffffffffffffffffffffffffffffffffff16635b0fc9c38460006040518363ffffffff167c01000000000000000000000000000000000000000000000000000000000281526004018083600019166000191681526020018273ffffffffffffffffffffffffffffffffffffffff1673ffffffffffffffffffffffffffffffffffffffff16815260200192505050600060405180830381600087803b15156111e157600080fd5b6102c65a03f115156111f257600080fd5b505050836000191683600019167f49a4cd9bb38e10e402c44a680c5e13f710666ed683cb9cbbc131f7dc9f8b9d6060405160405180910390a350505050565b600061123b6118a0565b73ffffffffffffffffffffffffffffffffffffffff166304bf2a7f836000604051602001526040518263ffffffff167c01000000000000000000000000000000000000000000000000000000000281526004018080602001828103825283818151815260200191508051906020019080838360005b838110156112cb5780820151818401526020810190506112b0565b50505050905090810190601f1680156112f85780820380516001836020036101000a031916815260200191505b5092505050602060405180830381600087803b151561131657600080fd5b6102c65a03f1151561132757600080fd5b505050604051805190509050919050565b60655481565b600060010260405180807f657468000000000000000000000000000000000000000000000000000000000081525060030190506040518091039020604051808360001916600019168152602001826000191660001916815260200192505050604051809103902081565b6001800281565b60006065548360405180836000191660001916815260200182600019166000191681526020019250505060405180910390209050600073ffffffffffffffffffffffffffffffffffffffff16606460009054906101000a900473ffffffffffffffffffffffffffffffffffffffff1673ffffffffffffffffffffffffffffffffffffffff166302571be3836000604051602001526040518263ffffffff167c0100000000000000000000000000000000000000000000000000000000028152600401808260001916600019168152602001915050602060405180830381600087803b151561149c57600080fd5b6102c65a03f115156114ad57600080fd5b5050506040518051905073ffffffffffffffffffffffffffffffffffffffff161415156114d957600080fd5b606460009054906101000a900473ffffffffffffffffffffffffffffffffffffffff1673ffffffffffffffffffffffffffffffffffffffff166306ab592360655485856040518463ffffffff167c010000000000000000000000000000000000000000000000000000000002815260040180846000191660001916815260200183600019166000191681526020018273ffffffffffffffffffffffffffffffffffffffff1673ffffffffffffffffffffffffffffffffffffffff1681526020019350505050600060405180830381600087803b15156115b757600080fd5b6102c65a03f115156115c857600080fd5b505050826000191681600019167f8f858576a6066f5ecb4d2f49d40fac9db317ff8d5f7610d58b616b657d7044cf60405160405180910390a392915050565b60006116da600060010260405180807f657468000000000000000000000000000000000000000000000000000000000081525060030190506040518091039020604051808360001916600019168152602001826000191660001916815260200192505050604051809103902060405180807f7265736f6c7665720000000000000000000000000000000000000000000000008152506008019050604051809103902060405180836000191660001916815260200182600019166000191681526020019250505060405180910390206119fe565b9050606460009054906101000a900473ffffffffffffffffffffffffffffffffffffffff1673ffffffffffffffffffffffffffffffffffffffff16631896f70a84836040518363ffffffff167c01000000000000000000000000000000000000000000000000000000000281526004018083600019166000191681526020018273ffffffffffffffffffffffffffffffffffffffff1673ffffffffffffffffffffffffffffffffffffffff16815260200192505050600060405180830381600087803b15156117a857600080fd5b6102c65a03f115156117b957600080fd5b5050508073ffffffffffffffffffffffffffffffffffffffff1663d5fa2b0084846040518363ffffffff167c01000000000000000000000000000000000000000000000000000000000281526004018083600019166000191681526020018273ffffffffffffffffffffffffffffffffffffffff1673ffffffffffffffffffffffffffffffffffffffff16815260200192505050600060405180830381600087803b151561186657600080fd5b6102c65a03f1151561187757600080fd5b505050505050565b600060035414151561189057600080fd5b611898611b61565b600381905550565b6000806000809054906101000a900473ffffffffffffffffffffffffffffffffffffffff1673ffffffffffffffffffffffffffffffffffffffff166342c71f1d60405180807f61707000000000000000000000000000000000000000000000000000000000008152506003019050604051809103902060405180807f65766d7265672e617261676f6e706d2e657468000000000000000000000000008152506013019050604051809103902060405180836000191660001916815260200182600019166000191681526020019250505060405180910390206000604051602001526040518263ffffffff167c0100000000000000000000000000000000000000000000000000000000028152600401808260001916600019168152602001915050602060405180830381600087803b15156119da57600080fd5b6102c65a03f115156119eb57600080fd5b5050506040518051905090508091505090565b600080606460009054906101000a900473ffffffffffffffffffffffffffffffffffffffff1673ffffffffffffffffffffffffffffffffffffffff16630178b8bf846000604051602001526040518263ffffffff167c0100000000000000000000000000000000000000000000000000000000028152600401808260001916600019168152602001915050602060405180830381600087803b1515611aa257600080fd5b6102c65a03f11515611ab357600080fd5b5050506040518051905090508073ffffffffffffffffffffffffffffffffffffffff16633b3b57de846000604051602001526040518263ffffffff167c0100000000000000000000000000000000000000000000000000000000028152600401808260001916600019168152602001915050602060405180830381600087803b1515611b3e57600080fd5b6102c65a03f11515611b4f57600080fd5b50505060405180519050915050919050565b600043905090565b6020604051908101604052806000815250905600a165627a7a723058207a62ffde0e616805c4e18df410b6b44dfc5e389b7cf29e8ee1569655193086b40029",
  "source": "pragma solidity 0.4.18;\n\nimport \"../lib/ens/AbstractENS.sol\";\nimport \"../lib/ens/PublicResolver.sol\";\nimport \"./ENSConstants.sol\";\n\nimport \"../apps/AragonApp.sol\";\n\n\ncontract ENSSubdomainRegistrar is AragonApp, ENSConstants {\n    bytes32 constant public CREATE_NAME_ROLE = bytes32(1);\n    bytes32 constant public DELETE_NAME_ROLE = bytes32(2);\n    bytes32 constant public POINT_ROOTNODE_ROLE = bytes32(3);\n\n    AbstractENS public ens;\n    bytes32 public rootNode;\n\n    event NewName(bytes32 indexed node, bytes32 indexed label);\n    event DeleteName(bytes32 indexed node, bytes32 indexed label);\n\n    function initialize(AbstractENS _ens, bytes32 _rootNode) onlyInit public {\n        initialized();\n\n        // We need ownership to create subnodes\n        require(_ens.owner(_rootNode) == address(this));\n\n        ens = _ens;\n        rootNode = _rootNode;\n    }\n\n    function createName(bytes32 _label, address _owner) auth(CREATE_NAME_ROLE) external returns (bytes32 node) {\n        return _createName(_label, _owner);\n    }\n\n    function createNameAndPoint(bytes32 _label, address _target) auth(CREATE_NAME_ROLE) external returns (bytes32 node) {\n        node = _createName(_label, this);\n        _pointToResolverAndResolve(node, _target);\n    }\n\n    function deleteName(bytes32 _label) auth(DELETE_NAME_ROLE) external {\n        bytes32 node = keccak256(rootNode, _label);\n\n        address currentOwner = ens.owner(node);\n\n        require(currentOwner != address(0)); // fail if deleting unset name\n\n        if (currentOwner != address(this)) { // needs to reclaim ownership so it can set resolver\n            ens.setSubnodeOwner(rootNode, _label, this);\n        }\n\n        ens.setResolver(node, address(0)); // remove resolver so it ends resolving\n        ens.setOwner(node, address(0));\n\n        DeleteName(node, _label);\n    }\n\n    function pointRootNode(address _target) auth(POINT_ROOTNODE_ROLE) external {\n        _pointToResolverAndResolve(rootNode, _target);\n    }\n\n    function _createName(bytes32 _label, address _owner) internal returns (bytes32 node) {\n        node = keccak256(rootNode, _label);\n        require(ens.owner(node) == address(0)); // avoid name reset\n\n        ens.setSubnodeOwner(rootNode, _label, _owner);\n\n        NewName(node, _label);\n    }\n\n    function _pointToResolverAndResolve(bytes32 _node, address _target) internal {\n        address publicResolver = getAddr(PUBLIC_RESOLVER_NODE);\n        ens.setResolver(_node, publicResolver);\n\n        PublicResolver(publicResolver).setAddr(_node, _target);\n    }\n\n    function getAddr(bytes32 node) internal view returns (address) {\n        address resolver = ens.resolver(node);\n        return PublicResolver(resolver).addr(node);\n    }\n}\n",
  "sourcePath": "@aragon/os/contracts/ens/ENSSubdomainRegistrar.sol",
  "compiler": {
    "name": "solc",
    "version": "0.4.18+commit.9cf6e910.Emscripten.clang"
  },
  "schemaVersion": "1.0.1",
  "updatedAt": "2018-02-26T13:03:29.091Z"
}