{
  "contractName": "KernelConstants",
  "abi": [
    {
      "constant": true,
      "inputs": [],
      "name": "KERNEL_APP_ID",
      "outputs": [
        {
          "name": "",
          "type": "bytes32"
        }
      ],
      "payable": false,
      "stateMutability": "view",
      "type": "function"
    },
    {
      "constant": true,
      "inputs": [],
      "name": "APP_ADDR_NAMESPACE",
      "outputs": [
        {
          "name": "",
          "type": "bytes32"
        }
      ],
      "payable": false,
      "stateMutability": "view",
      "type": "function"
    },
    {
      "constant": true,
      "inputs": [],
      "name": "KERNEL_APP",
      "outputs": [
        {
          "name": "",
          "type": "bytes32"
        }
      ],
      "payable": false,
      "stateMutability": "view",
      "type": "function"
    },
    {
      "constant": true,
      "inputs": [],
      "name": "CORE_NAMESPACE",
      "outputs": [
        {
          "name": "",
          "type": "bytes32"
        }
      ],
      "payable": false,
      "stateMutability": "view",
      "type": "function"
    },
    {
      "constant": true,
      "inputs": [],
      "name": "ACL_APP",
      "outputs": [
        {
          "name": "",
          "type": "bytes32"
        }
      ],
      "payable": false,
      "stateMutability": "view",
      "type": "function"
    },
    {
      "constant": true,
      "inputs": [],
      "name": "ACL_APP_ID",
      "outputs": [
        {
          "name": "",
          "type": "bytes32"
        }
      ],
      "payable": false,
      "stateMutability": "view",
      "type": "function"
    },
    {
      "constant": true,
      "inputs": [],
      "name": "APP_BASES_NAMESPACE",
      "outputs": [
        {
          "name": "",
          "type": "bytes32"
        }
      ],
      "payable": false,
      "stateMutability": "view",
      "type": "function"
    }
  ],
  "bytecode": "0x6060604052341561000f57600080fd5b61045e8061001e6000396000f300606060405260043610610083576000357c0100000000000000000000000000000000000000000000000000000000900463ffffffff1680631113ed0d14610088578063178e6079146100b957806325012699146100ea578063756f60491461011b578063a3b4b07f1461014c578063cbcc65eb1461017d578063db8a61d4146101ae575b600080fd5b341561009357600080fd5b61009b6101df565b60405180826000191660001916815260200191505060405180910390f35b34156100c457600080fd5b6100cc610218565b60405180826000191660001916815260200191505060405180910390f35b34156100f557600080fd5b6100fd610251565b60405180826000191660001916815260200191505060405180910390f35b341561012657600080fd5b61012e6102ec565b60405180826000191660001916815260200191505060405180910390f35b341561015757600080fd5b61015f610325565b60405180826000191660001916815260200191505060405180910390f35b341561018857600080fd5b6101906103c0565b60405180826000191660001916815260200191505060405180910390f35b34156101b957600080fd5b6101c16103f9565b60405180826000191660001916815260200191505060405180910390f35b60405180807f6b65726e656c2e617261676f6e706d2e657468000000000000000000000000008152506013019050604051809103902081565b60405180807f61707000000000000000000000000000000000000000000000000000000000008152506003019050604051809103902081565b60405180807f636f7265000000000000000000000000000000000000000000000000000000008152506004019050604051809103902060405180807f6b65726e656c2e617261676f6e706d2e6574680000000000000000000000000081525060130190506040518091039020604051808360001916600019168152602001826000191660001916815260200192505050604051809103902081565b60405180807f636f7265000000000000000000000000000000000000000000000000000000008152506004019050604051809103902081565b60405180807f61707000000000000000000000000000000000000000000000000000000000008152506003019050604051809103902060405180807f61636c2e617261676f6e706d2e6574680000000000000000000000000000000081525060100190506040518091039020604051808360001916600019168152602001826000191660001916815260200192505050604051809103902081565b60405180807f61636c2e617261676f6e706d2e657468000000000000000000000000000000008152506010019050604051809103902081565b60405180807f626173650000000000000000000000000000000000000000000000000000000081525060040190506040518091039020815600a165627a7a72305820721503e9fd93590384a884e10ee173c3cf95d04a8ee19972e178f7a757caacaf0029",
  "source": "pragma solidity 0.4.18;\n\n\ncontract KernelConstants {\n    bytes32 constant public CORE_NAMESPACE = keccak256(\"core\");\n    bytes32 constant public APP_BASES_NAMESPACE = keccak256(\"base\");\n    bytes32 constant public APP_ADDR_NAMESPACE = keccak256(\"app\");\n\n    bytes32 constant public KERNEL_APP_ID = keccak256(\"kernel.aragonpm.eth\");\n    bytes32 constant public KERNEL_APP = keccak256(CORE_NAMESPACE, KERNEL_APP_ID);\n\n    bytes32 constant public ACL_APP_ID = keccak256(\"acl.aragonpm.eth\");\n    bytes32 constant public ACL_APP = keccak256(APP_ADDR_NAMESPACE, ACL_APP_ID);\n}\n\n\ncontract KernelStorage is KernelConstants {\n    mapping (bytes32 => address) public apps;\n}\n",
  "sourcePath": "@aragon/os/contracts/kernel/KernelStorage.sol",
  "compiler": {
    "name": "solc",
    "version": "0.4.18+commit.9cf6e910.Emscripten.clang"
  },
  "schemaVersion": "1.0.1",
  "updatedAt": "2018-02-26T13:03:29.100Z"
}