{
  "contractName": "APMRegistryConstants",
  "abi": [
    {
      "constant": true,
      "inputs": [],
      "name": "REPO_APP_NAME",
      "outputs": [
        {
          "name": "",
          "type": "string"
        }
      ],
      "payable": false,
      "stateMutability": "view",
      "type": "function"
    },
    {
      "constant": true,
      "inputs": [],
      "name": "APM_APP_NAME",
      "outputs": [
        {
          "name": "",
          "type": "string"
        }
      ],
      "payable": false,
      "stateMutability": "view",
      "type": "function"
    },
    {
      "constant": true,
      "inputs": [],
      "name": "ENS_SUB_APP_NAME",
      "outputs": [
        {
          "name": "",
          "type": "string"
        }
      ],
      "payable": false,
      "stateMutability": "view",
      "type": "function"
    }
  ],
  "bytecode": "0x6060604052341561000f57600080fd5b6102dd8061001e6000396000f300606060405260043610610057576000357c0100000000000000000000000000000000000000000000000000000000900463ffffffff168063023d6c031461005c5780631219d5c8146100ea578063231cb6ab14610178575b600080fd5b341561006757600080fd5b61006f610206565b6040518080602001828103825283818151815260200191508051906020019080838360005b838110156100af578082015181840152602081019050610094565b50505050905090810190601f1680156100dc5780820380516001836020036101000a031916815260200191505b509250505060405180910390f35b34156100f557600080fd5b6100fd61023f565b6040518080602001828103825283818151815260200191508051906020019080838360005b8381101561013d578082015181840152602081019050610122565b50505050905090810190601f16801561016a5780820380516001836020036101000a031916815260200191505b509250505060405180910390f35b341561018357600080fd5b61018b610278565b6040518080602001828103825283818151815260200191508051906020019080838360005b838110156101cb5780820151818401526020810190506101b0565b50505050905090810190601f1680156101f85780820380516001836020036101000a031916815260200191505b509250505060405180910390f35b6040805190810160405280600881526020017f61706d2d7265706f00000000000000000000000000000000000000000000000081525081565b6040805190810160405280600c81526020017f61706d2d7265676973747279000000000000000000000000000000000000000081525081565b6040805190810160405280600a81526020017f61706d2d656e7373756200000000000000000000000000000000000000000000815250815600a165627a7a7230582001ee0d387bbff9221bf4bc2d2fdfc15d43720b16c591281ad0141a25ef2d333f0029",
  "source": "pragma solidity 0.4.18;\n\nimport \"../lib/ens/AbstractENS.sol\";\nimport \"../ens/ENSSubdomainRegistrar.sol\";\nimport \"../factory/AppProxyFactory.sol\";\nimport \"../apps/AragonApp.sol\";\nimport \"../acl/ACL.sol\";\nimport \"./Repo.sol\";\n\n\ncontract APMRegistryConstants {\n    // Cant have a regular APM appId because it is used to build APM\n    // TODO: recheck this\n    string constant public APM_APP_NAME = \"apm-registry\";\n    string constant public REPO_APP_NAME = \"apm-repo\";\n    string constant public ENS_SUB_APP_NAME = \"apm-enssub\";\n}\n\n\ncontract APMRegistry is AragonApp, AppProxyFactory, APMRegistryConstants {\n    AbstractENS ens;\n    ENSSubdomainRegistrar public registrar;\n\n    bytes32 constant public CREATE_REPO_ROLE = bytes32(1);\n\n    event NewRepo(bytes32 id, string name, address repo);\n\n    /**\n    * NEEDS CREATE_NAME_ROLE and POINT_ROOTNODE_ROLE permissions on registrar\n    * @param _registrar ENSSubdomainRegistrar instance that holds registry root node ownership\n    */\n    function initialize(ENSSubdomainRegistrar _registrar) onlyInit public {\n        initialized();\n\n        registrar = _registrar;\n        ens = registrar.ens();\n\n        registrar.pointRootNode(this);\n\n        // Check APM has all permissions it needss\n        ACL acl = ACL(kernel.acl());\n        require(acl.hasPermission(this, registrar, registrar.CREATE_NAME_ROLE()));\n        require(acl.hasPermission(this, acl, acl.CREATE_PERMISSIONS_ROLE()));\n    }\n\n    /**\n    * @notice Create new repo in registry with `_name`\n    * @param _name Repo name, must be ununsed\n    * @param _dev Address that will be given permission to create versions\n    */\n    function newRepo(string _name, address _dev) auth(CREATE_REPO_ROLE) public returns (Repo) {\n        return _newRepo(_name, _dev);\n    }\n\n    /**\n    * @notice Create new repo in registry with `_name` and first repo version\n    * @param _name Repo name\n    * @param _dev Address that will be given permission to create versions\n    * @param _initialSemanticVersion Semantic version for new repo version\n    * @param _contractAddress address for smart contract logic for version (if set to 0, it uses last versions' contractAddress)\n    * @param _contentURI External URI for fetching new version's content\n    */\n    function newRepoWithVersion(\n        string _name,\n        address _dev,\n        uint16[3] _initialSemanticVersion,\n        address _contractAddress,\n        bytes _contentURI\n    ) auth(CREATE_REPO_ROLE) public returns (Repo)\n    {\n        Repo repo = _newRepo(_name, this); // need to have permissions to create version\n        repo.newVersion(_initialSemanticVersion, _contractAddress, _contentURI);\n\n        // Give permissions to _dev\n        ACL acl = ACL(kernel.acl());\n        acl.revokePermission(this, repo, repo.CREATE_VERSION_ROLE());\n        acl.grantPermission(_dev, repo, repo.CREATE_VERSION_ROLE());\n        acl.setPermissionManager(_dev, repo, repo.CREATE_VERSION_ROLE());\n        return repo;\n    }\n\n    function _newRepo(string _name, address _dev) internal returns (Repo) {\n        require(bytes(_name).length > 0);\n\n        Repo repo = newClonedRepo();\n\n        ACL(kernel.acl()).createPermission(_dev, repo, repo.CREATE_VERSION_ROLE(), _dev);\n\n        // Creates [name] subdomain in the rootNode and sets registry as resolver\n        // This will fail if repo name already exists\n        bytes32 node = registrar.createNameAndPoint(keccak256(_name), repo);\n\n        NewRepo(node, _name, repo);\n\n        return repo;\n    }\n\n    function newClonedRepo() internal returns (Repo) {\n        return Repo(newAppProxy(kernel, repoAppId()));\n    }\n\n    function repoAppId() internal view returns (bytes32) {\n        return keccak256(registrar.rootNode(), keccak256(REPO_APP_NAME));\n    }\n}\n",
  "sourcePath": "@aragon/os/contracts/apm/APMRegistry.sol",
  "compiler": {
    "name": "solc",
    "version": "0.4.18+commit.9cf6e910.Emscripten.clang"
  },
  "schemaVersion": "1.0.1",
  "updatedAt": "2018-03-05T17:18:03.431Z"
}