{
  "contractName": "APMRegistry",
  "abi": [
    {
      "constant": true,
      "inputs": [],
      "name": "REPO_APP_NAME",
      "outputs": [
        {
          "name": "",
          "type": "string"
        }
      ],
      "payable": false,
      "stateMutability": "view",
      "type": "function"
    },
    {
      "constant": true,
      "inputs": [],
      "name": "APM_APP_NAME",
      "outputs": [
        {
          "name": "",
          "type": "string"
        }
      ],
      "payable": false,
      "stateMutability": "view",
      "type": "function"
    },
    {
      "constant": true,
      "inputs": [],
      "name": "ENS_SUB_APP_NAME",
      "outputs": [
        {
          "name": "",
          "type": "string"
        }
      ],
      "payable": false,
      "stateMutability": "view",
      "type": "function"
    },
    {
      "constant": true,
      "inputs": [],
      "name": "registrar",
      "outputs": [
        {
          "name": "",
          "type": "address"
        }
      ],
      "payable": false,
      "stateMutability": "view",
      "type": "function"
    },
    {
      "constant": false,
      "inputs": [
        {
          "name": "_name",
          "type": "string"
        },
        {
          "name": "_dev",
          "type": "address"
        },
        {
          "name": "_initialSemanticVersion",
          "type": "uint16[3]"
        },
        {
          "name": "_contractAddress",
          "type": "address"
        },
        {
          "name": "_contentURI",
          "type": "bytes"
        }
      ],
      "name": "newRepoWithVersion",
      "outputs": [
        {
          "name": "",
          "type": "address"
        }
      ],
      "payable": false,
      "stateMutability": "nonpayable",
      "type": "function"
    },
    {
      "constant": true,
      "inputs": [],
      "name": "CREATE_REPO_ROLE",
      "outputs": [
        {
          "name": "",
          "type": "bytes32"
        }
      ],
      "payable": false,
      "stateMutability": "view",
      "type": "function"
    },
    {
      "constant": true,
      "inputs": [],
      "name": "EVMSCRIPT_REGISTRY_APP_ID",
      "outputs": [
        {
          "name": "",
          "type": "bytes32"
        }
      ],
      "payable": false,
      "stateMutability": "view",
      "type": "function"
    },
    {
      "constant": true,
      "inputs": [],
      "name": "appId",
      "outputs": [
        {
          "name": "",
          "type": "bytes32"
        }
      ],
      "payable": false,
      "stateMutability": "view",
      "type": "function"
    },
    {
      "constant": true,
      "inputs": [],
      "name": "getInitializationBlock",
      "outputs": [
        {
          "name": "",
          "type": "uint256"
        }
      ],
      "payable": false,
      "stateMutability": "view",
      "type": "function"
    },
    {
      "constant": true,
      "inputs": [],
      "name": "EVMSCRIPT_REGISTRY_APP",
      "outputs": [
        {
          "name": "",
          "type": "bytes32"
        }
      ],
      "payable": false,
      "stateMutability": "view",
      "type": "function"
    },
    {
      "constant": true,
      "inputs": [
        {
          "name": "_sender",
          "type": "address"
        },
        {
          "name": "_role",
          "type": "bytes32"
        },
        {
          "name": "params",
          "type": "uint256[]"
        }
      ],
      "name": "canPerform",
      "outputs": [
        {
          "name": "",
          "type": "bool"
        }
      ],
      "payable": false,
      "stateMutability": "view",
      "type": "function"
    },
    {
      "constant": false,
      "inputs": [
        {
          "name": "_name",
          "type": "string"
        },
        {
          "name": "_dev",
          "type": "address"
        }
      ],
      "name": "newRepo",
      "outputs": [
        {
          "name": "",
          "type": "address"
        }
      ],
      "payable": false,
      "stateMutability": "nonpayable",
      "type": "function"
    },
    {
      "constant": false,
      "inputs": [
        {
          "name": "_registrar",
          "type": "address"
        }
      ],
      "name": "initialize",
      "outputs": [],
      "payable": false,
      "stateMutability": "nonpayable",
      "type": "function"
    },
    {
      "constant": false,
      "inputs": [
        {
          "name": "_kernel",
          "type": "address"
        },
        {
          "name": "_appId",
          "type": "bytes32"
        },
        {
          "name": "_initializePayload",
          "type": "bytes"
        }
      ],
      "name": "newAppProxyPinned",
      "outputs": [
        {
          "name": "",
          "type": "address"
        }
      ],
      "payable": false,
      "stateMutability": "nonpayable",
      "type": "function"
    },
    {
      "constant": true,
      "inputs": [],
      "name": "kernel",
      "outputs": [
        {
          "name": "",
          "type": "address"
        }
      ],
      "payable": false,
      "stateMutability": "view",
      "type": "function"
    },
    {
      "constant": false,
      "inputs": [
        {
          "name": "_kernel",
          "type": "address"
        },
        {
          "name": "_appId",
          "type": "bytes32"
        }
      ],
      "name": "newAppProxy",
      "outputs": [
        {
          "name": "",
          "type": "address"
        }
      ],
      "payable": false,
      "stateMutability": "nonpayable",
      "type": "function"
    },
    {
      "constant": false,
      "inputs": [
        {
          "name": "_kernel",
          "type": "address"
        },
        {
          "name": "_appId",
          "type": "bytes32"
        },
        {
          "name": "_initializePayload",
          "type": "bytes"
        }
      ],
      "name": "newAppProxy",
      "outputs": [
        {
          "name": "",
          "type": "address"
        }
      ],
      "payable": false,
      "stateMutability": "nonpayable",
      "type": "function"
    },
    {
      "constant": true,
      "inputs": [
        {
          "name": "_script",
          "type": "bytes"
        }
      ],
      "name": "getExecutor",
      "outputs": [
        {
          "name": "",
          "type": "address"
        }
      ],
      "payable": false,
      "stateMutability": "view",
      "type": "function"
    },
    {
      "constant": false,
      "inputs": [
        {
          "name": "_kernel",
          "type": "address"
        },
        {
          "name": "_appId",
          "type": "bytes32"
        }
      ],
      "name": "newAppProxyPinned",
      "outputs": [
        {
          "name": "",
          "type": "address"
        }
      ],
      "payable": false,
      "stateMutability": "nonpayable",
      "type": "function"
    },
    {
      "anonymous": false,
      "inputs": [
        {
          "indexed": false,
          "name": "id",
          "type": "bytes32"
        },
        {
          "indexed": false,
          "name": "name",
          "type": "string"
        },
        {
          "indexed": false,
          "name": "repo",
          "type": "address"
        }
      ],
      "name": "NewRepo",
      "type": "event"
    },
    {
      "anonymous": false,
      "inputs": [
        {
          "indexed": false,
          "name": "proxy",
          "type": "address"
        }
      ],
      "name": "NewAppProxy",
      "type": "event"
    }
  ],
  "bytecode": "0x6060604052341561000f57600080fd5b613d3d8061001e6000396000f3006060604052600436106200011b576000357c0100000000000000000000000000000000000000000000000000000000900463ffffffff168063023d6c0314620001205780631219d5c814620001b4578063231cb6ab14620002485780632b20e39714620002dc57806332ab6af014620003345780635e1f3fa8146200048157806360b1e05714620004b557806380afdea814620004e95780638b3dd749146200051d5780639b3fdf4c1462000549578063a1658fad146200057d578063b0927de7146200061e578063c4d66de814620006dd578063d162f8b01462000719578063d4aae0c414620007e5578063e156a8f3146200083d578063ede658b014620008c6578063f92a79ff1462000992578063ff289fc51462000a32575b600080fd5b34156200012c57600080fd5b6200013662000abb565b6040518080602001828103825283818151815260200191508051906020019080838360005b83811015620001785780820151818401526020810190506200015b565b50505050905090810190601f168015620001a65780820380516001836020036101000a031916815260200191505b509250505060405180910390f35b3415620001c057600080fd5b620001ca62000af4565b6040518080602001828103825283818151815260200191508051906020019080838360005b838110156200020c578082015181840152602081019050620001ef565b50505050905090810190601f1680156200023a5780820380516001836020036101000a031916815260200191505b509250505060405180910390f35b34156200025457600080fd5b6200025e62000b2d565b6040518080602001828103825283818151815260200191508051906020019080838360005b83811015620002a057808201518184015260208101905062000283565b50505050905090810190601f168015620002ce5780820380516001836020036101000a031916815260200191505b509250505060405180910390f35b3415620002e857600080fd5b620002f262000b66565b604051808273ffffffffffffffffffffffffffffffffffffffff1673ffffffffffffffffffffffffffffffffffffffff16815260200191505060405180910390f35b34156200034057600080fd5b6200043f600480803590602001908201803590602001908080601f0160208091040260200160405190810160405280939291908181526020018383808284378201915050505050509190803573ffffffffffffffffffffffffffffffffffffffff16906020019091908060600190600380602002604051908101604052809291908260036020028082843782019150505050509190803573ffffffffffffffffffffffffffffffffffffffff1690602001909190803590602001908201803590602001908080601f0160208091040260200160405190810160405280939291908181526020018383808284378201915050505050509190505062000b8c565b604051808273ffffffffffffffffffffffffffffffffffffffff1673ffffffffffffffffffffffffffffffffffffffff16815260200191505060405180910390f35b34156200048d57600080fd5b62000497620010e1565b60405180826000191660001916815260200191505060405180910390f35b3415620004c157600080fd5b620004cb620010e8565b60405180826000191660001916815260200191505060405180910390f35b3415620004f557600080fd5b620004ff62001121565b60405180826000191660001916815260200191505060405180910390f35b34156200052957600080fd5b6200053362001127565b6040518082815260200191505060405180910390f35b34156200055557600080fd5b6200055f62001131565b60405180826000191660001916815260200191505060405180910390f35b34156200058957600080fd5b62000604600480803573ffffffffffffffffffffffffffffffffffffffff169060200190919080356000191690602001909190803590602001908201803590602001908080602002602001604051908101604052809392919081815260200183836020028082843782019150505050505091905050620011cc565b604051808215151515815260200191505060405180910390f35b34156200062a57600080fd5b6200069b600480803590602001908201803590602001908080601f0160208091040260200160405190810160405280939291908181526020018383808284378201915050505050509190803573ffffffffffffffffffffffffffffffffffffffff16906020019091905050620013d5565b604051808273ffffffffffffffffffffffffffffffffffffffff1673ffffffffffffffffffffffffffffffffffffffff16815260200191505060405180910390f35b3415620006e957600080fd5b62000717600480803573ffffffffffffffffffffffffffffffffffffffff1690602001909190505062001429565b005b34156200072557600080fd5b620007a3600480803573ffffffffffffffffffffffffffffffffffffffff169060200190919080356000191690602001909190803590602001908201803590602001908080601f0160208091040260200160405190810160405280939291908181526020018383808284378201915050505050509190505062001a68565b604051808273ffffffffffffffffffffffffffffffffffffffff1673ffffffffffffffffffffffffffffffffffffffff16815260200191505060405180910390f35b3415620007f157600080fd5b620007fb62001bb3565b604051808273ffffffffffffffffffffffffffffffffffffffff1673ffffffffffffffffffffffffffffffffffffffff16815260200191505060405180910390f35b34156200084957600080fd5b62000884600480803573ffffffffffffffffffffffffffffffffffffffff169060200190919080356000191690602001909190505062001bd8565b604051808273ffffffffffffffffffffffffffffffffffffffff1673ffffffffffffffffffffffffffffffffffffffff16815260200191505060405180910390f35b3415620008d257600080fd5b62000950600480803573ffffffffffffffffffffffffffffffffffffffff169060200190919080356000191690602001909190803590602001908201803590602001908080601f0160208091040260200160405190810160405280939291908181526020018383808284378201915050505050509190505062001c13565b604051808273ffffffffffffffffffffffffffffffffffffffff1673ffffffffffffffffffffffffffffffffffffffff16815260200191505060405180910390f35b34156200099e57600080fd5b620009f0600480803590602001908201803590602001908080601f0160208091040260200160405190810160405280939291908181526020018383808284378201915050505050509190505062001d5e565b604051808273ffffffffffffffffffffffffffffffffffffffff1673ffffffffffffffffffffffffffffffffffffffff16815260200191505060405180910390f35b341562000a3e57600080fd5b62000a79600480803573ffffffffffffffffffffffffffffffffffffffff169060200190919080356000191690602001909190505062001e6c565b604051808273ffffffffffffffffffffffffffffffffffffffff1673ffffffffffffffffffffffffffffffffffffffff16815260200191505060405180910390f35b6040805190810160405280600881526020017f61706d2d7265706f00000000000000000000000000000000000000000000000081525081565b6040805190810160405280600c81526020017f61706d2d7265676973747279000000000000000000000000000000000000000081525081565b6040805190810160405280600a81526020017f61706d2d656e737375620000000000000000000000000000000000000000000081525081565b606560009054906101000a900473ffffffffffffffffffffffffffffffffffffffff1681565b60008060006001800262000bc23382600060405180591062000bab5750595b9080825280602002602001820160405250620011cc565b151562000bce57600080fd5b62000bda893062001ea7565b92508273ffffffffffffffffffffffffffffffffffffffff1663730534108888886040518463ffffffff167c01000000000000000000000000000000000000000000000000000000000281526004018084600360200280838360005b8381101562000c5357808201518184015260208101905062000c36565b505050509050018373ffffffffffffffffffffffffffffffffffffffff1673ffffffffffffffffffffffffffffffffffffffff16815260200180602001828103825283818151815260200191508051906020019080838360005b8381101562000cca57808201518184015260208101905062000cad565b50505050905090810190601f16801562000cf85780820380516001836020036101000a031916815260200191505b50945050505050600060405180830381600087803b151562000d1957600080fd5b6102c65a03f1151562000d2b57600080fd5b5050506000809054906101000a900473ffffffffffffffffffffffffffffffffffffffff1673ffffffffffffffffffffffffffffffffffffffff1663de2873596000604051602001526040518163ffffffff167c0100000000000000000000000000000000000000000000000000000000028152600401602060405180830381600087803b151562000dbc57600080fd5b6102c65a03f1151562000dce57600080fd5b5050506040518051905091508173ffffffffffffffffffffffffffffffffffffffff16639d0effdb30858673ffffffffffffffffffffffffffffffffffffffff1663aa61924a6000604051602001526040518163ffffffff167c0100000000000000000000000000000000000000000000000000000000028152600401602060405180830381600087803b151562000e6557600080fd5b6102c65a03f1151562000e7757600080fd5b505050604051805190506040518463ffffffff167c0100000000000000000000000000000000000000000000000000000000028152600401808473ffffffffffffffffffffffffffffffffffffffff1673ffffffffffffffffffffffffffffffffffffffff1681526020018373ffffffffffffffffffffffffffffffffffffffff1673ffffffffffffffffffffffffffffffffffffffff16815260200182600019166000191681526020019350505050600060405180830381600087803b151562000f4157600080fd5b6102c65a03f1151562000f5357600080fd5b5050508173ffffffffffffffffffffffffffffffffffffffff1663afd925df89858673ffffffffffffffffffffffffffffffffffffffff1663aa61924a6000604051602001526040518163ffffffff167c0100000000000000000000000000000000000000000000000000000000028152600401602060405180830381600087803b151562000fe157600080fd5b6102c65a03f1151562000ff357600080fd5b505050604051805190506040518463ffffffff167c0100000000000000000000000000000000000000000000000000000000028152600401808473ffffffffffffffffffffffffffffffffffffffff1673ffffffffffffffffffffffffffffffffffffffff1681526020018373ffffffffffffffffffffffffffffffffffffffff1673ffffffffffffffffffffffffffffffffffffffff16815260200182600019166000191681526020019350505050600060405180830381600087803b1515620010bd57600080fd5b6102c65a03f11515620010cf57600080fd5b50505082935050505095945050505050565b6001800281565b60405180807f65766d7265672e617261676f6e706d2e657468000000000000000000000000008152506013019050604051809103902081565b60015481565b6000600354905090565b60405180807f61707000000000000000000000000000000000000000000000000000000000008152506003019050604051809103902060405180807f65766d7265672e617261676f6e706d2e6574680000000000000000000000000081525060130190506040518091039020604051808360001916600019168152602001826000191660001916815260200192505050604051809103902081565b6000620011d8620026a8565b60008084511115620011f257602084510290508391508082525b60008060009054906101000a900473ffffffffffffffffffffffffffffffffffffffff1673ffffffffffffffffffffffffffffffffffffffff161480620013ca57506000809054906101000a900473ffffffffffffffffffffffffffffffffffffffff1673ffffffffffffffffffffffffffffffffffffffff1663fdef9106873088866000604051602001526040518563ffffffff167c0100000000000000000000000000000000000000000000000000000000028152600401808573ffffffffffffffffffffffffffffffffffffffff1673ffffffffffffffffffffffffffffffffffffffff1681526020018473ffffffffffffffffffffffffffffffffffffffff1673ffffffffffffffffffffffffffffffffffffffff168152602001836000191660001916815260200180602001828103825283818151815260200191508051906020019080838360005b838110156200135d57808201518184015260208101905062001340565b50505050905090810190601f1680156200138b5780820380516001836020036101000a031916815260200191505b5095505050505050602060405180830381600087803b1515620013ad57600080fd5b6102c65a03f11515620013bf57600080fd5b505050604051805190505b925050509392505050565b6000600180026200140833826000604051805910620013f15750595b9080825280602002602001820160405250620011cc565b15156200141457600080fd5b62001420848462001ea7565b91505092915050565b6000806003541415156200143c57600080fd5b6200144662002367565b81606560006101000a81548173ffffffffffffffffffffffffffffffffffffffff021916908373ffffffffffffffffffffffffffffffffffffffff160217905550606560009054906101000a900473ffffffffffffffffffffffffffffffffffffffff1673ffffffffffffffffffffffffffffffffffffffff16633f15457f6000604051602001526040518163ffffffff167c0100000000000000000000000000000000000000000000000000000000028152600401602060405180830381600087803b15156200151657600080fd5b6102c65a03f115156200152857600080fd5b50505060405180519050606460006101000a81548173ffffffffffffffffffffffffffffffffffffffff021916908373ffffffffffffffffffffffffffffffffffffffff160217905550606560009054906101000a900473ffffffffffffffffffffffffffffffffffffffff1673ffffffffffffffffffffffffffffffffffffffff1663db606931306040518263ffffffff167c0100000000000000000000000000000000000000000000000000000000028152600401808273ffffffffffffffffffffffffffffffffffffffff1673ffffffffffffffffffffffffffffffffffffffff168152602001915050600060405180830381600087803b15156200162f57600080fd5b6102c65a03f115156200164157600080fd5b5050506000809054906101000a900473ffffffffffffffffffffffffffffffffffffffff1673ffffffffffffffffffffffffffffffffffffffff1663de2873596000604051602001526040518163ffffffff167c0100000000000000000000000000000000000000000000000000000000028152600401602060405180830381600087803b1515620016d257600080fd5b6102c65a03f11515620016e457600080fd5b5050506040518051905090508073ffffffffffffffffffffffffffffffffffffffff16636d6712d830606560009054906101000a900473ffffffffffffffffffffffffffffffffffffffff16606560009054906101000a900473ffffffffffffffffffffffffffffffffffffffff1673ffffffffffffffffffffffffffffffffffffffff1663fef47e386000604051602001526040518163ffffffff167c0100000000000000000000000000000000000000000000000000000000028152600401602060405180830381600087803b1515620017bf57600080fd5b6102c65a03f11515620017d157600080fd5b505050604051805190506000604051602001526040518463ffffffff167c0100000000000000000000000000000000000000000000000000000000028152600401808473ffffffffffffffffffffffffffffffffffffffff1673ffffffffffffffffffffffffffffffffffffffff1681526020018373ffffffffffffffffffffffffffffffffffffffff1673ffffffffffffffffffffffffffffffffffffffff16815260200182600019166000191681526020019350505050602060405180830381600087803b1515620018a457600080fd5b6102c65a03f11515620018b657600080fd5b505050604051805190501515620018cc57600080fd5b8073ffffffffffffffffffffffffffffffffffffffff16636d6712d830838473ffffffffffffffffffffffffffffffffffffffff16633d6ab68f6000604051602001526040518163ffffffff167c0100000000000000000000000000000000000000000000000000000000028152600401602060405180830381600087803b15156200195757600080fd5b6102c65a03f115156200196957600080fd5b505050604051805190506000604051602001526040518463ffffffff167c0100000000000000000000000000000000000000000000000000000000028152600401808473ffffffffffffffffffffffffffffffffffffffff1673ffffffffffffffffffffffffffffffffffffffff1681526020018373ffffffffffffffffffffffffffffffffffffffff1673ffffffffffffffffffffffffffffffffffffffff16815260200182600019166000191681526020019350505050602060405180830381600087803b151562001a3c57600080fd5b6102c65a03f1151562001a4e57600080fd5b50505060405180519050151562001a6457600080fd5b5050565b60008084848462001a78620026bc565b808473ffffffffffffffffffffffffffffffffffffffff1673ffffffffffffffffffffffffffffffffffffffff168152602001836000191660001916815260200180602001828103825283818151815260200191508051906020019080838360005b8381101562001af757808201518184015260208101905062001ada565b50505050905090810190601f16801562001b255780820380516001836020036101000a031916815260200191505b50945050505050604051809103906000f080151562001b4357600080fd5b90507fe28f1412cafe58e22073759128eddcccfd9c1e3326665df874bdaf26077231a981604051808273ffffffffffffffffffffffffffffffffffffffff1673ffffffffffffffffffffffffffffffffffffffff16815260200191505060405180910390a1809150509392505050565b6000809054906101000a900473ffffffffffffffffffffffffffffffffffffffff1681565b600062001c0b8383600060405180591062001bf05750595b9080825280601f01601f191660200182016040525062001c13565b905092915050565b60008084848462001c23620026cd565b808473ffffffffffffffffffffffffffffffffffffffff1673ffffffffffffffffffffffffffffffffffffffff168152602001836000191660001916815260200180602001828103825283818151815260200191508051906020019080838360005b8381101562001ca257808201518184015260208101905062001c85565b50505050905090810190601f16801562001cd05780820380516001836020036101000a031916815260200191505b50945050505050604051809103906000f080151562001cee57600080fd5b90507fe28f1412cafe58e22073759128eddcccfd9c1e3326665df874bdaf26077231a981604051808273ffffffffffffffffffffffffffffffffffffffff1673ffffffffffffffffffffffffffffffffffffffff16815260200191505060405180910390a1809150509392505050565b600062001d6a6200238b565b73ffffffffffffffffffffffffffffffffffffffff166304bf2a7f836000604051602001526040518263ffffffff167c01000000000000000000000000000000000000000000000000000000000281526004018080602001828103825283818151815260200191508051906020019080838360005b8381101562001dfc57808201518184015260208101905062001ddf565b50505050905090810190601f16801562001e2a5780820380516001836020036101000a031916815260200191505b5092505050602060405180830381600087803b151562001e4957600080fd5b6102c65a03f1151562001e5b57600080fd5b505050604051805190509050919050565b600062001e9f8383600060405180591062001e845750595b9080825280601f01601f191660200182016040525062001a68565b905092915050565b600080600080855111151562001ebc57600080fd5b62001ec6620024eb565b91506000809054906101000a900473ffffffffffffffffffffffffffffffffffffffff1673ffffffffffffffffffffffffffffffffffffffff1663de2873596000604051602001526040518163ffffffff167c0100000000000000000000000000000000000000000000000000000000028152600401602060405180830381600087803b151562001f5657600080fd5b6102c65a03f1151562001f6857600080fd5b5050506040518051905073ffffffffffffffffffffffffffffffffffffffff1663be03847885848573ffffffffffffffffffffffffffffffffffffffff1663aa61924a6000604051602001526040518163ffffffff167c0100000000000000000000000000000000000000000000000000000000028152600401602060405180830381600087803b151562001ffc57600080fd5b6102c65a03f115156200200e57600080fd5b50505060405180519050886040518563ffffffff167c0100000000000000000000000000000000000000000000000000000000028152600401808573ffffffffffffffffffffffffffffffffffffffff1673ffffffffffffffffffffffffffffffffffffffff1681526020018473ffffffffffffffffffffffffffffffffffffffff1673ffffffffffffffffffffffffffffffffffffffff16815260200183600019166000191681526020018273ffffffffffffffffffffffffffffffffffffffff1673ffffffffffffffffffffffffffffffffffffffff168152602001945050505050600060405180830381600087803b15156200210c57600080fd5b6102c65a03f115156200211e57600080fd5b505050606560009054906101000a900473ffffffffffffffffffffffffffffffffffffffff1673ffffffffffffffffffffffffffffffffffffffff166365b0bc85866040518082805190602001908083835b60208310151562002197578051825260208201915060208101905060208303925062002170565b6001836020036101000a0380198251168184511680821785525050505050509050019150506040518091039020846000604051602001526040518363ffffffff167c01000000000000000000000000000000000000000000000000000000000281526004018083600019166000191681526020018273ffffffffffffffffffffffffffffffffffffffff1673ffffffffffffffffffffffffffffffffffffffff16815260200192505050602060405180830381600087803b15156200225b57600080fd5b6102c65a03f115156200226d57600080fd5b5050506040518051905090507f526d4ccf8c3d7b6f0b6d4cc0de526d515c87d1ea3bd264ace0b5c2e70d1b2208818684604051808460001916600019168152602001806020018373ffffffffffffffffffffffffffffffffffffffff1673ffffffffffffffffffffffffffffffffffffffff168152602001828103825284818151815260200191508051906020019080838360005b838110156200231f57808201518184015260208101905062002302565b50505050905090810190601f1680156200234d5780820380516001836020036101000a031916815260200191505b5094505050505060405180910390a1819250505092915050565b60006003541415156200237957600080fd5b6200238362002528565b600381905550565b6000806000809054906101000a900473ffffffffffffffffffffffffffffffffffffffff1673ffffffffffffffffffffffffffffffffffffffff166342c71f1d60405180807f61707000000000000000000000000000000000000000000000000000000000008152506003019050604051809103902060405180807f65766d7265672e617261676f6e706d2e657468000000000000000000000000008152506013019050604051809103902060405180836000191660001916815260200182600019166000191681526020019250505060405180910390206000604051602001526040518263ffffffff167c0100000000000000000000000000000000000000000000000000000000028152600401808260001916600019168152602001915050602060405180830381600087803b1515620024c657600080fd5b6102c65a03f11515620024d857600080fd5b5050506040518051905090508091505090565b6000620025236000809054906101000a900473ffffffffffffffffffffffffffffffffffffffff166200251d62002530565b62001bd8565b905090565b600043905090565b6000606560009054906101000a900473ffffffffffffffffffffffffffffffffffffffff1673ffffffffffffffffffffffffffffffffffffffff1663faff50a86000604051602001526040518163ffffffff167c0100000000000000000000000000000000000000000000000000000000028152600401602060405180830381600087803b1515620025c157600080fd5b6102c65a03f11515620025d357600080fd5b505050604051805190506040805190810160405280600881526020017f61706d2d7265706f0000000000000000000000000000000000000000000000008152506040518082805190602001908083835b6020831015156200264a578051825260208201915060208101905060208303925062002623565b6001836020036101000a03801982511681845116808217855250505050505090500191505060405180910390206040518083600019166000191681526020018260001916600019168152602001925050506040518091039020905090565b602060405190810160405280600081525090565b604051610b2a80620026df83390190565b604051610b0980620032098339019056006060604052341561000f57600080fd5b604051610b2a380380610b2a833981016040528080519060200190919080519060200190919080518201919050508282826000836000806101000a81548173ffffffffffffffffffffffffffffffffffffffff021916908373ffffffffffffffffffffffffffffffffffffffff16021790555082600181600019169055506100ab60015461023b64010000000002610655176401000000009004565b9050600082511115610173576100d38161036164010000000002610642176401000000009004565b15156100de57600080fd5b8073ffffffffffffffffffffffffffffffffffffffff168260405180828051906020019080838360005b83811015610123578082015181840152602081019050610108565b50505050905090810190601f1680156101505780820380516001836020036101000a031916815260200191505b509150506000604051808303818561646e5a03f4915050151561017257600080fd5b5b5050505061019560015461023b64010000000002610655176401000000009004565b600260006101000a81548173ffffffffffffffffffffffffffffffffffffffff021916908373ffffffffffffffffffffffffffffffffffffffff160217905550600073ffffffffffffffffffffffffffffffffffffffff16600260009054906101000a900473ffffffffffffffffffffffffffffffffffffffff1673ffffffffffffffffffffffffffffffffffffffff161415151561023357600080fd5b505050610374565b60008060009054906101000a900473ffffffffffffffffffffffffffffffffffffffff1673ffffffffffffffffffffffffffffffffffffffff166342c71f1d60405180807f6261736500000000000000000000000000000000000000000000000000000000815250600401905060405180910390208460405180836000191660001916815260200182600019166000191681526020019250505060405180910390206000604051602001526040518263ffffffff167c0100000000000000000000000000000000000000000000000000000000028152600401808260001916600019168152602001915050602060405180830381600087803b151561033f57600080fd5b6102c65a03f1151561035057600080fd5b505050604051805190509050919050565b600080823b905060008111915050919050565b6107a7806103836000396000f3006060604052600436106100af576000357c0100000000000000000000000000000000000000000000000000000000900463ffffffff1680631113ed0d146100f5578063178e6079146101265780632501269914610157578063756f60491461018857806380afdea8146101b9578063a3b4b07f146101ea578063cbcc65eb1461021b578063d4aae0c41461024c578063daa3a163146102a1578063db8a61d4146102ce578063ea879634146102ff575b6100f36100ba610354565b6000368080601f01602080910402602001604051908101604052809392919081815260200183838082843782019150505050505061037e565b005b341561010057600080fd5b6101086103bc565b60405180826000191660001916815260200191505060405180910390f35b341561013157600080fd5b6101396103f5565b60405180826000191660001916815260200191505060405180910390f35b341561016257600080fd5b61016a61042e565b60405180826000191660001916815260200191505060405180910390f35b341561019357600080fd5b61019b6104c9565b60405180826000191660001916815260200191505060405180910390f35b34156101c457600080fd5b6101cc610502565b60405180826000191660001916815260200191505060405180910390f35b34156101f557600080fd5b6101fd610508565b60405180826000191660001916815260200191505060405180910390f35b341561022657600080fd5b61022e6105a3565b60405180826000191660001916815260200191505060405180910390f35b341561025757600080fd5b61025f6105dc565b604051808273ffffffffffffffffffffffffffffffffffffffff1673ffffffffffffffffffffffffffffffffffffffff16815260200191505060405180910390f35b34156102ac57600080fd5b6102b4610601565b604051808215151515815260200191505060405180910390f35b34156102d957600080fd5b6102e1610609565b60405180826000191660001916815260200191505060405180910390f35b341561030a57600080fd5b610312610354565b604051808273ffffffffffffffffffffffffffffffffffffffff1673ffffffffffffffffffffffffffffffffffffffff16815260200191505060405180910390f35b6000600260009054906101000a900473ffffffffffffffffffffffffffffffffffffffff16905090565b61038782610642565b151561039257600080fd5b600080825160208401856127105a03f43d604051816000823e82600081146103b8578282f35b8282fd5b60405180807f6b65726e656c2e617261676f6e706d2e657468000000000000000000000000008152506013019050604051809103902081565b60405180807f61707000000000000000000000000000000000000000000000000000000000008152506003019050604051809103902081565b60405180807f636f7265000000000000000000000000000000000000000000000000000000008152506004019050604051809103902060405180807f6b65726e656c2e617261676f6e706d2e6574680000000000000000000000000081525060130190506040518091039020604051808360001916600019168152602001826000191660001916815260200192505050604051809103902081565b60405180807f636f7265000000000000000000000000000000000000000000000000000000008152506004019050604051809103902081565b60015481565b60405180807f61707000000000000000000000000000000000000000000000000000000000008152506003019050604051809103902060405180807f61636c2e617261676f6e706d2e6574680000000000000000000000000000000081525060100190506040518091039020604051808360001916600019168152602001826000191660001916815260200192505050604051809103902081565b60405180807f61636c2e617261676f6e706d2e657468000000000000000000000000000000008152506010019050604051809103902081565b6000809054906101000a900473ffffffffffffffffffffffffffffffffffffffff1681565b600080905090565b60405180807f62617365000000000000000000000000000000000000000000000000000000008152506004019050604051809103902081565b600080823b905060008111915050919050565b60008060009054906101000a900473ffffffffffffffffffffffffffffffffffffffff1673ffffffffffffffffffffffffffffffffffffffff166342c71f1d60405180807f6261736500000000000000000000000000000000000000000000000000000000815250600401905060405180910390208460405180836000191660001916815260200182600019166000191681526020019250505060405180910390206000604051602001526040518263ffffffff167c0100000000000000000000000000000000000000000000000000000000028152600401808260001916600019168152602001915050602060405180830381600087803b151561075957600080fd5b6102c65a03f1151561076a57600080fd5b5050506040518051905090509190505600a165627a7a72305820b5d81f69b6750f0b2f8ca76fd9719ae3361420197c677ba94a2d64728dc49c4100296060604052341561000f57600080fd5b604051610b09380380610b09833981016040528080519060200190919080519060200190919080518201919050508282826000836000806101000a81548173ffffffffffffffffffffffffffffffffffffffff021916908373ffffffffffffffffffffffffffffffffffffffff16021790555082600181600019169055506100ab60015461017f640100000000026106dd176401000000009004565b9050600082511115610173576100d3816102a564010000000002610803176401000000009004565b15156100de57600080fd5b8073ffffffffffffffffffffffffffffffffffffffff168260405180828051906020019080838360005b83811015610123578082015181840152602081019050610108565b50505050905090810190601f1680156101505780820380516001836020036101000a031916815260200191505b509150506000604051808303818561646e5a03f4915050151561017257600080fd5b5b505050505050506102b8565b60008060009054906101000a900473ffffffffffffffffffffffffffffffffffffffff1673ffffffffffffffffffffffffffffffffffffffff166342c71f1d60405180807f6261736500000000000000000000000000000000000000000000000000000000815250600401905060405180910390208460405180836000191660001916815260200182600019166000191681526020019250505060405180910390206000604051602001526040518263ffffffff167c0100000000000000000000000000000000000000000000000000000000028152600401808260001916600019168152602001915050602060405180830381600087803b151561028357600080fd5b6102c65a03f1151561029457600080fd5b505050604051805190509050919050565b600080823b905060008111915050919050565b610842806102c76000396000f3006060604052600436106100ba576000357c0100000000000000000000000000000000000000000000000000000000900463ffffffff1680631113ed0d1461012c578063178e60791461015d578063250126991461018e5780633bc7ebac146101bf578063756f60491461021457806380afdea814610245578063a3b4b07f14610276578063cbcc65eb146102a7578063d4aae0c4146102d8578063daa3a1631461032d578063db8a61d41461035a578063ea8796341461038b575b60006100c46103e0565b905060008173ffffffffffffffffffffffffffffffffffffffff16141515156100ec57600080fd5b610129816000368080601f0160208091040260200160405190810160405280939291908181526020018383808284378201915050505050506103f2565b50005b341561013757600080fd5b61013f610430565b60405180826000191660001916815260200191505060405180910390f35b341561016857600080fd5b610170610469565b60405180826000191660001916815260200191505060405180910390f35b341561019957600080fd5b6101a16104a2565b60405180826000191660001916815260200191505060405180910390f35b34156101ca57600080fd5b6101d261053d565b604051808273ffffffffffffffffffffffffffffffffffffffff1673ffffffffffffffffffffffffffffffffffffffff16815260200191505060405180910390f35b341561021f57600080fd5b610227610563565b60405180826000191660001916815260200191505060405180910390f35b341561025057600080fd5b61025861059c565b60405180826000191660001916815260200191505060405180910390f35b341561028157600080fd5b6102896105a2565b60405180826000191660001916815260200191505060405180910390f35b34156102b257600080fd5b6102ba61063d565b60405180826000191660001916815260200191505060405180910390f35b34156102e357600080fd5b6102eb610676565b604051808273ffffffffffffffffffffffffffffffffffffffff1673ffffffffffffffffffffffffffffffffffffffff16815260200191505060405180910390f35b341561033857600080fd5b61034061069b565b604051808215151515815260200191505060405180910390f35b341561036557600080fd5b61036d6106a4565b60405180826000191660001916815260200191505060405180910390f35b341561039657600080fd5b61039e6103e0565b604051808273ffffffffffffffffffffffffffffffffffffffff1673ffffffffffffffffffffffffffffffffffffffff16815260200191505060405180910390f35b60006103ed6001546106dd565b905090565b6103fb82610803565b151561040657600080fd5b600080825160208401856127105a03f43d604051816000823e826000811461042c578282f35b8282fd5b60405180807f6b65726e656c2e617261676f6e706d2e657468000000000000000000000000008152506013019050604051809103902081565b60405180807f61707000000000000000000000000000000000000000000000000000000000008152506003019050604051809103902081565b60405180807f636f7265000000000000000000000000000000000000000000000000000000008152506004019050604051809103902060405180807f6b65726e656c2e617261676f6e706d2e6574680000000000000000000000000081525060130190506040518091039020604051808360001916600019168152602001826000191660001916815260200192505050604051809103902081565b606460009054906101000a900473ffffffffffffffffffffffffffffffffffffffff1681565b60405180807f636f7265000000000000000000000000000000000000000000000000000000008152506004019050604051809103902081565b60015481565b60405180807f61707000000000000000000000000000000000000000000000000000000000008152506003019050604051809103902060405180807f61636c2e617261676f6e706d2e6574680000000000000000000000000000000081525060100190506040518091039020604051808360001916600019168152602001826000191660001916815260200192505050604051809103902081565b60405180807f61636c2e617261676f6e706d2e657468000000000000000000000000000000008152506010019050604051809103902081565b6000809054906101000a900473ffffffffffffffffffffffffffffffffffffffff1681565b60006001905090565b60405180807f62617365000000000000000000000000000000000000000000000000000000008152506004019050604051809103902081565b60008060009054906101000a900473ffffffffffffffffffffffffffffffffffffffff1673ffffffffffffffffffffffffffffffffffffffff166342c71f1d60405180807f6261736500000000000000000000000000000000000000000000000000000000815250600401905060405180910390208460405180836000191660001916815260200182600019166000191681526020019250505060405180910390206000604051602001526040518263ffffffff167c0100000000000000000000000000000000000000000000000000000000028152600401808260001916600019168152602001915050602060405180830381600087803b15156107e157600080fd5b6102c65a03f115156107f257600080fd5b505050604051805190509050919050565b600080823b9050600081119150509190505600a165627a7a72305820ef3c6c95f97152c15964434ad01baaa1da415b559a1268635b7357c955f04b680029a165627a7a723058205981b631589d8743f146251e1d28887dfd583e78ddcc124ed835402283656d280029",
  "source": "pragma solidity 0.4.18;\n\nimport \"../lib/ens/AbstractENS.sol\";\nimport \"../ens/ENSSubdomainRegistrar.sol\";\nimport \"../factory/AppProxyFactory.sol\";\nimport \"../apps/AragonApp.sol\";\nimport \"../acl/ACL.sol\";\nimport \"./Repo.sol\";\n\n\ncontract APMRegistryConstants {\n    // Cant have a regular APM appId because it is used to build APM\n    // TODO: recheck this\n    string constant public APM_APP_NAME = \"apm-registry\";\n    string constant public REPO_APP_NAME = \"apm-repo\";\n    string constant public ENS_SUB_APP_NAME = \"apm-enssub\";\n}\n\n\ncontract APMRegistry is AragonApp, AppProxyFactory, APMRegistryConstants {\n    AbstractENS ens;\n    ENSSubdomainRegistrar public registrar;\n\n    bytes32 constant public CREATE_REPO_ROLE = bytes32(1);\n\n    event NewRepo(bytes32 id, string name, address repo);\n\n    /**\n    * NEEDS CREATE_NAME_ROLE and POINT_ROOTNODE_ROLE permissions on registrar\n    * @param _registrar ENSSubdomainRegistrar instance that holds registry root node ownership\n    */\n    function initialize(ENSSubdomainRegistrar _registrar) onlyInit public {\n        initialized();\n\n        registrar = _registrar;\n        ens = registrar.ens();\n\n        registrar.pointRootNode(this);\n\n        // Check APM has all permissions it needss\n        ACL acl = ACL(kernel.acl());\n        require(acl.hasPermission(this, registrar, registrar.CREATE_NAME_ROLE()));\n        require(acl.hasPermission(this, acl, acl.CREATE_PERMISSIONS_ROLE()));\n    }\n\n    /**\n    * @notice Create new repo in registry with `_name`\n    * @param _name Repo name, must be ununsed\n    * @param _dev Address that will be given permission to create versions\n    */\n    function newRepo(string _name, address _dev) auth(CREATE_REPO_ROLE) public returns (Repo) {\n        return _newRepo(_name, _dev);\n    }\n\n    /**\n    * @notice Create new repo in registry with `_name` and first repo version\n    * @param _name Repo name\n    * @param _dev Address that will be given permission to create versions\n    * @param _initialSemanticVersion Semantic version for new repo version\n    * @param _contractAddress address for smart contract logic for version (if set to 0, it uses last versions' contractAddress)\n    * @param _contentURI External URI for fetching new version's content\n    */\n    function newRepoWithVersion(\n        string _name,\n        address _dev,\n        uint16[3] _initialSemanticVersion,\n        address _contractAddress,\n        bytes _contentURI\n    ) auth(CREATE_REPO_ROLE) public returns (Repo)\n    {\n        Repo repo = _newRepo(_name, this); // need to have permissions to create version\n        repo.newVersion(_initialSemanticVersion, _contractAddress, _contentURI);\n\n        // Give permissions to _dev\n        ACL acl = ACL(kernel.acl());\n        acl.revokePermission(this, repo, repo.CREATE_VERSION_ROLE());\n        acl.setPermissionManager(_dev, repo, repo.CREATE_VERSION_ROLE());\n        return repo;\n    }\n\n    function _newRepo(string _name, address _dev) internal returns (Repo) {\n        require(bytes(_name).length > 0);\n\n        Repo repo = newClonedRepo();\n\n        ACL(kernel.acl()).createPermission(_dev, repo, repo.CREATE_VERSION_ROLE(), _dev);\n\n        // Creates [name] subdomain in the rootNode and sets registry as resolver\n        // This will fail if repo name already exists\n        bytes32 node = registrar.createNameAndPoint(keccak256(_name), repo);\n\n        NewRepo(node, _name, repo);\n\n        return repo;\n    }\n\n    function newClonedRepo() internal returns (Repo) {\n        return Repo(newAppProxy(kernel, repoAppId()));\n    }\n\n    function repoAppId() internal view returns (bytes32) {\n        return keccak256(registrar.rootNode(), keccak256(REPO_APP_NAME));\n    }\n}\n",
  "sourcePath": "@aragon/os/contracts/apm/APMRegistry.sol",
  "compiler": {
    "name": "solc",
    "version": "0.4.18+commit.9cf6e910.Emscripten.clang"
  },
  "schemaVersion": "1.0.1",
  "updatedAt": "2018-02-26T13:03:38.138Z"
}