{
  "contractName": "AppProxyPinned",
  "abi": [
    {
      "constant": true,
      "inputs": [],
      "name": "KERNEL_APP_ID",
      "outputs": [
        {
          "name": "",
          "type": "bytes32"
        }
      ],
      "payable": false,
      "stateMutability": "view",
      "type": "function"
    },
    {
      "constant": true,
      "inputs": [],
      "name": "APP_ADDR_NAMESPACE",
      "outputs": [
        {
          "name": "",
          "type": "bytes32"
        }
      ],
      "payable": false,
      "stateMutability": "view",
      "type": "function"
    },
    {
      "constant": true,
      "inputs": [],
      "name": "KERNEL_APP",
      "outputs": [
        {
          "name": "",
          "type": "bytes32"
        }
      ],
      "payable": false,
      "stateMutability": "view",
      "type": "function"
    },
    {
      "constant": true,
      "inputs": [],
      "name": "CORE_NAMESPACE",
      "outputs": [
        {
          "name": "",
          "type": "bytes32"
        }
      ],
      "payable": false,
      "stateMutability": "view",
      "type": "function"
    },
    {
      "constant": true,
      "inputs": [],
      "name": "appId",
      "outputs": [
        {
          "name": "",
          "type": "bytes32"
        }
      ],
      "payable": false,
      "stateMutability": "view",
      "type": "function"
    },
    {
      "constant": true,
      "inputs": [],
      "name": "ACL_APP",
      "outputs": [
        {
          "name": "",
          "type": "bytes32"
        }
      ],
      "payable": false,
      "stateMutability": "view",
      "type": "function"
    },
    {
      "constant": true,
      "inputs": [],
      "name": "ACL_APP_ID",
      "outputs": [
        {
          "name": "",
          "type": "bytes32"
        }
      ],
      "payable": false,
      "stateMutability": "view",
      "type": "function"
    },
    {
      "constant": true,
      "inputs": [],
      "name": "kernel",
      "outputs": [
        {
          "name": "",
          "type": "address"
        }
      ],
      "payable": false,
      "stateMutability": "view",
      "type": "function"
    },
    {
      "constant": true,
      "inputs": [],
      "name": "isUpgradeable",
      "outputs": [
        {
          "name": "",
          "type": "bool"
        }
      ],
      "payable": false,
      "stateMutability": "pure",
      "type": "function"
    },
    {
      "constant": true,
      "inputs": [],
      "name": "APP_BASES_NAMESPACE",
      "outputs": [
        {
          "name": "",
          "type": "bytes32"
        }
      ],
      "payable": false,
      "stateMutability": "view",
      "type": "function"
    },
    {
      "constant": true,
      "inputs": [],
      "name": "getCode",
      "outputs": [
        {
          "name": "",
          "type": "address"
        }
      ],
      "payable": false,
      "stateMutability": "view",
      "type": "function"
    },
    {
      "inputs": [
        {
          "name": "_kernel",
          "type": "address"
        },
        {
          "name": "_appId",
          "type": "bytes32"
        },
        {
          "name": "_initializePayload",
          "type": "bytes"
        }
      ],
      "payable": false,
      "stateMutability": "nonpayable",
      "type": "constructor"
    },
    {
      "payable": true,
      "stateMutability": "payable",
      "type": "fallback"
    }
  ],
  "bytecode": "0x6060604052341561000f57600080fd5b604051610b2a380380610b2a833981016040528080519060200190919080519060200190919080518201919050508282826000836000806101000a81548173ffffffffffffffffffffffffffffffffffffffff021916908373ffffffffffffffffffffffffffffffffffffffff16021790555082600181600019169055506100ab60015461023b64010000000002610655176401000000009004565b9050600082511115610173576100d38161036164010000000002610642176401000000009004565b15156100de57600080fd5b8073ffffffffffffffffffffffffffffffffffffffff168260405180828051906020019080838360005b83811015610123578082015181840152602081019050610108565b50505050905090810190601f1680156101505780820380516001836020036101000a031916815260200191505b509150506000604051808303818561646e5a03f4915050151561017257600080fd5b5b5050505061019560015461023b64010000000002610655176401000000009004565b600260006101000a81548173ffffffffffffffffffffffffffffffffffffffff021916908373ffffffffffffffffffffffffffffffffffffffff160217905550600073ffffffffffffffffffffffffffffffffffffffff16600260009054906101000a900473ffffffffffffffffffffffffffffffffffffffff1673ffffffffffffffffffffffffffffffffffffffff161415151561023357600080fd5b505050610374565b60008060009054906101000a900473ffffffffffffffffffffffffffffffffffffffff1673ffffffffffffffffffffffffffffffffffffffff166342c71f1d60405180807f6261736500000000000000000000000000000000000000000000000000000000815250600401905060405180910390208460405180836000191660001916815260200182600019166000191681526020019250505060405180910390206000604051602001526040518263ffffffff167c0100000000000000000000000000000000000000000000000000000000028152600401808260001916600019168152602001915050602060405180830381600087803b151561033f57600080fd5b6102c65a03f1151561035057600080fd5b505050604051805190509050919050565b600080823b905060008111915050919050565b6107a7806103836000396000f3006060604052600436106100af576000357c0100000000000000000000000000000000000000000000000000000000900463ffffffff1680631113ed0d146100f5578063178e6079146101265780632501269914610157578063756f60491461018857806380afdea8146101b9578063a3b4b07f146101ea578063cbcc65eb1461021b578063d4aae0c41461024c578063daa3a163146102a1578063db8a61d4146102ce578063ea879634146102ff575b6100f36100ba610354565b6000368080601f01602080910402602001604051908101604052809392919081815260200183838082843782019150505050505061037e565b005b341561010057600080fd5b6101086103bc565b60405180826000191660001916815260200191505060405180910390f35b341561013157600080fd5b6101396103f5565b60405180826000191660001916815260200191505060405180910390f35b341561016257600080fd5b61016a61042e565b60405180826000191660001916815260200191505060405180910390f35b341561019357600080fd5b61019b6104c9565b60405180826000191660001916815260200191505060405180910390f35b34156101c457600080fd5b6101cc610502565b60405180826000191660001916815260200191505060405180910390f35b34156101f557600080fd5b6101fd610508565b60405180826000191660001916815260200191505060405180910390f35b341561022657600080fd5b61022e6105a3565b60405180826000191660001916815260200191505060405180910390f35b341561025757600080fd5b61025f6105dc565b604051808273ffffffffffffffffffffffffffffffffffffffff1673ffffffffffffffffffffffffffffffffffffffff16815260200191505060405180910390f35b34156102ac57600080fd5b6102b4610601565b604051808215151515815260200191505060405180910390f35b34156102d957600080fd5b6102e1610609565b60405180826000191660001916815260200191505060405180910390f35b341561030a57600080fd5b610312610354565b604051808273ffffffffffffffffffffffffffffffffffffffff1673ffffffffffffffffffffffffffffffffffffffff16815260200191505060405180910390f35b6000600260009054906101000a900473ffffffffffffffffffffffffffffffffffffffff16905090565b61038782610642565b151561039257600080fd5b600080825160208401856127105a03f43d604051816000823e82600081146103b8578282f35b8282fd5b60405180807f6b65726e656c2e617261676f6e706d2e657468000000000000000000000000008152506013019050604051809103902081565b60405180807f61707000000000000000000000000000000000000000000000000000000000008152506003019050604051809103902081565b60405180807f636f7265000000000000000000000000000000000000000000000000000000008152506004019050604051809103902060405180807f6b65726e656c2e617261676f6e706d2e6574680000000000000000000000000081525060130190506040518091039020604051808360001916600019168152602001826000191660001916815260200192505050604051809103902081565b60405180807f636f7265000000000000000000000000000000000000000000000000000000008152506004019050604051809103902081565b60015481565b60405180807f61707000000000000000000000000000000000000000000000000000000000008152506003019050604051809103902060405180807f61636c2e617261676f6e706d2e6574680000000000000000000000000000000081525060100190506040518091039020604051808360001916600019168152602001826000191660001916815260200192505050604051809103902081565b60405180807f61636c2e617261676f6e706d2e657468000000000000000000000000000000008152506010019050604051809103902081565b6000809054906101000a900473ffffffffffffffffffffffffffffffffffffffff1681565b600080905090565b60405180807f62617365000000000000000000000000000000000000000000000000000000008152506004019050604051809103902081565b600080823b905060008111915050919050565b60008060009054906101000a900473ffffffffffffffffffffffffffffffffffffffff1673ffffffffffffffffffffffffffffffffffffffff166342c71f1d60405180807f6261736500000000000000000000000000000000000000000000000000000000815250600401905060405180910390208460405180836000191660001916815260200182600019166000191681526020019250505060405180910390206000604051602001526040518263ffffffff167c0100000000000000000000000000000000000000000000000000000000028152600401808260001916600019168152602001915050602060405180830381600087803b151561075957600080fd5b6102c65a03f1151561076a57600080fd5b5050506040518051905090509190505600a165627a7a72305820b5d81f69b6750f0b2f8ca76fd9719ae3361420197c677ba94a2d64728dc49c410029",
  "source": "pragma solidity 0.4.18;\n\nimport \"./AppProxyBase.sol\";\n\n\ncontract AppProxyPinned is AppProxyBase {\n    /**\n    * @dev Initialize AppProxyPinned (makes it an un-upgradeable Aragon app)\n    * @param _kernel Reference to organization kernel for the app\n    * @param _appId Identifier for app\n    * @param _initializePayload Payload for call to be made after setup to initialize\n    */\n    function AppProxyPinned(IKernel _kernel, bytes32 _appId, bytes _initializePayload)\n             AppProxyBase(_kernel, _appId, _initializePayload) public\n    {\n        pinnedCode = getAppBase(appId);\n        require(pinnedCode != address(0));\n    }\n\n    function getCode() public view returns (address) {\n        return pinnedCode;\n    }\n\n    function isUpgradeable() public pure returns (bool) {\n        return false;\n    }\n\n    function () payable public {\n        delegatedFwd(getCode(), msg.data);\n    }\n}",
  "sourcePath": "@aragon/os/contracts/apps/AppProxyPinned.sol",
  "compiler": {
    "name": "solc",
    "version": "0.4.18+commit.9cf6e910.Emscripten.clang"
  },
  "schemaVersion": "1.0.1",
  "updatedAt": "2018-02-26T13:03:38.141Z"
}