{
  "contractName": "AppProxyFactory",
  "abi": [
    {
      "constant": false,
      "inputs": [
        {
          "name": "_kernel",
          "type": "address"
        },
        {
          "name": "_appId",
          "type": "bytes32"
        },
        {
          "name": "_initializePayload",
          "type": "bytes"
        }
      ],
      "name": "newAppProxyPinned",
      "outputs": [
        {
          "name": "",
          "type": "address"
        }
      ],
      "payable": false,
      "stateMutability": "nonpayable",
      "type": "function"
    },
    {
      "constant": false,
      "inputs": [
        {
          "name": "_kernel",
          "type": "address"
        },
        {
          "name": "_appId",
          "type": "bytes32"
        }
      ],
      "name": "newAppProxy",
      "outputs": [
        {
          "name": "",
          "type": "address"
        }
      ],
      "payable": false,
      "stateMutability": "nonpayable",
      "type": "function"
    },
    {
      "constant": false,
      "inputs": [
        {
          "name": "_kernel",
          "type": "address"
        },
        {
          "name": "_appId",
          "type": "bytes32"
        },
        {
          "name": "_initializePayload",
          "type": "bytes"
        }
      ],
      "name": "newAppProxy",
      "outputs": [
        {
          "name": "",
          "type": "address"
        }
      ],
      "payable": false,
      "stateMutability": "nonpayable",
      "type": "function"
    },
    {
      "constant": false,
      "inputs": [
        {
          "name": "_kernel",
          "type": "address"
        },
        {
          "name": "_appId",
          "type": "bytes32"
        }
      ],
      "name": "newAppProxyPinned",
      "outputs": [
        {
          "name": "",
          "type": "address"
        }
      ],
      "payable": false,
      "stateMutability": "nonpayable",
      "type": "function"
    },
    {
      "anonymous": false,
      "inputs": [
        {
          "indexed": false,
          "name": "proxy",
          "type": "address"
        }
      ],
      "name": "NewAppProxy",
      "type": "event"
    }
  ],
  "bytecode": "0x6060604052341561000f57600080fd5b611c7e8061001e6000396000f300606060405260043610610062576000357c0100000000000000000000000000000000000000000000000000000000900463ffffffff168063d162f8b014610067578063e156a8f314610130578063ede658b0146101b6578063ff289fc51461027f575b600080fd5b341561007257600080fd5b6100ee600480803573ffffffffffffffffffffffffffffffffffffffff169060200190919080356000191690602001909190803590602001908201803590602001908080601f01602080910402602001604051908101604052809392919081815260200183838082843782019150505050505091905050610305565b604051808273ffffffffffffffffffffffffffffffffffffffff1673ffffffffffffffffffffffffffffffffffffffff16815260200191505060405180910390f35b341561013b57600080fd5b610174600480803573ffffffffffffffffffffffffffffffffffffffff169060200190919080356000191690602001909190505061044a565b604051808273ffffffffffffffffffffffffffffffffffffffff1673ffffffffffffffffffffffffffffffffffffffff16815260200191505060405180910390f35b34156101c157600080fd5b61023d600480803573ffffffffffffffffffffffffffffffffffffffff169060200190919080356000191690602001909190803590602001908201803590602001908080601f01602080910402602001604051908101604052809392919081815260200183838082843782019150505050505091905050610482565b604051808273ffffffffffffffffffffffffffffffffffffffff1673ffffffffffffffffffffffffffffffffffffffff16815260200191505060405180910390f35b341561028a57600080fd5b6102c3600480803573ffffffffffffffffffffffffffffffffffffffff16906020019091908035600019169060200190919050506105c7565b604051808273ffffffffffffffffffffffffffffffffffffffff1673ffffffffffffffffffffffffffffffffffffffff16815260200191505060405180910390f35b6000808484846103136105ff565b808473ffffffffffffffffffffffffffffffffffffffff1673ffffffffffffffffffffffffffffffffffffffff168152602001836000191660001916815260200180602001828103825283818151815260200191508051906020019080838360005b83811015610390578082015181840152602081019050610375565b50505050905090810190601f1680156103bd5780820380516001836020036101000a031916815260200191505b50945050505050604051809103906000f08015156103da57600080fd5b90507fe28f1412cafe58e22073759128eddcccfd9c1e3326665df874bdaf26077231a981604051808273ffffffffffffffffffffffffffffffffffffffff1673ffffffffffffffffffffffffffffffffffffffff16815260200191505060405180910390a1809150509392505050565b600061047a838360006040518059106104605750595b9080825280601f01601f1916602001820160405250610482565b905092915050565b60008084848461049061060f565b808473ffffffffffffffffffffffffffffffffffffffff1673ffffffffffffffffffffffffffffffffffffffff168152602001836000191660001916815260200180602001828103825283818151815260200191508051906020019080838360005b8381101561050d5780820151818401526020810190506104f2565b50505050905090810190601f16801561053a5780820380516001836020036101000a031916815260200191505b50945050505050604051809103906000f080151561055757600080fd5b90507fe28f1412cafe58e22073759128eddcccfd9c1e3326665df874bdaf26077231a981604051808273ffffffffffffffffffffffffffffffffffffffff1673ffffffffffffffffffffffffffffffffffffffff16815260200191505060405180910390a1809150509392505050565b60006105f7838360006040518059106105dd5750595b9080825280601f01601f1916602001820160405250610305565b905092915050565b604051610b2a8061062083390190565b604051610b098061114a8339019056006060604052341561000f57600080fd5b604051610b2a380380610b2a833981016040528080519060200190919080519060200190919080518201919050508282826000836000806101000a81548173ffffffffffffffffffffffffffffffffffffffff021916908373ffffffffffffffffffffffffffffffffffffffff16021790555082600181600019169055506100ab60015461023b64010000000002610655176401000000009004565b9050600082511115610173576100d38161036164010000000002610642176401000000009004565b15156100de57600080fd5b8073ffffffffffffffffffffffffffffffffffffffff168260405180828051906020019080838360005b83811015610123578082015181840152602081019050610108565b50505050905090810190601f1680156101505780820380516001836020036101000a031916815260200191505b509150506000604051808303818561646e5a03f4915050151561017257600080fd5b5b5050505061019560015461023b64010000000002610655176401000000009004565b600260006101000a81548173ffffffffffffffffffffffffffffffffffffffff021916908373ffffffffffffffffffffffffffffffffffffffff160217905550600073ffffffffffffffffffffffffffffffffffffffff16600260009054906101000a900473ffffffffffffffffffffffffffffffffffffffff1673ffffffffffffffffffffffffffffffffffffffff161415151561023357600080fd5b505050610374565b60008060009054906101000a900473ffffffffffffffffffffffffffffffffffffffff1673ffffffffffffffffffffffffffffffffffffffff166342c71f1d60405180807f6261736500000000000000000000000000000000000000000000000000000000815250600401905060405180910390208460405180836000191660001916815260200182600019166000191681526020019250505060405180910390206000604051602001526040518263ffffffff167c0100000000000000000000000000000000000000000000000000000000028152600401808260001916600019168152602001915050602060405180830381600087803b151561033f57600080fd5b6102c65a03f1151561035057600080fd5b505050604051805190509050919050565b600080823b905060008111915050919050565b6107a7806103836000396000f3006060604052600436106100af576000357c0100000000000000000000000000000000000000000000000000000000900463ffffffff1680631113ed0d146100f5578063178e6079146101265780632501269914610157578063756f60491461018857806380afdea8146101b9578063a3b4b07f146101ea578063cbcc65eb1461021b578063d4aae0c41461024c578063daa3a163146102a1578063db8a61d4146102ce578063ea879634146102ff575b6100f36100ba610354565b6000368080601f01602080910402602001604051908101604052809392919081815260200183838082843782019150505050505061037e565b005b341561010057600080fd5b6101086103bc565b60405180826000191660001916815260200191505060405180910390f35b341561013157600080fd5b6101396103f5565b60405180826000191660001916815260200191505060405180910390f35b341561016257600080fd5b61016a61042e565b60405180826000191660001916815260200191505060405180910390f35b341561019357600080fd5b61019b6104c9565b60405180826000191660001916815260200191505060405180910390f35b34156101c457600080fd5b6101cc610502565b60405180826000191660001916815260200191505060405180910390f35b34156101f557600080fd5b6101fd610508565b60405180826000191660001916815260200191505060405180910390f35b341561022657600080fd5b61022e6105a3565b60405180826000191660001916815260200191505060405180910390f35b341561025757600080fd5b61025f6105dc565b604051808273ffffffffffffffffffffffffffffffffffffffff1673ffffffffffffffffffffffffffffffffffffffff16815260200191505060405180910390f35b34156102ac57600080fd5b6102b4610601565b604051808215151515815260200191505060405180910390f35b34156102d957600080fd5b6102e1610609565b60405180826000191660001916815260200191505060405180910390f35b341561030a57600080fd5b610312610354565b604051808273ffffffffffffffffffffffffffffffffffffffff1673ffffffffffffffffffffffffffffffffffffffff16815260200191505060405180910390f35b6000600260009054906101000a900473ffffffffffffffffffffffffffffffffffffffff16905090565b61038782610642565b151561039257600080fd5b600080825160208401856127105a03f43d604051816000823e82600081146103b8578282f35b8282fd5b60405180807f6b65726e656c2e617261676f6e706d2e657468000000000000000000000000008152506013019050604051809103902081565b60405180807f61707000000000000000000000000000000000000000000000000000000000008152506003019050604051809103902081565b60405180807f636f7265000000000000000000000000000000000000000000000000000000008152506004019050604051809103902060405180807f6b65726e656c2e617261676f6e706d2e6574680000000000000000000000000081525060130190506040518091039020604051808360001916600019168152602001826000191660001916815260200192505050604051809103902081565b60405180807f636f7265000000000000000000000000000000000000000000000000000000008152506004019050604051809103902081565b60015481565b60405180807f61707000000000000000000000000000000000000000000000000000000000008152506003019050604051809103902060405180807f61636c2e617261676f6e706d2e6574680000000000000000000000000000000081525060100190506040518091039020604051808360001916600019168152602001826000191660001916815260200192505050604051809103902081565b60405180807f61636c2e617261676f6e706d2e657468000000000000000000000000000000008152506010019050604051809103902081565b6000809054906101000a900473ffffffffffffffffffffffffffffffffffffffff1681565b600080905090565b60405180807f62617365000000000000000000000000000000000000000000000000000000008152506004019050604051809103902081565b600080823b905060008111915050919050565b60008060009054906101000a900473ffffffffffffffffffffffffffffffffffffffff1673ffffffffffffffffffffffffffffffffffffffff166342c71f1d60405180807f6261736500000000000000000000000000000000000000000000000000000000815250600401905060405180910390208460405180836000191660001916815260200182600019166000191681526020019250505060405180910390206000604051602001526040518263ffffffff167c0100000000000000000000000000000000000000000000000000000000028152600401808260001916600019168152602001915050602060405180830381600087803b151561075957600080fd5b6102c65a03f1151561076a57600080fd5b5050506040518051905090509190505600a165627a7a72305820b5d81f69b6750f0b2f8ca76fd9719ae3361420197c677ba94a2d64728dc49c4100296060604052341561000f57600080fd5b604051610b09380380610b09833981016040528080519060200190919080519060200190919080518201919050508282826000836000806101000a81548173ffffffffffffffffffffffffffffffffffffffff021916908373ffffffffffffffffffffffffffffffffffffffff16021790555082600181600019169055506100ab60015461017f640100000000026106dd176401000000009004565b9050600082511115610173576100d3816102a564010000000002610803176401000000009004565b15156100de57600080fd5b8073ffffffffffffffffffffffffffffffffffffffff168260405180828051906020019080838360005b83811015610123578082015181840152602081019050610108565b50505050905090810190601f1680156101505780820380516001836020036101000a031916815260200191505b509150506000604051808303818561646e5a03f4915050151561017257600080fd5b5b505050505050506102b8565b60008060009054906101000a900473ffffffffffffffffffffffffffffffffffffffff1673ffffffffffffffffffffffffffffffffffffffff166342c71f1d60405180807f6261736500000000000000000000000000000000000000000000000000000000815250600401905060405180910390208460405180836000191660001916815260200182600019166000191681526020019250505060405180910390206000604051602001526040518263ffffffff167c0100000000000000000000000000000000000000000000000000000000028152600401808260001916600019168152602001915050602060405180830381600087803b151561028357600080fd5b6102c65a03f1151561029457600080fd5b505050604051805190509050919050565b600080823b905060008111915050919050565b610842806102c76000396000f3006060604052600436106100ba576000357c0100000000000000000000000000000000000000000000000000000000900463ffffffff1680631113ed0d1461012c578063178e60791461015d578063250126991461018e5780633bc7ebac146101bf578063756f60491461021457806380afdea814610245578063a3b4b07f14610276578063cbcc65eb146102a7578063d4aae0c4146102d8578063daa3a1631461032d578063db8a61d41461035a578063ea8796341461038b575b60006100c46103e0565b905060008173ffffffffffffffffffffffffffffffffffffffff16141515156100ec57600080fd5b610129816000368080601f0160208091040260200160405190810160405280939291908181526020018383808284378201915050505050506103f2565b50005b341561013757600080fd5b61013f610430565b60405180826000191660001916815260200191505060405180910390f35b341561016857600080fd5b610170610469565b60405180826000191660001916815260200191505060405180910390f35b341561019957600080fd5b6101a16104a2565b60405180826000191660001916815260200191505060405180910390f35b34156101ca57600080fd5b6101d261053d565b604051808273ffffffffffffffffffffffffffffffffffffffff1673ffffffffffffffffffffffffffffffffffffffff16815260200191505060405180910390f35b341561021f57600080fd5b610227610563565b60405180826000191660001916815260200191505060405180910390f35b341561025057600080fd5b61025861059c565b60405180826000191660001916815260200191505060405180910390f35b341561028157600080fd5b6102896105a2565b60405180826000191660001916815260200191505060405180910390f35b34156102b257600080fd5b6102ba61063d565b60405180826000191660001916815260200191505060405180910390f35b34156102e357600080fd5b6102eb610676565b604051808273ffffffffffffffffffffffffffffffffffffffff1673ffffffffffffffffffffffffffffffffffffffff16815260200191505060405180910390f35b341561033857600080fd5b61034061069b565b604051808215151515815260200191505060405180910390f35b341561036557600080fd5b61036d6106a4565b60405180826000191660001916815260200191505060405180910390f35b341561039657600080fd5b61039e6103e0565b604051808273ffffffffffffffffffffffffffffffffffffffff1673ffffffffffffffffffffffffffffffffffffffff16815260200191505060405180910390f35b60006103ed6001546106dd565b905090565b6103fb82610803565b151561040657600080fd5b600080825160208401856127105a03f43d604051816000823e826000811461042c578282f35b8282fd5b60405180807f6b65726e656c2e617261676f6e706d2e657468000000000000000000000000008152506013019050604051809103902081565b60405180807f61707000000000000000000000000000000000000000000000000000000000008152506003019050604051809103902081565b60405180807f636f7265000000000000000000000000000000000000000000000000000000008152506004019050604051809103902060405180807f6b65726e656c2e617261676f6e706d2e6574680000000000000000000000000081525060130190506040518091039020604051808360001916600019168152602001826000191660001916815260200192505050604051809103902081565b606460009054906101000a900473ffffffffffffffffffffffffffffffffffffffff1681565b60405180807f636f7265000000000000000000000000000000000000000000000000000000008152506004019050604051809103902081565b60015481565b60405180807f61707000000000000000000000000000000000000000000000000000000000008152506003019050604051809103902060405180807f61636c2e617261676f6e706d2e6574680000000000000000000000000000000081525060100190506040518091039020604051808360001916600019168152602001826000191660001916815260200192505050604051809103902081565b60405180807f61636c2e617261676f6e706d2e657468000000000000000000000000000000008152506010019050604051809103902081565b6000809054906101000a900473ffffffffffffffffffffffffffffffffffffffff1681565b60006001905090565b60405180807f62617365000000000000000000000000000000000000000000000000000000008152506004019050604051809103902081565b60008060009054906101000a900473ffffffffffffffffffffffffffffffffffffffff1673ffffffffffffffffffffffffffffffffffffffff166342c71f1d60405180807f6261736500000000000000000000000000000000000000000000000000000000815250600401905060405180910390208460405180836000191660001916815260200182600019166000191681526020019250505060405180910390206000604051602001526040518263ffffffff167c0100000000000000000000000000000000000000000000000000000000028152600401808260001916600019168152602001915050602060405180830381600087803b15156107e157600080fd5b6102c65a03f115156107f257600080fd5b505050604051805190509050919050565b600080823b9050600081119150509190505600a165627a7a72305820ef3c6c95f97152c15964434ad01baaa1da415b559a1268635b7357c955f04b680029a165627a7a72305820763a5087a407efd2720199fa6ebf70074206c4b6345e569ab09923c550214a980029",
  "source": "pragma solidity 0.4.18;\n\nimport \"../apps/AppProxyUpgradeable.sol\";\nimport \"../apps/AppProxyPinned.sol\";\n\n\ncontract AppProxyFactory {\n    event NewAppProxy(address proxy);\n\n    function newAppProxy(IKernel _kernel, bytes32 _appId) public returns (AppProxyUpgradeable) {\n        return newAppProxy(_kernel, _appId, new bytes(0));\n    }\n\n    function newAppProxy(IKernel _kernel, bytes32 _appId, bytes _initializePayload) public returns (AppProxyUpgradeable) {\n        AppProxyUpgradeable proxy = new AppProxyUpgradeable(_kernel, _appId, _initializePayload);\n        NewAppProxy(address(proxy));\n        return proxy;\n    }\n\n    function newAppProxyPinned(IKernel _kernel, bytes32 _appId) public returns (AppProxyPinned) {\n        return newAppProxyPinned(_kernel, _appId, new bytes(0));\n    }\n\n    function newAppProxyPinned(IKernel _kernel, bytes32 _appId, bytes _initializePayload) public returns (AppProxyPinned) {\n        AppProxyPinned proxy = new AppProxyPinned(_kernel, _appId, _initializePayload);\n        NewAppProxy(address(proxy));\n        return proxy;\n    }\n}\n",
  "sourcePath": "@aragon/os/contracts/factory/AppProxyFactory.sol",
  "compiler": {
    "name": "solc",
    "version": "0.4.18+commit.9cf6e910.Emscripten.clang"
  },
  "schemaVersion": "1.0.1",
  "updatedAt": "2018-03-05T17:18:03.439Z"
}