{
  "contractName": "BetaTemplateBase",
  "abi": [
    {
      "constant": true,
      "inputs": [],
      "name": "minimeFac",
      "outputs": [
        {
          "name": "",
          "type": "address"
        }
      ],
      "payable": false,
      "stateMutability": "view",
      "type": "function"
    },
    {
      "constant": true,
      "inputs": [],
      "name": "etherToken",
      "outputs": [
        {
          "name": "",
          "type": "address"
        }
      ],
      "payable": false,
      "stateMutability": "view",
      "type": "function"
    },
    {
      "constant": true,
      "inputs": [],
      "name": "apm",
      "outputs": [
        {
          "name": "",
          "type": "address"
        }
      ],
      "payable": false,
      "stateMutability": "view",
      "type": "function"
    },
    {
      "constant": true,
      "inputs": [],
      "name": "fac",
      "outputs": [
        {
          "name": "",
          "type": "address"
        }
      ],
      "payable": false,
      "stateMutability": "view",
      "type": "function"
    },
    {
      "constant": true,
      "inputs": [
        {
          "name": "appId",
          "type": "bytes32"
        }
      ],
      "name": "latestVersionAppBase",
      "outputs": [
        {
          "name": "base",
          "type": "address"
        }
      ],
      "payable": false,
      "stateMutability": "view",
      "type": "function"
    },
    {
      "constant": true,
      "inputs": [],
      "name": "aragonID",
      "outputs": [
        {
          "name": "",
          "type": "address"
        }
      ],
      "payable": false,
      "stateMutability": "view",
      "type": "function"
    },
    {
      "constant": true,
      "inputs": [
        {
          "name": "",
          "type": "uint256"
        }
      ],
      "name": "appIds",
      "outputs": [
        {
          "name": "",
          "type": "bytes32"
        }
      ],
      "payable": false,
      "stateMutability": "view",
      "type": "function"
    },
    {
      "inputs": [
        {
          "name": "_fac",
          "type": "address"
        },
        {
          "name": "_minimeFac",
          "type": "address"
        },
        {
          "name": "_apm",
          "type": "address"
        },
        {
          "name": "_etherToken",
          "type": "address"
        },
        {
          "name": "_aragonID",
          "type": "address"
        },
        {
          "name": "_appIds",
          "type": "bytes32[4]"
        }
      ],
      "payable": false,
      "stateMutability": "nonpayable",
      "type": "constructor"
    },
    {
      "anonymous": false,
      "inputs": [
        {
          "indexed": false,
          "name": "token",
          "type": "address"
        },
        {
          "indexed": true,
          "name": "cacheOwner",
          "type": "address"
        }
      ],
      "name": "DeployToken",
      "type": "event"
    },
    {
      "anonymous": false,
      "inputs": [
        {
          "indexed": false,
          "name": "dao",
          "type": "address"
        },
        {
          "indexed": true,
          "name": "token",
          "type": "address"
        }
      ],
      "name": "DeployInstance",
      "type": "event"
    }
  ],
  "bytecode": "0x6060604052341561000f57600080fd5b6040516101208061091e8339810160405280805190602001909190805190602001909190805190602001909190805190602001909190805190602001909150836000806101000a81548173ffffffffffffffffffffffffffffffffffffffff021916908373ffffffffffffffffffffffffffffffffffffffff16021790555085600160006101000a81548173ffffffffffffffffffffffffffffffffffffffff021916908373ffffffffffffffffffffffffffffffffffffffff16021790555084600260006101000a81548173ffffffffffffffffffffffffffffffffffffffff021916908373ffffffffffffffffffffffffffffffffffffffff16021790555082600360006101000a81548173ffffffffffffffffffffffffffffffffffffffff021916908373ffffffffffffffffffffffffffffffffffffffff16021790555081600460006101000a81548173ffffffffffffffffffffffffffffffffffffffff021916908373ffffffffffffffffffffffffffffffffffffffff1602179055508060059060046101a39291906101af565b5050505050505061021a565b82600481019282156101e4579160200282015b828111156101e35782518290600019169055916020019190600101906101c2565b5b5090506101f191906101f5565b5090565b61021791905b808211156102135760008160009055506001016101fb565b5090565b90565b6106f5806102296000396000f300606060405260043610610083576000357c0100000000000000000000000000000000000000000000000000000000900463ffffffff168063039fa76014610088578063b8066bcb146100dd578063bc8c35f214610132578063c3b3147214610187578063c6d2c717146101dc578063d165603f14610243578063ef41afcd14610298575b600080fd5b341561009357600080fd5b61009b6102d7565b604051808273ffffffffffffffffffffffffffffffffffffffff1673ffffffffffffffffffffffffffffffffffffffff16815260200191505060405180910390f35b34156100e857600080fd5b6100f06102fd565b604051808273ffffffffffffffffffffffffffffffffffffffff1673ffffffffffffffffffffffffffffffffffffffff16815260200191505060405180910390f35b341561013d57600080fd5b610145610323565b604051808273ffffffffffffffffffffffffffffffffffffffff1673ffffffffffffffffffffffffffffffffffffffff16815260200191505060405180910390f35b341561019257600080fd5b61019a610348565b604051808273ffffffffffffffffffffffffffffffffffffffff1673ffffffffffffffffffffffffffffffffffffffff16815260200191505060405180910390f35b34156101e757600080fd5b61020160048080356000191690602001909190505061036e565b604051808273ffffffffffffffffffffffffffffffffffffffff1673ffffffffffffffffffffffffffffffffffffffff16815260200191505060405180910390f35b341561024e57600080fd5b610256610554565b604051808273ffffffffffffffffffffffffffffffffffffffff1673ffffffffffffffffffffffffffffffffffffffff16815260200191505060405180910390f35b34156102a357600080fd5b6102b9600480803590602001909190505061057a565b60405180826000191660001916815260200191505060405180910390f35b600260009054906101000a900473ffffffffffffffffffffffffffffffffffffffff1681565b600360009054906101000a900473ffffffffffffffffffffffffffffffffffffffff1681565b6000809054906101000a900473ffffffffffffffffffffffffffffffffffffffff1681565b600160009054906101000a900473ffffffffffffffffffffffffffffffffffffffff1681565b600080610379610594565b73ffffffffffffffffffffffffffffffffffffffff16630178b8bf846000604051602001526040518263ffffffff167c0100000000000000000000000000000000000000000000000000000000028152600401808260001916600019168152602001915050602060405180830381600087803b15156103f757600080fd5b6102c65a03f1151561040857600080fd5b5050506040518051905073ffffffffffffffffffffffffffffffffffffffff16633b3b57de846000604051602001526040518263ffffffff167c0100000000000000000000000000000000000000000000000000000000028152600401808260001916600019168152602001915050602060405180830381600087803b151561049057600080fd5b6102c65a03f115156104a157600080fd5b5050506040518051905090508073ffffffffffffffffffffffffffffffffffffffff1663c36af460600060405160a001526040518163ffffffff167c010000000000000000000000000000000000000000000000000000000002815260040160a060405180830381600087803b151561051957600080fd5b6102c65a03f1151561052a57600080fd5b50505060405180606001805190602001805190602001604052909150508092505081915050919050565b600460009054906101000a900473ffffffffffffffffffffffffffffffffffffffff1681565b60058160048110151561058957fe5b016000915090505481565b60008060009054906101000a900473ffffffffffffffffffffffffffffffffffffffff1673ffffffffffffffffffffffffffffffffffffffff16632b20e3976000604051602001526040518163ffffffff167c0100000000000000000000000000000000000000000000000000000000028152600401602060405180830381600087803b151561062357600080fd5b6102c65a03f1151561063457600080fd5b5050506040518051905073ffffffffffffffffffffffffffffffffffffffff16633f15457f6000604051602001526040518163ffffffff167c0100000000000000000000000000000000000000000000000000000000028152600401602060405180830381600087803b15156106a957600080fd5b6102c65a03f115156106ba57600080fd5b505050604051805190509050905600a165627a7a723058206772c14bc72874f20a3512214dc6368b2ea4f7715fe11e0c485a034e8fd92b8a0029",
  "source": "pragma solidity 0.4.18;\n\nimport \"@aragon/os/contracts/apm/APMRegistry.sol\";\nimport \"@aragon/os/contracts/factory/DAOFactory.sol\";\nimport \"@aragon/os/contracts/kernel/Kernel.sol\";\nimport \"@aragon/os/contracts/acl/ACL.sol\";\nimport \"@aragon/os/contracts/lib/minime/MiniMeToken.sol\";\nimport \"@aragon/os/contracts/common/EtherToken.sol\";\n\nimport \"@aragon/id/contracts/IFIFSResolvingRegistrar.sol\";\n\nimport \"@aragon/apps-voting/contracts/Voting.sol\";\nimport \"@aragon/apps-vault/contracts/Vault.sol\";\nimport \"@aragon/apps-token-manager/contracts/TokenManager.sol\";\nimport \"@aragon/apps-finance/contracts/Finance.sol\";\n\n\ncontract BetaTemplateBase {\n    APMRegistry public apm;\n    DAOFactory public fac;\n    MiniMeTokenFactory public minimeFac;\n    EtherToken public etherToken;\n    IFIFSResolvingRegistrar public aragonID;\n    bytes32[4] public appIds;\n\n    mapping (address => address) tokenCache;\n\n    // ensure alphabetic order\n    enum Apps { Finance, TokenManager, Vault, Voting }\n\n    event DeployToken(address token, address indexed cacheOwner);\n    event DeployInstance(address dao, address indexed token);\n\n    address constant ANY_ENTITY = address(-1);\n\n    function BetaTemplateBase(DAOFactory _fac, MiniMeTokenFactory _minimeFac, APMRegistry _apm, EtherToken _etherToken, IFIFSResolvingRegistrar _aragonID, bytes32[4] _appIds) public {\n        apm = _apm;\n        fac = _fac;\n        minimeFac = _minimeFac;\n        etherToken = _etherToken;\n        aragonID = _aragonID;\n        appIds = _appIds;\n    }\n\n    function createDAO(string name, MiniMeToken token, address[] holders, uint256[] stakes, uint256 _maxTokens) internal returns (Voting) {\n        Kernel dao = fac.newDAO(this);\n\n        ACL acl = ACL(dao.acl());\n\n        acl.createPermission(this, dao, dao.APP_MANAGER_ROLE(), this);\n\n        Voting voting = Voting(dao.newAppInstance(appIds[uint8(Apps.Voting)], latestVersionAppBase(appIds[uint8(Apps.Voting)])));\n        Vault vault = Vault(dao.newAppInstance(appIds[uint8(Apps.Vault)], latestVersionAppBase(appIds[uint8(Apps.Vault)])));\n        Finance finance = Finance(dao.newAppInstance(appIds[uint8(Apps.Finance)], latestVersionAppBase(appIds[uint8(Apps.Finance)])));\n        TokenManager tokenManager = TokenManager(dao.newAppInstance(appIds[uint8(Apps.TokenManager)], latestVersionAppBase(appIds[uint8(Apps.TokenManager)])));\n\n        token.changeController(tokenManager); // sender has to create tokens\n\n        // permissions\n        acl.createPermission(ANY_ENTITY, voting, voting.CREATE_VOTES_ROLE(), voting);\n        acl.createPermission(voting, voting, voting.MODIFY_QUORUM_ROLE(), voting);\n\n        acl.createPermission(finance, vault, vault.TRANSFER_ROLE(), voting);\n        acl.createPermission(voting, finance, finance.CREATE_PAYMENTS_ROLE(), voting);\n        acl.createPermission(voting, finance, finance.EXECUTE_PAYMENTS_ROLE(), voting);\n        acl.createPermission(voting, finance, finance.DISABLE_PAYMENTS_ROLE(), voting);\n        acl.createPermission(voting, tokenManager, tokenManager.ASSIGN_ROLE(), voting);\n        acl.createPermission(voting, tokenManager, tokenManager.REVOKE_VESTINGS_ROLE(), voting);\n\n        require(holders.length == stakes.length);\n\n        acl.createPermission(this, tokenManager, tokenManager.MINT_ROLE(), this);\n\n        tokenManager.initialize(token, _maxTokens > 1, _maxTokens, true);\n\n        for (uint256 i = 0; i < holders.length; i++) {\n            tokenManager.mint(holders[i], stakes[i]);\n        }\n\n        // inits\n        finance.initialize(vault, etherToken, uint64(-1)); // yuge period\n\n        // clean-up\n        acl.grantPermission(voting, dao, dao.APP_MANAGER_ROLE());\n        acl.setPermissionManager(voting, dao, dao.APP_MANAGER_ROLE());\n        acl.grantPermission(voting, acl, acl.CREATE_PERMISSIONS_ROLE());\n        acl.setPermissionManager(voting, acl, acl.CREATE_PERMISSIONS_ROLE());\n        acl.grantPermission(voting, tokenManager, tokenManager.MINT_ROLE());\n        acl.setPermissionManager(voting, tokenManager, tokenManager.MINT_ROLE());\n        // no revokes to save gas as factory can't do anything to orgs (clutters acl representation)\n\n        registerAragonID(name, dao);\n        DeployInstance(dao, token);\n\n        // voting is returned so init can happen later\n        return voting;\n    }\n\n    function cacheToken(MiniMeToken token, address owner) internal {\n        tokenCache[owner] = token;\n        DeployToken(token, owner);\n    }\n\n    function popTokenCache(address owner) internal returns (MiniMeToken) {\n        require(tokenCache[owner] != address(0));\n        MiniMeToken token = MiniMeToken(tokenCache[owner]);\n        delete tokenCache[owner];\n\n        return token;\n    }\n\n    function registerAragonID(string name, address owner) internal {\n        aragonID.register(keccak256(name), owner);\n    }\n\n    function latestVersionAppBase(bytes32 appId) public view returns (address base) {\n        Repo repo = Repo(PublicResolver(ens().resolver(appId)).addr(appId));\n        (,base,) = repo.getLatest();\n\n        return base;\n    }\n\n    function ens() internal view returns (AbstractENS) {\n        return apm.registrar().ens();\n    }\n}\n",
  "sourcePath": "/Users/jorge/provident/aragon-apps/templates/beta/contracts/BetaTemplateBase.sol",
  "compiler": {
    "name": "solc",
    "version": "0.4.18+commit.9cf6e910.Emscripten.clang"
  },
  "schemaVersion": "1.0.1",
  "updatedAt": "2018-02-26T13:03:38.121Z"
}