{
  "contractName": "DemocracyTemplate",
  "abi": [
    {
      "constant": true,
      "inputs": [],
      "name": "minimeFac",
      "outputs": [
        {
          "name": "",
          "type": "address"
        }
      ],
      "payable": false,
      "stateMutability": "view",
      "type": "function"
    },
    {
      "constant": false,
      "inputs": [
        {
          "name": "name",
          "type": "string"
        },
        {
          "name": "symbol",
          "type": "string"
        }
      ],
      "name": "newToken",
      "outputs": [
        {
          "name": "token",
          "type": "address"
        }
      ],
      "payable": false,
      "stateMutability": "nonpayable",
      "type": "function"
    },
    {
      "constant": false,
      "inputs": [
        {
          "name": "name",
          "type": "string"
        },
        {
          "name": "holders",
          "type": "address[]"
        },
        {
          "name": "tokens",
          "type": "uint256[]"
        },
        {
          "name": "supportNeeded",
          "type": "uint256"
        },
        {
          "name": "minAcceptanceQuorum",
          "type": "uint256"
        },
        {
          "name": "voteDuration",
          "type": "uint64"
        }
      ],
      "name": "newInstance",
      "outputs": [],
      "payable": false,
      "stateMutability": "nonpayable",
      "type": "function"
    },
    {
      "constant": true,
      "inputs": [],
      "name": "etherToken",
      "outputs": [
        {
          "name": "",
          "type": "address"
        }
      ],
      "payable": false,
      "stateMutability": "view",
      "type": "function"
    },
    {
      "constant": true,
      "inputs": [],
      "name": "apm",
      "outputs": [
        {
          "name": "",
          "type": "address"
        }
      ],
      "payable": false,
      "stateMutability": "view",
      "type": "function"
    },
    {
      "constant": true,
      "inputs": [],
      "name": "fac",
      "outputs": [
        {
          "name": "",
          "type": "address"
        }
      ],
      "payable": false,
      "stateMutability": "view",
      "type": "function"
    },
    {
      "constant": true,
      "inputs": [
        {
          "name": "appId",
          "type": "bytes32"
        }
      ],
      "name": "latestVersionAppBase",
      "outputs": [
        {
          "name": "base",
          "type": "address"
        }
      ],
      "payable": false,
      "stateMutability": "view",
      "type": "function"
    },
    {
      "constant": true,
      "inputs": [],
      "name": "aragonID",
      "outputs": [
        {
          "name": "",
          "type": "address"
        }
      ],
      "payable": false,
      "stateMutability": "view",
      "type": "function"
    },
    {
      "constant": true,
      "inputs": [
        {
          "name": "",
          "type": "uint256"
        }
      ],
      "name": "appIds",
      "outputs": [
        {
          "name": "",
          "type": "bytes32"
        }
      ],
      "payable": false,
      "stateMutability": "view",
      "type": "function"
    },
    {
      "inputs": [
        {
          "name": "_fac",
          "type": "address"
        },
        {
          "name": "_minimeFac",
          "type": "address"
        },
        {
          "name": "_apm",
          "type": "address"
        },
        {
          "name": "_etherToken",
          "type": "address"
        },
        {
          "name": "_aragonID",
          "type": "address"
        },
        {
          "name": "_appIds",
          "type": "bytes32[4]"
        }
      ],
      "payable": false,
      "stateMutability": "nonpayable",
      "type": "constructor"
    },
    {
      "anonymous": false,
      "inputs": [
        {
          "indexed": false,
          "name": "token",
          "type": "address"
        },
        {
          "indexed": true,
          "name": "cacheOwner",
          "type": "address"
        }
      ],
      "name": "DeployToken",
      "type": "event"
    },
    {
      "anonymous": false,
      "inputs": [
        {
          "indexed": false,
          "name": "dao",
          "type": "address"
        },
        {
          "indexed": true,
          "name": "token",
          "type": "address"
        }
      ],
      "name": "DeployInstance",
      "type": "event"
    }
  ],
  "bytecode": "0x606060405234156200001057600080fd5b60405161012080620034e38339810160405280805190602001909190805190602001909190805190602001909190805190602001909190805190602001909150858585858585836000806101000a81548173ffffffffffffffffffffffffffffffffffffffff021916908373ffffffffffffffffffffffffffffffffffffffff16021790555085600160006101000a81548173ffffffffffffffffffffffffffffffffffffffff021916908373ffffffffffffffffffffffffffffffffffffffff16021790555084600260006101000a81548173ffffffffffffffffffffffffffffffffffffffff021916908373ffffffffffffffffffffffffffffffffffffffff16021790555082600360006101000a81548173ffffffffffffffffffffffffffffffffffffffff021916908373ffffffffffffffffffffffffffffffffffffffff16021790555081600460006101000a81548173ffffffffffffffffffffffffffffffffffffffff021916908373ffffffffffffffffffffffffffffffffffffffff160217905550806005906004620001ad929190620001c0565b5050505050505050505050505062000233565b8260048101928215620001f8579160200282015b82811115620001f7578251829060001916905591602001919060010190620001d4565b5b5090506200020791906200020b565b5090565b6200023091905b808211156200022c57600081600090555060010162000212565b5090565b90565b6132a080620002436000396000f300606060405260043610610099576000357c0100000000000000000000000000000000000000000000000000000000900463ffffffff168063039fa7601461009e5780634629ffea146100f35780636d3a848114610175578063b8066bcb146101f0578063bc8c35f214610245578063c3b314721461029a578063c6d2c717146102ef578063d165603f14610356578063ef41afcd146103ab575b600080fd5b34156100a957600080fd5b6100b16103ea565b604051808273ffffffffffffffffffffffffffffffffffffffff1673ffffffffffffffffffffffffffffffffffffffff16815260200191505060405180910390f35b34156100fe57600080fd5b610133600480803590602001908201803590602001919091929080359060200190820180359060200191909192905050610410565b604051808273ffffffffffffffffffffffffffffffffffffffff1673ffffffffffffffffffffffffffffffffffffffff16815260200191505060405180910390f35b341561018057600080fd5b6101ee600480803590602001908201803590602001919091929080359060200190820180359060200191909192908035906020019082018035906020019190919290803590602001909190803590602001909190803567ffffffffffffffff1690602001909190505061056c565b005b34156101fb57600080fd5b610203610720565b604051808273ffffffffffffffffffffffffffffffffffffffff1673ffffffffffffffffffffffffffffffffffffffff16815260200191505060405180910390f35b341561025057600080fd5b610258610746565b604051808273ffffffffffffffffffffffffffffffffffffffff1673ffffffffffffffffffffffffffffffffffffffff16815260200191505060405180910390f35b34156102a557600080fd5b6102ad61076b565b604051808273ffffffffffffffffffffffffffffffffffffffff1673ffffffffffffffffffffffffffffffffffffffff16815260200191505060405180910390f35b34156102fa57600080fd5b610314600480803560001916906020019091905050610791565b604051808273ffffffffffffffffffffffffffffffffffffffff1673ffffffffffffffffffffffffffffffffffffffff16815260200191505060405180910390f35b341561036157600080fd5b610369610977565b604051808273ffffffffffffffffffffffffffffffffffffffff1673ffffffffffffffffffffffffffffffffffffffff16815260200191505060405180910390f35b34156103b657600080fd5b6103cc600480803590602001909190505061099d565b60405180826000191660001916815260200191505060405180910390f35b600260009054906101000a900473ffffffffffffffffffffffffffffffffffffffff1681565b6000600260009054906101000a900473ffffffffffffffffffffffffffffffffffffffff1673ffffffffffffffffffffffffffffffffffffffff16635b7b72c1600080888860128b8b60016000604051602001526040518963ffffffff167c0100000000000000000000000000000000000000000000000000000000028152600401808973ffffffffffffffffffffffffffffffffffffffff1673ffffffffffffffffffffffffffffffffffffffff168152602001888152602001806020018660ff168152602001806020018415151515815260200183810383528989828181526020019250808284378201915050838103825286868281815260200192508082843782019150509a5050505050505050505050602060405180830381600087803b151561053d57600080fd5b6102c65a03f1151561054e57600080fd5b50505060405180519050905061056481336109b7565b949350505050565b60008061057833610ab3565b91506106378b8b8080601f016020809104026020016040519081016040528093929190818152602001838380828437820191505050505050838b8b808060200260200160405190810160405280939291908181526020018383602002808284378201915050505050508a8a808060200260200160405190810160405280939291908181526020018383602002808284378201915050505050507fffffffffffffffffffffffffffffffffffffffffffffffffffffffffffffffff610c1e565b90508073ffffffffffffffffffffffffffffffffffffffff16633ee31e70838787876040518563ffffffff167c0100000000000000000000000000000000000000000000000000000000028152600401808573ffffffffffffffffffffffffffffffffffffffff1673ffffffffffffffffffffffffffffffffffffffff1681526020018481526020018381526020018267ffffffffffffffff1667ffffffffffffffff168152602001945050505050600060405180830381600087803b15156106ff57600080fd5b6102c65a03f1151561071057600080fd5b5050505050505050505050505050565b600360009054906101000a900473ffffffffffffffffffffffffffffffffffffffff1681565b6000809054906101000a900473ffffffffffffffffffffffffffffffffffffffff1681565b600160009054906101000a900473ffffffffffffffffffffffffffffffffffffffff1681565b60008061079c612ff9565b73ffffffffffffffffffffffffffffffffffffffff16630178b8bf846000604051602001526040518263ffffffff167c0100000000000000000000000000000000000000000000000000000000028152600401808260001916600019168152602001915050602060405180830381600087803b151561081a57600080fd5b6102c65a03f1151561082b57600080fd5b5050506040518051905073ffffffffffffffffffffffffffffffffffffffff16633b3b57de846000604051602001526040518263ffffffff167c0100000000000000000000000000000000000000000000000000000000028152600401808260001916600019168152602001915050602060405180830381600087803b15156108b357600080fd5b6102c65a03f115156108c457600080fd5b5050506040518051905090508073ffffffffffffffffffffffffffffffffffffffff1663c36af460600060405160a001526040518163ffffffff167c010000000000000000000000000000000000000000000000000000000002815260040160a060405180830381600087803b151561093c57600080fd5b6102c65a03f1151561094d57600080fd5b50505060405180606001805190602001805190602001604052909150508092505081915050919050565b600460009054906101000a900473ffffffffffffffffffffffffffffffffffffffff1681565b6005816004811015156109ac57fe5b016000915090505481565b81600960008373ffffffffffffffffffffffffffffffffffffffff1673ffffffffffffffffffffffffffffffffffffffff16815260200190815260200160002060006101000a81548173ffffffffffffffffffffffffffffffffffffffff021916908373ffffffffffffffffffffffffffffffffffffffff1602179055508073ffffffffffffffffffffffffffffffffffffffff167f07ab516ad4f19b4465f15fa7c2dbc064f18e734a0846d6e0932da244aa3d8a7183604051808273ffffffffffffffffffffffffffffffffffffffff1673ffffffffffffffffffffffffffffffffffffffff16815260200191505060405180910390a25050565b600080600073ffffffffffffffffffffffffffffffffffffffff16600960008573ffffffffffffffffffffffffffffffffffffffff1673ffffffffffffffffffffffffffffffffffffffff16815260200190815260200160002060009054906101000a900473ffffffffffffffffffffffffffffffffffffffff1673ffffffffffffffffffffffffffffffffffffffff1614151515610b5157600080fd5b600960008473ffffffffffffffffffffffffffffffffffffffff1673ffffffffffffffffffffffffffffffffffffffff16815260200190815260200160002060009054906101000a900473ffffffffffffffffffffffffffffffffffffffff169050600960008473ffffffffffffffffffffffffffffffffffffffff1673ffffffffffffffffffffffffffffffffffffffff16815260200190815260200160002060006101000a81549073ffffffffffffffffffffffffffffffffffffffff021916905580915050919050565b600080600080600080600080600160009054906101000a900473ffffffffffffffffffffffffffffffffffffffff1673ffffffffffffffffffffffffffffffffffffffff166321687444306000604051602001526040518263ffffffff167c0100000000000000000000000000000000000000000000000000000000028152600401808273ffffffffffffffffffffffffffffffffffffffff1673ffffffffffffffffffffffffffffffffffffffff168152602001915050602060405180830381600087803b1515610cef57600080fd5b6102c65a03f11515610d0057600080fd5b5050506040518051905096508673ffffffffffffffffffffffffffffffffffffffff1663de2873596000604051602001526040518163ffffffff167c0100000000000000000000000000000000000000000000000000000000028152600401602060405180830381600087803b1515610d7857600080fd5b6102c65a03f11515610d8957600080fd5b5050506040518051905095508573ffffffffffffffffffffffffffffffffffffffff1663be03847830898a73ffffffffffffffffffffffffffffffffffffffff16638ea8dc9d6000604051602001526040518163ffffffff167c0100000000000000000000000000000000000000000000000000000000028152600401602060405180830381600087803b1515610e1f57600080fd5b6102c65a03f11515610e3057600080fd5b50505060405180519050306040518563ffffffff167c0100000000000000000000000000000000000000000000000000000000028152600401808573ffffffffffffffffffffffffffffffffffffffff1673ffffffffffffffffffffffffffffffffffffffff1681526020018473ffffffffffffffffffffffffffffffffffffffff1673ffffffffffffffffffffffffffffffffffffffff16815260200183600019166000191681526020018273ffffffffffffffffffffffffffffffffffffffff1673ffffffffffffffffffffffffffffffffffffffff168152602001945050505050600060405180830381600087803b1515610f2d57600080fd5b6102c65a03f11515610f3e57600080fd5b5050508673ffffffffffffffffffffffffffffffffffffffff166380cd5ac36005600380811115610f6b57fe5b60ff16600481101515610f7a57fe5b0154610fa36005600380811115610f8d57fe5b60ff16600481101515610f9c57fe5b0154610791565b6000604051602001526040518363ffffffff167c01000000000000000000000000000000000000000000000000000000000281526004018083600019166000191681526020018273ffffffffffffffffffffffffffffffffffffffff1673ffffffffffffffffffffffffffffffffffffffff16815260200192505050602060405180830381600087803b151561103857600080fd5b6102c65a03f1151561104957600080fd5b5050506040518051905094508673ffffffffffffffffffffffffffffffffffffffff166380cd5ac360056002600381111561108057fe5b60ff1660048110151561108f57fe5b01546110b96005600260038111156110a357fe5b60ff166004811015156110b257fe5b0154610791565b6000604051602001526040518363ffffffff167c01000000000000000000000000000000000000000000000000000000000281526004018083600019166000191681526020018273ffffffffffffffffffffffffffffffffffffffff1673ffffffffffffffffffffffffffffffffffffffff16815260200192505050602060405180830381600087803b151561114e57600080fd5b6102c65a03f1151561115f57600080fd5b5050506040518051905093508673ffffffffffffffffffffffffffffffffffffffff166380cd5ac360056000600381111561119657fe5b60ff166004811015156111a557fe5b01546111cf6005600060038111156111b957fe5b60ff166004811015156111c857fe5b0154610791565b6000604051602001526040518363ffffffff167c01000000000000000000000000000000000000000000000000000000000281526004018083600019166000191681526020018273ffffffffffffffffffffffffffffffffffffffff1673ffffffffffffffffffffffffffffffffffffffff16815260200192505050602060405180830381600087803b151561126457600080fd5b6102c65a03f1151561127557600080fd5b5050506040518051905092508673ffffffffffffffffffffffffffffffffffffffff166380cd5ac36005600160038111156112ac57fe5b60ff166004811015156112bb57fe5b01546112e56005600160038111156112cf57fe5b60ff166004811015156112de57fe5b0154610791565b6000604051602001526040518363ffffffff167c01000000000000000000000000000000000000000000000000000000000281526004018083600019166000191681526020018273ffffffffffffffffffffffffffffffffffffffff1673ffffffffffffffffffffffffffffffffffffffff16815260200192505050602060405180830381600087803b151561137a57600080fd5b6102c65a03f1151561138b57600080fd5b5050506040518051905091508b73ffffffffffffffffffffffffffffffffffffffff16633cebb823836040518263ffffffff167c0100000000000000000000000000000000000000000000000000000000028152600401808273ffffffffffffffffffffffffffffffffffffffff1673ffffffffffffffffffffffffffffffffffffffff168152602001915050600060405180830381600087803b151561143157600080fd5b6102c65a03f1151561144257600080fd5b5050508573ffffffffffffffffffffffffffffffffffffffff1663be0384787fffffffffffffffffffffffffffffffffffffffffffffffffffffffffffffffff878873ffffffffffffffffffffffffffffffffffffffff1663be2c64d46000604051602001526040518163ffffffff167c0100000000000000000000000000000000000000000000000000000000028152600401602060405180830381600087803b15156114ef57600080fd5b6102c65a03f1151561150057600080fd5b50505060405180519050896040518563ffffffff167c0100000000000000000000000000000000000000000000000000000000028152600401808573ffffffffffffffffffffffffffffffffffffffff1673ffffffffffffffffffffffffffffffffffffffff1681526020018473ffffffffffffffffffffffffffffffffffffffff1673ffffffffffffffffffffffffffffffffffffffff16815260200183600019166000191681526020018273ffffffffffffffffffffffffffffffffffffffff1673ffffffffffffffffffffffffffffffffffffffff168152602001945050505050600060405180830381600087803b15156115fd57600080fd5b6102c65a03f1151561160e57600080fd5b5050508573ffffffffffffffffffffffffffffffffffffffff1663be03847886878873ffffffffffffffffffffffffffffffffffffffff16633c624c756000604051602001526040518163ffffffff167c0100000000000000000000000000000000000000000000000000000000028152600401602060405180830381600087803b151561169b57600080fd5b6102c65a03f115156116ac57600080fd5b50505060405180519050896040518563ffffffff167c0100000000000000000000000000000000000000000000000000000000028152600401808573ffffffffffffffffffffffffffffffffffffffff1673ffffffffffffffffffffffffffffffffffffffff1681526020018473ffffffffffffffffffffffffffffffffffffffff1673ffffffffffffffffffffffffffffffffffffffff16815260200183600019166000191681526020018273ffffffffffffffffffffffffffffffffffffffff1673ffffffffffffffffffffffffffffffffffffffff168152602001945050505050600060405180830381600087803b15156117a957600080fd5b6102c65a03f115156117ba57600080fd5b5050508573ffffffffffffffffffffffffffffffffffffffff1663be03847884868773ffffffffffffffffffffffffffffffffffffffff1663206b60f96000604051602001526040518163ffffffff167c0100000000000000000000000000000000000000000000000000000000028152600401602060405180830381600087803b151561184757600080fd5b6102c65a03f1151561185857600080fd5b50505060405180519050896040518563ffffffff167c0100000000000000000000000000000000000000000000000000000000028152600401808573ffffffffffffffffffffffffffffffffffffffff1673ffffffffffffffffffffffffffffffffffffffff1681526020018473ffffffffffffffffffffffffffffffffffffffff1673ffffffffffffffffffffffffffffffffffffffff16815260200183600019166000191681526020018273ffffffffffffffffffffffffffffffffffffffff1673ffffffffffffffffffffffffffffffffffffffff168152602001945050505050600060405180830381600087803b151561195557600080fd5b6102c65a03f1151561196657600080fd5b5050508573ffffffffffffffffffffffffffffffffffffffff1663be03847886858673ffffffffffffffffffffffffffffffffffffffff16630842ace46000604051602001526040518163ffffffff167c0100000000000000000000000000000000000000000000000000000000028152600401602060405180830381600087803b15156119f357600080fd5b6102c65a03f11515611a0457600080fd5b50505060405180519050896040518563ffffffff167c0100000000000000000000000000000000000000000000000000000000028152600401808573ffffffffffffffffffffffffffffffffffffffff1673ffffffffffffffffffffffffffffffffffffffff1681526020018473ffffffffffffffffffffffffffffffffffffffff1673ffffffffffffffffffffffffffffffffffffffff16815260200183600019166000191681526020018273ffffffffffffffffffffffffffffffffffffffff1673ffffffffffffffffffffffffffffffffffffffff168152602001945050505050600060405180830381600087803b1515611b0157600080fd5b6102c65a03f11515611b1257600080fd5b5050508573ffffffffffffffffffffffffffffffffffffffff1663be03847886858673ffffffffffffffffffffffffffffffffffffffff1663981cc3426000604051602001526040518163ffffffff167c0100000000000000000000000000000000000000000000000000000000028152600401602060405180830381600087803b1515611b9f57600080fd5b6102c65a03f11515611bb057600080fd5b50505060405180519050896040518563ffffffff167c0100000000000000000000000000000000000000000000000000000000028152600401808573ffffffffffffffffffffffffffffffffffffffff1673ffffffffffffffffffffffffffffffffffffffff1681526020018473ffffffffffffffffffffffffffffffffffffffff1673ffffffffffffffffffffffffffffffffffffffff16815260200183600019166000191681526020018273ffffffffffffffffffffffffffffffffffffffff1673ffffffffffffffffffffffffffffffffffffffff168152602001945050505050600060405180830381600087803b1515611cad57600080fd5b6102c65a03f11515611cbe57600080fd5b5050508573ffffffffffffffffffffffffffffffffffffffff1663be03847886858673ffffffffffffffffffffffffffffffffffffffff166329b522eb6000604051602001526040518163ffffffff167c0100000000000000000000000000000000000000000000000000000000028152600401602060405180830381600087803b1515611d4b57600080fd5b6102c65a03f11515611d5c57600080fd5b50505060405180519050896040518563ffffffff167c0100000000000000000000000000000000000000000000000000000000028152600401808573ffffffffffffffffffffffffffffffffffffffff1673ffffffffffffffffffffffffffffffffffffffff1681526020018473ffffffffffffffffffffffffffffffffffffffff1673ffffffffffffffffffffffffffffffffffffffff16815260200183600019166000191681526020018273ffffffffffffffffffffffffffffffffffffffff1673ffffffffffffffffffffffffffffffffffffffff168152602001945050505050600060405180830381600087803b1515611e5957600080fd5b6102c65a03f11515611e6a57600080fd5b5050508573ffffffffffffffffffffffffffffffffffffffff1663be03847886848573ffffffffffffffffffffffffffffffffffffffff1663a51d9a8e6000604051602001526040518163ffffffff167c0100000000000000000000000000000000000000000000000000000000028152600401602060405180830381600087803b1515611ef757600080fd5b6102c65a03f11515611f0857600080fd5b50505060405180519050896040518563ffffffff167c0100000000000000000000000000000000000000000000000000000000028152600401808573ffffffffffffffffffffffffffffffffffffffff1673ffffffffffffffffffffffffffffffffffffffff1681526020018473ffffffffffffffffffffffffffffffffffffffff1673ffffffffffffffffffffffffffffffffffffffff16815260200183600019166000191681526020018273ffffffffffffffffffffffffffffffffffffffff1673ffffffffffffffffffffffffffffffffffffffff168152602001945050505050600060405180830381600087803b151561200557600080fd5b6102c65a03f1151561201657600080fd5b5050508573ffffffffffffffffffffffffffffffffffffffff1663be03847886848573ffffffffffffffffffffffffffffffffffffffff1663edc168f16000604051602001526040518163ffffffff167c0100000000000000000000000000000000000000000000000000000000028152600401602060405180830381600087803b15156120a357600080fd5b6102c65a03f115156120b457600080fd5b50505060405180519050896040518563ffffffff167c0100000000000000000000000000000000000000000000000000000000028152600401808573ffffffffffffffffffffffffffffffffffffffff1673ffffffffffffffffffffffffffffffffffffffff1681526020018473ffffffffffffffffffffffffffffffffffffffff1673ffffffffffffffffffffffffffffffffffffffff16815260200183600019166000191681526020018273ffffffffffffffffffffffffffffffffffffffff1673ffffffffffffffffffffffffffffffffffffffff168152602001945050505050600060405180830381600087803b15156121b157600080fd5b6102c65a03f115156121c257600080fd5b50505089518b511415156121d557600080fd5b8573ffffffffffffffffffffffffffffffffffffffff1663be03847830848573ffffffffffffffffffffffffffffffffffffffff1663e9a9c8506000604051602001526040518163ffffffff167c0100000000000000000000000000000000000000000000000000000000028152600401602060405180830381600087803b151561225f57600080fd5b6102c65a03f1151561227057600080fd5b50505060405180519050306040518563ffffffff167c0100000000000000000000000000000000000000000000000000000000028152600401808573ffffffffffffffffffffffffffffffffffffffff1673ffffffffffffffffffffffffffffffffffffffff1681526020018473ffffffffffffffffffffffffffffffffffffffff1673ffffffffffffffffffffffffffffffffffffffff16815260200183600019166000191681526020018273ffffffffffffffffffffffffffffffffffffffff1673ffffffffffffffffffffffffffffffffffffffff168152602001945050505050600060405180830381600087803b151561236d57600080fd5b6102c65a03f1151561237e57600080fd5b5050508173ffffffffffffffffffffffffffffffffffffffff1663e918c62f8d60018c118c60016040518563ffffffff167c0100000000000000000000000000000000000000000000000000000000028152600401808573ffffffffffffffffffffffffffffffffffffffff1673ffffffffffffffffffffffffffffffffffffffff1681526020018415151515815260200183815260200182151515158152602001945050505050600060405180830381600087803b151561243f57600080fd5b6102c65a03f1151561245057600080fd5b505050600090505b8a51811015612552578173ffffffffffffffffffffffffffffffffffffffff166340c10f198c8381518110151561248b57fe5b906020019060200201518c848151811015156124a357fe5b906020019060200201516040518363ffffffff167c0100000000000000000000000000000000000000000000000000000000028152600401808373ffffffffffffffffffffffffffffffffffffffff1673ffffffffffffffffffffffffffffffffffffffff16815260200182815260200192505050600060405180830381600087803b151561253157600080fd5b6102c65a03f1151561254257600080fd5b5050508080600101915050612458565b8273ffffffffffffffffffffffffffffffffffffffff16637879ec3185600360009054906101000a900473ffffffffffffffffffffffffffffffffffffffff167fffffffffffffffffffffffffffffffffffffffffffffffffffffffffffffffff6040518463ffffffff167c0100000000000000000000000000000000000000000000000000000000028152600401808473ffffffffffffffffffffffffffffffffffffffff1673ffffffffffffffffffffffffffffffffffffffff1681526020018373ffffffffffffffffffffffffffffffffffffffff1673ffffffffffffffffffffffffffffffffffffffff1681526020018267ffffffffffffffff1667ffffffffffffffff1681526020019350505050600060405180830381600087803b151561267e57600080fd5b6102c65a03f1151561268f57600080fd5b5050508573ffffffffffffffffffffffffffffffffffffffff16630a8ed3db86898a73ffffffffffffffffffffffffffffffffffffffff16638ea8dc9d6000604051602001526040518163ffffffff167c0100000000000000000000000000000000000000000000000000000000028152600401602060405180830381600087803b151561271c57600080fd5b6102c65a03f1151561272d57600080fd5b505050604051805190506040518463ffffffff167c0100000000000000000000000000000000000000000000000000000000028152600401808473ffffffffffffffffffffffffffffffffffffffff1673ffffffffffffffffffffffffffffffffffffffff1681526020018373ffffffffffffffffffffffffffffffffffffffff1673ffffffffffffffffffffffffffffffffffffffff16815260200182600019166000191681526020019350505050600060405180830381600087803b15156127f657600080fd5b6102c65a03f1151561280757600080fd5b5050508573ffffffffffffffffffffffffffffffffffffffff1663afd925df86898a73ffffffffffffffffffffffffffffffffffffffff16638ea8dc9d6000604051602001526040518163ffffffff167c0100000000000000000000000000000000000000000000000000000000028152600401602060405180830381600087803b151561289457600080fd5b6102c65a03f115156128a557600080fd5b505050604051805190506040518463ffffffff167c0100000000000000000000000000000000000000000000000000000000028152600401808473ffffffffffffffffffffffffffffffffffffffff1673ffffffffffffffffffffffffffffffffffffffff1681526020018373ffffffffffffffffffffffffffffffffffffffff1673ffffffffffffffffffffffffffffffffffffffff16815260200182600019166000191681526020019350505050600060405180830381600087803b151561296e57600080fd5b6102c65a03f1151561297f57600080fd5b5050508573ffffffffffffffffffffffffffffffffffffffff16630a8ed3db86888973ffffffffffffffffffffffffffffffffffffffff16633d6ab68f6000604051602001526040518163ffffffff167c0100000000000000000000000000000000000000000000000000000000028152600401602060405180830381600087803b1515612a0c57600080fd5b6102c65a03f11515612a1d57600080fd5b505050604051805190506040518463ffffffff167c0100000000000000000000000000000000000000000000000000000000028152600401808473ffffffffffffffffffffffffffffffffffffffff1673ffffffffffffffffffffffffffffffffffffffff1681526020018373ffffffffffffffffffffffffffffffffffffffff1673ffffffffffffffffffffffffffffffffffffffff16815260200182600019166000191681526020019350505050600060405180830381600087803b1515612ae657600080fd5b6102c65a03f11515612af757600080fd5b5050508573ffffffffffffffffffffffffffffffffffffffff1663afd925df86888973ffffffffffffffffffffffffffffffffffffffff16633d6ab68f6000604051602001526040518163ffffffff167c0100000000000000000000000000000000000000000000000000000000028152600401602060405180830381600087803b1515612b8457600080fd5b6102c65a03f11515612b9557600080fd5b505050604051805190506040518463ffffffff167c0100000000000000000000000000000000000000000000000000000000028152600401808473ffffffffffffffffffffffffffffffffffffffff1673ffffffffffffffffffffffffffffffffffffffff1681526020018373ffffffffffffffffffffffffffffffffffffffff1673ffffffffffffffffffffffffffffffffffffffff16815260200182600019166000191681526020019350505050600060405180830381600087803b1515612c5e57600080fd5b6102c65a03f11515612c6f57600080fd5b5050508573ffffffffffffffffffffffffffffffffffffffff16630a8ed3db86848573ffffffffffffffffffffffffffffffffffffffff1663e9a9c8506000604051602001526040518163ffffffff167c0100000000000000000000000000000000000000000000000000000000028152600401602060405180830381600087803b1515612cfc57600080fd5b6102c65a03f11515612d0d57600080fd5b505050604051805190506040518463ffffffff167c0100000000000000000000000000000000000000000000000000000000028152600401808473ffffffffffffffffffffffffffffffffffffffff1673ffffffffffffffffffffffffffffffffffffffff1681526020018373ffffffffffffffffffffffffffffffffffffffff1673ffffffffffffffffffffffffffffffffffffffff16815260200182600019166000191681526020019350505050600060405180830381600087803b1515612dd657600080fd5b6102c65a03f11515612de757600080fd5b5050508573ffffffffffffffffffffffffffffffffffffffff1663afd925df86848573ffffffffffffffffffffffffffffffffffffffff1663e9a9c8506000604051602001526040518163ffffffff167c0100000000000000000000000000000000000000000000000000000000028152600401602060405180830381600087803b1515612e7457600080fd5b6102c65a03f11515612e8557600080fd5b505050604051805190506040518463ffffffff167c0100000000000000000000000000000000000000000000000000000000028152600401808473ffffffffffffffffffffffffffffffffffffffff1673ffffffffffffffffffffffffffffffffffffffff1681526020018373ffffffffffffffffffffffffffffffffffffffff1673ffffffffffffffffffffffffffffffffffffffff16815260200182600019166000191681526020019350505050600060405180830381600087803b1515612f4e57600080fd5b6102c65a03f11515612f5f57600080fd5b505050612f6c8d8861312e565b8b73ffffffffffffffffffffffffffffffffffffffff167f4fa65b7b4efeaaebcd718c22be4cbfe3339447deee05146fa2ef6d9578015fd388604051808273ffffffffffffffffffffffffffffffffffffffff1673ffffffffffffffffffffffffffffffffffffffff16815260200191505060405180910390a28497505050505050505095945050505050565b60008060009054906101000a900473ffffffffffffffffffffffffffffffffffffffff1673ffffffffffffffffffffffffffffffffffffffff16632b20e3976000604051602001526040518163ffffffff167c0100000000000000000000000000000000000000000000000000000000028152600401602060405180830381600087803b151561308857600080fd5b6102c65a03f1151561309957600080fd5b5050506040518051905073ffffffffffffffffffffffffffffffffffffffff16633f15457f6000604051602001526040518163ffffffff167c0100000000000000000000000000000000000000000000000000000000028152600401602060405180830381600087803b151561310e57600080fd5b6102c65a03f1151561311f57600080fd5b50505060405180519050905090565b600460009054906101000a900473ffffffffffffffffffffffffffffffffffffffff1673ffffffffffffffffffffffffffffffffffffffff1663d22057a9836040518082805190602001908083835b6020831015156131a2578051825260208201915060208101905060208303925061317d565b6001836020036101000a0380198251168184511680821785525050505050509050019150506040518091039020836040518363ffffffff167c01000000000000000000000000000000000000000000000000000000000281526004018083600019166000191681526020018273ffffffffffffffffffffffffffffffffffffffff1673ffffffffffffffffffffffffffffffffffffffff16815260200192505050600060405180830381600087803b151561325c57600080fd5b6102c65a03f1151561326d57600080fd5b50505050505600a165627a7a723058200afa72fb11c4ac5c63f9980a2e39abb7a430401ba0951a9bf59a814cb35a35b10029",
  "source": "pragma solidity 0.4.18;\n\nimport \"./BetaTemplateBase.sol\";\n\n\ncontract DemocracyTemplate is BetaTemplateBase {\n    function DemocracyTemplate(DAOFactory _fac, MiniMeTokenFactory _minimeFac, APMRegistry _apm, EtherToken _etherToken, IFIFSResolvingRegistrar _aragonID, bytes32[4] _appIds)\n             BetaTemplateBase(_fac, _minimeFac, _apm, _etherToken, _aragonID, _appIds) public {}\n\n     function newToken(string name, string symbol) external returns (MiniMeToken token) {\n         token = minimeFac.createCloneToken(address(0), 0, name, 18, name, true);\n         cacheToken(token, msg.sender);\n     }\n\n    function newInstance(string name, address[] holders, uint256[] tokens, uint256 supportNeeded, uint256 minAcceptanceQuorum, uint64 voteDuration) external {\n        MiniMeToken token = popTokenCache(msg.sender);\n        Voting voting = createDAO(name, token, holders, tokens, uint256(-1));\n        voting.initialize(token, supportNeeded, minAcceptanceQuorum, voteDuration);\n    }\n}\n",
  "sourcePath": "/Users/jorge/provident/aragon-apps/templates/beta/contracts/DemocracyTemplate.sol",
  "compiler": {
    "name": "solc",
    "version": "0.4.18+commit.9cf6e910.Emscripten.clang"
  },
  "schemaVersion": "1.0.1",
  "updatedAt": "2018-02-26T13:03:38.122Z"
}