{
  "contractName": "ENSConstants",
  "abi": [
    {
      "constant": true,
      "inputs": [],
      "name": "PUBLIC_RESOLVER_NODE",
      "outputs": [
        {
          "name": "",
          "type": "bytes32"
        }
      ],
      "payable": false,
      "stateMutability": "view",
      "type": "function"
    },
    {
      "constant": true,
      "inputs": [],
      "name": "ETH_TLD_LABEL",
      "outputs": [
        {
          "name": "",
          "type": "bytes32"
        }
      ],
      "payable": false,
      "stateMutability": "view",
      "type": "function"
    },
    {
      "constant": true,
      "inputs": [],
      "name": "ENS_ROOT",
      "outputs": [
        {
          "name": "",
          "type": "bytes32"
        }
      ],
      "payable": false,
      "stateMutability": "view",
      "type": "function"
    },
    {
      "constant": true,
      "inputs": [],
      "name": "PUBLIC_RESOLVER_LABEL",
      "outputs": [
        {
          "name": "",
          "type": "bytes32"
        }
      ],
      "payable": false,
      "stateMutability": "view",
      "type": "function"
    },
    {
      "constant": true,
      "inputs": [],
      "name": "ETH_TLD_NODE",
      "outputs": [
        {
          "name": "",
          "type": "bytes32"
        }
      ],
      "payable": false,
      "stateMutability": "view",
      "type": "function"
    }
  ],
  "bytecode": "0x6060604052341561000f57600080fd5b6103438061001e6000396000f30060606040526004361061006d576000357c0100000000000000000000000000000000000000000000000000000000900463ffffffff1680633f82e2c6146100725780639b227a97146100a3578063a9bf1c9f146100d4578063c84b1ce714610105578063fdee38a914610136575b600080fd5b341561007d57600080fd5b610085610167565b60405180826000191660001916815260200191505060405180910390f35b34156100ae57600080fd5b6100b6610233565b60405180826000191660001916815260200191505060405180910390f35b34156100df57600080fd5b6100e761026c565b60405180826000191660001916815260200191505060405180910390f35b341561011057600080fd5b610118610274565b60405180826000191660001916815260200191505060405180910390f35b341561014157600080fd5b6101496102ad565b60405180826000191660001916815260200191505060405180910390f35b600060010260405180807f657468000000000000000000000000000000000000000000000000000000000081525060030190506040518091039020604051808360001916600019168152602001826000191660001916815260200192505050604051809103902060405180807f7265736f6c76657200000000000000000000000000000000000000000000000081525060080190506040518091039020604051808360001916600019168152602001826000191660001916815260200192505050604051809103902081565b60405180807f65746800000000000000000000000000000000000000000000000000000000008152506003019050604051809103902081565b600060010281565b60405180807f7265736f6c7665720000000000000000000000000000000000000000000000008152506008019050604051809103902081565b600060010260405180807f6574680000000000000000000000000000000000000000000000000000000000815250600301905060405180910390206040518083600019166000191681526020018260001916600019168152602001925050506040518091039020815600a165627a7a723058207cc290025ba8d605c72ff08f2a42dd6817065aa3432b43a627f80a14d8852ee80029",
  "source": "pragma solidity ^0.4.18;\n\n\ncontract ENSConstants {\n    bytes32 constant public ENS_ROOT = bytes32(0);\n    bytes32 constant public ETH_TLD_LABEL = keccak256(\"eth\");\n    bytes32 constant public ETH_TLD_NODE = keccak256(ENS_ROOT, ETH_TLD_LABEL);\n    bytes32 constant public PUBLIC_RESOLVER_LABEL = keccak256(\"resolver\");\n    bytes32 constant public PUBLIC_RESOLVER_NODE = keccak256(ETH_TLD_NODE, PUBLIC_RESOLVER_LABEL);\n}\n",
  "sourcePath": "@aragon/os/contracts/ens/ENSConstants.sol",
  "compiler": {
    "name": "solc",
    "version": "0.4.18+commit.9cf6e910.Emscripten.clang"
  },
  "schemaVersion": "1.0.1",
  "updatedAt": "2018-03-05T17:18:03.434Z"
}