{
  "contractName": "EVMScriptRunner",
  "abi": [
    {
      "constant": true,
      "inputs": [],
      "name": "EVMSCRIPT_REGISTRY_APP_ID",
      "outputs": [
        {
          "name": "",
          "type": "bytes32"
        }
      ],
      "payable": false,
      "stateMutability": "view",
      "type": "function"
    },
    {
      "constant": true,
      "inputs": [],
      "name": "appId",
      "outputs": [
        {
          "name": "",
          "type": "bytes32"
        }
      ],
      "payable": false,
      "stateMutability": "view",
      "type": "function"
    },
    {
      "constant": true,
      "inputs": [],
      "name": "EVMSCRIPT_REGISTRY_APP",
      "outputs": [
        {
          "name": "",
          "type": "bytes32"
        }
      ],
      "payable": false,
      "stateMutability": "view",
      "type": "function"
    },
    {
      "constant": true,
      "inputs": [],
      "name": "kernel",
      "outputs": [
        {
          "name": "",
          "type": "address"
        }
      ],
      "payable": false,
      "stateMutability": "view",
      "type": "function"
    },
    {
      "constant": true,
      "inputs": [
        {
          "name": "_script",
          "type": "bytes"
        }
      ],
      "name": "getExecutor",
      "outputs": [
        {
          "name": "",
          "type": "address"
        }
      ],
      "payable": false,
      "stateMutability": "view",
      "type": "function"
    }
  ],
  "bytecode": "0x6060604052341561000f57600080fd5b6105878061001e6000396000f30060606040526004361061006d576000357c0100000000000000000000000000000000000000000000000000000000900463ffffffff16806360b1e0571461007257806380afdea8146100a35780639b3fdf4c146100d4578063d4aae0c414610105578063f92a79ff1461015a575b600080fd5b341561007d57600080fd5b6100856101f7565b60405180826000191660001916815260200191505060405180910390f35b34156100ae57600080fd5b6100b6610230565b60405180826000191660001916815260200191505060405180910390f35b34156100df57600080fd5b6100e7610236565b60405180826000191660001916815260200191505060405180910390f35b341561011057600080fd5b6101186102d1565b604051808273ffffffffffffffffffffffffffffffffffffffff1673ffffffffffffffffffffffffffffffffffffffff16815260200191505060405180910390f35b341561016557600080fd5b6101b5600480803590602001908201803590602001908080601f016020809104026020016040519081016040528093929190818152602001838380828437820191505050505050919050506102f6565b604051808273ffffffffffffffffffffffffffffffffffffffff1673ffffffffffffffffffffffffffffffffffffffff16815260200191505060405180910390f35b60405180807f65766d7265672e617261676f6e706d2e657468000000000000000000000000008152506013019050604051809103902081565b60015481565b60405180807f61707000000000000000000000000000000000000000000000000000000000008152506003019050604051809103902060405180807f65766d7265672e617261676f6e706d2e6574680000000000000000000000000081525060130190506040518091039020604051808360001916600019168152602001826000191660001916815260200192505050604051809103902081565b6000809054906101000a900473ffffffffffffffffffffffffffffffffffffffff1681565b60006103006103fd565b73ffffffffffffffffffffffffffffffffffffffff166304bf2a7f836000604051602001526040518263ffffffff167c01000000000000000000000000000000000000000000000000000000000281526004018080602001828103825283818151815260200191508051906020019080838360005b83811015610390578082015181840152602081019050610375565b50505050905090810190601f1680156103bd5780820380516001836020036101000a031916815260200191505b5092505050602060405180830381600087803b15156103db57600080fd5b6102c65a03f115156103ec57600080fd5b505050604051805190509050919050565b6000806000809054906101000a900473ffffffffffffffffffffffffffffffffffffffff1673ffffffffffffffffffffffffffffffffffffffff166342c71f1d60405180807f61707000000000000000000000000000000000000000000000000000000000008152506003019050604051809103902060405180807f65766d7265672e617261676f6e706d2e657468000000000000000000000000008152506013019050604051809103902060405180836000191660001916815260200182600019166000191681526020019250505060405180910390206000604051602001526040518263ffffffff167c0100000000000000000000000000000000000000000000000000000000028152600401808260001916600019168152602001915050602060405180830381600087803b151561053757600080fd5b6102c65a03f1151561054857600080fd5b50505060405180519050905080915050905600a165627a7a723058205afa819cbf100c4f71448cca86c188e2603b4fe34c3b5745723feb872ff74ab20029",
  "source": "pragma solidity ^0.4.18;\n\nimport \"../apps/AppStorage.sol\";\nimport \"./IEVMScriptExecutor.sol\";\nimport \"./IEVMScriptRegistry.sol\";\n\nimport \"./ScriptHelpers.sol\";\n\n\ncontract EVMScriptRunner is AppStorage, EVMScriptRegistryConstants {\n    using ScriptHelpers for bytes;\n\n    function runScript(bytes _script, bytes _input, address[] _blacklist) protectState internal returns (bytes output) {\n        // TODO: Too much data flying around, maybe extracting spec id here is cheaper\n        address executorAddr = getExecutor(_script);\n        require(executorAddr != address(0));\n\n        bytes memory calldataArgs = _script.encode(_input, _blacklist);\n        bytes4 sig = IEVMScriptExecutor(0).execScript.selector;\n\n        require(executorAddr.delegatecall(sig, calldataArgs));\n\n        return returnedDataDecoded();\n    }\n\n    function getExecutor(bytes _script) public view returns (IEVMScriptExecutor) {\n        return IEVMScriptExecutor(getExecutorRegistry().getScriptExecutor(_script));\n    }\n\n    // TODO: Internal\n    function getExecutorRegistry() internal view returns (IEVMScriptRegistry) {\n        address registryAddr = kernel.getApp(EVMSCRIPT_REGISTRY_APP);\n        return IEVMScriptRegistry(registryAddr);\n    }\n\n    /**\n    * @dev copies and returns last's call data. Needs to ABI decode first\n    */\n    function returnedDataDecoded() internal view returns (bytes ret) {\n        assembly {\n            let size := returndatasize\n            switch size\n            case 0 {}\n            default {\n                ret := mload(0x40) // free mem ptr get\n                mstore(0x40, add(ret, add(size, 0x20))) // free mem ptr set\n                returndatacopy(ret, 0x20, sub(size, 0x20)) // copy return data\n            }\n        }\n        return ret;\n    }\n\n    modifier protectState {\n        address preKernel = kernel;\n        bytes32 preAppId = appId;\n        _; // exec\n        require(kernel == preKernel);\n        require(appId == preAppId);\n    }\n}",
  "sourcePath": "@aragon/os/contracts/evmscript/EVMScriptRunner.sol",
  "compiler": {
    "name": "solc",
    "version": "0.4.18+commit.9cf6e910.Emscripten.clang"
  },
  "schemaVersion": "1.0.1",
  "updatedAt": "2018-02-26T13:03:38.145Z"
}