{
  "contractName": "EVMScriptRegistry",
  "abi": [
    {
      "constant": true,
      "inputs": [
        {
          "name": "_script",
          "type": "bytes"
        }
      ],
      "name": "getScriptExecutor",
      "outputs": [
        {
          "name": "",
          "type": "address"
        }
      ],
      "payable": false,
      "stateMutability": "view",
      "type": "function"
    },
    {
      "constant": false,
      "inputs": [
        {
          "name": "_executorId",
          "type": "uint256"
        }
      ],
      "name": "disableScriptExecutor",
      "outputs": [],
      "payable": false,
      "stateMutability": "nonpayable",
      "type": "function"
    },
    {
      "constant": true,
      "inputs": [],
      "name": "EVMSCRIPT_REGISTRY_APP_ID",
      "outputs": [
        {
          "name": "",
          "type": "bytes32"
        }
      ],
      "payable": false,
      "stateMutability": "view",
      "type": "function"
    },
    {
      "constant": true,
      "inputs": [],
      "name": "appId",
      "outputs": [
        {
          "name": "",
          "type": "bytes32"
        }
      ],
      "payable": false,
      "stateMutability": "view",
      "type": "function"
    },
    {
      "constant": false,
      "inputs": [],
      "name": "initialize",
      "outputs": [],
      "payable": false,
      "stateMutability": "nonpayable",
      "type": "function"
    },
    {
      "constant": false,
      "inputs": [
        {
          "name": "_executor",
          "type": "address"
        }
      ],
      "name": "addScriptExecutor",
      "outputs": [
        {
          "name": "id",
          "type": "uint256"
        }
      ],
      "payable": false,
      "stateMutability": "nonpayable",
      "type": "function"
    },
    {
      "constant": true,
      "inputs": [],
      "name": "getInitializationBlock",
      "outputs": [
        {
          "name": "",
          "type": "uint256"
        }
      ],
      "payable": false,
      "stateMutability": "view",
      "type": "function"
    },
    {
      "constant": true,
      "inputs": [],
      "name": "EVMSCRIPT_REGISTRY_APP",
      "outputs": [
        {
          "name": "",
          "type": "bytes32"
        }
      ],
      "payable": false,
      "stateMutability": "view",
      "type": "function"
    },
    {
      "constant": true,
      "inputs": [
        {
          "name": "_sender",
          "type": "address"
        },
        {
          "name": "_role",
          "type": "bytes32"
        },
        {
          "name": "params",
          "type": "uint256[]"
        }
      ],
      "name": "canPerform",
      "outputs": [
        {
          "name": "",
          "type": "bool"
        }
      ],
      "payable": false,
      "stateMutability": "view",
      "type": "function"
    },
    {
      "constant": true,
      "inputs": [],
      "name": "REGISTRY_MANAGER_ROLE",
      "outputs": [
        {
          "name": "",
          "type": "bytes32"
        }
      ],
      "payable": false,
      "stateMutability": "view",
      "type": "function"
    },
    {
      "constant": true,
      "inputs": [],
      "name": "kernel",
      "outputs": [
        {
          "name": "",
          "type": "address"
        }
      ],
      "payable": false,
      "stateMutability": "view",
      "type": "function"
    },
    {
      "constant": true,
      "inputs": [
        {
          "name": "_script",
          "type": "bytes"
        }
      ],
      "name": "getExecutor",
      "outputs": [
        {
          "name": "",
          "type": "address"
        }
      ],
      "payable": false,
      "stateMutability": "view",
      "type": "function"
    },
    {
      "constant": true,
      "inputs": [
        {
          "name": "",
          "type": "uint256"
        }
      ],
      "name": "executors",
      "outputs": [
        {
          "name": "executor",
          "type": "address"
        },
        {
          "name": "enabled",
          "type": "bool"
        }
      ],
      "payable": false,
      "stateMutability": "view",
      "type": "function"
    }
  ],
  "bytecode": "0x6060604052341561000f57600080fd5b610f058061001e6000396000f3006060604052600436106100c5576000357c0100000000000000000000000000000000000000000000000000000000900463ffffffff16806304bf2a7f146100ca5780635ca4d4bb1461016757806360b1e0571461018a57806380afdea8146101bb5780638129fc1c146101ec57806387a16f12146102015780638b3dd7491461024e5780639b3fdf4c14610277578063a1658fad146102a8578063bd8fde1c14610346578063d4aae0c414610377578063f92a79ff146103cc578063f97a05df14610469575b600080fd5b34156100d557600080fd5b610125600480803590602001908201803590602001908080601f016020809104026020016040519081016040528093929190818152602001838380828437820191505050505050919050506104d7565b604051808273ffffffffffffffffffffffffffffffffffffffff1673ffffffffffffffffffffffffffffffffffffffff16815260200191505060405180910390f35b341561017257600080fd5b6101886004808035906020019091905050610578565b005b341561019557600080fd5b61019d6105eb565b60405180826000191660001916815260200191505060405180910390f35b34156101c657600080fd5b6101ce610624565b60405180826000191660001916815260200191505060405180910390f35b34156101f757600080fd5b6101ff61062a565b005b341561020c57600080fd5b610238600480803573ffffffffffffffffffffffffffffffffffffffff16906020019091905050610704565b6040518082815260200191505060405180910390f35b341561025957600080fd5b610261610804565b6040518082815260200191505060405180910390f35b341561028257600080fd5b61028a61080e565b60405180826000191660001916815260200191505060405180910390f35b34156102b357600080fd5b61032c600480803573ffffffffffffffffffffffffffffffffffffffff1690602001909190803560001916906020019091908035906020019082018035906020019080806020026020016040519081016040528093929190818152602001838360200280828437820191505050505050919050506108a9565b604051808215151515815260200191505060405180910390f35b341561035157600080fd5b610359610aa9565b60405180826000191660001916815260200191505060405180910390f35b341561038257600080fd5b61038a610ab0565b604051808273ffffffffffffffffffffffffffffffffffffffff1673ffffffffffffffffffffffffffffffffffffffff16815260200191505060405180910390f35b34156103d757600080fd5b610427600480803590602001908201803590602001908080601f01602080910402602001604051908101604052809392919081815260200183838082843782019150505050505091905050610ad5565b604051808273ffffffffffffffffffffffffffffffffffffffff1673ffffffffffffffffffffffffffffffffffffffff16815260200191505060405180910390f35b341561047457600080fd5b61048a6004808035906020019091905050610bdc565b604051808373ffffffffffffffffffffffffffffffffffffffff1673ffffffffffffffffffffffffffffffffffffffff168152602001821515151581526020019250505060405180910390f35b60008060006104e584610c39565b63ffffffff169150600082148061050157506064805490508210155b1561050f5760009250610571565b60648281548110151561051e57fe5b906000526020600020900190508060000160149054906101000a900460ff1661054857600061056e565b8060000160009054906101000a900473ffffffffffffffffffffffffffffffffffffffff165b92505b5050919050565b600180026105a6338260006040518059106105905750595b90808252806020026020018201604052506108a9565b15156105b157600080fd5b60006064838154811015156105c257fe5b906000526020600020900160000160146101000a81548160ff0219169083151502179055505050565b60405180807f65766d7265672e617261676f6e706d2e657468000000000000000000000000008152506013019050604051809103902081565b60015481565b600060035414151561063b57600080fd5b610643610c4d565b606480548060010182816106579190610e3f565b916000526020600020900160006040805190810160405280600073ffffffffffffffffffffffffffffffffffffffff16815260200160001515815250909190915060008201518160000160006101000a81548173ffffffffffffffffffffffffffffffffffffffff021916908373ffffffffffffffffffffffffffffffffffffffff16021790555060208201518160000160146101000a81548160ff021916908315150217905550505050565b6000600180026107343382600060405180591061071e5750595b90808252806020026020018201604052506108a9565b151561073f57600080fd5b606480548060010182816107539190610e3f565b9160005260206000209001600060408051908101604052808773ffffffffffffffffffffffffffffffffffffffff16815260200160011515815250909190915060008201518160000160006101000a81548173ffffffffffffffffffffffffffffffffffffffff021916908373ffffffffffffffffffffffffffffffffffffffff16021790555060208201518160000160146101000a81548160ff0219169083151502179055505050915050919050565b6000600354905090565b60405180807f61707000000000000000000000000000000000000000000000000000000000008152506003019050604051809103902060405180807f65766d7265672e617261676f6e706d2e6574680000000000000000000000000081525060130190506040518091039020604051808360001916600019168152602001826000191660001916815260200192505050604051809103902081565b60006108b3610e6b565b600080845111156108cc57602084510290508391508082525b60008060009054906101000a900473ffffffffffffffffffffffffffffffffffffffff1673ffffffffffffffffffffffffffffffffffffffff161480610a9e57506000809054906101000a900473ffffffffffffffffffffffffffffffffffffffff1673ffffffffffffffffffffffffffffffffffffffff1663fdef9106873088866000604051602001526040518563ffffffff167c0100000000000000000000000000000000000000000000000000000000028152600401808573ffffffffffffffffffffffffffffffffffffffff1673ffffffffffffffffffffffffffffffffffffffff1681526020018473ffffffffffffffffffffffffffffffffffffffff1673ffffffffffffffffffffffffffffffffffffffff168152602001836000191660001916815260200180602001828103825283818151815260200191508051906020019080838360005b83811015610a34578082015181840152602081019050610a19565b50505050905090810190601f168015610a615780820380516001836020036101000a031916815260200191505b5095505050505050602060405180830381600087803b1515610a8257600080fd5b6102c65a03f11515610a9357600080fd5b505050604051805190505b925050509392505050565b6001800281565b6000809054906101000a900473ffffffffffffffffffffffffffffffffffffffff1681565b6000610adf610c6e565b73ffffffffffffffffffffffffffffffffffffffff166304bf2a7f836000604051602001526040518263ffffffff167c01000000000000000000000000000000000000000000000000000000000281526004018080602001828103825283818151815260200191508051906020019080838360005b83811015610b6f578082015181840152602081019050610b54565b50505050905090810190601f168015610b9c5780820380516001836020036101000a031916815260200191505b5092505050602060405180830381600087803b1515610bba57600080fd5b6102c65a03f11515610bcb57600080fd5b505050604051805190509050919050565b606481815481101515610beb57fe5b90600052602060002090016000915090508060000160009054906101000a900473ffffffffffffffffffffffffffffffffffffffff16908060000160149054906101000a900460ff16905082565b6000610c46826000610dcc565b9050919050565b6000600354141515610c5e57600080fd5b610c66610e26565b600381905550565b6000806000809054906101000a900473ffffffffffffffffffffffffffffffffffffffff1673ffffffffffffffffffffffffffffffffffffffff166342c71f1d60405180807f61707000000000000000000000000000000000000000000000000000000000008152506003019050604051809103902060405180807f65766d7265672e617261676f6e706d2e657468000000000000000000000000008152506013019050604051809103902060405180836000191660001916815260200182600019166000191681526020019250505060405180910390206000604051602001526040518263ffffffff167c0100000000000000000000000000000000000000000000000000000000028152600401808260001916600019168152602001915050602060405180830381600087803b1515610da857600080fd5b6102c65a03f11515610db957600080fd5b5050506040518051905090508091505090565b600080610dd98484610e2e565b90507c01000000000000000000000000000000000000000000000000000000007fffffffff0000000000000000000000000000000000000000000000000000000082160491505092915050565b600043905090565b600081602001830151905092915050565b815481835581811511610e6657818360005260206000209182019101610e659190610e7f565b5b505050565b602060405190810160405280600081525090565b610ed691905b80821115610ed257600080820160006101000a81549073ffffffffffffffffffffffffffffffffffffffff02191690556000820160146101000a81549060ff021916905550600101610e85565b5090565b905600a165627a7a723058209e35f4df648d02183ed4fb2dff34a7e6a7ac43f54a326c02c12bc7d1460f15100029",
  "source": "pragma solidity 0.4.18;\n\nimport \"./ScriptHelpers.sol\";\nimport \"./IEVMScriptExecutor.sol\";\nimport \"./IEVMScriptRegistry.sol\";\n\nimport \"../apps/AragonApp.sol\";\n\n\ncontract EVMScriptRegistry is IEVMScriptRegistry, EVMScriptRegistryConstants, AragonApp {\n    using ScriptHelpers for bytes;\n\n    // WARN: Manager can censor all votes and the like happening in an org\n    bytes32 constant public REGISTRY_MANAGER_ROLE = bytes32(1);\n\n    struct ExecutorEntry {\n        address executor;\n        bool enabled;\n    }\n\n    ExecutorEntry[] public executors;\n\n    function initialize() onlyInit public {\n        initialized();\n        // Create empty record to begin executor IDs at 1\n        executors.push(ExecutorEntry(address(0), false));\n    }\n\n    function addScriptExecutor(address _executor) external auth(REGISTRY_MANAGER_ROLE) returns (uint id) {\n        return executors.push(ExecutorEntry(_executor, true));\n    }\n\n    function disableScriptExecutor(uint256 _executorId) external auth(REGISTRY_MANAGER_ROLE) {\n        executors[_executorId].enabled = false;\n    }\n\n    function getScriptExecutor(bytes _script) public view returns (address) {\n        uint256 id = _script.getSpecId();\n\n        if (id == 0 || id >= executors.length) {\n            return address(0);\n        }\n\n        ExecutorEntry storage entry = executors[id];\n        return entry.enabled ? entry.executor : address(0);\n    }\n}\n",
  "sourcePath": "@aragon/os/contracts/evmscript/EVMScriptRegistry.sol",
  "compiler": {
    "name": "solc",
    "version": "0.4.18+commit.9cf6e910.Emscripten.clang"
  },
  "schemaVersion": "1.0.1",
  "updatedAt": "2018-03-05T17:18:03.435Z"
}