{
  "contractName": "EVMScriptRegistryConstants",
  "abi": [
    {
      "constant": true,
      "inputs": [],
      "name": "EVMSCRIPT_REGISTRY_APP_ID",
      "outputs": [
        {
          "name": "",
          "type": "bytes32"
        }
      ],
      "payable": false,
      "stateMutability": "view",
      "type": "function"
    },
    {
      "constant": true,
      "inputs": [],
      "name": "EVMSCRIPT_REGISTRY_APP",
      "outputs": [
        {
          "name": "",
          "type": "bytes32"
        }
      ],
      "payable": false,
      "stateMutability": "view",
      "type": "function"
    }
  ],
  "bytecode": "0x6060604052341561000f57600080fd5b6101b38061001e6000396000f30060606040526004361061004c576000357c0100000000000000000000000000000000000000000000000000000000900463ffffffff16806360b1e057146100515780639b3fdf4c14610082575b600080fd5b341561005c57600080fd5b6100646100b3565b60405180826000191660001916815260200191505060405180910390f35b341561008d57600080fd5b6100956100ec565b60405180826000191660001916815260200191505060405180910390f35b60405180807f65766d7265672e617261676f6e706d2e657468000000000000000000000000008152506013019050604051809103902081565b60405180807f61707000000000000000000000000000000000000000000000000000000000008152506003019050604051809103902060405180807f65766d7265672e617261676f6e706d2e65746800000000000000000000000000815250601301905060405180910390206040518083600019166000191681526020018260001916600019168152602001925050506040518091039020815600a165627a7a72305820f23e4286c7980b03585cb6ec575546182331bcbd82fb6692d6799e384eece45d0029",
  "source": "pragma solidity 0.4.18;\n\n\ncontract EVMScriptRegistryConstants {\n    bytes32 constant public EVMSCRIPT_REGISTRY_APP_ID = keccak256(\"evmreg.aragonpm.eth\");\n    bytes32 constant public EVMSCRIPT_REGISTRY_APP = keccak256(keccak256(\"app\"), EVMSCRIPT_REGISTRY_APP_ID);\n}\n\n\ninterface IEVMScriptRegistry {\n    function addScriptExecutor(address executor) external returns (uint id);\n    function disableScriptExecutor(uint256 executorId) external;\n\n    function getScriptExecutor(bytes script) public view returns (address);\n}",
  "sourcePath": "@aragon/os/contracts/evmscript/IEVMScriptRegistry.sol",
  "compiler": {
    "name": "solc",
    "version": "0.4.18+commit.9cf6e910.Emscripten.clang"
  },
  "schemaVersion": "1.0.1",
  "updatedAt": "2018-03-05T17:18:03.436Z"
}