{
  "contractName": "Finance",
  "abi": [
    {
      "constant": true,
      "inputs": [],
      "name": "CREATE_PAYMENTS_ROLE",
      "outputs": [
        {
          "name": "",
          "type": "bytes32"
        }
      ],
      "payable": false,
      "stateMutability": "view",
      "type": "function"
    },
    {
      "constant": false,
      "inputs": [],
      "name": "escapeHatch",
      "outputs": [],
      "payable": true,
      "stateMutability": "payable",
      "type": "function"
    },
    {
      "constant": false,
      "inputs": [
        {
          "name": "_paymentId",
          "type": "uint256"
        }
      ],
      "name": "executePayment",
      "outputs": [],
      "payable": false,
      "stateMutability": "nonpayable",
      "type": "function"
    },
    {
      "constant": false,
      "inputs": [
        {
          "name": "_token",
          "type": "address"
        }
      ],
      "name": "removeBudget",
      "outputs": [],
      "payable": false,
      "stateMutability": "nonpayable",
      "type": "function"
    },
    {
      "constant": true,
      "inputs": [
        {
          "name": "_token",
          "type": "address"
        }
      ],
      "name": "getBudget",
      "outputs": [
        {
          "name": "budget",
          "type": "uint256"
        },
        {
          "name": "hasBudget",
          "type": "bool"
        },
        {
          "name": "remainingBudget",
          "type": "uint256"
        }
      ],
      "payable": false,
      "stateMutability": "view",
      "type": "function"
    },
    {
      "constant": true,
      "inputs": [],
      "name": "DISABLE_PAYMENTS_ROLE",
      "outputs": [
        {
          "name": "",
          "type": "bytes32"
        }
      ],
      "payable": false,
      "stateMutability": "view",
      "type": "function"
    },
    {
      "constant": true,
      "inputs": [
        {
          "name": "_paymentId",
          "type": "uint256"
        }
      ],
      "name": "getPayment",
      "outputs": [
        {
          "name": "token",
          "type": "address"
        },
        {
          "name": "receiver",
          "type": "address"
        },
        {
          "name": "amount",
          "type": "uint256"
        },
        {
          "name": "initialPaymentTime",
          "type": "uint64"
        },
        {
          "name": "interval",
          "type": "uint64"
        },
        {
          "name": "maxRepeats",
          "type": "uint64"
        },
        {
          "name": "reference",
          "type": "string"
        },
        {
          "name": "disabled",
          "type": "bool"
        },
        {
          "name": "repeats",
          "type": "uint256"
        },
        {
          "name": "createdBy",
          "type": "address"
        }
      ],
      "payable": false,
      "stateMutability": "view",
      "type": "function"
    },
    {
      "constant": true,
      "inputs": [
        {
          "name": "_transactionId",
          "type": "uint256"
        }
      ],
      "name": "getTransaction",
      "outputs": [
        {
          "name": "periodId",
          "type": "uint256"
        },
        {
          "name": "amount",
          "type": "uint256"
        },
        {
          "name": "paymentId",
          "type": "uint256"
        },
        {
          "name": "token",
          "type": "address"
        },
        {
          "name": "entity",
          "type": "address"
        },
        {
          "name": "isIncoming",
          "type": "bool"
        },
        {
          "name": "date",
          "type": "uint64"
        },
        {
          "name": "reference",
          "type": "string"
        }
      ],
      "payable": false,
      "stateMutability": "view",
      "type": "function"
    },
    {
      "constant": true,
      "inputs": [
        {
          "name": "_periodId",
          "type": "uint256"
        },
        {
          "name": "_token",
          "type": "address"
        }
      ],
      "name": "getPeriodTokenStatement",
      "outputs": [
        {
          "name": "expenses",
          "type": "uint256"
        },
        {
          "name": "income",
          "type": "uint256"
        }
      ],
      "payable": false,
      "stateMutability": "view",
      "type": "function"
    },
    {
      "constant": true,
      "inputs": [
        {
          "name": "_periodId",
          "type": "uint256"
        }
      ],
      "name": "getPeriod",
      "outputs": [
        {
          "name": "isCurrent",
          "type": "bool"
        },
        {
          "name": "startTime",
          "type": "uint64"
        },
        {
          "name": "endTime",
          "type": "uint64"
        },
        {
          "name": "firstTransactionId",
          "type": "uint256"
        },
        {
          "name": "lastTransactionId",
          "type": "uint256"
        }
      ],
      "payable": false,
      "stateMutability": "view",
      "type": "function"
    },
    {
      "constant": true,
      "inputs": [],
      "name": "CHANGE_PERIOD_ROLE",
      "outputs": [
        {
          "name": "",
          "type": "bytes32"
        }
      ],
      "payable": false,
      "stateMutability": "view",
      "type": "function"
    },
    {
      "constant": true,
      "inputs": [],
      "name": "CHANGE_BUDGETS_ROLE",
      "outputs": [
        {
          "name": "",
          "type": "bytes32"
        }
      ],
      "payable": false,
      "stateMutability": "view",
      "type": "function"
    },
    {
      "constant": true,
      "inputs": [],
      "name": "EVMSCRIPT_REGISTRY_APP_ID",
      "outputs": [
        {
          "name": "",
          "type": "bytes32"
        }
      ],
      "payable": false,
      "stateMutability": "view",
      "type": "function"
    },
    {
      "constant": false,
      "inputs": [
        {
          "name": "_paymentId",
          "type": "uint256"
        }
      ],
      "name": "receiverExecutePayment",
      "outputs": [],
      "payable": false,
      "stateMutability": "nonpayable",
      "type": "function"
    },
    {
      "constant": false,
      "inputs": [
        {
          "name": "_periodDuration",
          "type": "uint64"
        }
      ],
      "name": "setPeriodDuration",
      "outputs": [],
      "payable": false,
      "stateMutability": "nonpayable",
      "type": "function"
    },
    {
      "constant": false,
      "inputs": [
        {
          "name": "_token",
          "type": "address"
        },
        {
          "name": "_receiver",
          "type": "address"
        },
        {
          "name": "_amount",
          "type": "uint256"
        },
        {
          "name": "_initialPaymentTime",
          "type": "uint64"
        },
        {
          "name": "_interval",
          "type": "uint64"
        },
        {
          "name": "_maxRepeats",
          "type": "uint64"
        },
        {
          "name": "_reference",
          "type": "string"
        }
      ],
      "name": "newPayment",
      "outputs": [
        {
          "name": "paymentId",
          "type": "uint256"
        }
      ],
      "payable": false,
      "stateMutability": "nonpayable",
      "type": "function"
    },
    {
      "constant": false,
      "inputs": [
        {
          "name": "_token",
          "type": "address"
        },
        {
          "name": "_amount",
          "type": "uint256"
        }
      ],
      "name": "setBudget",
      "outputs": [],
      "payable": false,
      "stateMutability": "nonpayable",
      "type": "function"
    },
    {
      "constant": false,
      "inputs": [
        {
          "name": "_vault",
          "type": "address"
        },
        {
          "name": "_etherToken",
          "type": "address"
        },
        {
          "name": "_periodDuration",
          "type": "uint64"
        }
      ],
      "name": "initialize",
      "outputs": [],
      "payable": false,
      "stateMutability": "nonpayable",
      "type": "function"
    },
    {
      "constant": true,
      "inputs": [],
      "name": "appId",
      "outputs": [
        {
          "name": "",
          "type": "bytes32"
        }
      ],
      "payable": false,
      "stateMutability": "view",
      "type": "function"
    },
    {
      "constant": true,
      "inputs": [],
      "name": "getInitializationBlock",
      "outputs": [
        {
          "name": "",
          "type": "uint256"
        }
      ],
      "payable": false,
      "stateMutability": "view",
      "type": "function"
    },
    {
      "constant": false,
      "inputs": [
        {
          "name": "_from",
          "type": "address"
        },
        {
          "name": "_amount",
          "type": "uint256"
        },
        {
          "name": "_token",
          "type": "address"
        },
        {
          "name": "_data",
          "type": "bytes"
        }
      ],
      "name": "receiveApproval",
      "outputs": [],
      "payable": false,
      "stateMutability": "nonpayable",
      "type": "function"
    },
    {
      "constant": true,
      "inputs": [],
      "name": "EXECUTE_PAYMENTS_ROLE",
      "outputs": [
        {
          "name": "",
          "type": "bytes32"
        }
      ],
      "payable": false,
      "stateMutability": "view",
      "type": "function"
    },
    {
      "constant": true,
      "inputs": [],
      "name": "MAX_PERIOD_TRANSITIONS_PER_TX",
      "outputs": [
        {
          "name": "",
          "type": "uint64"
        }
      ],
      "payable": false,
      "stateMutability": "view",
      "type": "function"
    },
    {
      "constant": true,
      "inputs": [],
      "name": "currentPeriodId",
      "outputs": [
        {
          "name": "",
          "type": "uint256"
        }
      ],
      "payable": false,
      "stateMutability": "view",
      "type": "function"
    },
    {
      "constant": true,
      "inputs": [],
      "name": "EVMSCRIPT_REGISTRY_APP",
      "outputs": [
        {
          "name": "",
          "type": "bytes32"
        }
      ],
      "payable": false,
      "stateMutability": "view",
      "type": "function"
    },
    {
      "constant": true,
      "inputs": [
        {
          "name": "_sender",
          "type": "address"
        },
        {
          "name": "_role",
          "type": "bytes32"
        },
        {
          "name": "params",
          "type": "uint256[]"
        }
      ],
      "name": "canPerform",
      "outputs": [
        {
          "name": "",
          "type": "bool"
        }
      ],
      "payable": false,
      "stateMutability": "view",
      "type": "function"
    },
    {
      "constant": false,
      "inputs": [
        {
          "name": "_ttl",
          "type": "uint256"
        }
      ],
      "name": "tryTransitionAccountingPeriod",
      "outputs": [
        {
          "name": "success",
          "type": "bool"
        }
      ],
      "payable": false,
      "stateMutability": "nonpayable",
      "type": "function"
    },
    {
      "constant": true,
      "inputs": [],
      "name": "getPeriodDuration",
      "outputs": [
        {
          "name": "periodDuration",
          "type": "uint64"
        }
      ],
      "payable": false,
      "stateMutability": "view",
      "type": "function"
    },
    {
      "constant": true,
      "inputs": [],
      "name": "etherToken",
      "outputs": [
        {
          "name": "",
          "type": "address"
        }
      ],
      "payable": false,
      "stateMutability": "view",
      "type": "function"
    },
    {
      "constant": false,
      "inputs": [
        {
          "name": "_token",
          "type": "address"
        },
        {
          "name": "_amount",
          "type": "uint256"
        },
        {
          "name": "_reference",
          "type": "string"
        }
      ],
      "name": "deposit",
      "outputs": [],
      "payable": false,
      "stateMutability": "nonpayable",
      "type": "function"
    },
    {
      "constant": false,
      "inputs": [
        {
          "name": "from",
          "type": "address"
        },
        {
          "name": "amount",
          "type": "uint256"
        },
        {
          "name": "data",
          "type": "bytes"
        }
      ],
      "name": "tokenFallback",
      "outputs": [
        {
          "name": "success",
          "type": "bool"
        }
      ],
      "payable": false,
      "stateMutability": "nonpayable",
      "type": "function"
    },
    {
      "constant": true,
      "inputs": [],
      "name": "MAX_UINT64",
      "outputs": [
        {
          "name": "",
          "type": "uint64"
        }
      ],
      "payable": false,
      "stateMutability": "view",
      "type": "function"
    },
    {
      "constant": true,
      "inputs": [
        {
          "name": "_paymentId",
          "type": "uint256"
        }
      ],
      "name": "nextPaymentTime",
      "outputs": [
        {
          "name": "",
          "type": "uint64"
        }
      ],
      "payable": false,
      "stateMutability": "view",
      "type": "function"
    },
    {
      "constant": false,
      "inputs": [
        {
          "name": "_paymentId",
          "type": "uint256"
        },
        {
          "name": "_disabled",
          "type": "bool"
        }
      ],
      "name": "setPaymentDisabled",
      "outputs": [],
      "payable": false,
      "stateMutability": "nonpayable",
      "type": "function"
    },
    {
      "constant": true,
      "inputs": [],
      "name": "kernel",
      "outputs": [
        {
          "name": "",
          "type": "address"
        }
      ],
      "payable": false,
      "stateMutability": "view",
      "type": "function"
    },
    {
      "constant": true,
      "inputs": [],
      "name": "MAX_UINT",
      "outputs": [
        {
          "name": "",
          "type": "uint256"
        }
      ],
      "payable": false,
      "stateMutability": "view",
      "type": "function"
    },
    {
      "constant": false,
      "inputs": [
        {
          "name": "_token",
          "type": "address"
        }
      ],
      "name": "depositToVault",
      "outputs": [],
      "payable": false,
      "stateMutability": "nonpayable",
      "type": "function"
    },
    {
      "constant": true,
      "inputs": [],
      "name": "MAX_PAYMENTS_PER_TX",
      "outputs": [
        {
          "name": "",
          "type": "uint64"
        }
      ],
      "payable": false,
      "stateMutability": "view",
      "type": "function"
    },
    {
      "constant": true,
      "inputs": [
        {
          "name": "_script",
          "type": "bytes"
        }
      ],
      "name": "getExecutor",
      "outputs": [
        {
          "name": "",
          "type": "address"
        }
      ],
      "payable": false,
      "stateMutability": "view",
      "type": "function"
    },
    {
      "constant": true,
      "inputs": [],
      "name": "vault",
      "outputs": [
        {
          "name": "",
          "type": "address"
        }
      ],
      "payable": false,
      "stateMutability": "view",
      "type": "function"
    },
    {
      "anonymous": false,
      "inputs": [
        {
          "indexed": true,
          "name": "periodId",
          "type": "uint256"
        },
        {
          "indexed": false,
          "name": "periodStarts",
          "type": "uint64"
        },
        {
          "indexed": false,
          "name": "periodEnds",
          "type": "uint64"
        }
      ],
      "name": "NewPeriod",
      "type": "event"
    },
    {
      "anonymous": false,
      "inputs": [
        {
          "indexed": true,
          "name": "token",
          "type": "address"
        },
        {
          "indexed": false,
          "name": "amount",
          "type": "uint256"
        },
        {
          "indexed": false,
          "name": "hasBudget",
          "type": "bool"
        }
      ],
      "name": "SetBudget",
      "type": "event"
    },
    {
      "anonymous": false,
      "inputs": [
        {
          "indexed": true,
          "name": "paymentId",
          "type": "uint256"
        },
        {
          "indexed": true,
          "name": "recipient",
          "type": "address"
        },
        {
          "indexed": false,
          "name": "maxRepeats",
          "type": "uint64"
        }
      ],
      "name": "NewPayment",
      "type": "event"
    },
    {
      "anonymous": false,
      "inputs": [
        {
          "indexed": true,
          "name": "transactionId",
          "type": "uint256"
        },
        {
          "indexed": false,
          "name": "incoming",
          "type": "bool"
        },
        {
          "indexed": true,
          "name": "entity",
          "type": "address"
        }
      ],
      "name": "NewTransaction",
      "type": "event"
    },
    {
      "anonymous": false,
      "inputs": [
        {
          "indexed": true,
          "name": "paymentId",
          "type": "uint256"
        },
        {
          "indexed": false,
          "name": "disabled",
          "type": "bool"
        }
      ],
      "name": "ChangePaymentState",
      "type": "event"
    },
    {
      "anonymous": false,
      "inputs": [
        {
          "indexed": false,
          "name": "newDuration",
          "type": "uint64"
        }
      ],
      "name": "ChangePeriodDuration",
      "type": "event"
    },
    {
      "anonymous": false,
      "inputs": [
        {
          "indexed": false,
          "name": "paymentId",
          "type": "uint256"
        }
      ],
      "name": "PaymentFailure",
      "type": "event"
    }
  ],
  "bytecode": "0x6060604052341561000f57600080fd5b61493d8061001e6000396000f3006060604052600436106101ee576000357c0100000000000000000000000000000000000000000000000000000000900463ffffffff1680630842ace4146101f35780631554611f14610224578063162a0cf81461022e57806318f053da1461025157806319b7d7bd1461028a57806329b522eb146102e95780633280a8361461031a57806333ea3dc8146104b957806341733dd3146105f65780634b2c0706146106535780635985feec146106d25780635b14dbc81461070357806360b1e057146107345780636436f18914610765578063671273f4146107885780636f0558b1146107b557806374bfb426146108775780637879ec31146108b957806380afdea8146109245780638b3dd749146109555780638f4ffcb11461097e578063981cc342146109f357806398547eac14610a24578063988e659514610a615780639b3fdf4c14610a8a578063a1658fad14610abb578063a19525a314610b59578063b36fec5714610b94578063b8066bcb14610bd1578063bfe07da614610c26578063c0ee0b8a14610c7c578063c9f661be14610cea578063cb045a9614610d27578063cf79af9014610d72578063d4aae0c414610da0578063e5b5019a14610df5578063efc7a86114610e1e578063f2bf78e914610e57578063f92a79ff14610e94578063fbfa77cf14610f31575b600080fd5b34156101fe57600080fd5b610206610f86565b60405180826000191660001916815260200191505060405180910390f35b61022c610fbf565b005b341561023957600080fd5b61024f60048080359060200190919050506110e2565b005b341561025c57600080fd5b610288600480803573ffffffffffffffffffffffffffffffffffffffff1690602001909190505061116d565b005b341561029557600080fd5b6102c1600480803573ffffffffffffffffffffffffffffffffffffffff169060200190919050506112e7565b6040518084815260200183151515158152602001828152602001935050505060405180910390f35b34156102f457600080fd5b6102fc6113b9565b60405180826000191660001916815260200191505060405180910390f35b341561032557600080fd5b61033b60048080359060200190919050506113f2565b604051808b73ffffffffffffffffffffffffffffffffffffffff1673ffffffffffffffffffffffffffffffffffffffff1681526020018a73ffffffffffffffffffffffffffffffffffffffff1673ffffffffffffffffffffffffffffffffffffffff1681526020018981526020018867ffffffffffffffff1667ffffffffffffffff1681526020018767ffffffffffffffff1667ffffffffffffffff1681526020018667ffffffffffffffff1667ffffffffffffffff16815260200180602001851515151581526020018481526020018373ffffffffffffffffffffffffffffffffffffffff1673ffffffffffffffffffffffffffffffffffffffff168152602001828103825286818151815260200191508051906020019080838360005b8381101561047557808201518184015260208101905061045a565b50505050905090810190601f1680156104a25780820380516001836020036101000a031916815260200191505b509b50505050505050505050505060405180910390f35b34156104c457600080fd5b6104da60048080359060200190919050506115db565b604051808981526020018881526020018781526020018673ffffffffffffffffffffffffffffffffffffffff1673ffffffffffffffffffffffffffffffffffffffff1681526020018573ffffffffffffffffffffffffffffffffffffffff1673ffffffffffffffffffffffffffffffffffffffff168152602001841515151581526020018367ffffffffffffffff1667ffffffffffffffff16815260200180602001828103825283818151815260200191508051906020019080838360005b838110156105b4578082015181840152602081019050610599565b50505050905090810190601f1680156105e15780820380516001836020036101000a031916815260200191505b50995050505050505050505060405180910390f35b341561060157600080fd5b610636600480803590602001909190803573ffffffffffffffffffffffffffffffffffffffff1690602001909190505061174c565b604051808381526020018281526020019250505060405180910390f35b341561065e57600080fd5b61067460048080359060200190919050506117c6565b60405180861515151581526020018567ffffffffffffffff1667ffffffffffffffff1681526020018467ffffffffffffffff1667ffffffffffffffff1681526020018381526020018281526020019550505050505060405180910390f35b34156106dd57600080fd5b6106e5611848565b60405180826000191660001916815260200191505060405180910390f35b341561070e57600080fd5b610716611881565b60405180826000191660001916815260200191505060405180910390f35b341561073f57600080fd5b6107476118ba565b60405180826000191660001916815260200191505060405180910390f35b341561077057600080fd5b61078660048080359060200190919050506118f3565b005b341561079357600080fd5b6107b3600480803567ffffffffffffffff169060200190919050506119a1565b005b34156107c057600080fd5b610861600480803573ffffffffffffffffffffffffffffffffffffffff1690602001909190803573ffffffffffffffffffffffffffffffffffffffff1690602001909190803590602001909190803567ffffffffffffffff1690602001909190803567ffffffffffffffff1690602001909190803567ffffffffffffffff169060200190919080359060200190820180359060200191909192905050611ade565b6040518082815260200191505060405180910390f35b341561088257600080fd5b6108b7600480803573ffffffffffffffffffffffffffffffffffffffff16906020019091908035906020019091905050611e99565b005b34156108c457600080fd5b610922600480803573ffffffffffffffffffffffffffffffffffffffff1690602001909190803573ffffffffffffffffffffffffffffffffffffffff1690602001909190803567ffffffffffffffff169060200190919050506120b1565b005b341561092f57600080fd5b610937612213565b60405180826000191660001916815260200191505060405180910390f35b341561096057600080fd5b610968612219565b6040518082815260200191505060405180910390f35b341561098957600080fd5b6109f1600480803573ffffffffffffffffffffffffffffffffffffffff1690602001909190803590602001909190803573ffffffffffffffffffffffffffffffffffffffff169060200190919080359060200190820180359060200191909192905050612223565b005b34156109fe57600080fd5b610a066123f3565b60405180826000191660001916815260200191505060405180910390f35b3415610a2f57600080fd5b610a3761242c565b604051808267ffffffffffffffff1667ffffffffffffffff16815260200191505060405180910390f35b3415610a6c57600080fd5b610a74612431565b6040518082815260200191505060405180910390f35b3415610a9557600080fd5b610a9d612441565b60405180826000191660001916815260200191505060405180910390f35b3415610ac657600080fd5b610b3f600480803573ffffffffffffffffffffffffffffffffffffffff1690602001909190803560001916906020019091908035906020019082018035906020019080806020026020016040519081016040528093929190818152602001838360200280828437820191505050505050919050506124dc565b604051808215151515815260200191505060405180910390f35b3415610b6457600080fd5b610b7a60048080359060200190919050506126dc565b604051808215151515815260200191505060405180910390f35b3415610b9f57600080fd5b610ba76127fa565b604051808267ffffffffffffffff1667ffffffffffffffff16815260200191505060405180910390f35b3415610bdc57600080fd5b610be461281b565b604051808273ffffffffffffffffffffffffffffffffffffffff1673ffffffffffffffffffffffffffffffffffffffff16815260200191505060405180910390f35b3415610c3157600080fd5b610c7a600480803573ffffffffffffffffffffffffffffffffffffffff169060200190919080359060200190919080359060200190820180359060200191909192905050612841565b005b3415610c8757600080fd5b610cd0600480803573ffffffffffffffffffffffffffffffffffffffff1690602001909190803590602001909190803590602001908201803590602001919091929050506129d1565b604051808215151515815260200191505060405180910390f35b3415610cf557600080fd5b610cfd612b3a565b604051808267ffffffffffffffff1667ffffffffffffffff16815260200191505060405180910390f35b3415610d3257600080fd5b610d486004808035906020019091905050612b5e565b604051808267ffffffffffffffff1667ffffffffffffffff16815260200191505060405180910390f35b3415610d7d57600080fd5b610d9e60048080359060200190919080351515906020019091905050612ed5565b005b3415610dab57600080fd5b610db3612fa4565b604051808273ffffffffffffffffffffffffffffffffffffffff1673ffffffffffffffffffffffffffffffffffffffff16815260200191505060405180910390f35b3415610e0057600080fd5b610e08612fc9565b6040518082815260200191505060405180910390f35b3415610e2957600080fd5b610e55600480803573ffffffffffffffffffffffffffffffffffffffff16906020019091905050612fed565b005b3415610e6257600080fd5b610e6a6131fb565b604051808267ffffffffffffffff1667ffffffffffffffff16815260200191505060405180910390f35b3415610e9f57600080fd5b610eef600480803590602001908201803590602001908080601f01602080910402602001604051908101604052809392919081815260200183838082843782019150505050505091905050613200565b604051808273ffffffffffffffffffffffffffffffffffffffff1673ffffffffffffffffffffffffffffffffffffffff16815260200191505060405180910390f35b3415610f3c57600080fd5b610f44613307565b604051808273ffffffffffffffffffffffffffffffffffffffff1673ffffffffffffffffffffffffffffffffffffffff16815260200191505060405180910390f35b60405180807f4352454154455f5041594d454e54535f524f4c450000000000000000000000008152506014019050604051809103902081565b606560009054906101000a900473ffffffffffffffffffffffffffffffffffffffff1673ffffffffffffffffffffffffffffffffffffffff1663cbbfb3633073ffffffffffffffffffffffffffffffffffffffff1631306040518363ffffffff167c0100000000000000000000000000000000000000000000000000000000028152600401808273ffffffffffffffffffffffffffffffffffffffff1673ffffffffffffffffffffffffffffffffffffffff168152602001806020018281038252600c8152602001807f416464696e672046756e64730000000000000000000000000000000000000000815250602001925050506000604051808303818588803b15156110cb57600080fd5b6125ee5a03f115156110dc57600080fd5b50505050565b60405180807f455845435554455f5041594d454e54535f524f4c450000000000000000000000815250601501905060405180910390206111218261332d565b61112c3383836124dc565b151561113757600080fd5b61113f61337a565b61114884612b5e565b67ffffffffffffffff161115151561115f57600080fd5b61116883613382565b505050565b60405180807f4348414e47455f425544474554535f524f4c4500000000000000000000000000815250601301905060405180910390206111f1826000606960010160008673ffffffffffffffffffffffffffffffffffffffff1673ffffffffffffffffffffffffffffffffffffffff16815260200190815260200160002054613550565b6111fc3383836124dc565b151561120757600080fd5b600061121d600a67ffffffffffffffff166126dc565b905080151561122b57600080fd5b6000606960020160008673ffffffffffffffffffffffffffffffffffffffff1673ffffffffffffffffffffffffffffffffffffffff16815260200190815260200160002060006101000a81548160ff0219169083151502179055508373ffffffffffffffffffffffffffffffffffffffff167f6e768d8fe4a1460cae6d5af9382c3e9abbc41f66f2ec91fda24b12e3c2796f0360008060405180838152602001821515151581526020019250505060405180910390a250505050565b600080600080611301600a67ffffffffffffffff166126dc565b905080151561130f57600080fd5b606960010160008673ffffffffffffffffffffffffffffffffffffffff1673ffffffffffffffffffffffffffffffffffffffff168152602001908152602001600020549350606960020160008673ffffffffffffffffffffffffffffffffffffffff1673ffffffffffffffffffffffffffffffffffffffff16815260200190815260200160002060009054906101000a900460ff1692506113af85613582565b9150509193909250565b60405180807f44495341424c455f5041594d454e54535f524f4c4500000000000000000000008152506015019050604051809103902081565b6000806000806000806114036143a3565b60008060008060668c81548110151561141857fe5b906000526020600020906006020190508060000160009054906101000a900473ffffffffffffffffffffffffffffffffffffffff169a508060010160009054906101000a900473ffffffffffffffffffffffffffffffffffffffff169950806004015498508060020160159054906101000a900467ffffffffffffffff1697508060030160009054906101000a900467ffffffffffffffff1696508060030160089054906101000a900467ffffffffffffffff1695508060030160109054906101000a900467ffffffffffffffff1667ffffffffffffffff1692508060020160149054906101000a900460ff169350806005018054600181600116156101000203166002900480601f01602080910402602001604051908101604052809291908181526020018280546001816001161561010002031660029004801561159f5780601f106115745761010080835404028352916020019161159f565b820191906000526020600020905b81548152906001019060200180831161158257829003601f168201915b505050505094508060020160009054906101000a900473ffffffffffffffffffffffffffffffffffffffff169150509193959799509193959799565b60008060008060008060006115ee6143a3565b600060678a8154811015156115ff57fe5b906000526020600020906006020190508060000160009054906101000a900473ffffffffffffffffffffffffffffffffffffffff1695508060010160009054906101000a900473ffffffffffffffffffffffffffffffffffffffff1694508060010160149054906101000a900460ff1693508060010160159054906101000a900467ffffffffffffffff169250806002015498508060030154975080600401549650806005018054600181600116156101000203166002900480601f0160208091040260200160405190810160405280929190818152602001828054600181600116156101000203166002900480156117395780601f1061170e57610100808354040283529160200191611739565b820191906000526020600020905b81548152906001019060200180831161171c57829003601f168201915b5050505050915050919395975091939597565b600080600060688581548110151561176057fe5b906000526020600020906004020160030160008573ffffffffffffffffffffffffffffffffffffffff1673ffffffffffffffffffffffffffffffffffffffff16815260200190815260200160002090508060000154816001015492509250509250929050565b6000806000806000806068878154811015156117de57fe5b90600052602060002090600402019050866117f7612431565b1495508060000160009054906101000a900467ffffffffffffffff1694508060000160089054906101000a900467ffffffffffffffff16935080600101549250806002015491505091939590929450565b60405180807f4348414e47455f504552494f445f524f4c4500000000000000000000000000008152506012019050604051809103902081565b60405180807f4348414e47455f425544474554535f524f4c45000000000000000000000000008152506013019050604051809103902081565b60405180807f65766d7265672e617261676f6e706d2e657468000000000000000000000000008152506013019050604051809103902081565b6118fb61337a565b61190482612b5e565b67ffffffffffffffff161115151561191b57600080fd5b3373ffffffffffffffffffffffffffffffffffffffff1660668281548110151561194157fe5b906000526020600020906006020160010160009054906101000a900473ffffffffffffffffffffffffffffffffffffffff1673ffffffffffffffffffffffffffffffffffffffff1614151561199557600080fd5b61199e81613382565b50565b60405180807f4348414e47455f504552494f445f524f4c45000000000000000000000000000081525060120190506040518091039020611a0e8267ffffffffffffffff16606960000160009054906101000a900467ffffffffffffffff1667ffffffffffffffff1661371f565b611a193383836124dc565b1515611a2457600080fd5b6000611a3a600a67ffffffffffffffff166126dc565b9050801515611a4857600080fd5b60018467ffffffffffffffff16111515611a6157600080fd5b83606960000160006101000a81548167ffffffffffffffff021916908367ffffffffffffffff1602179055507fa32389dd0d5a3bf7cc635f8c30fee3b70d06a6c547d6dbf31628378ee267bfc984604051808267ffffffffffffffff1667ffffffffffffffff16815260200191505060405180910390a150505050565b60008060405180807f4352454154455f5041594d454e54535f524f4c4500000000000000000000000081525060140190506040518091039020611b388b8b8b8a67ffffffffffffffff168a67ffffffffffffffff1661378b565b611b433383836124dc565b1515611b4e57600080fd5b6000611b64600a67ffffffffffffffff166126dc565b9050801515611b7257600080fd5b6000606960010160008f73ffffffffffffffffffffffffffffffffffffffff1673ffffffffffffffffffffffffffffffffffffffff168152602001908152602001600020541180611c105750606960020160008e73ffffffffffffffffffffffffffffffffffffffff1673ffffffffffffffffffffffffffffffffffffffff16815260200190815260200160002060009054906101000a900460ff16155b1515611c1b57600080fd5b611c2361337a565b8a67ffffffffffffffff1611158015611c46575060018867ffffffffffffffff16145b15611c5d57611c588d8d8d60006137d7565b611e89565b60668054809190600101611c7191906143b7565b9450606685815481101515611c8257fe5b906000526020600020906006020193508c8460000160006101000a81548173ffffffffffffffffffffffffffffffffffffffff021916908373ffffffffffffffffffffffffffffffffffffffff1602179055508b8460010160006101000a81548173ffffffffffffffffffffffffffffffffffffffff021916908373ffffffffffffffffffffffffffffffffffffffff1602179055508a8460040181905550898460020160156101000a81548167ffffffffffffffff021916908367ffffffffffffffff160217905550888460030160006101000a81548167ffffffffffffffff021916908367ffffffffffffffff160217905550878460030160086101000a81548167ffffffffffffffff021916908367ffffffffffffffff1602179055508686856005019190611db59291906143e9565b50338460020160006101000a81548173ffffffffffffffffffffffffffffffffffffffff021916908373ffffffffffffffffffffffffffffffffffffffff1602179055508b73ffffffffffffffffffffffffffffffffffffffff16857f1369b17360a33c63f419d46a6fa8f1b39af8d45a18af87cf320305140ab6e4b68a604051808267ffffffffffffffff1667ffffffffffffffff16815260200191505060405180910390a3611e6461337a565b611e6d86612b5e565b67ffffffffffffffff16111515611e8857611e8785613382565b5b5b5050505098975050505050505050565b60405180807f4348414e47455f425544474554535f524f4c450000000000000000000000000081525060130190506040518091039020611f1c8383606960010160008773ffffffffffffffffffffffffffffffffffffffff1673ffffffffffffffffffffffffffffffffffffffff16815260200190815260200160002054613550565b611f273383836124dc565b1515611f3257600080fd5b6000611f48600a67ffffffffffffffff166126dc565b9050801515611f5657600080fd5b83606960010160008773ffffffffffffffffffffffffffffffffffffffff1673ffffffffffffffffffffffffffffffffffffffff16815260200190815260200160002081905550606960020160008673ffffffffffffffffffffffffffffffffffffffff1673ffffffffffffffffffffffffffffffffffffffff16815260200190815260200160002060009054906101000a900460ff16151561204f576001606960020160008773ffffffffffffffffffffffffffffffffffffffff1673ffffffffffffffffffffffffffffffffffffffff16815260200190815260200160002060006101000a81548160ff0219169083151502179055505b8473ffffffffffffffffffffffffffffffffffffffff167f6e768d8fe4a1460cae6d5af9382c3e9abbc41f66f2ec91fda24b12e3c2796f0385600160405180838152602001821515151581526020019250505060405180910390a25050505050565b60006003541415156120c257600080fd5b6120ca613b60565b60018167ffffffffffffffff161115156120e357600080fd5b82606460006101000a81548173ffffffffffffffffffffffffffffffffffffffff021916908373ffffffffffffffffffffffffffffffffffffffff16021790555081606560006101000a81548173ffffffffffffffffffffffffffffffffffffffff021916908373ffffffffffffffffffffffffffffffffffffffff160217905550600160668181805490500191508161217d91906143b7565b5060016066600081548110151561219057fe5b906000526020600020906006020160020160146101000a81548160ff02191690831515021790555060016067818180549050019150816121d09190614469565b5080606960000160006101000a81548167ffffffffffffffff021916908367ffffffffffffffff16021790555061220d61220861337a565b613b81565b50505050565b60015481565b6000600354905090565b60008061223a600a67ffffffffffffffff166126dc565b905080151561224857600080fd5b8473ffffffffffffffffffffffffffffffffffffffff163373ffffffffffffffffffffffffffffffffffffffff1614151561228257600080fd5b3391506122c382888887878080601f016020809104026020016040519081016040528093929190818152602001838380828437820191505050505050613cd1565b8173ffffffffffffffffffffffffffffffffffffffff166323b872dd88606460009054906101000a900473ffffffffffffffffffffffffffffffffffffffff16896000604051602001526040518463ffffffff167c0100000000000000000000000000000000000000000000000000000000028152600401808473ffffffffffffffffffffffffffffffffffffffff1673ffffffffffffffffffffffffffffffffffffffff1681526020018373ffffffffffffffffffffffffffffffffffffffff1673ffffffffffffffffffffffffffffffffffffffff1681526020018281526020019350505050602060405180830381600087803b15156123c457600080fd5b6102c65a03f115156123d557600080fd5b5050506040518051905015156123ea57600080fd5b50505050505050565b60405180807f455845435554455f5041594d454e54535f524f4c4500000000000000000000008152506015019050604051809103902081565b600a81565b6000600160688054905003905090565b60405180807f61707000000000000000000000000000000000000000000000000000000000008152506003019050604051809103902060405180807f65766d7265672e617261676f6e706d2e6574680000000000000000000000000081525060130190506040518091039020604051808360001916600019168152602001826000191660001916815260200192505050604051809103902081565b60006124e661449b565b600080845111156124ff57602084510290508391508082525b60008060009054906101000a900473ffffffffffffffffffffffffffffffffffffffff1673ffffffffffffffffffffffffffffffffffffffff1614806126d157506000809054906101000a900473ffffffffffffffffffffffffffffffffffffffff1673ffffffffffffffffffffffffffffffffffffffff1663fdef9106873088866000604051602001526040518563ffffffff167c0100000000000000000000000000000000000000000000000000000000028152600401808573ffffffffffffffffffffffffffffffffffffffff1673ffffffffffffffffffffffffffffffffffffffff1681526020018473ffffffffffffffffffffffffffffffffffffffff1673ffffffffffffffffffffffffffffffffffffffff168152602001836000191660001916815260200180602001828103825283818151815260200191508051906020019080838360005b8381101561266757808201518184015260208101905061264c565b50505050905090810190601f1680156126945780820380516001836020036101000a031916815260200191505b5095505050505050602060405180830381600087803b15156126b557600080fd5b6102c65a03f115156126c657600080fd5b505050604051805190505b925050509392505050565b600080600060686126eb612431565b8154811015156126f757fe5b906000526020600020906004020191508160000160089054906101000a900467ffffffffffffffff1667ffffffffffffffff1661273261337a565b11151561274257600192506127f3565b600082600101541415156127625760016067805490500382600201819055505b61278660018360000160089054906101000a900467ffffffffffffffff1601613b81565b90508060000160089054906101000a900467ffffffffffffffff1667ffffffffffffffff166127b361337a565b11156127ee5760008414156127cb57600092506127f3565b6127e76127e2600186613ce790919063ffffffff16565b6126dc565b92506127f3565b600192505b5050919050565b6000606960000160009054906101000a900467ffffffffffffffff16905090565b606560009054906101000a900473ffffffffffffffffffffffffffffffffffffffff1681565b6000612857600a67ffffffffffffffff166126dc565b905080151561286557600080fd5b6128a385338686868080601f016020809104026020016040519081016040528093929190818152602001838380828437820191505050505050613cd1565b8473ffffffffffffffffffffffffffffffffffffffff166323b872dd33606460009054906101000a900473ffffffffffffffffffffffffffffffffffffffff16876000604051602001526040518463ffffffff167c0100000000000000000000000000000000000000000000000000000000028152600401808473ffffffffffffffffffffffffffffffffffffffff1673ffffffffffffffffffffffffffffffffffffffff1681526020018373ffffffffffffffffffffffffffffffffffffffff1673ffffffffffffffffffffffffffffffffffffffff1681526020018281526020019350505050602060405180830381600087803b15156129a457600080fd5b6102c65a03f115156129b557600080fd5b5050506040518051905015156129ca57600080fd5b5050505050565b60008060006129ea600a67ffffffffffffffff166126dc565b90508015156129f857600080fd5b339150612a3982888888888080601f016020809104026020016040519081016040528093929190818152602001838380828437820191505050505050613cd1565b8173ffffffffffffffffffffffffffffffffffffffff1663a9059cbb606460009054906101000a900473ffffffffffffffffffffffffffffffffffffffff16886000604051602001526040518363ffffffff167c0100000000000000000000000000000000000000000000000000000000028152600401808373ffffffffffffffffffffffffffffffffffffffff1673ffffffffffffffffffffffffffffffffffffffff16815260200182815260200192505050602060405180830381600087803b1515612b0657600080fd5b6102c65a03f11515612b1757600080fd5b505050604051805190501515612b2c57600080fd5b600192505050949350505050565b7fffffffffffffffffffffffffffffffffffffffffffffffffffffffffffffffff81565b6000612b686144af565b600080606685815481101515612b7a57fe5b906000526020600020906006020161014060405190810160405290816000820160009054906101000a900473ffffffffffffffffffffffffffffffffffffffff1673ffffffffffffffffffffffffffffffffffffffff1673ffffffffffffffffffffffffffffffffffffffff1681526020016001820160009054906101000a900473ffffffffffffffffffffffffffffffffffffffff1673ffffffffffffffffffffffffffffffffffffffff1673ffffffffffffffffffffffffffffffffffffffff1681526020016002820160009054906101000a900473ffffffffffffffffffffffffffffffffffffffff1673ffffffffffffffffffffffffffffffffffffffff1673ffffffffffffffffffffffffffffffffffffffff1681526020016002820160149054906101000a900460ff161515151581526020016002820160159054906101000a900467ffffffffffffffff1667ffffffffffffffff1667ffffffffffffffff1681526020016003820160009054906101000a900467ffffffffffffffff1667ffffffffffffffff1667ffffffffffffffff1681526020016003820160089054906101000a900467ffffffffffffffff1667ffffffffffffffff1667ffffffffffffffff1681526020016003820160109054906101000a900467ffffffffffffffff1667ffffffffffffffff1667ffffffffffffffff16815260200160048201548152602001600582018054600181600116156101000203166002900480601f016020809104026020016040519081016040528092919081815260200182805460018160011615610100020316600290048015612e1d5780601f10612df257610100808354040283529160200191612e1d565b820191906000526020600020905b815481529060010190602001808311612e0057829003601f168201915b50505050508152505092508260c0015167ffffffffffffffff168360e0015167ffffffffffffffff16101515612e75577fffffffffffffffffffffffffffffffffffffffffffffffffffffffffffffffff9350612ecd565b612ea48360a0015167ffffffffffffffff168460e0015167ffffffffffffffff16613d0390919063ffffffff16565b9150612ec782846080015167ffffffffffffffff16613d3990919063ffffffff16565b90508093505b505050919050565b60405180807f44495341424c455f5041594d454e54535f524f4c45000000000000000000000081525060150190506040518091039020612f148361332d565b612f1f3383836124dc565b1515612f2a57600080fd5b82606685815481101515612f3a57fe5b906000526020600020906006020160020160146101000a81548160ff021916908315150217905550837faca91836ee6e44bf1c422f7ee89afb243a4fb775d9fe87150ff5f8e566dc161284604051808215151515815260200191505060405180910390a250505050565b6000809054906101000a900473ffffffffffffffffffffffffffffffffffffffff1681565b7fffffffffffffffffffffffffffffffffffffffffffffffffffffffffffffffff81565b6000808291508173ffffffffffffffffffffffffffffffffffffffff166370a08231306000604051602001526040518263ffffffff167c0100000000000000000000000000000000000000000000000000000000028152600401808273ffffffffffffffffffffffffffffffffffffffff1673ffffffffffffffffffffffffffffffffffffffff168152602001915050602060405180830381600087803b151561309657600080fd5b6102c65a03f115156130a757600080fd5b5050506040518051905090506000811115156130c257600080fd5b6131038230836040805190810160405280601081526020017f4465706f73697420746f205661756c7400000000000000000000000000000000815250613cd1565b8173ffffffffffffffffffffffffffffffffffffffff1663a9059cbb606460009054906101000a900473ffffffffffffffffffffffffffffffffffffffff16836000604051602001526040518363ffffffff167c0100000000000000000000000000000000000000000000000000000000028152600401808373ffffffffffffffffffffffffffffffffffffffff1673ffffffffffffffffffffffffffffffffffffffff16815260200182815260200192505050602060405180830381600087803b15156131d057600080fd5b6102c65a03f115156131e157600080fd5b5050506040518051905015156131f657600080fd5b505050565b601481565b600061320a613d5a565b73ffffffffffffffffffffffffffffffffffffffff166304bf2a7f836000604051602001526040518263ffffffff167c01000000000000000000000000000000000000000000000000000000000281526004018080602001828103825283818151815260200191508051906020019080838360005b8381101561329a57808201518184015260208101905061327f565b50505050905090810190601f1680156132c75780820380516001836020036101000a031916815260200191505b5092505050602060405180830381600087803b15156132e557600080fd5b6102c65a03f115156132f657600080fd5b505050604051805190509050919050565b606460009054906101000a900473ffffffffffffffffffffffffffffffffffffffff1681565b613335614575565b60016040518059106133445750595b908082528060200260200182016040525090508181600081518110151561336757fe5b9060200190602002018181525050919050565b600042905090565b600080600061339b600a67ffffffffffffffff166126dc565b90508015156133a957600080fd5b6066848154811015156133b857fe5b906000526020600020906006020192508260020160149054906101000a900460ff161515156133e657600080fd5b600091505b6133f361337a565b6133fc85612b5e565b67ffffffffffffffff16111580156134285750601467ffffffffffffffff168267ffffffffffffffff16105b156135495761345f8360000160009054906101000a900473ffffffffffffffffffffffffffffffffffffffff168460040154613eb8565b15156134a1577f5f352e4123f4620cacbb8eb0dd683705aaa3e1f9384adbbd85b665b205097f51846040518082815260200191505060405180910390a161354a565b60018360030160108282829054906101000a900467ffffffffffffffff160192506101000a81548167ffffffffffffffff021916908367ffffffffffffffff1602179055506001820191506135448360000160009054906101000a900473ffffffffffffffffffffffffffffffffffffffff168460010160009054906101000a900473ffffffffffffffffffffffffffffffffffffffff168560040154876137d7565b6133eb565b5b50505050565b613558614575565b6135798473ffffffffffffffffffffffffffffffffffffffff168484613fb9565b90509392505050565b600080606960020160008473ffffffffffffffffffffffffffffffffffffffff1673ffffffffffffffffffffffffffffffffffffffff16815260200190815260200160002060009054906101000a900460ff161515613603577fffffffffffffffffffffffffffffffffffffffffffffffffffffffffffffffff9150613719565b606861360d612431565b81548110151561361957fe5b906000526020600020906004020160030160008473ffffffffffffffffffffffffffffffffffffffff1673ffffffffffffffffffffffffffffffffffffffff168152602001908152602001600020600001549050606960010160008473ffffffffffffffffffffffffffffffffffffffff1673ffffffffffffffffffffffffffffffffffffffff16815260200190815260200160002054811015156136c15760009150613719565b61371681606960010160008673ffffffffffffffffffffffffffffffffffffffff1673ffffffffffffffffffffffffffffffffffffffff16815260200190815260200160002054613ce790919063ffffffff16565b91505b50919050565b613727614575565b60026040518059106137365750595b908082528060200260200182016040525090508281600081518110151561375957fe5b90602001906020020181815250508181600181518110151561377757fe5b906020019060200201818152505092915050565b613793614575565b6137cc8673ffffffffffffffffffffffffffffffffffffffff168673ffffffffffffffffffffffffffffffffffffffff16868686614044565b905095945050505050565b816137e185613582565b101515156137ee57600080fd5b61380d600085858585602060405190810160405280600081525061410d565b606560009054906101000a900473ffffffffffffffffffffffffffffffffffffffff1673ffffffffffffffffffffffffffffffffffffffff168473ffffffffffffffffffffffffffffffffffffffff1614151561397557606460009054906101000a900473ffffffffffffffffffffffffffffffffffffffff1673ffffffffffffffffffffffffffffffffffffffff1663a64b6e5f8585856040518463ffffffff167c0100000000000000000000000000000000000000000000000000000000028152600401808473ffffffffffffffffffffffffffffffffffffffff1673ffffffffffffffffffffffffffffffffffffffff1681526020018373ffffffffffffffffffffffffffffffffffffffff1673ffffffffffffffffffffffffffffffffffffffff1681526020018281526020019350505050600060405180830381600087803b151561395c57600080fd5b6102c65a03f1151561396d57600080fd5b505050613b5a565b606460009054906101000a900473ffffffffffffffffffffffffffffffffffffffff1673ffffffffffffffffffffffffffffffffffffffff1663a64b6e5f8530856040518463ffffffff167c0100000000000000000000000000000000000000000000000000000000028152600401808473ffffffffffffffffffffffffffffffffffffffff1673ffffffffffffffffffffffffffffffffffffffff1681526020018373ffffffffffffffffffffffffffffffffffffffff1673ffffffffffffffffffffffffffffffffffffffff1681526020018281526020019350505050600060405180830381600087803b1515613a6d57600080fd5b6102c65a03f11515613a7e57600080fd5b505050606560009054906101000a900473ffffffffffffffffffffffffffffffffffffffff1673ffffffffffffffffffffffffffffffffffffffff1663f3fef3a384846040518363ffffffff167c0100000000000000000000000000000000000000000000000000000000028152600401808373ffffffffffffffffffffffffffffffffffffffff1673ffffffffffffffffffffffffffffffffffffffff16815260200182815260200192505050600060405180830381600087803b1515613b4557600080fd5b6102c65a03f11515613b5657600080fd5b5050505b50505050565b6000600354141515613b7157600080fd5b613b7961439b565b600381905550565b600080600060688054809190600101613b9a9190614589565b9150606882815481101515613bab57fe5b90600052602060002090600402019050838160000160006101000a81548167ffffffffffffffff021916908367ffffffffffffffff1602179055506001606960000160009054906101000a900467ffffffffffffffff168501038160000160086101000a81548167ffffffffffffffff021916908367ffffffffffffffff160217905550817f0e0ddff6b1aa31c43a5c0c94ac361b1d5d2a3c5c7ef5450a614d0362e47d7ef08260000160009054906101000a900467ffffffffffffffff168360000160089054906101000a900467ffffffffffffffff16604051808367ffffffffffffffff1667ffffffffffffffff1681526020018267ffffffffffffffff1667ffffffffffffffff1681526020019250505060405180910390a28092505050919050565b613ce1600185858560008661410d565b50505050565b6000828211151515613cf857600080fd5b818303905092915050565b60008082840290506000841480613d245750828482811515613d2157fe5b04145b1515613d2f57600080fd5b8091505092915050565b6000808284019050838110151515613d5057600080fd5b8091505092915050565b6000806000809054906101000a900473ffffffffffffffffffffffffffffffffffffffff1673ffffffffffffffffffffffffffffffffffffffff166342c71f1d60405180807f61707000000000000000000000000000000000000000000000000000000000008152506003019050604051809103902060405180807f65766d7265672e617261676f6e706d2e657468000000000000000000000000008152506013019050604051809103902060405180836000191660001916815260200182600019166000191681526020019250505060405180910390206000604051602001526040518263ffffffff167c0100000000000000000000000000000000000000000000000000000000028152600401808260001916600019168152602001915050602060405180830381600087803b1515613e9457600080fd5b6102c65a03f11515613ea557600080fd5b5050506040518051905090508091505090565b600081613ec484613582565b10158015613fb15750818373ffffffffffffffffffffffffffffffffffffffff166370a08231606460009054906101000a900473ffffffffffffffffffffffffffffffffffffffff166000604051602001526040518263ffffffff167c0100000000000000000000000000000000000000000000000000000000028152600401808273ffffffffffffffffffffffffffffffffffffffff1673ffffffffffffffffffffffffffffffffffffffff168152602001915050602060405180830381600087803b1515613f9357600080fd5b6102c65a03f11515613fa457600080fd5b5050506040518051905010155b905092915050565b613fc1614575565b6003604051805910613fd05750595b9080825280602002602001820160405250905083816000815181101515613ff357fe5b90602001906020020181815250508281600181518110151561401157fe5b90602001906020020181815250508181600281518110151561402f57fe5b90602001906020020181815250509392505050565b61404c614575565b600560405180591061405b5750595b908082528060200260200182016040525090508581600081518110151561407e57fe5b90602001906020020181815250508481600181518110151561409c57fe5b9060200190602002018181525050838160028151811015156140ba57fe5b9060200190602002018181525050828160038151811015156140d857fe5b9060200190602002018181525050818160048151811015156140f657fe5b906020019060200201818152505095945050505050565b600080600080600061411d612431565b945060688581548110151561412e57fe5b906000526020600020906004020160030160008b73ffffffffffffffffffffffffffffffffffffffff1673ffffffffffffffffffffffffffffffffffffffff16815260200190815260200160002093508a156141a85761419b888560010154613d3990919063ffffffff16565b84600101819055506141c8565b6141bf888560000154613d3990919063ffffffff16565b84600001819055505b606780548091906001016141dc9190614469565b92506067838154811015156141ed57fe5b906000526020600020906006020191508482600201819055508782600301819055508682600401819055508a8260010160146101000a81548160ff021916908315150217905550898260000160006101000a81548173ffffffffffffffffffffffffffffffffffffffff021916908373ffffffffffffffffffffffffffffffffffffffff160217905550888260010160006101000a81548173ffffffffffffffffffffffffffffffffffffffff021916908373ffffffffffffffffffffffffffffffffffffffff1602179055506142c261337a565b8260010160156101000a81548167ffffffffffffffff021916908367ffffffffffffffff160217905550858260050190805190602001906143049291906145bb565b5060688581548110151561431457fe5b9060005260206000209060040201905060008160010154141561433b578281600101819055505b8873ffffffffffffffffffffffffffffffffffffffff16837f8e926e9dfc571efd7e91569a402e58777f1a907d545346ea7406341b7b8ffe0d8d604051808215151515815260200191505060405180910390a35050505050505050505050565b600043905090565b602060405190810160405280600081525090565b8154818355818115116143e4576006028160060283600052602060002091820191016143e3919061463b565b5b505050565b828054600181600116156101000203166002900490600052602060002090601f016020900481019282601f1061442a57803560ff1916838001178555614458565b82800160010185558215614458579182015b8281111561445757823582559160200191906001019061443c565b5b5090506144659190614767565b5090565b81548183558181151161449657600602816006028360005260206000209182019101614495919061478c565b5b505050565b602060405190810160405280600081525090565b61014060405190810160405280600073ffffffffffffffffffffffffffffffffffffffff168152602001600073ffffffffffffffffffffffffffffffffffffffff168152602001600073ffffffffffffffffffffffffffffffffffffffff168152602001600015158152602001600067ffffffffffffffff168152602001600067ffffffffffffffff168152602001600067ffffffffffffffff168152602001600067ffffffffffffffff1681526020016000815260200161456f614850565b81525090565b602060405190810160405280600081525090565b8154818355818115116145b6576004028160040283600052602060002091820191016145b59190614864565b5b505050565b828054600181600116156101000203166002900490600052602060002090601f016020900481019282601f106145fc57805160ff191683800117855561462a565b8280016001018555821561462a579182015b8281111561462957825182559160200191906001019061460e565b5b5090506146379190614767565b5090565b61476491905b8082111561476057600080820160006101000a81549073ffffffffffffffffffffffffffffffffffffffff02191690556001820160006101000a81549073ffffffffffffffffffffffffffffffffffffffff02191690556002820160006101000a81549073ffffffffffffffffffffffffffffffffffffffff02191690556002820160146101000a81549060ff02191690556002820160156101000a81549067ffffffffffffffff02191690556003820160006101000a81549067ffffffffffffffff02191690556003820160086101000a81549067ffffffffffffffff02191690556003820160106101000a81549067ffffffffffffffff0219169055600482016000905560058201600061475791906148c9565b50600601614641565b5090565b90565b61478991905b8082111561478557600081600090555060010161476d565b5090565b90565b61484d91905b8082111561484957600080820160006101000a81549073ffffffffffffffffffffffffffffffffffffffff02191690556001820160006101000a81549073ffffffffffffffffffffffffffffffffffffffff02191690556001820160146101000a81549060ff02191690556001820160156101000a81549067ffffffffffffffff021916905560028201600090556003820160009055600482016000905560058201600061484091906148c9565b50600601614792565b5090565b90565b602060405190810160405280600081525090565b6148c691905b808211156148c257600080820160006101000a81549067ffffffffffffffff02191690556000820160086101000a81549067ffffffffffffffff0219169055600182016000905560028201600090555060040161486a565b5090565b90565b50805460018160011615610100020316600290046000825580601f106148ef575061490e565b601f01602090049060005260206000209081019061490d9190614767565b5b505600a165627a7a7230582057acd19c96a1aba89cc1f9581b5dc07b9cc20f41300a14d334f772940be4965a0029",
  "source": "pragma solidity 0.4.18;\n\nimport \"@aragon/os/contracts/apps/AragonApp.sol\";\nimport \"@aragon/os/contracts/common/EtherToken.sol\";\nimport \"@aragon/os/contracts/lib/erc677/ERC677Receiver.sol\";\n\nimport \"@aragon/os/contracts/lib/zeppelin/token/ERC20.sol\";\nimport \"@aragon/os/contracts/lib/zeppelin/math/SafeMath.sol\";\n\nimport \"@aragon/apps-vault/contracts/Vault.sol\";\n\nimport \"@aragon/os/contracts/lib/misc/Migrations.sol\";\n\n\ncontract Finance is AragonApp, ERC677Receiver {\n    using SafeMath for uint256;\n\n    uint64 constant public MAX_PAYMENTS_PER_TX = 20;\n    uint64 constant public MAX_PERIOD_TRANSITIONS_PER_TX = 10;\n    uint64 constant public MAX_UINT64 = uint64(-1);\n    uint256 constant public MAX_UINT = uint256(-1);\n\n    bytes32 constant public CREATE_PAYMENTS_ROLE = keccak256(\"CREATE_PAYMENTS_ROLE\");\n    bytes32 constant public CHANGE_PERIOD_ROLE = keccak256(\"CHANGE_PERIOD_ROLE\");\n    bytes32 constant public CHANGE_BUDGETS_ROLE = keccak256(\"CHANGE_BUDGETS_ROLE\");\n    bytes32 constant public EXECUTE_PAYMENTS_ROLE = keccak256(\"EXECUTE_PAYMENTS_ROLE\");\n    bytes32 constant public DISABLE_PAYMENTS_ROLE = keccak256(\"DISABLE_PAYMENTS_ROLE\");\n\n    // order optimized for storage\n    struct Payment {\n        ERC20 token;\n        address receiver;\n        address createdBy;\n        bool disabled;\n        uint64 initialPaymentTime;\n        uint64 interval;\n        uint64 maxRepeats;\n        uint64 repeats;\n        uint256 amount;\n        string reference;\n    }\n\n    // order optimized for storage\n    struct Transaction {\n        ERC20 token;\n        address entity;\n        bool isIncoming;\n        uint64 date;\n        uint256 periodId;\n        uint256 amount;\n        uint256 paymentId;\n        string reference;\n    }\n\n    struct TokenStatement {\n        uint256 expenses;\n        uint256 income;\n    }\n\n    struct Period {\n        uint64 startTime;\n        uint64 endTime;\n        uint256 firstTransactionId;\n        uint256 lastTransactionId;\n\n        mapping (address => TokenStatement) tokenStatement;\n    }\n\n    struct Settings {\n        uint64 periodDuration;\n        mapping (address => uint256) budgets;\n        mapping (address => bool) hasBudget;\n    }\n\n    Vault public vault;\n    EtherToken public etherToken;\n\n    Payment[] payments; // first index is 1\n    Transaction[] transactions; // first index is 1\n    Period[] periods; // first index is 0\n    Settings settings;\n\n    event NewPeriod(uint256 indexed periodId, uint64 periodStarts, uint64 periodEnds);\n    event SetBudget(address indexed token, uint256 amount, bool hasBudget);\n    event NewPayment(uint256 indexed paymentId, address indexed recipient, uint64 maxRepeats);\n    event NewTransaction(uint256 indexed transactionId, bool incoming, address indexed entity);\n    event ChangePaymentState(uint256 indexed paymentId, bool disabled);\n    event ChangePeriodDuration(uint64 newDuration);\n    event PaymentFailure(uint256 paymentId);\n\n    // Modifier used by all methods that impact accounting to make sure accounting period\n    // is changed before the operation if needed\n    modifier transitionsPeriod {\n        bool completeTransition = tryTransitionAccountingPeriod(MAX_PERIOD_TRANSITIONS_PER_TX);\n        require(completeTransition);\n        _;\n    }\n\n    /**\n     * @dev Sends ETH to Vault. This contract should never receive funds,\n     *      but in case it happens, this function recovers them sending them\n     *      to Vault.\n     * @notice Allows to send ETH from this contract to Vault, to avoid locking them in contract forever.\n     */\n    function escapeHatch() public payable {\n        // convert ETH to EtherToken\n        etherToken.wrapAndCall.value(this.balance)(address(this), \"Adding Funds\");\n    }\n\n    /**\n    * @notice Initialize Finance app for `_vault` with duration `_periodDuration`\n    * @param _vault Address of the vault Finance will rely on (non changeable)\n    * @param _etherToken Address of EtherToken for ether withdraws\n    * @param _periodDuration Duration in seconds of each period\n    */\n    function initialize(Vault _vault, EtherToken _etherToken, uint64 _periodDuration) external onlyInit {\n        initialized();\n\n        require(_periodDuration > 1);\n\n        vault = _vault;\n        etherToken = _etherToken;\n\n        payments.length += 1;\n        payments[0].disabled = true;\n\n        transactions.length += 1;\n\n        settings.periodDuration = _periodDuration;\n        _newPeriod(uint64(getTimestamp()));\n    }\n\n    /**\n    * @dev Deposit for ERC20 approved tokens\n    * @notice Send `_amount` `_token`\n    * @param _token Address of deposited token\n    * @param _amount Amount of tokens sent\n    * @param _reference Reason for payment\n    */\n    function deposit(ERC20 _token, uint256 _amount, string _reference) external transitionsPeriod {\n        _recordIncomingTransaction(\n            _token,\n            msg.sender,\n            _amount,\n            _reference\n        );\n        require(_token.transferFrom(msg.sender, address(vault), _amount));\n    }\n\n    /**\n     * @dev Deposit for ERC20 tokens using approveAndCall\n     * @param _from Address sending the tokens\n     * @param _amount Amount of tokens sent\n     * @param _token Token being deposited\n     * @param _data Data payload being executed (payment reference)\n     */\n    function receiveApproval(\n        address _from,\n        uint256 _amount,\n        address _token,\n        bytes _data\n    )\n        transitionsPeriod\n        external\n    {\n        require(msg.sender == _token);\n        ERC20 token = ERC20(msg.sender);\n        _recordIncomingTransaction(\n            token,\n            _from,\n            _amount,\n            string(_data)\n        );\n        require(token.transferFrom(_from, address(vault), _amount));\n    }\n\n    /**\n    * @dev Deposit for ERC677 tokens\n    * @param from Address sending the tokens\n    * @param amount Amount of tokens sent\n    * @param data Data payload being executed (payment reference)\n    */\n    function tokenFallback(address from, uint256 amount, bytes data) transitionsPeriod external returns (bool success) {\n        ERC20 token = ERC20(msg.sender);\n        _recordIncomingTransaction(\n            token,\n            from,\n            amount,\n            string(data)\n        );\n        require(token.transfer(address(vault), amount));\n        return true;\n    }\n\n    /**\n    * @notice New payment\n    * @param _token Address of token for payment\n    * @param _receiver Address that will receive payment.\n    * @param _amount units of token that are payed every time the payment is due.\n    * @param _initialPaymentTime timestamp for when the first payment is done.\n    * @param _interval number of seconds that need to pass between payment transactions.\n    * @param _maxRepeats maximum instances a payment can be executed.\n    * @param _reference string detailing payment reason\n    */\n    function newPayment(\n        ERC20 _token,\n        address _receiver,\n        uint256 _amount,\n        uint64 _initialPaymentTime,\n        uint64 _interval,\n        uint64 _maxRepeats,\n        string _reference\n    ) authP(CREATE_PAYMENTS_ROLE, arr(address(_token), _receiver, _amount, _interval, _maxRepeats)) transitionsPeriod external returns (uint256 paymentId)\n    {\n\n        require(settings.budgets[_token] > 0 || !settings.hasBudget[_token]); // Token must have been added to budget\n\n        // Avoid saving payment data for 1 time immediate payments\n        if (_initialPaymentTime <= getTimestamp() && _maxRepeats == 1) {\n            _makePaymentTransaction(\n                _token,\n                _receiver,\n                _amount,\n                0   // unrelated to any payment id, it isn't created\n            );\n            return;\n        }\n\n        paymentId = payments.length++;\n\n        Payment storage payment = payments[paymentId];\n        payment.token = _token;\n        payment.receiver = _receiver;\n        payment.amount = _amount;\n        payment.initialPaymentTime = _initialPaymentTime;\n        payment.interval = _interval;\n        payment.maxRepeats = _maxRepeats;\n        payment.reference = _reference;\n        payment.createdBy = msg.sender;\n\n        NewPayment(paymentId, _receiver, _maxRepeats);\n\n        if (nextPaymentTime(paymentId) <= getTimestamp())\n            _executePayment(paymentId);\n    }\n\n    /**\n    * @notice Change period duration to `_duration`. Will be effective for next accounting period.\n    * @param _periodDuration Duration in seconds for accounting periods\n    */\n    function setPeriodDuration(uint64 _periodDuration) authP(CHANGE_PERIOD_ROLE, arr(uint256(_periodDuration), uint256(settings.periodDuration))) transitionsPeriod external {\n        require(_periodDuration > 1);\n        settings.periodDuration = _periodDuration;\n        ChangePeriodDuration(_periodDuration);\n    }\n\n    /**\n    * @notice Set budget for `_token` to `_amount`. Effective to current accounting period.\n    * @param _token Address for token\n    * @param _amount New budget amount\n    */\n    function setBudget(ERC20 _token, uint256 _amount) authP(CHANGE_BUDGETS_ROLE, arr(address(_token), _amount, settings.budgets[_token])) transitionsPeriod external {\n        settings.budgets[_token] = _amount;\n        if (!settings.hasBudget[_token]) {\n            settings.hasBudget[_token] = true;\n        }\n        SetBudget(_token, _amount, true);\n    }\n\n    /**\n    * @notice Remove budget for `_token`. Will be able to spend entire balance.\n    * @param _token Address for token\n    */\n    function removeBudget(ERC20 _token) authP(CHANGE_BUDGETS_ROLE, arr(address(_token), uint256(0), settings.budgets[_token])) transitionsPeriod external {\n        settings.hasBudget[_token] = false;\n        SetBudget(_token, 0, false);\n    }\n\n    /**\n    * @dev Withdraws any payment (requires certain status)\n    * @notice Trigger pending withdraw for `_paymentId`\n    * @param _paymentId Identifier for payment\n    */\n    function executePayment(uint256 _paymentId) authP(EXECUTE_PAYMENTS_ROLE, arr(_paymentId)) external {\n        require(nextPaymentTime(_paymentId) <= getTimestamp());\n\n        _executePayment(_paymentId);\n    }\n\n    /**\n    * @dev Always allows receiver of a payment to trigger execution\n    * @notice Trigger pending withdraw for `_paymentId`\n    * @param _paymentId Identifier for payment\n    */\n    function receiverExecutePayment(uint256 _paymentId) external {\n        require(nextPaymentTime(_paymentId) <= getTimestamp());\n        require(payments[_paymentId].receiver == msg.sender);\n\n        _executePayment(_paymentId);\n    }\n\n    /**\n    * @notice Sets payment `_paymentId` as `_disabled ? 'disabled' : 'enabled'`\n    * @param _paymentId Identifier for payment\n    * @param _disabled Whether it will be disabled or enabled\n    */\n    function setPaymentDisabled(uint256 _paymentId, bool _disabled) authP(DISABLE_PAYMENTS_ROLE, arr(_paymentId)) external {\n        payments[_paymentId].disabled = _disabled;\n        ChangePaymentState(_paymentId, _disabled);\n    }\n\n    /**\n     * @dev Allows make a simple payment from this contract to Vault,\n            to avoid locked tokens in contract forever.\n            This contract should never receive tokens with a simple transfer call,\n            but in case it happens, this function allows to recover them.\n     * @notice Send tokens to Vault\n     * @param _token Token whose balance is going to be transferred.\n     */\n    function depositToVault(address _token) public {\n        ERC20 token = ERC20(_token);\n        uint256 value = token.balanceOf(this);\n        require(value > 0);\n\n        _recordIncomingTransaction(\n            token,\n            this,\n            value,\n            \"Deposit to Vault\"\n        );\n        require(token.transfer(address(vault), value));\n    }\n\n    /**\n    * @dev Transitions accounting periods if needed. For preventing OOG attacks,\n           a TTL param is provided. If more that TTL periods need to be transitioned,\n           it will return false.\n    * @notice Transition accounting period if needed\n    * @param _ttl Maximum periods that can be transitioned\n    * @return success boolean indicating whether the accounting period is the correct one (if false, TTL was surpased and another call is needed)\n    */\n    function tryTransitionAccountingPeriod(uint256 _ttl) public returns (bool success) {\n        Period storage currentPeriod = periods[currentPeriodId()];\n        if (getTimestamp() <= currentPeriod.endTime)\n            return true; // transition not needed yet\n\n        // Transitioning period\n\n        // If there were any transactions in period, record which was the last\n        // In case 0 transactions occured, first and last tx id will be 0\n        if (currentPeriod.firstTransactionId != 0)\n            currentPeriod.lastTransactionId = transactions.length - 1;\n\n        Period storage newPeriod = _newPeriod(currentPeriod.endTime + 1);\n\n        // In case multiple periods have to be transitioned at once\n        if (getTimestamp() > newPeriod.endTime) {\n            if (_ttl == 0)\n                return false; // if over TTL, return false indicating it didn't fully transition\n\n            return tryTransitionAccountingPeriod(_ttl.sub(1));\n        }\n\n        return true;\n    }\n\n    // consts\n\n    function getPayment(uint256 _paymentId) public view returns (ERC20 token, address receiver, uint256 amount, uint64 initialPaymentTime, uint64 interval, uint64 maxRepeats, string reference, bool disabled, uint256 repeats, address createdBy) {\n        Payment storage payment = payments[_paymentId];\n\n        token = payment.token;\n        receiver = payment.receiver;\n        amount = payment.amount;\n        initialPaymentTime = payment.initialPaymentTime;\n        interval = payment.interval;\n        maxRepeats = payment.maxRepeats;\n        repeats = payment.repeats;\n        disabled = payment.disabled;\n        reference = payment.reference;\n        createdBy = payment.createdBy;\n    }\n\n    function getTransaction(uint256 _transactionId) public view returns (uint256 periodId, uint256 amount, uint256 paymentId, ERC20 token, address entity, bool isIncoming, uint64 date, string reference) {\n        Transaction storage transaction = transactions[_transactionId];\n\n        token = transaction.token;\n        entity = transaction.entity;\n        isIncoming = transaction.isIncoming;\n        date = transaction.date;\n        periodId = transaction.periodId;\n        amount = transaction.amount;\n        paymentId = transaction.paymentId;\n        reference = transaction.reference;\n    }\n\n    function getPeriod(uint256 _periodId) public view returns (bool isCurrent, uint64 startTime, uint64 endTime, uint256 firstTransactionId, uint256 lastTransactionId) {\n        Period storage period = periods[_periodId];\n\n        isCurrent = currentPeriodId() == _periodId;\n\n        startTime = period.startTime;\n        endTime = period.endTime;\n        firstTransactionId = period.firstTransactionId;\n        lastTransactionId = period.lastTransactionId;\n    }\n\n    function getPeriodTokenStatement(uint256 _periodId, address _token) public view returns (uint256 expenses, uint256 income) {\n        TokenStatement storage tokenStatement = periods[_periodId].tokenStatement[_token];\n        return (tokenStatement.expenses, tokenStatement.income);\n    }\n\n    function nextPaymentTime(uint256 _paymentId) public view returns (uint64) {\n        Payment memory payment = payments[_paymentId];\n\n        if (payment.repeats >= payment.maxRepeats)\n            return MAX_UINT64; // re-executes in some billions of years time... should not need to worry\n\n        // split in multiple lines to circunvent linter warning\n        uint256 increase = uint256(payment.repeats).mul(uint256(payment.interval));\n        uint256 nextPayment = uint256(payment.initialPaymentTime).add(increase);\n        return uint64(nextPayment);\n    }\n\n    function getPeriodDuration() public view returns (uint64 periodDuration) {\n        return settings.periodDuration;\n    }\n\n    function getBudget(address _token) transitionsPeriod public view returns (uint256 budget, bool hasBudget, uint256 remainingBudget) {\n        budget = settings.budgets[_token];\n        hasBudget = settings.hasBudget[_token];\n        remainingBudget = _getRemainingBudget(_token);\n    }\n\n    function currentPeriodId() public view returns (uint256) {\n        return periods.length - 1;\n    }\n\n    // internal fns\n\n    function _newPeriod(uint64 _startTime) internal returns (Period storage) {\n        uint256 newPeriodId = periods.length++;\n\n        Period storage period = periods[newPeriodId];\n        period.startTime = _startTime;\n        period.endTime = _startTime + settings.periodDuration - 1;\n\n        NewPeriod(newPeriodId, period.startTime, period.endTime);\n\n        return period;\n    }\n\n    function _executePayment(uint256 _paymentId) transitionsPeriod internal {\n        Payment storage payment = payments[_paymentId];\n        require(!payment.disabled);\n\n        uint64 payed = 0;\n        while (nextPaymentTime(_paymentId) <= getTimestamp() && payed < MAX_PAYMENTS_PER_TX) {\n            if (!_canMakePayment(payment.token, payment.amount)) {\n                PaymentFailure(_paymentId);\n                return;\n            }\n\n            payment.repeats += 1;\n            payed += 1;\n\n            _makePaymentTransaction(\n                payment.token,\n                payment.receiver,\n                payment.amount,\n                _paymentId\n            );\n        }\n    }\n\n    function _makePaymentTransaction(\n        ERC20 _token,\n        address _receiver,\n        uint256 _amount,\n        uint256 _paymentId\n        ) internal\n    {\n        require(_getRemainingBudget(_token) >= _amount);\n        _recordTransaction(\n            false,\n            _token,\n            _receiver,\n            _amount,\n            _paymentId,\n            \"\"\n        );\n\n        if (address(_token) != address(etherToken)) {\n            vault.transferTokens(_token, _receiver, _amount);\n        } else {\n            vault.transferTokens(_token, address(this), _amount); // transfer to finance app\n            etherToken.withdraw(_receiver, _amount); // withdraw ether to receiver\n        }\n    }\n\n    function _recordIncomingTransaction(\n        address _token,\n        address _sender,\n        uint256 _amount,\n        string _reference\n        ) internal\n    {\n        _recordTransaction(\n            true, // incoming transaction\n            ERC20(_token),\n            _sender,\n            _amount,\n            0, // unrelated to any existing payment\n            _reference\n        );\n    }\n\n    function _recordTransaction(\n        bool _incoming,\n        ERC20 _token,\n        address _entity,\n        uint256 _amount,\n        uint256 _paymentId,\n        string _reference\n        ) internal\n    {\n        uint256 periodId = currentPeriodId();\n        TokenStatement storage tokenStatement = periods[periodId].tokenStatement[_token];\n        if (_incoming) {\n            tokenStatement.income = tokenStatement.income.add(_amount);\n        } else {\n            tokenStatement.expenses = tokenStatement.expenses.add(_amount);\n        }\n\n        uint256 transactionId = transactions.length++;\n        Transaction storage transaction = transactions[transactionId];\n        transaction.periodId = periodId;\n        transaction.amount = _amount;\n        transaction.paymentId = _paymentId;\n        transaction.isIncoming = _incoming;\n        transaction.token = _token;\n        transaction.entity = _entity;\n        transaction.date = uint64(getTimestamp());\n        transaction.reference = _reference;\n\n        Period storage period = periods[periodId];\n        if (period.firstTransactionId == 0)\n            period.firstTransactionId = transactionId;\n\n        NewTransaction(transactionId, _incoming, _entity);\n    }\n\n    function _canMakePayment(ERC20 _token, uint256 _amount) internal returns (bool) {\n        return _getRemainingBudget(_token) >= _amount && _token.balanceOf(address(vault)) >= _amount;\n    }\n\n    function _getRemainingBudget(address _token) internal view returns (uint256) {\n        if (!settings.hasBudget[_token])\n            return MAX_UINT;\n\n        uint256 spent = periods[currentPeriodId()].tokenStatement[_token].expenses;\n\n        // A budget decrease can cause the spent amount to be greater than period budget\n        // If so, return 0 to not allow more spending during period\n        if (spent >= settings.budgets[_token])\n            return 0;\n\n        return settings.budgets[_token].sub(spent);\n    }\n\n    function getTimestamp() internal view returns (uint256) { return now; }\n}\n",
  "sourcePath": "@aragon/apps-finance/contracts/Finance.sol",
  "compiler": {
    "name": "solc",
    "version": "0.4.18+commit.9cf6e910.Emscripten.clang"
  },
  "schemaVersion": "1.0.1",
  "updatedAt": "2018-02-26T13:03:38.124Z"
}