{
  "contractName": "Kernel",
  "abi": [
    {
      "constant": true,
      "inputs": [],
      "name": "KERNEL_APP_ID",
      "outputs": [
        {
          "name": "",
          "type": "bytes32"
        }
      ],
      "payable": false,
      "stateMutability": "view",
      "type": "function"
    },
    {
      "constant": true,
      "inputs": [],
      "name": "APP_ADDR_NAMESPACE",
      "outputs": [
        {
          "name": "",
          "type": "bytes32"
        }
      ],
      "payable": false,
      "stateMutability": "view",
      "type": "function"
    },
    {
      "constant": true,
      "inputs": [],
      "name": "KERNEL_APP",
      "outputs": [
        {
          "name": "",
          "type": "bytes32"
        }
      ],
      "payable": false,
      "stateMutability": "view",
      "type": "function"
    },
    {
      "constant": true,
      "inputs": [
        {
          "name": "",
          "type": "bytes32"
        }
      ],
      "name": "apps",
      "outputs": [
        {
          "name": "",
          "type": "address"
        }
      ],
      "payable": false,
      "stateMutability": "view",
      "type": "function"
    },
    {
      "constant": true,
      "inputs": [
        {
          "name": "_id",
          "type": "bytes32"
        }
      ],
      "name": "getApp",
      "outputs": [
        {
          "name": "",
          "type": "address"
        }
      ],
      "payable": false,
      "stateMutability": "view",
      "type": "function"
    },
    {
      "constant": false,
      "inputs": [
        {
          "name": "_baseAcl",
          "type": "address"
        },
        {
          "name": "_permissionsCreator",
          "type": "address"
        }
      ],
      "name": "initialize",
      "outputs": [],
      "payable": false,
      "stateMutability": "nonpayable",
      "type": "function"
    },
    {
      "constant": true,
      "inputs": [],
      "name": "CORE_NAMESPACE",
      "outputs": [
        {
          "name": "",
          "type": "bytes32"
        }
      ],
      "payable": false,
      "stateMutability": "view",
      "type": "function"
    },
    {
      "constant": true,
      "inputs": [],
      "name": "appId",
      "outputs": [
        {
          "name": "",
          "type": "bytes32"
        }
      ],
      "payable": false,
      "stateMutability": "view",
      "type": "function"
    },
    {
      "constant": false,
      "inputs": [
        {
          "name": "_name",
          "type": "bytes32"
        },
        {
          "name": "_appBase",
          "type": "address"
        }
      ],
      "name": "newAppInstance",
      "outputs": [
        {
          "name": "appProxy",
          "type": "address"
        }
      ],
      "payable": false,
      "stateMutability": "nonpayable",
      "type": "function"
    },
    {
      "constant": true,
      "inputs": [],
      "name": "getInitializationBlock",
      "outputs": [
        {
          "name": "",
          "type": "uint256"
        }
      ],
      "payable": false,
      "stateMutability": "view",
      "type": "function"
    },
    {
      "constant": true,
      "inputs": [],
      "name": "APP_MANAGER_ROLE",
      "outputs": [
        {
          "name": "",
          "type": "bytes32"
        }
      ],
      "payable": false,
      "stateMutability": "view",
      "type": "function"
    },
    {
      "constant": false,
      "inputs": [
        {
          "name": "_name",
          "type": "bytes32"
        },
        {
          "name": "_appBase",
          "type": "address"
        }
      ],
      "name": "newPinnedAppInstance",
      "outputs": [
        {
          "name": "appProxy",
          "type": "address"
        }
      ],
      "payable": false,
      "stateMutability": "nonpayable",
      "type": "function"
    },
    {
      "constant": true,
      "inputs": [],
      "name": "ACL_APP",
      "outputs": [
        {
          "name": "",
          "type": "bytes32"
        }
      ],
      "payable": false,
      "stateMutability": "view",
      "type": "function"
    },
    {
      "constant": false,
      "inputs": [
        {
          "name": "_namespace",
          "type": "bytes32"
        },
        {
          "name": "_name",
          "type": "bytes32"
        },
        {
          "name": "_app",
          "type": "address"
        }
      ],
      "name": "setApp",
      "outputs": [
        {
          "name": "id",
          "type": "bytes32"
        }
      ],
      "payable": false,
      "stateMutability": "nonpayable",
      "type": "function"
    },
    {
      "constant": true,
      "inputs": [],
      "name": "ACL_APP_ID",
      "outputs": [
        {
          "name": "",
          "type": "bytes32"
        }
      ],
      "payable": false,
      "stateMutability": "view",
      "type": "function"
    },
    {
      "constant": false,
      "inputs": [
        {
          "name": "_kernel",
          "type": "address"
        },
        {
          "name": "_appId",
          "type": "bytes32"
        },
        {
          "name": "_initializePayload",
          "type": "bytes"
        }
      ],
      "name": "newAppProxyPinned",
      "outputs": [
        {
          "name": "",
          "type": "address"
        }
      ],
      "payable": false,
      "stateMutability": "nonpayable",
      "type": "function"
    },
    {
      "constant": true,
      "inputs": [],
      "name": "kernel",
      "outputs": [
        {
          "name": "",
          "type": "address"
        }
      ],
      "payable": false,
      "stateMutability": "view",
      "type": "function"
    },
    {
      "constant": true,
      "inputs": [],
      "name": "APP_BASES_NAMESPACE",
      "outputs": [
        {
          "name": "",
          "type": "bytes32"
        }
      ],
      "payable": false,
      "stateMutability": "view",
      "type": "function"
    },
    {
      "constant": true,
      "inputs": [],
      "name": "acl",
      "outputs": [
        {
          "name": "",
          "type": "address"
        }
      ],
      "payable": false,
      "stateMutability": "view",
      "type": "function"
    },
    {
      "constant": false,
      "inputs": [
        {
          "name": "_kernel",
          "type": "address"
        },
        {
          "name": "_appId",
          "type": "bytes32"
        }
      ],
      "name": "newAppProxy",
      "outputs": [
        {
          "name": "",
          "type": "address"
        }
      ],
      "payable": false,
      "stateMutability": "nonpayable",
      "type": "function"
    },
    {
      "constant": false,
      "inputs": [
        {
          "name": "_kernel",
          "type": "address"
        },
        {
          "name": "_appId",
          "type": "bytes32"
        },
        {
          "name": "_initializePayload",
          "type": "bytes"
        }
      ],
      "name": "newAppProxy",
      "outputs": [
        {
          "name": "",
          "type": "address"
        }
      ],
      "payable": false,
      "stateMutability": "nonpayable",
      "type": "function"
    },
    {
      "constant": true,
      "inputs": [
        {
          "name": "_who",
          "type": "address"
        },
        {
          "name": "_where",
          "type": "address"
        },
        {
          "name": "_what",
          "type": "bytes32"
        },
        {
          "name": "_how",
          "type": "bytes"
        }
      ],
      "name": "hasPermission",
      "outputs": [
        {
          "name": "",
          "type": "bool"
        }
      ],
      "payable": false,
      "stateMutability": "view",
      "type": "function"
    },
    {
      "constant": false,
      "inputs": [
        {
          "name": "_kernel",
          "type": "address"
        },
        {
          "name": "_appId",
          "type": "bytes32"
        }
      ],
      "name": "newAppProxyPinned",
      "outputs": [
        {
          "name": "",
          "type": "address"
        }
      ],
      "payable": false,
      "stateMutability": "nonpayable",
      "type": "function"
    },
    {
      "anonymous": false,
      "inputs": [
        {
          "indexed": false,
          "name": "proxy",
          "type": "address"
        }
      ],
      "name": "NewAppProxy",
      "type": "event"
    },
    {
      "anonymous": false,
      "inputs": [
        {
          "indexed": true,
          "name": "namespace",
          "type": "bytes32"
        },
        {
          "indexed": true,
          "name": "name",
          "type": "bytes32"
        },
        {
          "indexed": true,
          "name": "id",
          "type": "bytes32"
        },
        {
          "indexed": false,
          "name": "app",
          "type": "address"
        }
      ],
      "name": "SetApp",
      "type": "event"
    }
  ],
  "bytecode": "0x6060604052341561000f57600080fd5b61322c8061001e6000396000f3006060604052600436106200014b576000357c0100000000000000000000000000000000000000000000000000000000900463ffffffff1680631113ed0d1462000150578063178e607914620001845780632501269914620001b857806338bb6def14620001ec57806342c71f1d1462000256578063485cc95514620002c0578063756f6049146200031b57806380afdea8146200034f57806380cd5ac314620003835780638b3dd749146200040c5780638ea8dc9d1462000438578063958fde82146200046c578063a3b4b07f14620004f5578063ae5b25401462000529578063cbcc65eb146200059b578063d162f8b014620005cf578063d4aae0c4146200069b578063db8a61d414620006f3578063de2873591462000727578063e156a8f3146200077f578063ede658b01462000808578063fdef910614620008d4578063ff289fc51462000997575b600080fd5b34156200015c57600080fd5b6200016662000a20565b60405180826000191660001916815260200191505060405180910390f35b34156200019057600080fd5b6200019a62000a59565b60405180826000191660001916815260200191505060405180910390f35b3415620001c457600080fd5b620001ce62000a92565b60405180826000191660001916815260200191505060405180910390f35b3415620001f857600080fd5b6200021460048080356000191690602001909190505062000b2d565b604051808273ffffffffffffffffffffffffffffffffffffffff1673ffffffffffffffffffffffffffffffffffffffff16815260200191505060405180910390f35b34156200026257600080fd5b6200027e60048080356000191690602001909190505062000b60565b604051808273ffffffffffffffffffffffffffffffffffffffff1673ffffffffffffffffffffffffffffffffffffffff16815260200191505060405180910390f35b3415620002cc57600080fd5b62000319600480803573ffffffffffffffffffffffffffffffffffffffff1690602001909190803573ffffffffffffffffffffffffffffffffffffffff1690602001909190505062000ba4565b005b34156200032757600080fd5b6200033162000da9565b60405180826000191660001916815260200191505060405180910390f35b34156200035b57600080fd5b6200036562000de2565b60405180826000191660001916815260200191505060405180910390f35b34156200038f57600080fd5b620003ca60048080356000191690602001909190803573ffffffffffffffffffffffffffffffffffffffff1690602001909190505062000de8565b604051808273ffffffffffffffffffffffffffffffffffffffff1673ffffffffffffffffffffffffffffffffffffffff16815260200191505060405180910390f35b34156200041857600080fd5b6200042262000eef565b6040518082815260200191505060405180910390f35b34156200044457600080fd5b6200044e62000ef9565b60405180826000191660001916815260200191505060405180910390f35b34156200047857600080fd5b620004b360048080356000191690602001909190803573ffffffffffffffffffffffffffffffffffffffff1690602001909190505062000f32565b604051808273ffffffffffffffffffffffffffffffffffffffff1673ffffffffffffffffffffffffffffffffffffffff16815260200191505060405180910390f35b34156200050157600080fd5b6200050b62001039565b60405180826000191660001916815260200191505060405180910390f35b34156200053557600080fd5b6200057d6004808035600019169060200190919080356000191690602001909190803573ffffffffffffffffffffffffffffffffffffffff16906020019091905050620010d4565b60405180826000191660001916815260200191505060405180910390f35b3415620005a757600080fd5b620005b162001222565b60405180826000191660001916815260200191505060405180910390f35b3415620005db57600080fd5b62000659600480803573ffffffffffffffffffffffffffffffffffffffff169060200190919080356000191690602001909190803590602001908201803590602001908080601f016020809104026020016040519081016040528093929190818152602001838380828437820191505050505050919050506200125b565b604051808273ffffffffffffffffffffffffffffffffffffffff1673ffffffffffffffffffffffffffffffffffffffff16815260200191505060405180910390f35b3415620006a757600080fd5b620006b1620013a6565b604051808273ffffffffffffffffffffffffffffffffffffffff1673ffffffffffffffffffffffffffffffffffffffff16815260200191505060405180910390f35b3415620006ff57600080fd5b62000709620013cc565b60405180826000191660001916815260200191505060405180910390f35b34156200073357600080fd5b6200073d62001405565b604051808273ffffffffffffffffffffffffffffffffffffffff1673ffffffffffffffffffffffffffffffffffffffff16815260200191505060405180910390f35b34156200078b57600080fd5b620007c6600480803573ffffffffffffffffffffffffffffffffffffffff1690602001909190803560001916906020019091905050620014ae565b604051808273ffffffffffffffffffffffffffffffffffffffff1673ffffffffffffffffffffffffffffffffffffffff16815260200191505060405180910390f35b34156200081457600080fd5b62000892600480803573ffffffffffffffffffffffffffffffffffffffff169060200190919080356000191690602001909190803590602001908201803590602001908080601f01602080910402602001604051908101604052809392919081815260200183838082843782019150505050505091905050620014e9565b604051808273ffffffffffffffffffffffffffffffffffffffff1673ffffffffffffffffffffffffffffffffffffffff16815260200191505060405180910390f35b3415620008e057600080fd5b6200097d600480803573ffffffffffffffffffffffffffffffffffffffff1690602001909190803573ffffffffffffffffffffffffffffffffffffffff169060200190919080356000191690602001909190803590602001908201803590602001908080601f0160208091040260200160405190810160405280939291908181526020018383808284378201915050505050509190505062001634565b604051808215151515815260200191505060405180910390f35b3415620009a357600080fd5b620009de600480803573ffffffffffffffffffffffffffffffffffffffff1690602001909190803560001916906020019091905050620017bd565b604051808273ffffffffffffffffffffffffffffffffffffffff1673ffffffffffffffffffffffffffffffffffffffff16815260200191505060405180910390f35b60405180807f6b65726e656c2e617261676f6e706d2e657468000000000000000000000000008152506013019050604051809103902081565b60405180807f61707000000000000000000000000000000000000000000000000000000000008152506003019050604051809103902081565b60405180807f636f7265000000000000000000000000000000000000000000000000000000008152506004019050604051809103902060405180807f6b65726e656c2e617261676f6e706d2e6574680000000000000000000000000081525060130190506040518091039020604051808360001916600019168152602001826000191660001916815260200192505050604051809103902081565b60006020528060005260406000206000915054906101000a900473ffffffffffffffffffffffffffffffffffffffff1681565b6000806000836000191660001916815260200190815260200160002060009054906101000a900473ffffffffffffffffffffffffffffffffffffffff169050919050565b60008060045414151562000bb757600080fd5b62000bc1620017f8565b62000c023060405180807f61636c2e617261676f6e706d2e6574680000000000000000000000000000000081525060100190506040518091039020620014ae565b905062000c7b60405180807f62617365000000000000000000000000000000000000000000000000000000008152506004019050604051809103902060405180807f61636c2e617261676f6e706d2e6574680000000000000000000000000000000081525060100190506040518091039020856200181c565b5062000cf360405180807f61707000000000000000000000000000000000000000000000000000000000008152506003019050604051809103902060405180807f61636c2e617261676f6e706d2e6574680000000000000000000000000000000081525060100190506040518091039020836200181c565b508073ffffffffffffffffffffffffffffffffffffffff1663c4d66de8836040518263ffffffff167c0100000000000000000000000000000000000000000000000000000000028152600401808273ffffffffffffffffffffffffffffffffffffffff1673ffffffffffffffffffffffffffffffffffffffff168152602001915050600060405180830381600087803b151562000d8f57600080fd5b6102c65a03f1151562000da157600080fd5b505050505050565b60405180807f636f7265000000000000000000000000000000000000000000000000000000008152506004019050604051809103902081565b60025481565b600060405180807f4150505f4d414e414745525f524f4c45000000000000000000000000000000008152506010019050604051809103902062000e6160405180807f6261736500000000000000000000000000000000000000000000000000000000815250600401905060405180910390208562001920565b62000e6b62001b83565b60006020835102905082915080825262000e883330868562001634565b151562000e9457600080fd5b62000ed660405180807f626173650000000000000000000000000000000000000000000000000000000081525060040190506040518091039020888862001946565b5062000ee33088620014ae565b94505050505092915050565b6000600454905090565b60405180807f4150505f4d414e414745525f524f4c45000000000000000000000000000000008152506010019050604051809103902081565b600060405180807f4150505f4d414e414745525f524f4c45000000000000000000000000000000008152506010019050604051809103902062000fab60405180807f6261736500000000000000000000000000000000000000000000000000000000815250600401905060405180910390208562001920565b62000fb562001b83565b60006020835102905082915080825262000fd23330868562001634565b151562000fde57600080fd5b6200102060405180807f626173650000000000000000000000000000000000000000000000000000000081525060040190506040518091039020888862001946565b506200102d3088620017bd565b94505050505092915050565b60405180807f61707000000000000000000000000000000000000000000000000000000000008152506003019050604051809103902060405180807f61636c2e617261676f6e706d2e6574680000000000000000000000000000000081525060100190506040518091039020604051808360001916600019168152602001826000191660001916815260200192505050604051809103902081565b600060405180807f4150505f4d414e414745525f524f4c45000000000000000000000000000000008152506010019050604051809103902062001118858562001920565b6200112262001b83565b6000602083510290508291508082526200113f3330868562001634565b15156200114b57600080fd5b6000806200115b8a8a8a6200181c565b9650620011ff60405180807f636f7265000000000000000000000000000000000000000000000000000000008152506004019050604051809103902060405180807f6b65726e656c2e617261676f6e706d2e6574680000000000000000000000000081525060130190506040518091039020604051808360001916600019168152602001826000191660001916815260200192505050604051809103902062000b60565b9150813b90506000811115156200121557600080fd5b5050505050509392505050565b60405180807f61636c2e617261676f6e706d2e657468000000000000000000000000000000008152506010019050604051809103902081565b6000808484846200126b62001b97565b808473ffffffffffffffffffffffffffffffffffffffff1673ffffffffffffffffffffffffffffffffffffffff168152602001836000191660001916815260200180602001828103825283818151815260200191508051906020019080838360005b83811015620012ea578082015181840152602081019050620012cd565b50505050905090810190601f168015620013185780820380516001836020036101000a031916815260200191505b50945050505050604051809103906000f08015156200133657600080fd5b90507fe28f1412cafe58e22073759128eddcccfd9c1e3326665df874bdaf26077231a981604051808273ffffffffffffffffffffffffffffffffffffffff1673ffffffffffffffffffffffffffffffffffffffff16815260200191505060405180910390a1809150509392505050565b600160009054906101000a900473ffffffffffffffffffffffffffffffffffffffff1681565b60405180807f62617365000000000000000000000000000000000000000000000000000000008152506004019050604051809103902081565b6000620014a960405180807f61707000000000000000000000000000000000000000000000000000000000008152506003019050604051809103902060405180807f61636c2e617261676f6e706d2e6574680000000000000000000000000000000081525060100190506040518091039020604051808360001916600019168152602001826000191660001916815260200192505050604051809103902062000b60565b905090565b6000620014e183836000604051805910620014c65750595b9080825280601f01601f1916602001820160405250620014e9565b905092915050565b600080848484620014f962001ba8565b808473ffffffffffffffffffffffffffffffffffffffff1673ffffffffffffffffffffffffffffffffffffffff168152602001836000191660001916815260200180602001828103825283818151815260200191508051906020019080838360005b83811015620015785780820151818401526020810190506200155b565b50505050905090810190601f168015620015a65780820380516001836020036101000a031916815260200191505b50945050505050604051809103906000f0801515620015c457600080fd5b90507fe28f1412cafe58e22073759128eddcccfd9c1e3326665df874bdaf26077231a981604051808273ffffffffffffffffffffffffffffffffffffffff1673ffffffffffffffffffffffffffffffffffffffff16815260200191505060405180910390a1809150509392505050565b60006200164062001405565b73ffffffffffffffffffffffffffffffffffffffff1663fdef9106868686866000604051602001526040518563ffffffff167c0100000000000000000000000000000000000000000000000000000000028152600401808573ffffffffffffffffffffffffffffffffffffffff1673ffffffffffffffffffffffffffffffffffffffff1681526020018473ffffffffffffffffffffffffffffffffffffffff1673ffffffffffffffffffffffffffffffffffffffff168152602001836000191660001916815260200180602001828103825283818151815260200191508051906020019080838360005b83811015620017475780820151818401526020810190506200172a565b50505050905090810190601f168015620017755780820380516001836020036101000a031916815260200191505b5095505050505050602060405180830381600087803b15156200179757600080fd5b6102c65a03f11515620017a957600080fd5b505050604051805190509050949350505050565b6000620017f083836000604051805910620017d55750595b9080825280601f01601f19166020018201604052506200125b565b905092915050565b60006004541415156200180a57600080fd5b6200181462001b0a565b600481905550565b600083836040518083600019166000191681526020018260001916600019168152602001925050506040518091039020905081600080836000191660001916815260200190815260200160002060006101000a81548173ffffffffffffffffffffffffffffffffffffffff021916908373ffffffffffffffffffffffffffffffffffffffff1602179055508060001916836000191685600019167fe944a7cdbc6cbd4bfe4713501567365bd379a9df5fd376422712b066d6e6b52285604051808273ffffffffffffffffffffffffffffffffffffffff1673ffffffffffffffffffffffffffffffffffffffff16815260200191505060405180910390a49392505050565b6200192a62001bb9565b6200193e8360019004836001900462001b12565b905092915050565b600080848460405180836000191660001916815260200182600019166000191681526020019250505060405180910390209150600073ffffffffffffffffffffffffffffffffffffffff168373ffffffffffffffffffffffffffffffffffffffff1614151562001b0257620019bb8262000b60565b9050600073ffffffffffffffffffffffffffffffffffffffff168173ffffffffffffffffffffffffffffffffffffffff1614151562001a35578273ffffffffffffffffffffffffffffffffffffffff168173ffffffffffffffffffffffffffffffffffffffff1614151562001a2f57600080fd5b62001b01565b82600080846000191660001916815260200190815260200160002060006101000a81548173ffffffffffffffffffffffffffffffffffffffff021916908373ffffffffffffffffffffffffffffffffffffffff1602179055508160001916846000191686600019167fe944a7cdbc6cbd4bfe4713501567365bd379a9df5fd376422712b066d6e6b52286604051808273ffffffffffffffffffffffffffffffffffffffff1673ffffffffffffffffffffffffffffffffffffffff16815260200191505060405180910390a45b5b509392505050565b600043905090565b62001b1c62001bb9565b600260405180591062001b2c5750595b908082528060200260200182016040525090508281600081518110151562001b5057fe5b90602001906020020181815250508181600181518110151562001b6f57fe5b906020019060200201818152505092915050565b602060405190810160405280600081525090565b604051610b2a8062001bce83390190565b604051610b0980620026f883390190565b60206040519081016040528060008152509056006060604052341561000f57600080fd5b604051610b2a380380610b2a833981016040528080519060200190919080519060200190919080518201919050508282826000836000806101000a81548173ffffffffffffffffffffffffffffffffffffffff021916908373ffffffffffffffffffffffffffffffffffffffff16021790555082600181600019169055506100ab60015461023b64010000000002610655176401000000009004565b9050600082511115610173576100d38161036164010000000002610642176401000000009004565b15156100de57600080fd5b8073ffffffffffffffffffffffffffffffffffffffff168260405180828051906020019080838360005b83811015610123578082015181840152602081019050610108565b50505050905090810190601f1680156101505780820380516001836020036101000a031916815260200191505b509150506000604051808303818561646e5a03f4915050151561017257600080fd5b5b5050505061019560015461023b64010000000002610655176401000000009004565b600260006101000a81548173ffffffffffffffffffffffffffffffffffffffff021916908373ffffffffffffffffffffffffffffffffffffffff160217905550600073ffffffffffffffffffffffffffffffffffffffff16600260009054906101000a900473ffffffffffffffffffffffffffffffffffffffff1673ffffffffffffffffffffffffffffffffffffffff161415151561023357600080fd5b505050610374565b60008060009054906101000a900473ffffffffffffffffffffffffffffffffffffffff1673ffffffffffffffffffffffffffffffffffffffff166342c71f1d60405180807f6261736500000000000000000000000000000000000000000000000000000000815250600401905060405180910390208460405180836000191660001916815260200182600019166000191681526020019250505060405180910390206000604051602001526040518263ffffffff167c0100000000000000000000000000000000000000000000000000000000028152600401808260001916600019168152602001915050602060405180830381600087803b151561033f57600080fd5b6102c65a03f1151561035057600080fd5b505050604051805190509050919050565b600080823b905060008111915050919050565b6107a7806103836000396000f3006060604052600436106100af576000357c0100000000000000000000000000000000000000000000000000000000900463ffffffff1680631113ed0d146100f5578063178e6079146101265780632501269914610157578063756f60491461018857806380afdea8146101b9578063a3b4b07f146101ea578063cbcc65eb1461021b578063d4aae0c41461024c578063daa3a163146102a1578063db8a61d4146102ce578063ea879634146102ff575b6100f36100ba610354565b6000368080601f01602080910402602001604051908101604052809392919081815260200183838082843782019150505050505061037e565b005b341561010057600080fd5b6101086103bc565b60405180826000191660001916815260200191505060405180910390f35b341561013157600080fd5b6101396103f5565b60405180826000191660001916815260200191505060405180910390f35b341561016257600080fd5b61016a61042e565b60405180826000191660001916815260200191505060405180910390f35b341561019357600080fd5b61019b6104c9565b60405180826000191660001916815260200191505060405180910390f35b34156101c457600080fd5b6101cc610502565b60405180826000191660001916815260200191505060405180910390f35b34156101f557600080fd5b6101fd610508565b60405180826000191660001916815260200191505060405180910390f35b341561022657600080fd5b61022e6105a3565b60405180826000191660001916815260200191505060405180910390f35b341561025757600080fd5b61025f6105dc565b604051808273ffffffffffffffffffffffffffffffffffffffff1673ffffffffffffffffffffffffffffffffffffffff16815260200191505060405180910390f35b34156102ac57600080fd5b6102b4610601565b604051808215151515815260200191505060405180910390f35b34156102d957600080fd5b6102e1610609565b60405180826000191660001916815260200191505060405180910390f35b341561030a57600080fd5b610312610354565b604051808273ffffffffffffffffffffffffffffffffffffffff1673ffffffffffffffffffffffffffffffffffffffff16815260200191505060405180910390f35b6000600260009054906101000a900473ffffffffffffffffffffffffffffffffffffffff16905090565b61038782610642565b151561039257600080fd5b600080825160208401856127105a03f43d604051816000823e82600081146103b8578282f35b8282fd5b60405180807f6b65726e656c2e617261676f6e706d2e657468000000000000000000000000008152506013019050604051809103902081565b60405180807f61707000000000000000000000000000000000000000000000000000000000008152506003019050604051809103902081565b60405180807f636f7265000000000000000000000000000000000000000000000000000000008152506004019050604051809103902060405180807f6b65726e656c2e617261676f6e706d2e6574680000000000000000000000000081525060130190506040518091039020604051808360001916600019168152602001826000191660001916815260200192505050604051809103902081565b60405180807f636f7265000000000000000000000000000000000000000000000000000000008152506004019050604051809103902081565b60015481565b60405180807f61707000000000000000000000000000000000000000000000000000000000008152506003019050604051809103902060405180807f61636c2e617261676f6e706d2e6574680000000000000000000000000000000081525060100190506040518091039020604051808360001916600019168152602001826000191660001916815260200192505050604051809103902081565b60405180807f61636c2e617261676f6e706d2e657468000000000000000000000000000000008152506010019050604051809103902081565b6000809054906101000a900473ffffffffffffffffffffffffffffffffffffffff1681565b600080905090565b60405180807f62617365000000000000000000000000000000000000000000000000000000008152506004019050604051809103902081565b600080823b905060008111915050919050565b60008060009054906101000a900473ffffffffffffffffffffffffffffffffffffffff1673ffffffffffffffffffffffffffffffffffffffff166342c71f1d60405180807f6261736500000000000000000000000000000000000000000000000000000000815250600401905060405180910390208460405180836000191660001916815260200182600019166000191681526020019250505060405180910390206000604051602001526040518263ffffffff167c0100000000000000000000000000000000000000000000000000000000028152600401808260001916600019168152602001915050602060405180830381600087803b151561075957600080fd5b6102c65a03f1151561076a57600080fd5b5050506040518051905090509190505600a165627a7a72305820b5d81f69b6750f0b2f8ca76fd9719ae3361420197c677ba94a2d64728dc49c4100296060604052341561000f57600080fd5b604051610b09380380610b09833981016040528080519060200190919080519060200190919080518201919050508282826000836000806101000a81548173ffffffffffffffffffffffffffffffffffffffff021916908373ffffffffffffffffffffffffffffffffffffffff16021790555082600181600019169055506100ab60015461017f640100000000026106dd176401000000009004565b9050600082511115610173576100d3816102a564010000000002610803176401000000009004565b15156100de57600080fd5b8073ffffffffffffffffffffffffffffffffffffffff168260405180828051906020019080838360005b83811015610123578082015181840152602081019050610108565b50505050905090810190601f1680156101505780820380516001836020036101000a031916815260200191505b509150506000604051808303818561646e5a03f4915050151561017257600080fd5b5b505050505050506102b8565b60008060009054906101000a900473ffffffffffffffffffffffffffffffffffffffff1673ffffffffffffffffffffffffffffffffffffffff166342c71f1d60405180807f6261736500000000000000000000000000000000000000000000000000000000815250600401905060405180910390208460405180836000191660001916815260200182600019166000191681526020019250505060405180910390206000604051602001526040518263ffffffff167c0100000000000000000000000000000000000000000000000000000000028152600401808260001916600019168152602001915050602060405180830381600087803b151561028357600080fd5b6102c65a03f1151561029457600080fd5b505050604051805190509050919050565b600080823b905060008111915050919050565b610842806102c76000396000f3006060604052600436106100ba576000357c0100000000000000000000000000000000000000000000000000000000900463ffffffff1680631113ed0d1461012c578063178e60791461015d578063250126991461018e5780633bc7ebac146101bf578063756f60491461021457806380afdea814610245578063a3b4b07f14610276578063cbcc65eb146102a7578063d4aae0c4146102d8578063daa3a1631461032d578063db8a61d41461035a578063ea8796341461038b575b60006100c46103e0565b905060008173ffffffffffffffffffffffffffffffffffffffff16141515156100ec57600080fd5b610129816000368080601f0160208091040260200160405190810160405280939291908181526020018383808284378201915050505050506103f2565b50005b341561013757600080fd5b61013f610430565b60405180826000191660001916815260200191505060405180910390f35b341561016857600080fd5b610170610469565b60405180826000191660001916815260200191505060405180910390f35b341561019957600080fd5b6101a16104a2565b60405180826000191660001916815260200191505060405180910390f35b34156101ca57600080fd5b6101d261053d565b604051808273ffffffffffffffffffffffffffffffffffffffff1673ffffffffffffffffffffffffffffffffffffffff16815260200191505060405180910390f35b341561021f57600080fd5b610227610563565b60405180826000191660001916815260200191505060405180910390f35b341561025057600080fd5b61025861059c565b60405180826000191660001916815260200191505060405180910390f35b341561028157600080fd5b6102896105a2565b60405180826000191660001916815260200191505060405180910390f35b34156102b257600080fd5b6102ba61063d565b60405180826000191660001916815260200191505060405180910390f35b34156102e357600080fd5b6102eb610676565b604051808273ffffffffffffffffffffffffffffffffffffffff1673ffffffffffffffffffffffffffffffffffffffff16815260200191505060405180910390f35b341561033857600080fd5b61034061069b565b604051808215151515815260200191505060405180910390f35b341561036557600080fd5b61036d6106a4565b60405180826000191660001916815260200191505060405180910390f35b341561039657600080fd5b61039e6103e0565b604051808273ffffffffffffffffffffffffffffffffffffffff1673ffffffffffffffffffffffffffffffffffffffff16815260200191505060405180910390f35b60006103ed6001546106dd565b905090565b6103fb82610803565b151561040657600080fd5b600080825160208401856127105a03f43d604051816000823e826000811461042c578282f35b8282fd5b60405180807f6b65726e656c2e617261676f6e706d2e657468000000000000000000000000008152506013019050604051809103902081565b60405180807f61707000000000000000000000000000000000000000000000000000000000008152506003019050604051809103902081565b60405180807f636f7265000000000000000000000000000000000000000000000000000000008152506004019050604051809103902060405180807f6b65726e656c2e617261676f6e706d2e6574680000000000000000000000000081525060130190506040518091039020604051808360001916600019168152602001826000191660001916815260200192505050604051809103902081565b606460009054906101000a900473ffffffffffffffffffffffffffffffffffffffff1681565b60405180807f636f7265000000000000000000000000000000000000000000000000000000008152506004019050604051809103902081565b60015481565b60405180807f61707000000000000000000000000000000000000000000000000000000000008152506003019050604051809103902060405180807f61636c2e617261676f6e706d2e6574680000000000000000000000000000000081525060100190506040518091039020604051808360001916600019168152602001826000191660001916815260200192505050604051809103902081565b60405180807f61636c2e617261676f6e706d2e657468000000000000000000000000000000008152506010019050604051809103902081565b6000809054906101000a900473ffffffffffffffffffffffffffffffffffffffff1681565b60006001905090565b60405180807f62617365000000000000000000000000000000000000000000000000000000008152506004019050604051809103902081565b60008060009054906101000a900473ffffffffffffffffffffffffffffffffffffffff1673ffffffffffffffffffffffffffffffffffffffff166342c71f1d60405180807f6261736500000000000000000000000000000000000000000000000000000000815250600401905060405180910390208460405180836000191660001916815260200182600019166000191681526020019250505060405180910390206000604051602001526040518263ffffffff167c0100000000000000000000000000000000000000000000000000000000028152600401808260001916600019168152602001915050602060405180830381600087803b15156107e157600080fd5b6102c65a03f115156107f257600080fd5b505050604051805190509050919050565b600080823b9050600081119150509190505600a165627a7a72305820ef3c6c95f97152c15964434ad01baaa1da415b559a1268635b7357c955f04b680029a165627a7a72305820a139fa44a7791764f380c7e8d36b9e16429a5c23aad0aa0254289e02d449ef470029",
  "source": "pragma solidity 0.4.18;\n\nimport \"./IKernel.sol\";\nimport \"./KernelStorage.sol\";\nimport \"../acl/ACLSyntaxSugar.sol\";\nimport \"../apps/IAppProxy.sol\";\nimport \"../common/Initializable.sol\";\nimport \"../factory/AppProxyFactory.sol\";\n\n\ncontract Kernel is IKernel, KernelStorage, Initializable, AppProxyFactory, ACLSyntaxSugar {\n    bytes32 constant public APP_MANAGER_ROLE = keccak256(\"APP_MANAGER_ROLE\");\n\n    /**\n    * @dev Initialize can only be called once. It saves the block number in which it was initialized.\n    * @notice Initializes a kernel instance along with its ACL and sets `_permissionsCreator` as the entity that can create other permissions\n    * @param _baseAcl Address of base ACL app\n    * @param _permissionsCreator Entity that will be given permission over createPermission\n    */\n    function initialize(address _baseAcl, address _permissionsCreator) onlyInit public {\n        initialized();\n\n        IACL acl = IACL(newAppProxy(this, ACL_APP_ID));\n\n        _setApp(APP_BASES_NAMESPACE, ACL_APP_ID, _baseAcl);\n        _setApp(APP_ADDR_NAMESPACE, ACL_APP_ID, acl);\n\n        acl.initialize(_permissionsCreator);\n    }\n\n    /**\n    * @dev Create a new instance of an app linked to this kernel and set its base\n    *      implementation if it was not already set\n    * @param _name Name of the app\n    * @param _appBase Address of the app's base implementation\n    * @return AppProxy instance\n    */\n    function newAppInstance(bytes32 _name, address _appBase) auth(APP_MANAGER_ROLE, arr(APP_BASES_NAMESPACE, _name)) public returns (IAppProxy appProxy) {\n        _setAppIfNew(APP_BASES_NAMESPACE, _name, _appBase);\n        appProxy = newAppProxy(this, _name);\n    }\n\n    /**\n    * @dev Create a new pinned instance of an app linked to this kernel and set\n    *      its base implementation if it was not already set\n    * @param _name Name of the app\n    * @param _appBase Address of the app's base implementation\n    * @return AppProxy instance\n    */\n    function newPinnedAppInstance(bytes32 _name, address _appBase) auth(APP_MANAGER_ROLE, arr(APP_BASES_NAMESPACE, _name)) public returns (IAppProxy appProxy) {\n        _setAppIfNew(APP_BASES_NAMESPACE, _name, _appBase);\n        appProxy = newAppProxyPinned(this, _name);\n    }\n\n    /**\n    * @dev Set the resolving address of an app instance or base implementation\n    * @param _namespace App namespace to use\n    * @param _name Name of the app\n    * @param _app Address of the app\n    * @return ID of app\n    */\n    function setApp(bytes32 _namespace, bytes32 _name, address _app) auth(APP_MANAGER_ROLE, arr(_namespace, _name)) kernelIntegrity public returns (bytes32 id) {\n        return _setApp(_namespace, _name, _app);\n    }\n\n    /**\n    * @dev Get the address of an app instance or base implementation\n    * @param _id App identifier\n    * @return Address of the app\n    */\n    function getApp(bytes32 _id) public view returns (address) {\n        return apps[_id];\n    }\n\n    /**\n    * @dev Get the installed ACL app\n    * @return ACL app\n    */\n    function acl() public view returns (IACL) {\n        return IACL(getApp(ACL_APP));\n    }\n\n    /**\n    * @dev Function called by apps to check ACL on kernel or to check permission status\n    * @param _who Sender of the original call\n    * @param _where Address of the app\n    * @param _what Identifier for a group of actions in app\n    * @param _how Extra data for ACL auth\n    * @return boolean indicating whether the ACL allows the role or not\n    */\n    function hasPermission(address _who, address _where, bytes32 _what, bytes _how) public view returns (bool) {\n        return acl().hasPermission(_who, _where, _what, _how);\n    }\n\n    function _setApp(bytes32 _namespace, bytes32 _name, address _app) internal returns (bytes32 id) {\n        id = keccak256(_namespace, _name);\n        apps[id] = _app;\n        SetApp(_namespace, _name, id, _app);\n    }\n\n    function _setAppIfNew(bytes32 _namespace, bytes32 _name, address _app) internal returns (bytes32 id) {\n        id = keccak256(_namespace, _name);\n\n        if (_app != address(0)) {\n            address app = getApp(id);\n            if (app != address(0)) {\n                require(app == _app);\n            } else {\n                apps[id] = _app;\n                SetApp(_namespace, _name, id, _app);\n            }\n        }\n    }\n\n    modifier auth(bytes32 _role, uint256[] memory params) {\n        bytes memory how;\n        uint256 byteLength = params.length * 32;\n        assembly {\n            how := params // forced casting\n            mstore(how, byteLength)\n        }\n        // Params is invalid from this point fwd\n        require(hasPermission(msg.sender, address(this), _role, how));\n        _;\n    }\n\n    modifier kernelIntegrity {\n        _; // After execution check integrity\n        address kernel = getApp(KERNEL_APP);\n        uint256 size;\n        assembly { size := extcodesize(kernel) }\n        require(size > 0);\n    }\n}\n",
  "sourcePath": "@aragon/os/contracts/kernel/Kernel.sol",
  "compiler": {
    "name": "solc",
    "version": "0.4.18+commit.9cf6e910.Emscripten.clang"
  },
  "schemaVersion": "1.0.1",
  "updatedAt": "2018-02-26T13:03:38.153Z"
}