{
  "contractName": "KernelStorage",
  "abi": [
    {
      "constant": true,
      "inputs": [],
      "name": "KERNEL_APP_ID",
      "outputs": [
        {
          "name": "",
          "type": "bytes32"
        }
      ],
      "payable": false,
      "stateMutability": "view",
      "type": "function"
    },
    {
      "constant": true,
      "inputs": [],
      "name": "APP_ADDR_NAMESPACE",
      "outputs": [
        {
          "name": "",
          "type": "bytes32"
        }
      ],
      "payable": false,
      "stateMutability": "view",
      "type": "function"
    },
    {
      "constant": true,
      "inputs": [],
      "name": "KERNEL_APP",
      "outputs": [
        {
          "name": "",
          "type": "bytes32"
        }
      ],
      "payable": false,
      "stateMutability": "view",
      "type": "function"
    },
    {
      "constant": true,
      "inputs": [
        {
          "name": "",
          "type": "bytes32"
        }
      ],
      "name": "apps",
      "outputs": [
        {
          "name": "",
          "type": "address"
        }
      ],
      "payable": false,
      "stateMutability": "view",
      "type": "function"
    },
    {
      "constant": true,
      "inputs": [],
      "name": "CORE_NAMESPACE",
      "outputs": [
        {
          "name": "",
          "type": "bytes32"
        }
      ],
      "payable": false,
      "stateMutability": "view",
      "type": "function"
    },
    {
      "constant": true,
      "inputs": [],
      "name": "ACL_APP",
      "outputs": [
        {
          "name": "",
          "type": "bytes32"
        }
      ],
      "payable": false,
      "stateMutability": "view",
      "type": "function"
    },
    {
      "constant": true,
      "inputs": [],
      "name": "ACL_APP_ID",
      "outputs": [
        {
          "name": "",
          "type": "bytes32"
        }
      ],
      "payable": false,
      "stateMutability": "view",
      "type": "function"
    },
    {
      "constant": true,
      "inputs": [],
      "name": "APP_BASES_NAMESPACE",
      "outputs": [
        {
          "name": "",
          "type": "bytes32"
        }
      ],
      "payable": false,
      "stateMutability": "view",
      "type": "function"
    }
  ],
  "bytecode": "0x6060604052341561000f57600080fd5b6105038061001e6000396000f30060606040526004361061008e576000357c0100000000000000000000000000000000000000000000000000000000900463ffffffff1680631113ed0d14610093578063178e6079146100c457806325012699146100f557806338bb6def14610126578063756f60491461018d578063a3b4b07f146101be578063cbcc65eb146101ef578063db8a61d414610220575b600080fd5b341561009e57600080fd5b6100a6610251565b60405180826000191660001916815260200191505060405180910390f35b34156100cf57600080fd5b6100d761028a565b60405180826000191660001916815260200191505060405180910390f35b341561010057600080fd5b6101086102c3565b60405180826000191660001916815260200191505060405180910390f35b341561013157600080fd5b61014b60048080356000191690602001909190505061035e565b604051808273ffffffffffffffffffffffffffffffffffffffff1673ffffffffffffffffffffffffffffffffffffffff16815260200191505060405180910390f35b341561019857600080fd5b6101a0610391565b60405180826000191660001916815260200191505060405180910390f35b34156101c957600080fd5b6101d16103ca565b60405180826000191660001916815260200191505060405180910390f35b34156101fa57600080fd5b610202610465565b60405180826000191660001916815260200191505060405180910390f35b341561022b57600080fd5b61023361049e565b60405180826000191660001916815260200191505060405180910390f35b60405180807f6b65726e656c2e617261676f6e706d2e657468000000000000000000000000008152506013019050604051809103902081565b60405180807f61707000000000000000000000000000000000000000000000000000000000008152506003019050604051809103902081565b60405180807f636f7265000000000000000000000000000000000000000000000000000000008152506004019050604051809103902060405180807f6b65726e656c2e617261676f6e706d2e6574680000000000000000000000000081525060130190506040518091039020604051808360001916600019168152602001826000191660001916815260200192505050604051809103902081565b60006020528060005260406000206000915054906101000a900473ffffffffffffffffffffffffffffffffffffffff1681565b60405180807f636f7265000000000000000000000000000000000000000000000000000000008152506004019050604051809103902081565b60405180807f61707000000000000000000000000000000000000000000000000000000000008152506003019050604051809103902060405180807f61636c2e617261676f6e706d2e6574680000000000000000000000000000000081525060100190506040518091039020604051808360001916600019168152602001826000191660001916815260200192505050604051809103902081565b60405180807f61636c2e617261676f6e706d2e657468000000000000000000000000000000008152506010019050604051809103902081565b60405180807f626173650000000000000000000000000000000000000000000000000000000081525060040190506040518091039020815600a165627a7a7230582055838e62cca51ab5f11b8c56408c14c5c953a65ade79f9ba92660e373d8f352d0029",
  "source": "pragma solidity 0.4.18;\n\n\ncontract KernelConstants {\n    bytes32 constant public CORE_NAMESPACE = keccak256(\"core\");\n    bytes32 constant public APP_BASES_NAMESPACE = keccak256(\"base\");\n    bytes32 constant public APP_ADDR_NAMESPACE = keccak256(\"app\");\n\n    bytes32 constant public KERNEL_APP_ID = keccak256(\"kernel.aragonpm.eth\");\n    bytes32 constant public KERNEL_APP = keccak256(CORE_NAMESPACE, KERNEL_APP_ID);\n\n    bytes32 constant public ACL_APP_ID = keccak256(\"acl.aragonpm.eth\");\n    bytes32 constant public ACL_APP = keccak256(APP_ADDR_NAMESPACE, ACL_APP_ID);\n}\n\n\ncontract KernelStorage is KernelConstants {\n    mapping (bytes32 => address) public apps;\n}\n",
  "sourcePath": "@aragon/os/contracts/kernel/KernelStorage.sol",
  "compiler": {
    "name": "solc",
    "version": "0.4.18+commit.9cf6e910.Emscripten.clang"
  },
  "schemaVersion": "1.0.1",
  "updatedAt": "2018-02-26T13:03:38.154Z"
}