{
  "contractName": "MultisigTemplate",
  "abi": [
    {
      "constant": true,
      "inputs": [],
      "name": "minimeFac",
      "outputs": [
        {
          "name": "",
          "type": "address"
        }
      ],
      "payable": false,
      "stateMutability": "view",
      "type": "function"
    },
    {
      "constant": false,
      "inputs": [
        {
          "name": "name",
          "type": "string"
        }
      ],
      "name": "newToken",
      "outputs": [
        {
          "name": "token",
          "type": "address"
        }
      ],
      "payable": false,
      "stateMutability": "nonpayable",
      "type": "function"
    },
    {
      "constant": false,
      "inputs": [
        {
          "name": "name",
          "type": "string"
        },
        {
          "name": "signers",
          "type": "address[]"
        },
        {
          "name": "neededSignatures",
          "type": "uint256"
        }
      ],
      "name": "newInstance",
      "outputs": [],
      "payable": false,
      "stateMutability": "nonpayable",
      "type": "function"
    },
    {
      "constant": true,
      "inputs": [],
      "name": "etherToken",
      "outputs": [
        {
          "name": "",
          "type": "address"
        }
      ],
      "payable": false,
      "stateMutability": "view",
      "type": "function"
    },
    {
      "constant": true,
      "inputs": [],
      "name": "apm",
      "outputs": [
        {
          "name": "",
          "type": "address"
        }
      ],
      "payable": false,
      "stateMutability": "view",
      "type": "function"
    },
    {
      "constant": true,
      "inputs": [],
      "name": "fac",
      "outputs": [
        {
          "name": "",
          "type": "address"
        }
      ],
      "payable": false,
      "stateMutability": "view",
      "type": "function"
    },
    {
      "constant": true,
      "inputs": [
        {
          "name": "appId",
          "type": "bytes32"
        }
      ],
      "name": "latestVersionAppBase",
      "outputs": [
        {
          "name": "base",
          "type": "address"
        }
      ],
      "payable": false,
      "stateMutability": "view",
      "type": "function"
    },
    {
      "constant": true,
      "inputs": [],
      "name": "aragonID",
      "outputs": [
        {
          "name": "",
          "type": "address"
        }
      ],
      "payable": false,
      "stateMutability": "view",
      "type": "function"
    },
    {
      "constant": true,
      "inputs": [
        {
          "name": "",
          "type": "uint256"
        }
      ],
      "name": "appIds",
      "outputs": [
        {
          "name": "",
          "type": "bytes32"
        }
      ],
      "payable": false,
      "stateMutability": "view",
      "type": "function"
    },
    {
      "inputs": [
        {
          "name": "_fac",
          "type": "address"
        },
        {
          "name": "_minimeFac",
          "type": "address"
        },
        {
          "name": "_apm",
          "type": "address"
        },
        {
          "name": "_etherToken",
          "type": "address"
        },
        {
          "name": "_aragonID",
          "type": "address"
        },
        {
          "name": "_appIds",
          "type": "bytes32[4]"
        }
      ],
      "payable": false,
      "stateMutability": "nonpayable",
      "type": "constructor"
    },
    {
      "anonymous": false,
      "inputs": [
        {
          "indexed": false,
          "name": "token",
          "type": "address"
        },
        {
          "indexed": true,
          "name": "cacheOwner",
          "type": "address"
        }
      ],
      "name": "DeployToken",
      "type": "event"
    },
    {
      "anonymous": false,
      "inputs": [
        {
          "indexed": false,
          "name": "dao",
          "type": "address"
        },
        {
          "indexed": true,
          "name": "token",
          "type": "address"
        }
      ],
      "name": "DeployInstance",
      "type": "event"
    }
  ],
  "bytecode": "0x606060405234156200001057600080fd5b604051610120806200351e8339810160405280805190602001909190805190602001909190805190602001909190805190602001909190805190602001909150858585858585836000806101000a81548173ffffffffffffffffffffffffffffffffffffffff021916908373ffffffffffffffffffffffffffffffffffffffff16021790555085600160006101000a81548173ffffffffffffffffffffffffffffffffffffffff021916908373ffffffffffffffffffffffffffffffffffffffff16021790555084600260006101000a81548173ffffffffffffffffffffffffffffffffffffffff021916908373ffffffffffffffffffffffffffffffffffffffff16021790555082600360006101000a81548173ffffffffffffffffffffffffffffffffffffffff021916908373ffffffffffffffffffffffffffffffffffffffff16021790555081600460006101000a81548173ffffffffffffffffffffffffffffffffffffffff021916908373ffffffffffffffffffffffffffffffffffffffff160217905550806005906004620001ad929190620001c0565b5050505050505050505050505062000233565b8260048101928215620001f8579160200282015b82811115620001f7578251829060001916905591602001919060010190620001d4565b5b5090506200020791906200020b565b5090565b6200023091905b808211156200022c57600081600090555060010162000212565b5090565b90565b6132db80620002436000396000f300606060405260043610610099576000357c0100000000000000000000000000000000000000000000000000000000900463ffffffff168063039fa7601461009e578063444bd6fd146100f3578063a0fd20de14610161578063b8066bcb146101ac578063bc8c35f214610201578063c3b3147214610256578063c6d2c717146102ab578063d165603f14610312578063ef41afcd14610367575b600080fd5b34156100a957600080fd5b6100b16103a6565b604051808273ffffffffffffffffffffffffffffffffffffffff1673ffffffffffffffffffffffffffffffffffffffff16815260200191505060405180910390f35b34156100fe57600080fd5b61011f600480803590602001908201803590602001919091929050506103cc565b604051808273ffffffffffffffffffffffffffffffffffffffff1673ffffffffffffffffffffffffffffffffffffffff16815260200191505060405180910390f35b341561016c57600080fd5b6101aa60048080359060200190820180359060200191909192908035906020019082018035906020019190919290803590602001909190505061053d565b005b34156101b757600080fd5b6101bf610747565b604051808273ffffffffffffffffffffffffffffffffffffffff1673ffffffffffffffffffffffffffffffffffffffff16815260200191505060405180910390f35b341561020c57600080fd5b61021461076d565b604051808273ffffffffffffffffffffffffffffffffffffffff1673ffffffffffffffffffffffffffffffffffffffff16815260200191505060405180910390f35b341561026157600080fd5b610269610792565b604051808273ffffffffffffffffffffffffffffffffffffffff1673ffffffffffffffffffffffffffffffffffffffff16815260200191505060405180910390f35b34156102b657600080fd5b6102d06004808035600019169060200190919050506107b8565b604051808273ffffffffffffffffffffffffffffffffffffffff1673ffffffffffffffffffffffffffffffffffffffff16815260200191505060405180910390f35b341561031d57600080fd5b61032561099e565b604051808273ffffffffffffffffffffffffffffffffffffffff1673ffffffffffffffffffffffffffffffffffffffff16815260200191505060405180910390f35b341561037257600080fd5b61038860048080359060200190919050506109c4565b60405180826000191660001916815260200191505060405180910390f35b600260009054906101000a900473ffffffffffffffffffffffffffffffffffffffff1681565b6000600260009054906101000a900473ffffffffffffffffffffffffffffffffffffffff1673ffffffffffffffffffffffffffffffffffffffff16635b7b72c16000808686600060016000604051602001526040518763ffffffff167c0100000000000000000000000000000000000000000000000000000000028152600401808773ffffffffffffffffffffffffffffffffffffffff1673ffffffffffffffffffffffffffffffffffffffff168152602001868152602001806020018460ff168152602001806020018415151515815260200183810383528787828181526020019250808284378201915050838103825260088152602001807f4d756c746973696700000000000000000000000000000000000000000000000081525060200198505050505050505050602060405180830381600087803b151561051057600080fd5b6102c65a03f1151561052157600080fd5b50505060405180519050905061053781336109de565b92915050565b61054561329b565b6000806000808787905060405180591061055c5750595b90808252806020026020018201604052509450600093505b878790508410156105aa576001858581518110151561058f57fe5b90602001906020020181815250508380600101945050610574565b6105b333610ada565b92506106248a8a8080601f016020809104026020016040519081016040528093929190818152602001838380828437820191505050505050848a8a80806020026020016040519081016040528093929190818152602001838360200280828437820191505050505050886001610c45565b915087879050670de0b6b3a7640000870281151561063e57fe5b0490508173ffffffffffffffffffffffffffffffffffffffff16633ee31e708483847fffffffffffffffffffffffffffffffffffffffffffffffffffffffffffffffff6040518563ffffffff167c0100000000000000000000000000000000000000000000000000000000028152600401808573ffffffffffffffffffffffffffffffffffffffff1673ffffffffffffffffffffffffffffffffffffffff1681526020018481526020018381526020018267ffffffffffffffff1667ffffffffffffffff168152602001945050505050600060405180830381600087803b151561072757600080fd5b6102c65a03f1151561073857600080fd5b50505050505050505050505050565b600360009054906101000a900473ffffffffffffffffffffffffffffffffffffffff1681565b6000809054906101000a900473ffffffffffffffffffffffffffffffffffffffff1681565b600160009054906101000a900473ffffffffffffffffffffffffffffffffffffffff1681565b6000806107c3613020565b73ffffffffffffffffffffffffffffffffffffffff16630178b8bf846000604051602001526040518263ffffffff167c0100000000000000000000000000000000000000000000000000000000028152600401808260001916600019168152602001915050602060405180830381600087803b151561084157600080fd5b6102c65a03f1151561085257600080fd5b5050506040518051905073ffffffffffffffffffffffffffffffffffffffff16633b3b57de846000604051602001526040518263ffffffff167c0100000000000000000000000000000000000000000000000000000000028152600401808260001916600019168152602001915050602060405180830381600087803b15156108da57600080fd5b6102c65a03f115156108eb57600080fd5b5050506040518051905090508073ffffffffffffffffffffffffffffffffffffffff1663c36af460600060405160a001526040518163ffffffff167c010000000000000000000000000000000000000000000000000000000002815260040160a060405180830381600087803b151561096357600080fd5b6102c65a03f1151561097457600080fd5b50505060405180606001805190602001805190602001604052909150508092505081915050919050565b600460009054906101000a900473ffffffffffffffffffffffffffffffffffffffff1681565b6005816004811015156109d357fe5b016000915090505481565b81600960008373ffffffffffffffffffffffffffffffffffffffff1673ffffffffffffffffffffffffffffffffffffffff16815260200190815260200160002060006101000a81548173ffffffffffffffffffffffffffffffffffffffff021916908373ffffffffffffffffffffffffffffffffffffffff1602179055508073ffffffffffffffffffffffffffffffffffffffff167f07ab516ad4f19b4465f15fa7c2dbc064f18e734a0846d6e0932da244aa3d8a7183604051808273ffffffffffffffffffffffffffffffffffffffff1673ffffffffffffffffffffffffffffffffffffffff16815260200191505060405180910390a25050565b600080600073ffffffffffffffffffffffffffffffffffffffff16600960008573ffffffffffffffffffffffffffffffffffffffff1673ffffffffffffffffffffffffffffffffffffffff16815260200190815260200160002060009054906101000a900473ffffffffffffffffffffffffffffffffffffffff1673ffffffffffffffffffffffffffffffffffffffff1614151515610b7857600080fd5b600960008473ffffffffffffffffffffffffffffffffffffffff1673ffffffffffffffffffffffffffffffffffffffff16815260200190815260200160002060009054906101000a900473ffffffffffffffffffffffffffffffffffffffff169050600960008473ffffffffffffffffffffffffffffffffffffffff1673ffffffffffffffffffffffffffffffffffffffff16815260200190815260200160002060006101000a81549073ffffffffffffffffffffffffffffffffffffffff021916905580915050919050565b600080600080600080600080600160009054906101000a900473ffffffffffffffffffffffffffffffffffffffff1673ffffffffffffffffffffffffffffffffffffffff166321687444306000604051602001526040518263ffffffff167c0100000000000000000000000000000000000000000000000000000000028152600401808273ffffffffffffffffffffffffffffffffffffffff1673ffffffffffffffffffffffffffffffffffffffff168152602001915050602060405180830381600087803b1515610d1657600080fd5b6102c65a03f11515610d2757600080fd5b5050506040518051905096508673ffffffffffffffffffffffffffffffffffffffff1663de2873596000604051602001526040518163ffffffff167c0100000000000000000000000000000000000000000000000000000000028152600401602060405180830381600087803b1515610d9f57600080fd5b6102c65a03f11515610db057600080fd5b5050506040518051905095508573ffffffffffffffffffffffffffffffffffffffff1663be03847830898a73ffffffffffffffffffffffffffffffffffffffff16638ea8dc9d6000604051602001526040518163ffffffff167c0100000000000000000000000000000000000000000000000000000000028152600401602060405180830381600087803b1515610e4657600080fd5b6102c65a03f11515610e5757600080fd5b50505060405180519050306040518563ffffffff167c0100000000000000000000000000000000000000000000000000000000028152600401808573ffffffffffffffffffffffffffffffffffffffff1673ffffffffffffffffffffffffffffffffffffffff1681526020018473ffffffffffffffffffffffffffffffffffffffff1673ffffffffffffffffffffffffffffffffffffffff16815260200183600019166000191681526020018273ffffffffffffffffffffffffffffffffffffffff1673ffffffffffffffffffffffffffffffffffffffff168152602001945050505050600060405180830381600087803b1515610f5457600080fd5b6102c65a03f11515610f6557600080fd5b5050508673ffffffffffffffffffffffffffffffffffffffff166380cd5ac36005600380811115610f9257fe5b60ff16600481101515610fa157fe5b0154610fca6005600380811115610fb457fe5b60ff16600481101515610fc357fe5b01546107b8565b6000604051602001526040518363ffffffff167c01000000000000000000000000000000000000000000000000000000000281526004018083600019166000191681526020018273ffffffffffffffffffffffffffffffffffffffff1673ffffffffffffffffffffffffffffffffffffffff16815260200192505050602060405180830381600087803b151561105f57600080fd5b6102c65a03f1151561107057600080fd5b5050506040518051905094508673ffffffffffffffffffffffffffffffffffffffff166380cd5ac36005600260038111156110a757fe5b60ff166004811015156110b657fe5b01546110e06005600260038111156110ca57fe5b60ff166004811015156110d957fe5b01546107b8565b6000604051602001526040518363ffffffff167c01000000000000000000000000000000000000000000000000000000000281526004018083600019166000191681526020018273ffffffffffffffffffffffffffffffffffffffff1673ffffffffffffffffffffffffffffffffffffffff16815260200192505050602060405180830381600087803b151561117557600080fd5b6102c65a03f1151561118657600080fd5b5050506040518051905093508673ffffffffffffffffffffffffffffffffffffffff166380cd5ac36005600060038111156111bd57fe5b60ff166004811015156111cc57fe5b01546111f66005600060038111156111e057fe5b60ff166004811015156111ef57fe5b01546107b8565b6000604051602001526040518363ffffffff167c01000000000000000000000000000000000000000000000000000000000281526004018083600019166000191681526020018273ffffffffffffffffffffffffffffffffffffffff1673ffffffffffffffffffffffffffffffffffffffff16815260200192505050602060405180830381600087803b151561128b57600080fd5b6102c65a03f1151561129c57600080fd5b5050506040518051905092508673ffffffffffffffffffffffffffffffffffffffff166380cd5ac36005600160038111156112d357fe5b60ff166004811015156112e257fe5b015461130c6005600160038111156112f657fe5b60ff1660048110151561130557fe5b01546107b8565b6000604051602001526040518363ffffffff167c01000000000000000000000000000000000000000000000000000000000281526004018083600019166000191681526020018273ffffffffffffffffffffffffffffffffffffffff1673ffffffffffffffffffffffffffffffffffffffff16815260200192505050602060405180830381600087803b15156113a157600080fd5b6102c65a03f115156113b257600080fd5b5050506040518051905091508b73ffffffffffffffffffffffffffffffffffffffff16633cebb823836040518263ffffffff167c0100000000000000000000000000000000000000000000000000000000028152600401808273ffffffffffffffffffffffffffffffffffffffff1673ffffffffffffffffffffffffffffffffffffffff168152602001915050600060405180830381600087803b151561145857600080fd5b6102c65a03f1151561146957600080fd5b5050508573ffffffffffffffffffffffffffffffffffffffff1663be0384787fffffffffffffffffffffffffffffffffffffffffffffffffffffffffffffffff878873ffffffffffffffffffffffffffffffffffffffff1663be2c64d46000604051602001526040518163ffffffff167c0100000000000000000000000000000000000000000000000000000000028152600401602060405180830381600087803b151561151657600080fd5b6102c65a03f1151561152757600080fd5b50505060405180519050896040518563ffffffff167c0100000000000000000000000000000000000000000000000000000000028152600401808573ffffffffffffffffffffffffffffffffffffffff1673ffffffffffffffffffffffffffffffffffffffff1681526020018473ffffffffffffffffffffffffffffffffffffffff1673ffffffffffffffffffffffffffffffffffffffff16815260200183600019166000191681526020018273ffffffffffffffffffffffffffffffffffffffff1673ffffffffffffffffffffffffffffffffffffffff168152602001945050505050600060405180830381600087803b151561162457600080fd5b6102c65a03f1151561163557600080fd5b5050508573ffffffffffffffffffffffffffffffffffffffff1663be03847886878873ffffffffffffffffffffffffffffffffffffffff16633c624c756000604051602001526040518163ffffffff167c0100000000000000000000000000000000000000000000000000000000028152600401602060405180830381600087803b15156116c257600080fd5b6102c65a03f115156116d357600080fd5b50505060405180519050896040518563ffffffff167c0100000000000000000000000000000000000000000000000000000000028152600401808573ffffffffffffffffffffffffffffffffffffffff1673ffffffffffffffffffffffffffffffffffffffff1681526020018473ffffffffffffffffffffffffffffffffffffffff1673ffffffffffffffffffffffffffffffffffffffff16815260200183600019166000191681526020018273ffffffffffffffffffffffffffffffffffffffff1673ffffffffffffffffffffffffffffffffffffffff168152602001945050505050600060405180830381600087803b15156117d057600080fd5b6102c65a03f115156117e157600080fd5b5050508573ffffffffffffffffffffffffffffffffffffffff1663be03847884868773ffffffffffffffffffffffffffffffffffffffff1663206b60f96000604051602001526040518163ffffffff167c0100000000000000000000000000000000000000000000000000000000028152600401602060405180830381600087803b151561186e57600080fd5b6102c65a03f1151561187f57600080fd5b50505060405180519050896040518563ffffffff167c0100000000000000000000000000000000000000000000000000000000028152600401808573ffffffffffffffffffffffffffffffffffffffff1673ffffffffffffffffffffffffffffffffffffffff1681526020018473ffffffffffffffffffffffffffffffffffffffff1673ffffffffffffffffffffffffffffffffffffffff16815260200183600019166000191681526020018273ffffffffffffffffffffffffffffffffffffffff1673ffffffffffffffffffffffffffffffffffffffff168152602001945050505050600060405180830381600087803b151561197c57600080fd5b6102c65a03f1151561198d57600080fd5b5050508573ffffffffffffffffffffffffffffffffffffffff1663be03847886858673ffffffffffffffffffffffffffffffffffffffff16630842ace46000604051602001526040518163ffffffff167c0100000000000000000000000000000000000000000000000000000000028152600401602060405180830381600087803b1515611a1a57600080fd5b6102c65a03f11515611a2b57600080fd5b50505060405180519050896040518563ffffffff167c0100000000000000000000000000000000000000000000000000000000028152600401808573ffffffffffffffffffffffffffffffffffffffff1673ffffffffffffffffffffffffffffffffffffffff1681526020018473ffffffffffffffffffffffffffffffffffffffff1673ffffffffffffffffffffffffffffffffffffffff16815260200183600019166000191681526020018273ffffffffffffffffffffffffffffffffffffffff1673ffffffffffffffffffffffffffffffffffffffff168152602001945050505050600060405180830381600087803b1515611b2857600080fd5b6102c65a03f11515611b3957600080fd5b5050508573ffffffffffffffffffffffffffffffffffffffff1663be03847886858673ffffffffffffffffffffffffffffffffffffffff1663981cc3426000604051602001526040518163ffffffff167c0100000000000000000000000000000000000000000000000000000000028152600401602060405180830381600087803b1515611bc657600080fd5b6102c65a03f11515611bd757600080fd5b50505060405180519050896040518563ffffffff167c0100000000000000000000000000000000000000000000000000000000028152600401808573ffffffffffffffffffffffffffffffffffffffff1673ffffffffffffffffffffffffffffffffffffffff1681526020018473ffffffffffffffffffffffffffffffffffffffff1673ffffffffffffffffffffffffffffffffffffffff16815260200183600019166000191681526020018273ffffffffffffffffffffffffffffffffffffffff1673ffffffffffffffffffffffffffffffffffffffff168152602001945050505050600060405180830381600087803b1515611cd457600080fd5b6102c65a03f11515611ce557600080fd5b5050508573ffffffffffffffffffffffffffffffffffffffff1663be03847886858673ffffffffffffffffffffffffffffffffffffffff166329b522eb6000604051602001526040518163ffffffff167c0100000000000000000000000000000000000000000000000000000000028152600401602060405180830381600087803b1515611d7257600080fd5b6102c65a03f11515611d8357600080fd5b50505060405180519050896040518563ffffffff167c0100000000000000000000000000000000000000000000000000000000028152600401808573ffffffffffffffffffffffffffffffffffffffff1673ffffffffffffffffffffffffffffffffffffffff1681526020018473ffffffffffffffffffffffffffffffffffffffff1673ffffffffffffffffffffffffffffffffffffffff16815260200183600019166000191681526020018273ffffffffffffffffffffffffffffffffffffffff1673ffffffffffffffffffffffffffffffffffffffff168152602001945050505050600060405180830381600087803b1515611e8057600080fd5b6102c65a03f11515611e9157600080fd5b5050508573ffffffffffffffffffffffffffffffffffffffff1663be03847886848573ffffffffffffffffffffffffffffffffffffffff1663a51d9a8e6000604051602001526040518163ffffffff167c0100000000000000000000000000000000000000000000000000000000028152600401602060405180830381600087803b1515611f1e57600080fd5b6102c65a03f11515611f2f57600080fd5b50505060405180519050896040518563ffffffff167c0100000000000000000000000000000000000000000000000000000000028152600401808573ffffffffffffffffffffffffffffffffffffffff1673ffffffffffffffffffffffffffffffffffffffff1681526020018473ffffffffffffffffffffffffffffffffffffffff1673ffffffffffffffffffffffffffffffffffffffff16815260200183600019166000191681526020018273ffffffffffffffffffffffffffffffffffffffff1673ffffffffffffffffffffffffffffffffffffffff168152602001945050505050600060405180830381600087803b151561202c57600080fd5b6102c65a03f1151561203d57600080fd5b5050508573ffffffffffffffffffffffffffffffffffffffff1663be03847886848573ffffffffffffffffffffffffffffffffffffffff1663edc168f16000604051602001526040518163ffffffff167c0100000000000000000000000000000000000000000000000000000000028152600401602060405180830381600087803b15156120ca57600080fd5b6102c65a03f115156120db57600080fd5b50505060405180519050896040518563ffffffff167c0100000000000000000000000000000000000000000000000000000000028152600401808573ffffffffffffffffffffffffffffffffffffffff1673ffffffffffffffffffffffffffffffffffffffff1681526020018473ffffffffffffffffffffffffffffffffffffffff1673ffffffffffffffffffffffffffffffffffffffff16815260200183600019166000191681526020018273ffffffffffffffffffffffffffffffffffffffff1673ffffffffffffffffffffffffffffffffffffffff168152602001945050505050600060405180830381600087803b15156121d857600080fd5b6102c65a03f115156121e957600080fd5b50505089518b511415156121fc57600080fd5b8573ffffffffffffffffffffffffffffffffffffffff1663be03847830848573ffffffffffffffffffffffffffffffffffffffff1663e9a9c8506000604051602001526040518163ffffffff167c0100000000000000000000000000000000000000000000000000000000028152600401602060405180830381600087803b151561228657600080fd5b6102c65a03f1151561229757600080fd5b50505060405180519050306040518563ffffffff167c0100000000000000000000000000000000000000000000000000000000028152600401808573ffffffffffffffffffffffffffffffffffffffff1673ffffffffffffffffffffffffffffffffffffffff1681526020018473ffffffffffffffffffffffffffffffffffffffff1673ffffffffffffffffffffffffffffffffffffffff16815260200183600019166000191681526020018273ffffffffffffffffffffffffffffffffffffffff1673ffffffffffffffffffffffffffffffffffffffff168152602001945050505050600060405180830381600087803b151561239457600080fd5b6102c65a03f115156123a557600080fd5b5050508173ffffffffffffffffffffffffffffffffffffffff1663e918c62f8d60018c118c60016040518563ffffffff167c0100000000000000000000000000000000000000000000000000000000028152600401808573ffffffffffffffffffffffffffffffffffffffff1673ffffffffffffffffffffffffffffffffffffffff1681526020018415151515815260200183815260200182151515158152602001945050505050600060405180830381600087803b151561246657600080fd5b6102c65a03f1151561247757600080fd5b505050600090505b8a51811015612579578173ffffffffffffffffffffffffffffffffffffffff166340c10f198c838151811015156124b257fe5b906020019060200201518c848151811015156124ca57fe5b906020019060200201516040518363ffffffff167c0100000000000000000000000000000000000000000000000000000000028152600401808373ffffffffffffffffffffffffffffffffffffffff1673ffffffffffffffffffffffffffffffffffffffff16815260200182815260200192505050600060405180830381600087803b151561255857600080fd5b6102c65a03f1151561256957600080fd5b505050808060010191505061247f565b8273ffffffffffffffffffffffffffffffffffffffff16637879ec3185600360009054906101000a900473ffffffffffffffffffffffffffffffffffffffff167fffffffffffffffffffffffffffffffffffffffffffffffffffffffffffffffff6040518463ffffffff167c0100000000000000000000000000000000000000000000000000000000028152600401808473ffffffffffffffffffffffffffffffffffffffff1673ffffffffffffffffffffffffffffffffffffffff1681526020018373ffffffffffffffffffffffffffffffffffffffff1673ffffffffffffffffffffffffffffffffffffffff1681526020018267ffffffffffffffff1667ffffffffffffffff1681526020019350505050600060405180830381600087803b15156126a557600080fd5b6102c65a03f115156126b657600080fd5b5050508573ffffffffffffffffffffffffffffffffffffffff16630a8ed3db86898a73ffffffffffffffffffffffffffffffffffffffff16638ea8dc9d6000604051602001526040518163ffffffff167c0100000000000000000000000000000000000000000000000000000000028152600401602060405180830381600087803b151561274357600080fd5b6102c65a03f1151561275457600080fd5b505050604051805190506040518463ffffffff167c0100000000000000000000000000000000000000000000000000000000028152600401808473ffffffffffffffffffffffffffffffffffffffff1673ffffffffffffffffffffffffffffffffffffffff1681526020018373ffffffffffffffffffffffffffffffffffffffff1673ffffffffffffffffffffffffffffffffffffffff16815260200182600019166000191681526020019350505050600060405180830381600087803b151561281d57600080fd5b6102c65a03f1151561282e57600080fd5b5050508573ffffffffffffffffffffffffffffffffffffffff1663afd925df86898a73ffffffffffffffffffffffffffffffffffffffff16638ea8dc9d6000604051602001526040518163ffffffff167c0100000000000000000000000000000000000000000000000000000000028152600401602060405180830381600087803b15156128bb57600080fd5b6102c65a03f115156128cc57600080fd5b505050604051805190506040518463ffffffff167c0100000000000000000000000000000000000000000000000000000000028152600401808473ffffffffffffffffffffffffffffffffffffffff1673ffffffffffffffffffffffffffffffffffffffff1681526020018373ffffffffffffffffffffffffffffffffffffffff1673ffffffffffffffffffffffffffffffffffffffff16815260200182600019166000191681526020019350505050600060405180830381600087803b151561299557600080fd5b6102c65a03f115156129a657600080fd5b5050508573ffffffffffffffffffffffffffffffffffffffff16630a8ed3db86888973ffffffffffffffffffffffffffffffffffffffff16633d6ab68f6000604051602001526040518163ffffffff167c0100000000000000000000000000000000000000000000000000000000028152600401602060405180830381600087803b1515612a3357600080fd5b6102c65a03f11515612a4457600080fd5b505050604051805190506040518463ffffffff167c0100000000000000000000000000000000000000000000000000000000028152600401808473ffffffffffffffffffffffffffffffffffffffff1673ffffffffffffffffffffffffffffffffffffffff1681526020018373ffffffffffffffffffffffffffffffffffffffff1673ffffffffffffffffffffffffffffffffffffffff16815260200182600019166000191681526020019350505050600060405180830381600087803b1515612b0d57600080fd5b6102c65a03f11515612b1e57600080fd5b5050508573ffffffffffffffffffffffffffffffffffffffff1663afd925df86888973ffffffffffffffffffffffffffffffffffffffff16633d6ab68f6000604051602001526040518163ffffffff167c0100000000000000000000000000000000000000000000000000000000028152600401602060405180830381600087803b1515612bab57600080fd5b6102c65a03f11515612bbc57600080fd5b505050604051805190506040518463ffffffff167c0100000000000000000000000000000000000000000000000000000000028152600401808473ffffffffffffffffffffffffffffffffffffffff1673ffffffffffffffffffffffffffffffffffffffff1681526020018373ffffffffffffffffffffffffffffffffffffffff1673ffffffffffffffffffffffffffffffffffffffff16815260200182600019166000191681526020019350505050600060405180830381600087803b1515612c8557600080fd5b6102c65a03f11515612c9657600080fd5b5050508573ffffffffffffffffffffffffffffffffffffffff16630a8ed3db86848573ffffffffffffffffffffffffffffffffffffffff1663e9a9c8506000604051602001526040518163ffffffff167c0100000000000000000000000000000000000000000000000000000000028152600401602060405180830381600087803b1515612d2357600080fd5b6102c65a03f11515612d3457600080fd5b505050604051805190506040518463ffffffff167c0100000000000000000000000000000000000000000000000000000000028152600401808473ffffffffffffffffffffffffffffffffffffffff1673ffffffffffffffffffffffffffffffffffffffff1681526020018373ffffffffffffffffffffffffffffffffffffffff1673ffffffffffffffffffffffffffffffffffffffff16815260200182600019166000191681526020019350505050600060405180830381600087803b1515612dfd57600080fd5b6102c65a03f11515612e0e57600080fd5b5050508573ffffffffffffffffffffffffffffffffffffffff1663afd925df86848573ffffffffffffffffffffffffffffffffffffffff1663e9a9c8506000604051602001526040518163ffffffff167c0100000000000000000000000000000000000000000000000000000000028152600401602060405180830381600087803b1515612e9b57600080fd5b6102c65a03f11515612eac57600080fd5b505050604051805190506040518463ffffffff167c0100000000000000000000000000000000000000000000000000000000028152600401808473ffffffffffffffffffffffffffffffffffffffff1673ffffffffffffffffffffffffffffffffffffffff1681526020018373ffffffffffffffffffffffffffffffffffffffff1673ffffffffffffffffffffffffffffffffffffffff16815260200182600019166000191681526020019350505050600060405180830381600087803b1515612f7557600080fd5b6102c65a03f11515612f8657600080fd5b505050612f938d88613155565b8b73ffffffffffffffffffffffffffffffffffffffff167f4fa65b7b4efeaaebcd718c22be4cbfe3339447deee05146fa2ef6d9578015fd388604051808273ffffffffffffffffffffffffffffffffffffffff1673ffffffffffffffffffffffffffffffffffffffff16815260200191505060405180910390a28497505050505050505095945050505050565b60008060009054906101000a900473ffffffffffffffffffffffffffffffffffffffff1673ffffffffffffffffffffffffffffffffffffffff16632b20e3976000604051602001526040518163ffffffff167c0100000000000000000000000000000000000000000000000000000000028152600401602060405180830381600087803b15156130af57600080fd5b6102c65a03f115156130c057600080fd5b5050506040518051905073ffffffffffffffffffffffffffffffffffffffff16633f15457f6000604051602001526040518163ffffffff167c0100000000000000000000000000000000000000000000000000000000028152600401602060405180830381600087803b151561313557600080fd5b6102c65a03f1151561314657600080fd5b50505060405180519050905090565b600460009054906101000a900473ffffffffffffffffffffffffffffffffffffffff1673ffffffffffffffffffffffffffffffffffffffff1663d22057a9836040518082805190602001908083835b6020831015156131c957805182526020820191506020810190506020830392506131a4565b6001836020036101000a0380198251168184511680821785525050505050509050019150506040518091039020836040518363ffffffff167c01000000000000000000000000000000000000000000000000000000000281526004018083600019166000191681526020018273ffffffffffffffffffffffffffffffffffffffff1673ffffffffffffffffffffffffffffffffffffffff16815260200192505050600060405180830381600087803b151561328357600080fd5b6102c65a03f1151561329457600080fd5b5050505050565b6020604051908101604052806000815250905600a165627a7a72305820ae2d9eed439617852fa077d1362bd5dc991a7556c1ec9da718714c9b5f6ba7120029",
  "source": "pragma solidity 0.4.18;\n\nimport \"./BetaTemplateBase.sol\";\n\n\ncontract MultisigTemplate is BetaTemplateBase {\n    function MultisigTemplate(DAOFactory _fac, MiniMeTokenFactory _minimeFac, APMRegistry _apm, EtherToken _etherToken, IFIFSResolvingRegistrar _aragonID, bytes32[4] _appIds)\n             BetaTemplateBase(_fac, _minimeFac, _apm, _etherToken, _aragonID, _appIds) public {}\n\n    function newToken(string name) external returns (MiniMeToken token) {\n        token = minimeFac.createCloneToken(address(0), 0, name, 0, \"Multisig\", true);\n        cacheToken(token, msg.sender);\n    }\n\n    function newInstance(string name, address[] signers, uint256 neededSignatures) external {\n        uint256[] memory stakes = new uint256[](signers.length);\n\n        for (uint256 i = 0; i < signers.length; i++) {\n            stakes[i] = 1;\n        }\n\n        MiniMeToken token = popTokenCache(msg.sender);\n        Voting voting = createDAO(name, token, signers, stakes, 1);\n\n        uint256 multisigSupport = neededSignatures * 10 ** 18 / signers.length;\n        voting.initialize(token, multisigSupport, multisigSupport, uint64(-1));\n    }\n}\n",
  "sourcePath": "/Users/jorge/provident/aragon-apps/templates/beta/contracts/MultisigTemplate.sol",
  "compiler": {
    "name": "solc",
    "version": "0.4.18+commit.9cf6e910.Emscripten.clang"
  },
  "schemaVersion": "1.0.1",
  "updatedAt": "2018-02-26T13:03:38.123Z"
}