{
  "contractName": "PublicResolver",
  "abi": [
    {
      "constant": true,
      "inputs": [
        {
          "name": "interfaceID",
          "type": "bytes4"
        }
      ],
      "name": "supportsInterface",
      "outputs": [
        {
          "name": "",
          "type": "bool"
        }
      ],
      "payable": false,
      "stateMutability": "view",
      "type": "function"
    },
    {
      "constant": false,
      "inputs": [
        {
          "name": "node",
          "type": "bytes32"
        },
        {
          "name": "key",
          "type": "string"
        },
        {
          "name": "value",
          "type": "string"
        }
      ],
      "name": "setText",
      "outputs": [],
      "payable": false,
      "stateMutability": "nonpayable",
      "type": "function"
    },
    {
      "constant": true,
      "inputs": [
        {
          "name": "node",
          "type": "bytes32"
        },
        {
          "name": "contentTypes",
          "type": "uint256"
        }
      ],
      "name": "ABI",
      "outputs": [
        {
          "name": "contentType",
          "type": "uint256"
        },
        {
          "name": "data",
          "type": "bytes"
        }
      ],
      "payable": false,
      "stateMutability": "view",
      "type": "function"
    },
    {
      "constant": false,
      "inputs": [
        {
          "name": "node",
          "type": "bytes32"
        },
        {
          "name": "x",
          "type": "bytes32"
        },
        {
          "name": "y",
          "type": "bytes32"
        }
      ],
      "name": "setPubkey",
      "outputs": [],
      "payable": false,
      "stateMutability": "nonpayable",
      "type": "function"
    },
    {
      "constant": true,
      "inputs": [
        {
          "name": "node",
          "type": "bytes32"
        }
      ],
      "name": "content",
      "outputs": [
        {
          "name": "ret",
          "type": "bytes32"
        }
      ],
      "payable": false,
      "stateMutability": "view",
      "type": "function"
    },
    {
      "constant": true,
      "inputs": [
        {
          "name": "node",
          "type": "bytes32"
        }
      ],
      "name": "addr",
      "outputs": [
        {
          "name": "ret",
          "type": "address"
        }
      ],
      "payable": false,
      "stateMutability": "view",
      "type": "function"
    },
    {
      "constant": true,
      "inputs": [
        {
          "name": "node",
          "type": "bytes32"
        },
        {
          "name": "key",
          "type": "string"
        }
      ],
      "name": "text",
      "outputs": [
        {
          "name": "ret",
          "type": "string"
        }
      ],
      "payable": false,
      "stateMutability": "view",
      "type": "function"
    },
    {
      "constant": false,
      "inputs": [
        {
          "name": "node",
          "type": "bytes32"
        },
        {
          "name": "contentType",
          "type": "uint256"
        },
        {
          "name": "data",
          "type": "bytes"
        }
      ],
      "name": "setABI",
      "outputs": [],
      "payable": false,
      "stateMutability": "nonpayable",
      "type": "function"
    },
    {
      "constant": true,
      "inputs": [
        {
          "name": "node",
          "type": "bytes32"
        }
      ],
      "name": "name",
      "outputs": [
        {
          "name": "ret",
          "type": "string"
        }
      ],
      "payable": false,
      "stateMutability": "view",
      "type": "function"
    },
    {
      "constant": false,
      "inputs": [
        {
          "name": "node",
          "type": "bytes32"
        },
        {
          "name": "name",
          "type": "string"
        }
      ],
      "name": "setName",
      "outputs": [],
      "payable": false,
      "stateMutability": "nonpayable",
      "type": "function"
    },
    {
      "constant": false,
      "inputs": [
        {
          "name": "node",
          "type": "bytes32"
        },
        {
          "name": "hash",
          "type": "bytes32"
        }
      ],
      "name": "setContent",
      "outputs": [],
      "payable": false,
      "stateMutability": "nonpayable",
      "type": "function"
    },
    {
      "constant": true,
      "inputs": [
        {
          "name": "node",
          "type": "bytes32"
        }
      ],
      "name": "pubkey",
      "outputs": [
        {
          "name": "x",
          "type": "bytes32"
        },
        {
          "name": "y",
          "type": "bytes32"
        }
      ],
      "payable": false,
      "stateMutability": "view",
      "type": "function"
    },
    {
      "constant": false,
      "inputs": [
        {
          "name": "node",
          "type": "bytes32"
        },
        {
          "name": "addr",
          "type": "address"
        }
      ],
      "name": "setAddr",
      "outputs": [],
      "payable": false,
      "stateMutability": "nonpayable",
      "type": "function"
    },
    {
      "inputs": [
        {
          "name": "ensAddr",
          "type": "address"
        }
      ],
      "payable": false,
      "stateMutability": "nonpayable",
      "type": "constructor"
    },
    {
      "anonymous": false,
      "inputs": [
        {
          "indexed": true,
          "name": "node",
          "type": "bytes32"
        },
        {
          "indexed": false,
          "name": "a",
          "type": "address"
        }
      ],
      "name": "AddrChanged",
      "type": "event"
    },
    {
      "anonymous": false,
      "inputs": [
        {
          "indexed": true,
          "name": "node",
          "type": "bytes32"
        },
        {
          "indexed": false,
          "name": "hash",
          "type": "bytes32"
        }
      ],
      "name": "ContentChanged",
      "type": "event"
    },
    {
      "anonymous": false,
      "inputs": [
        {
          "indexed": true,
          "name": "node",
          "type": "bytes32"
        },
        {
          "indexed": false,
          "name": "name",
          "type": "string"
        }
      ],
      "name": "NameChanged",
      "type": "event"
    },
    {
      "anonymous": false,
      "inputs": [
        {
          "indexed": true,
          "name": "node",
          "type": "bytes32"
        },
        {
          "indexed": true,
          "name": "contentType",
          "type": "uint256"
        }
      ],
      "name": "ABIChanged",
      "type": "event"
    },
    {
      "anonymous": false,
      "inputs": [
        {
          "indexed": true,
          "name": "node",
          "type": "bytes32"
        },
        {
          "indexed": false,
          "name": "x",
          "type": "bytes32"
        },
        {
          "indexed": false,
          "name": "y",
          "type": "bytes32"
        }
      ],
      "name": "PubkeyChanged",
      "type": "event"
    },
    {
      "anonymous": false,
      "inputs": [
        {
          "indexed": true,
          "name": "node",
          "type": "bytes32"
        },
        {
          "indexed": true,
          "name": "indexedKey",
          "type": "string"
        },
        {
          "indexed": false,
          "name": "key",
          "type": "string"
        }
      ],
      "name": "TextChanged",
      "type": "event"
    }
  ],
  "bytecode": "0x6060604052341561000f57600080fd5b604051602080611a3983398101604052808051906020019091905050806000806101000a81548173ffffffffffffffffffffffffffffffffffffffff021916908373ffffffffffffffffffffffffffffffffffffffff160217905550506119be8061007b6000396000f3006060604052600436106100c5576000357c0100000000000000000000000000000000000000000000000000000000900463ffffffff16806301ffc9a7146100ca57806310f13a8c146101245780632203ab56146101d157806329cd62ea146102815780632dff6941146102c25780633b3b57de1461030557806359d1d43c1461036c578063623195b01461044f578063691f3431146104c25780637737221314610562578063c3d014d6146105cc578063c869023314610600578063d5fa2b0014610652575b600080fd5b34156100d557600080fd5b61010a60048080357bffffffffffffffffffffffffffffffffffffffffffffffffffffffff1916906020019091905050610698565b604051808215151515815260200191505060405180910390f35b341561012f57600080fd5b6101cf60048080356000191690602001909190803590602001908201803590602001908080601f0160208091040260200160405190810160405280939291908181526020018383808284378201915050505050509190803590602001908201803590602001908080601f01602080910402602001604051908101604052809392919081815260200183838082843782019150505050505091905050610987565b005b34156101dc57600080fd5b6101ff600480803560001916906020019091908035906020019091905050610c22565b6040518083815260200180602001828103825283818151815260200191508051906020019080838360005b8381101561024557808201518184015260208101905061022a565b50505050905090810190601f1680156102725780820380516001836020036101000a031916815260200191505b50935050505060405180910390f35b341561028c57600080fd5b6102c06004808035600019169060200190919080356000191690602001909190803560001916906020019091905050610d6b565b005b34156102cd57600080fd5b6102e7600480803560001916906020019091905050610f18565b60405180826000191660001916815260200191505060405180910390f35b341561031057600080fd5b61032a600480803560001916906020019091905050610f40565b604051808273ffffffffffffffffffffffffffffffffffffffff1673ffffffffffffffffffffffffffffffffffffffff16815260200191505060405180910390f35b341561037757600080fd5b6103d460048080356000191690602001909190803590602001908201803590602001908080601f01602080910402602001604051908101604052809392919081815260200183838082843782019150505050505091905050610f88565b6040518080602001828103825283818151815260200191508051906020019080838360005b838110156104145780820151818401526020810190506103f9565b50505050905090810190601f1680156104415780820380516001836020036101000a031916815260200191505b509250505060405180910390f35b341561045a57600080fd5b6104c060048080356000191690602001909190803590602001909190803590602001908201803590602001908080601f016020809104026020016040519081016040528093929190818152602001838380828437820191505050505050919050506110b8565b005b34156104cd57600080fd5b6104e760048080356000191690602001909190505061123d565b6040518080602001828103825283818151815260200191508051906020019080838360005b8381101561052757808201518184015260208101905061050c565b50505050905090810190601f1680156105545780820380516001836020036101000a031916815260200191505b509250505060405180910390f35b341561056d57600080fd5b6105ca60048080356000191690602001909190803590602001908201803590602001908080601f01602080910402602001604051908101604052809392919081815260200183838082843782019150505050505091905050611303565b005b34156105d757600080fd5b6105fe600480803560001916906020019091908035600019169060200190919050506114d1565b005b341561060b57600080fd5b610625600480803560001916906020019091905050611636565b60405180836000191660001916815260200182600019166000191681526020019250505060405180910390f35b341561065d57600080fd5b61069660048080356000191690602001909190803573ffffffffffffffffffffffffffffffffffffffff16906020019091905050611686565b005b6000633b3b57de7c0100000000000000000000000000000000000000000000000000000000027bffffffffffffffffffffffffffffffffffffffffffffffffffffffff1916827bffffffffffffffffffffffffffffffffffffffffffffffffffffffff19161480610769575063d8389dc57c0100000000000000000000000000000000000000000000000000000000027bffffffffffffffffffffffffffffffffffffffffffffffffffffffff1916827bffffffffffffffffffffffffffffffffffffffffffffffffffffffff1916145b806107d4575063691f34317c0100000000000000000000000000000000000000000000000000000000027bffffffffffffffffffffffffffffffffffffffffffffffffffffffff1916827bffffffffffffffffffffffffffffffffffffffffffffffffffffffff1916145b8061083f5750632203ab567c0100000000000000000000000000000000000000000000000000000000027bffffffffffffffffffffffffffffffffffffffffffffffffffffffff1916827bffffffffffffffffffffffffffffffffffffffffffffffffffffffff1916145b806108aa575063c86902337c0100000000000000000000000000000000000000000000000000000000027bffffffffffffffffffffffffffffffffffffffffffffffffffffffff1916827bffffffffffffffffffffffffffffffffffffffffffffffffffffffff1916145b8061091557506359d1d43c7c0100000000000000000000000000000000000000000000000000000000027bffffffffffffffffffffffffffffffffffffffffffffffffffffffff1916827bffffffffffffffffffffffffffffffffffffffffffffffffffffffff1916145b8061098057506301ffc9a77c0100000000000000000000000000000000000000000000000000000000027bffffffffffffffffffffffffffffffffffffffffffffffffffffffff1916827bffffffffffffffffffffffffffffffffffffffffffffffffffffffff1916145b9050919050565b823373ffffffffffffffffffffffffffffffffffffffff166000809054906101000a900473ffffffffffffffffffffffffffffffffffffffff1673ffffffffffffffffffffffffffffffffffffffff166302571be3836000604051602001526040518263ffffffff167c0100000000000000000000000000000000000000000000000000000000028152600401808260001916600019168152602001915050602060405180830381600087803b1515610a3f57600080fd5b6102c65a03f11515610a5057600080fd5b5050506040518051905073ffffffffffffffffffffffffffffffffffffffff16141515610a7c57600080fd5b81600160008660001916600019168152602001908152602001600020600501846040518082805190602001908083835b602083101515610ad15780518252602082019150602081019050602083039250610aac565b6001836020036101000a03801982511681845116808217855250505050505090500191505090815260200160405180910390209080519060200190610b17929190611845565b50826040518082805190602001908083835b602083101515610b4e5780518252602082019150602081019050602083039250610b29565b6001836020036101000a038019825116818451168082178552505050505050905001915050604051809103902084600019167fd8c9334b1a9c2f9da342a0a2b32629c1a229b6445dad78947f674b44444a7550856040518080602001828103825283818151815260200191508051906020019080838360005b83811015610be2578082015181840152602081019050610bc7565b50505050905090810190601f168015610c0f5780820380516001836020036101000a031916815260200191505b509250505060405180910390a350505050565b6000610c2c6118c5565b60006001600086600019166000191681526020019081526020016000209050600192505b8383111515610d5e57600084841614158015610c9557506000816006016000858152602001908152602001600020805460018160011615610100020316600290049050115b15610d4f578060060160008481526020019081526020016000208054600181600116156101000203166002900480601f016020809104026020016040519081016040528092919081815260200182805460018160011615610100020316600290048015610d435780601f10610d1857610100808354040283529160200191610d43565b820191906000526020600020905b815481529060010190602001808311610d2657829003601f168201915b50505050509150610d63565b6001839060020a029250610c50565b600092505b509250929050565b823373ffffffffffffffffffffffffffffffffffffffff166000809054906101000a900473ffffffffffffffffffffffffffffffffffffffff1673ffffffffffffffffffffffffffffffffffffffff166302571be3836000604051602001526040518263ffffffff167c0100000000000000000000000000000000000000000000000000000000028152600401808260001916600019168152602001915050602060405180830381600087803b1515610e2357600080fd5b6102c65a03f11515610e3457600080fd5b5050506040518051905073ffffffffffffffffffffffffffffffffffffffff16141515610e6057600080fd5b6040805190810160405280846000191681526020018360001916815250600160008660001916600019168152602001908152602001600020600301600082015181600001906000191690556020820151816001019060001916905590505083600019167f1d6f5e03d3f63eb58751986629a5439baee5079ff04f345becb66e23eb154e46848460405180836000191660001916815260200182600019166000191681526020019250505060405180910390a250505050565b6000600160008360001916600019168152602001908152602001600020600101549050919050565b600060016000836000191660001916815260200190815260200160002060000160009054906101000a900473ffffffffffffffffffffffffffffffffffffffff169050919050565b610f906118d9565b600160008460001916600019168152602001908152602001600020600501826040518082805190602001908083835b602083101515610fe45780518252602082019150602081019050602083039250610fbf565b6001836020036101000a03801982511681845116808217855250505050505090500191505090815260200160405180910390208054600181600116156101000203166002900480601f0160208091040260200160405190810160405280929190818152602001828054600181600116156101000203166002900480156110ab5780601f10611080576101008083540402835291602001916110ab565b820191906000526020600020905b81548152906001019060200180831161108e57829003601f168201915b5050505050905092915050565b823373ffffffffffffffffffffffffffffffffffffffff166000809054906101000a900473ffffffffffffffffffffffffffffffffffffffff1673ffffffffffffffffffffffffffffffffffffffff166302571be3836000604051602001526040518263ffffffff167c0100000000000000000000000000000000000000000000000000000000028152600401808260001916600019168152602001915050602060405180830381600087803b151561117057600080fd5b6102c65a03f1151561118157600080fd5b5050506040518051905073ffffffffffffffffffffffffffffffffffffffff161415156111ad57600080fd5b60008360018503161415156111c157600080fd5b81600160008660001916600019168152602001908152602001600020600601600085815260200190815260200160002090805190602001906112049291906118ed565b508284600019167faa121bbeef5f32f5961a2a28966e769023910fc9479059ee3495d4c1a696efe360405160405180910390a350505050565b6112456118d9565b6001600083600019166000191681526020019081526020016000206002018054600181600116156101000203166002900480601f0160208091040260200160405190810160405280929190818152602001828054600181600116156101000203166002900480156112f75780601f106112cc576101008083540402835291602001916112f7565b820191906000526020600020905b8154815290600101906020018083116112da57829003601f168201915b50505050509050919050565b813373ffffffffffffffffffffffffffffffffffffffff166000809054906101000a900473ffffffffffffffffffffffffffffffffffffffff1673ffffffffffffffffffffffffffffffffffffffff166302571be3836000604051602001526040518263ffffffff167c0100000000000000000000000000000000000000000000000000000000028152600401808260001916600019168152602001915050602060405180830381600087803b15156113bb57600080fd5b6102c65a03f115156113cc57600080fd5b5050506040518051905073ffffffffffffffffffffffffffffffffffffffff161415156113f857600080fd5b81600160008560001916600019168152602001908152602001600020600201908051906020019061142a929190611845565b5082600019167fb7d29e911041e8d9b843369e890bcb72c9388692ba48b65ac54e7214c4c348f7836040518080602001828103825283818151815260200191508051906020019080838360005b83811015611492578082015181840152602081019050611477565b50505050905090810190601f1680156114bf5780820380516001836020036101000a031916815260200191505b509250505060405180910390a2505050565b813373ffffffffffffffffffffffffffffffffffffffff166000809054906101000a900473ffffffffffffffffffffffffffffffffffffffff1673ffffffffffffffffffffffffffffffffffffffff166302571be3836000604051602001526040518263ffffffff167c0100000000000000000000000000000000000000000000000000000000028152600401808260001916600019168152602001915050602060405180830381600087803b151561158957600080fd5b6102c65a03f1151561159a57600080fd5b5050506040518051905073ffffffffffffffffffffffffffffffffffffffff161415156115c657600080fd5b81600160008560001916600019168152602001908152602001600020600101816000191690555082600019167f0424b6fe0d9c3bdbece0e7879dc241bb0c22e900be8b6c168b4ee08bd9bf83bc8360405180826000191660001916815260200191505060405180910390a2505050565b600080600160008460001916600019168152602001908152602001600020600301600001546001600085600019166000191681526020019081526020016000206003016001015491509150915091565b813373ffffffffffffffffffffffffffffffffffffffff166000809054906101000a900473ffffffffffffffffffffffffffffffffffffffff1673ffffffffffffffffffffffffffffffffffffffff166302571be3836000604051602001526040518263ffffffff167c0100000000000000000000000000000000000000000000000000000000028152600401808260001916600019168152602001915050602060405180830381600087803b151561173e57600080fd5b6102c65a03f1151561174f57600080fd5b5050506040518051905073ffffffffffffffffffffffffffffffffffffffff1614151561177b57600080fd5b8160016000856000191660001916815260200190815260200160002060000160006101000a81548173ffffffffffffffffffffffffffffffffffffffff021916908373ffffffffffffffffffffffffffffffffffffffff16021790555082600019167f52d7d861f09ab3d26239d492e8968629f95e9e318cf0b73bfddc441522a15fd283604051808273ffffffffffffffffffffffffffffffffffffffff1673ffffffffffffffffffffffffffffffffffffffff16815260200191505060405180910390a2505050565b828054600181600116156101000203166002900490600052602060002090601f016020900481019282601f1061188657805160ff19168380011785556118b4565b828001600101855582156118b4579182015b828111156118b3578251825591602001919060010190611898565b5b5090506118c1919061196d565b5090565b602060405190810160405280600081525090565b602060405190810160405280600081525090565b828054600181600116156101000203166002900490600052602060002090601f016020900481019282601f1061192e57805160ff191683800117855561195c565b8280016001018555821561195c579182015b8281111561195b578251825591602001919060010190611940565b5b509050611969919061196d565b5090565b61198f91905b8082111561198b576000816000905550600101611973565b5090565b905600a165627a7a7230582089936f2b3821fdcff1dc6520bde285c319002ef45f6f77f032261b658f8f9ae30029",
  "source": "pragma solidity ^0.4.0;\n\nimport './AbstractENS.sol';\n\n/**\n * A simple resolver anyone can use; only allows the owner of a node to set its\n * address.\n */\ncontract PublicResolver {\n    bytes4 constant INTERFACE_META_ID = 0x01ffc9a7;\n    bytes4 constant ADDR_INTERFACE_ID = 0x3b3b57de;\n    bytes4 constant CONTENT_INTERFACE_ID = 0xd8389dc5;\n    bytes4 constant NAME_INTERFACE_ID = 0x691f3431;\n    bytes4 constant ABI_INTERFACE_ID = 0x2203ab56;\n    bytes4 constant PUBKEY_INTERFACE_ID = 0xc8690233;\n    bytes4 constant TEXT_INTERFACE_ID = 0x59d1d43c;\n\n    event AddrChanged(bytes32 indexed node, address a);\n    event ContentChanged(bytes32 indexed node, bytes32 hash);\n    event NameChanged(bytes32 indexed node, string name);\n    event ABIChanged(bytes32 indexed node, uint256 indexed contentType);\n    event PubkeyChanged(bytes32 indexed node, bytes32 x, bytes32 y);\n    event TextChanged(bytes32 indexed node, string indexed indexedKey, string key);\n\n    struct PublicKey {\n        bytes32 x;\n        bytes32 y;\n    }\n\n    struct Record {\n        address addr;\n        bytes32 content;\n        string name;\n        PublicKey pubkey;\n        mapping(string=>string) text;\n        mapping(uint256=>bytes) abis;\n    }\n\n    AbstractENS ens;\n    mapping(bytes32=>Record) records;\n\n    modifier only_owner(bytes32 node) {\n        if (ens.owner(node) != msg.sender) throw;\n        _;\n    }\n\n    /**\n     * Constructor.\n     * @param ensAddr The ENS registrar contract.\n     */\n    function PublicResolver(AbstractENS ensAddr) {\n        ens = ensAddr;\n    }\n\n    /**\n     * Returns true if the resolver implements the interface specified by the provided hash.\n     * @param interfaceID The ID of the interface to check for.\n     * @return True if the contract implements the requested interface.\n     */\n    function supportsInterface(bytes4 interfaceID) constant returns (bool) {\n        return interfaceID == ADDR_INTERFACE_ID ||\n               interfaceID == CONTENT_INTERFACE_ID ||\n               interfaceID == NAME_INTERFACE_ID ||\n               interfaceID == ABI_INTERFACE_ID ||\n               interfaceID == PUBKEY_INTERFACE_ID ||\n               interfaceID == TEXT_INTERFACE_ID ||\n               interfaceID == INTERFACE_META_ID;\n    }\n\n    /**\n     * Returns the address associated with an ENS node.\n     * @param node The ENS node to query.\n     * @return The associated address.\n     */\n    function addr(bytes32 node) constant returns (address ret) {\n        ret = records[node].addr;\n    }\n\n    /**\n     * Sets the address associated with an ENS node.\n     * May only be called by the owner of that node in the ENS registry.\n     * @param node The node to update.\n     * @param addr The address to set.\n     */\n    function setAddr(bytes32 node, address addr) only_owner(node) {\n        records[node].addr = addr;\n        AddrChanged(node, addr);\n    }\n\n    /**\n     * Returns the content hash associated with an ENS node.\n     * Note that this resource type is not standardized, and will likely change\n     * in future to a resource type based on multihash.\n     * @param node The ENS node to query.\n     * @return The associated content hash.\n     */\n    function content(bytes32 node) constant returns (bytes32 ret) {\n        ret = records[node].content;\n    }\n\n    /**\n     * Sets the content hash associated with an ENS node.\n     * May only be called by the owner of that node in the ENS registry.\n     * Note that this resource type is not standardized, and will likely change\n     * in future to a resource type based on multihash.\n     * @param node The node to update.\n     * @param hash The content hash to set\n     */\n    function setContent(bytes32 node, bytes32 hash) only_owner(node) {\n        records[node].content = hash;\n        ContentChanged(node, hash);\n    }\n\n    /**\n     * Returns the name associated with an ENS node, for reverse records.\n     * Defined in EIP181.\n     * @param node The ENS node to query.\n     * @return The associated name.\n     */\n    function name(bytes32 node) constant returns (string ret) {\n        ret = records[node].name;\n    }\n\n    /**\n     * Sets the name associated with an ENS node, for reverse records.\n     * May only be called by the owner of that node in the ENS registry.\n     * @param node The node to update.\n     * @param name The name to set.\n     */\n    function setName(bytes32 node, string name) only_owner(node) {\n        records[node].name = name;\n        NameChanged(node, name);\n    }\n\n    /**\n     * Returns the ABI associated with an ENS node.\n     * Defined in EIP205.\n     * @param node The ENS node to query\n     * @param contentTypes A bitwise OR of the ABI formats accepted by the caller.\n     * @return contentType The content type of the return value\n     * @return data The ABI data\n     */\n    function ABI(bytes32 node, uint256 contentTypes) constant returns (uint256 contentType, bytes data) {\n        var record = records[node];\n        for(contentType = 1; contentType <= contentTypes; contentType <<= 1) {\n            if ((contentType & contentTypes) != 0 && record.abis[contentType].length > 0) {\n                data = record.abis[contentType];\n                return;\n            }\n        }\n        contentType = 0;\n    }\n\n    /**\n     * Sets the ABI associated with an ENS node.\n     * Nodes may have one ABI of each content type. To remove an ABI, set it to\n     * the empty string.\n     * @param node The node to update.\n     * @param contentType The content type of the ABI\n     * @param data The ABI data.\n     */\n    function setABI(bytes32 node, uint256 contentType, bytes data) only_owner(node) {\n        // Content types must be powers of 2\n        if (((contentType - 1) & contentType) != 0) throw;\n\n        records[node].abis[contentType] = data;\n        ABIChanged(node, contentType);\n    }\n\n    /**\n     * Returns the SECP256k1 public key associated with an ENS node.\n     * Defined in EIP 619.\n     * @param node The ENS node to query\n     * @return x, y the X and Y coordinates of the curve point for the public key.\n     */\n    function pubkey(bytes32 node) constant returns (bytes32 x, bytes32 y) {\n        return (records[node].pubkey.x, records[node].pubkey.y);\n    }\n\n    /**\n     * Sets the SECP256k1 public key associated with an ENS node.\n     * @param node The ENS node to query\n     * @param x the X coordinate of the curve point for the public key.\n     * @param y the Y coordinate of the curve point for the public key.\n     */\n    function setPubkey(bytes32 node, bytes32 x, bytes32 y) only_owner(node) {\n        records[node].pubkey = PublicKey(x, y);\n        PubkeyChanged(node, x, y);\n    }\n\n    /**\n     * Returns the text data associated with an ENS node and key.\n     * @param node The ENS node to query.\n     * @param key The text data key to query.\n     * @return The associated text data.\n     */\n    function text(bytes32 node, string key) constant returns (string ret) {\n        ret = records[node].text[key];\n    }\n\n    /**\n     * Sets the text data associated with an ENS node and key.\n     * May only be called by the owner of that node in the ENS registry.\n     * @param node The node to update.\n     * @param key The key to set.\n     * @param value The text data value to set.\n     */\n    function setText(bytes32 node, string key, string value) only_owner(node) {\n        records[node].text[key] = value;\n        TextChanged(node, key, key);\n    }\n}\n",
  "sourcePath": "@aragon/os/contracts/lib/ens/PublicResolver.sol",
  "compiler": {
    "name": "solc",
    "version": "0.4.18+commit.9cf6e910.Emscripten.clang"
  },
  "schemaVersion": "1.0.1",
  "updatedAt": "2018-03-05T17:18:03.443Z"
}