{
  "contractName": "Repo",
  "abi": [
    {
      "constant": true,
      "inputs": [
        {
          "name": "_semanticVersion",
          "type": "uint16[3]"
        }
      ],
      "name": "getBySemanticVersion",
      "outputs": [
        {
          "name": "semanticVersion",
          "type": "uint16[3]"
        },
        {
          "name": "contractAddress",
          "type": "address"
        },
        {
          "name": "contentURI",
          "type": "bytes"
        }
      ],
      "payable": false,
      "stateMutability": "view",
      "type": "function"
    },
    {
      "constant": true,
      "inputs": [],
      "name": "EVMSCRIPT_REGISTRY_APP_ID",
      "outputs": [
        {
          "name": "",
          "type": "bytes32"
        }
      ],
      "payable": false,
      "stateMutability": "view",
      "type": "function"
    },
    {
      "constant": false,
      "inputs": [
        {
          "name": "_newSemanticVersion",
          "type": "uint16[3]"
        },
        {
          "name": "_contractAddress",
          "type": "address"
        },
        {
          "name": "_contentURI",
          "type": "bytes"
        }
      ],
      "name": "newVersion",
      "outputs": [],
      "payable": false,
      "stateMutability": "nonpayable",
      "type": "function"
    },
    {
      "constant": true,
      "inputs": [
        {
          "name": "_versionId",
          "type": "uint256"
        }
      ],
      "name": "getByVersionId",
      "outputs": [
        {
          "name": "semanticVersion",
          "type": "uint16[3]"
        },
        {
          "name": "contractAddress",
          "type": "address"
        },
        {
          "name": "contentURI",
          "type": "bytes"
        }
      ],
      "payable": false,
      "stateMutability": "view",
      "type": "function"
    },
    {
      "constant": true,
      "inputs": [],
      "name": "appId",
      "outputs": [
        {
          "name": "",
          "type": "bytes32"
        }
      ],
      "payable": false,
      "stateMutability": "view",
      "type": "function"
    },
    {
      "constant": true,
      "inputs": [],
      "name": "getInitializationBlock",
      "outputs": [
        {
          "name": "",
          "type": "uint256"
        }
      ],
      "payable": false,
      "stateMutability": "view",
      "type": "function"
    },
    {
      "constant": true,
      "inputs": [
        {
          "name": "_contractAddress",
          "type": "address"
        }
      ],
      "name": "getLatestForContractAddress",
      "outputs": [
        {
          "name": "semanticVersion",
          "type": "uint16[3]"
        },
        {
          "name": "contractAddress",
          "type": "address"
        },
        {
          "name": "contentURI",
          "type": "bytes"
        }
      ],
      "payable": false,
      "stateMutability": "view",
      "type": "function"
    },
    {
      "constant": true,
      "inputs": [],
      "name": "EVMSCRIPT_REGISTRY_APP",
      "outputs": [
        {
          "name": "",
          "type": "bytes32"
        }
      ],
      "payable": false,
      "stateMutability": "view",
      "type": "function"
    },
    {
      "constant": true,
      "inputs": [
        {
          "name": "_sender",
          "type": "address"
        },
        {
          "name": "_role",
          "type": "bytes32"
        },
        {
          "name": "params",
          "type": "uint256[]"
        }
      ],
      "name": "canPerform",
      "outputs": [
        {
          "name": "",
          "type": "bool"
        }
      ],
      "payable": false,
      "stateMutability": "view",
      "type": "function"
    },
    {
      "constant": true,
      "inputs": [
        {
          "name": "_oldVersion",
          "type": "uint16[3]"
        },
        {
          "name": "_newVersion",
          "type": "uint16[3]"
        }
      ],
      "name": "isValidBump",
      "outputs": [
        {
          "name": "",
          "type": "bool"
        }
      ],
      "payable": false,
      "stateMutability": "pure",
      "type": "function"
    },
    {
      "constant": true,
      "inputs": [],
      "name": "CREATE_VERSION_ROLE",
      "outputs": [
        {
          "name": "",
          "type": "bytes32"
        }
      ],
      "payable": false,
      "stateMutability": "view",
      "type": "function"
    },
    {
      "constant": true,
      "inputs": [],
      "name": "getLatest",
      "outputs": [
        {
          "name": "semanticVersion",
          "type": "uint16[3]"
        },
        {
          "name": "contractAddress",
          "type": "address"
        },
        {
          "name": "contentURI",
          "type": "bytes"
        }
      ],
      "payable": false,
      "stateMutability": "view",
      "type": "function"
    },
    {
      "constant": true,
      "inputs": [],
      "name": "getVersionsCount",
      "outputs": [
        {
          "name": "",
          "type": "uint256"
        }
      ],
      "payable": false,
      "stateMutability": "view",
      "type": "function"
    },
    {
      "constant": true,
      "inputs": [],
      "name": "kernel",
      "outputs": [
        {
          "name": "",
          "type": "address"
        }
      ],
      "payable": false,
      "stateMutability": "view",
      "type": "function"
    },
    {
      "constant": true,
      "inputs": [
        {
          "name": "_script",
          "type": "bytes"
        }
      ],
      "name": "getExecutor",
      "outputs": [
        {
          "name": "",
          "type": "address"
        }
      ],
      "payable": false,
      "stateMutability": "view",
      "type": "function"
    },
    {
      "anonymous": false,
      "inputs": [
        {
          "indexed": false,
          "name": "versionId",
          "type": "uint256"
        },
        {
          "indexed": false,
          "name": "semanticVersion",
          "type": "uint16[3]"
        }
      ],
      "name": "NewVersion",
      "type": "event"
    }
  ],
  "bytecode": "0x6060604052341561000f57600080fd5b6119998061001e6000396000f3006060604052600436106100db576000357c0100000000000000000000000000000000000000000000000000000000900463ffffffff1680634c3ba268146100e057806360b1e057146102015780637305341014610232578063737e7d4f146102da57806380afdea8146103d85780638b3dd749146104095780639a6fe50c146104325780639b3fdf4c14610546578063a1658fad14610577578063a7bdf16e14610615578063aa61924a1461069f578063c36af460146106d0578063c6d48e0d146107c0578063d4aae0c4146107e9578063f92a79ff1461083e575b600080fd5b34156100eb57600080fd5b610124600480806060019060038060200260405190810160405280929190826003602002808284378201915050505050919050506108db565b6040518084600360200280838360005b8381101561014f578082015181840152602081019050610134565b505050509050018373ffffffffffffffffffffffffffffffffffffffff1673ffffffffffffffffffffffffffffffffffffffff16815260200180602001828103825283818151815260200191508051906020019080838360005b838110156101c45780820151818401526020810190506101a9565b50505050905090810190601f1680156101f15780820380516001836020036101000a031916815260200191505b5094505050505060405180910390f35b341561020c57600080fd5b610214610926565b60405180826000191660001916815260200191505060405180910390f35b341561023d57600080fd5b6102d86004808060600190600380602002604051908101604052809291908260036020028082843782019150505050509190803573ffffffffffffffffffffffffffffffffffffffff1690602001909190803590602001908201803590602001908080601f0160208091040260200160405190810160405280939291908181526020018383808284378201915050505050509190505061095f565b005b34156102e557600080fd5b6102fb6004808035906020019091905050610d3c565b6040518084600360200280838360005b8381101561032657808201518184015260208101905061030b565b505050509050018373ffffffffffffffffffffffffffffffffffffffff1673ffffffffffffffffffffffffffffffffffffffff16815260200180602001828103825283818151815260200191508051906020019080838360005b8381101561039b578082015181840152602081019050610380565b50505050905090810190601f1680156103c85780820380516001836020036101000a031916815260200191505b5094505050505060405180910390f35b34156103e357600080fd5b6103eb610ebb565b60405180826000191660001916815260200191505060405180910390f35b341561041457600080fd5b61041c610ec1565b6040518082815260200191505060405180910390f35b341561043d57600080fd5b610469600480803573ffffffffffffffffffffffffffffffffffffffff16906020019091905050610ecb565b6040518084600360200280838360005b83811015610494578082015181840152602081019050610479565b505050509050018373ffffffffffffffffffffffffffffffffffffffff1673ffffffffffffffffffffffffffffffffffffffff16815260200180602001828103825283818151815260200191508051906020019080838360005b838110156105095780820151818401526020810190506104ee565b50505050905090810190601f1680156105365780820380516001836020036101000a031916815260200191505b5094505050505060405180910390f35b341561055157600080fd5b610559610f32565b60405180826000191660001916815260200191505060405180910390f35b341561058257600080fd5b6105fb600480803573ffffffffffffffffffffffffffffffffffffffff169060200190919080356000191690602001909190803590602001908201803590602001908080602002602001604051908101604052809392919081815260200183836020028082843782019150505050505091905050610fcd565b604051808215151515815260200191505060405180910390f35b341561062057600080fd5b6106856004808060600190600380602002604051908101604052809291908260036020028082843782019150505050509190806060019060038060200260405190810160405280929190826003602002808284378201915050505050919050506111cd565b604051808215151515815260200191505060405180910390f35b34156106aa57600080fd5b6106b26112da565b60405180826000191660001916815260200191505060405180910390f35b34156106db57600080fd5b6106e36112e1565b6040518084600360200280838360005b8381101561070e5780820151818401526020810190506106f3565b505050509050018373ffffffffffffffffffffffffffffffffffffffff1673ffffffffffffffffffffffffffffffffffffffff16815260200180602001828103825283818151815260200191508051906020019080838360005b83811015610783578082015181840152602081019050610768565b50505050905090810190601f1680156107b05780820380516001836020036101000a031916815260200191505b5094505050505060405180910390f35b34156107cb57600080fd5b6107d361130f565b6040518082815260200191505060405180910390f35b34156107f457600080fd5b6107fc611334565b604051808273ffffffffffffffffffffffffffffffffffffffff1673ffffffffffffffffffffffffffffffffffffffff16815260200191505060405180910390f35b341561084957600080fd5b610899600480803590602001908201803590602001908080601f01602080910402602001604051908101604052809392919081815260200183838082843782019150505050505091905050611359565b604051808273ffffffffffffffffffffffffffffffffffffffff1673ffffffffffffffffffffffffffffffffffffffff16815260200191505060405180910390f35b6108e36116a1565b60006108ed6116cd565b610919606560006108fd87611460565b6000191660001916815260200190815260200160002054610d3c565b9250925092509193909250565b60405180807f65766d7265672e617261676f6e706d2e657468000000000000000000000000008152506013019050604051809103902081565b60008061096a6116a1565b60006001800261099a338260006040518059106109845750595b9080825280602002602001820160405250610fcd565b15156109a557600080fd5b86945060006064805490501115610b535760646001606480549050038154811015156109cd57fe5b90600052602060002090600302019350610a4e84600001600380602002604051908101604052809291908260038015610a43576020028201916000905b82829054906101000a900461ffff1661ffff1681526020019060020190602082600101049283019260010382029150808411610a0a5790505b5050505050896111cd565b1515610a5957600080fd5b60008573ffffffffffffffffffffffffffffffffffffffff161415610aa0578360010160009054906101000a900473ffffffffffffffffffffffffffffffffffffffff1694505b8473ffffffffffffffffffffffffffffffffffffffff168460010160009054906101000a900473ffffffffffffffffffffffffffffffffffffffff1673ffffffffffffffffffffffffffffffffffffffff161480610b435750836000016000600381101515610b0b57fe5b601091828204019190066002029054906101000a900461ffff1661ffff16886000600381101515610b3857fe5b602002015161ffff16115b1515610b4e57600080fd5b610b82565b6001606481818054905001915081610b6b91906116e1565b50610b7683896111cd565b1515610b8157600080fd5b5b600160648054806001018281610b989190611713565b916000526020600020906003020160006060604051908101604052808d81526020018a73ffffffffffffffffffffffffffffffffffffffff1681526020018b8152509091909150600082015181600001906003610bf6929190611745565b5060208201518160010160006101000a81548173ffffffffffffffffffffffffffffffffffffffff021916908373ffffffffffffffffffffffffffffffffffffffff1602179055506040820151816002019080519060200190610c5a9291906117e2565b5050500391508160656000610c6e8b611460565b600019166000191681526020019081526020016000208190555081606660008773ffffffffffffffffffffffffffffffffffffffff1673ffffffffffffffffffffffffffffffffffffffff168152602001908152602001600020819055507e3aea8189d1a0aa3ebdb05219cd4c2a663166706e949e9d6e8aa63718ca43fd82896040518083815260200182600360200280838360005b83811015610d1f578082015181840152602081019050610d04565b505050509050019250505060405180910390a15050505050505050565b610d446116a1565b6000610d4e6116cd565b60008085111515610d5e57600080fd5b606485815481101515610d6d57fe5b90600052602060002090600302019050806000018160010160009054906101000a900473ffffffffffffffffffffffffffffffffffffffff168260020182600380602002604051908101604052809291908260038015610e0a576020028201916000905b82829054906101000a900461ffff1661ffff1681526020019060020190602082600101049283019260010382029150808411610dd15790505b50505050509250808054600181600116156101000203166002900480601f016020809104026020016040519081016040528092919081815260200182805460018160011615610100020316600290048015610ea65780601f10610e7b57610100808354040283529160200191610ea6565b820191906000526020600020905b815481529060010190602001808311610e8957829003601f168201915b50505050509050935093509350509193909250565b60015481565b6000600354905090565b610ed36116a1565b6000610edd6116cd565b610f25606660008673ffffffffffffffffffffffffffffffffffffffff1673ffffffffffffffffffffffffffffffffffffffff16815260200190815260200160002054610d3c565b9250925092509193909250565b60405180807f61707000000000000000000000000000000000000000000000000000000000008152506003019050604051809103902060405180807f65766d7265672e617261676f6e706d2e6574680000000000000000000000000081525060130190506040518091039020604051808360001916600019168152602001826000191660001916815260200192505050604051809103902081565b6000610fd76116cd565b60008084511115610ff057602084510290508391508082525b60008060009054906101000a900473ffffffffffffffffffffffffffffffffffffffff1673ffffffffffffffffffffffffffffffffffffffff1614806111c257506000809054906101000a900473ffffffffffffffffffffffffffffffffffffffff1673ffffffffffffffffffffffffffffffffffffffff1663fdef9106873088866000604051602001526040518563ffffffff167c0100000000000000000000000000000000000000000000000000000000028152600401808573ffffffffffffffffffffffffffffffffffffffff1673ffffffffffffffffffffffffffffffffffffffff1681526020018473ffffffffffffffffffffffffffffffffffffffff1673ffffffffffffffffffffffffffffffffffffffff168152602001836000191660001916815260200180602001828103825283818151815260200191508051906020019080838360005b8381101561115857808201518184015260208101905061113d565b50505050905090810190601f1680156111855780820380516001836020036101000a031916815260200191505b5095505050505050602060405180830381600087803b15156111a657600080fd5b6102c65a03f115156111b757600080fd5b505050604051805190505b925050509392505050565b60008060008090505b60038110156112ce57811561121357600084826003811015156111f557fe5b602002015161ffff1614151561120e57600092506112d2565b6112c1565b848160038110151561122157fe5b602002015161ffff16848260038110151561123857fe5b602002015161ffff161415156112c057838160038110151561125657fe5b602002015161ffff16858260038110151561126d57fe5b602002015161ffff1611806112ad57506001858260038110151561128d57fe5b602002015185836003811015156112a057fe5b60200201510361ffff1614155b156112bb57600092506112d2565b600191505b5b80806001019150506111d6565b8192505b505092915050565b6001800281565b6112e96116a1565b60006112f36116cd565b611304600160648054905003610d3c565b925092509250909192565b60008060648054905090506000811161132957600061132e565b600181035b91505090565b6000809054906101000a900473ffffffffffffffffffffffffffffffffffffffff1681565b6000611363611543565b73ffffffffffffffffffffffffffffffffffffffff166304bf2a7f836000604051602001526040518263ffffffff167c01000000000000000000000000000000000000000000000000000000000281526004018080602001828103825283818151815260200191508051906020019080838360005b838110156113f35780820151818401526020810190506113d8565b50505050905090810190601f1680156114205780820380516001836020036101000a031916815260200191505b5092505050602060405180830381600087803b151561143e57600080fd5b6102c65a03f1151561144f57600080fd5b505050604051805190509050919050565b600081600060038110151561147157fe5b602002015182600160038110151561148557fe5b602002015183600260038110151561149957fe5b6020020151604051808461ffff1661ffff167e010000000000000000000000000000000000000000000000000000000000000281526002018361ffff1661ffff167e010000000000000000000000000000000000000000000000000000000000000281526002018261ffff1661ffff167e01000000000000000000000000000000000000000000000000000000000000028152600201935050505060405180910390209050919050565b6000806000809054906101000a900473ffffffffffffffffffffffffffffffffffffffff1673ffffffffffffffffffffffffffffffffffffffff166342c71f1d60405180807f61707000000000000000000000000000000000000000000000000000000000008152506003019050604051809103902060405180807f65766d7265672e617261676f6e706d2e657468000000000000000000000000008152506013019050604051809103902060405180836000191660001916815260200182600019166000191681526020019250505060405180910390206000604051602001526040518263ffffffff167c0100000000000000000000000000000000000000000000000000000000028152600401808260001916600019168152602001915050602060405180830381600087803b151561167d57600080fd5b6102c65a03f1151561168e57600080fd5b5050506040518051905090508091505090565b6060604051908101604052806003905b600061ffff168152602001906001900390816116b15790505090565b602060405190810160405280600081525090565b81548183558181151161170e5760030281600302836000526020600020918201910161170d9190611862565b5b505050565b8154818355818115116117405760030281600302836000526020600020918201910161173f9190611862565b5b505050565b826003600f016010900481019282156117d15791602002820160005b838211156117a157835183826101000a81548161ffff021916908361ffff1602179055509260200192600201602081600101049283019260010302611761565b80156117cf5782816101000a81549061ffff02191690556002016020816001010492830192600103026117a1565b505b5090506117de91906118c8565b5090565b828054600181600116156101000203166002900490600052602060002090601f016020900481019282601f1061182357805160ff1916838001178555611851565b82800160010185558215611851579182015b82811115611850578251825591602001919060010190611835565b5b50905061185e91906118f9565b5090565b6118c591905b808211156118c15760008082016000611881919061191e565b6001820160006101000a81549073ffffffffffffffffffffffffffffffffffffffff02191690556002820160006118b89190611925565b50600301611868565b5090565b90565b6118f691905b808211156118f257600081816101000a81549061ffff0219169055506001016118ce565b5090565b90565b61191b91905b808211156119175760008160009055506001016118ff565b5090565b90565b5060009055565b50805460018160011615610100020316600290046000825580601f1061194b575061196a565b601f01602090049060005260206000209081019061196991906118f9565b5b505600a165627a7a723058203b67dcd592278006a1c1aad8e21f1493e2c724e106cf899156e7201b5cbbf6480029",
  "source": "pragma solidity ^0.4.15;\n\nimport \"../apps/AragonApp.sol\";\n\n\ncontract Repo is AragonApp {\n    struct Version {\n        uint16[3] semanticVersion;\n        address contractAddress;\n        bytes contentURI;\n    }\n\n    Version[] versions;\n    mapping (bytes32 => uint256) versionIdForSemantic;\n    mapping (address => uint256) latestVersionIdForContract;\n\n    bytes32 constant public CREATE_VERSION_ROLE = bytes32(1);\n\n    event NewVersion(uint256 versionId, uint16[3] semanticVersion);\n\n    /**\n    * @notice Create new version for repo\n    * @param _newSemanticVersion Semantic version for new repo version\n    * @param _contractAddress address for smart contract logic for version (if set to 0, it uses last versions' contractAddress)\n    * @param _contentURI External URI for fetching new version's content\n    */\n    function newVersion(\n        uint16[3] _newSemanticVersion,\n        address _contractAddress,\n        bytes _contentURI\n    ) auth(CREATE_VERSION_ROLE) public\n    {\n        address contractAddress = _contractAddress;\n        if (versions.length > 0) {\n            Version storage lastVersion = versions[versions.length - 1];\n            require(isValidBump(lastVersion.semanticVersion, _newSemanticVersion));\n            if (contractAddress == 0) {\n                contractAddress = lastVersion.contractAddress;\n            }\n            // Only allows smart contract change on major version bumps\n            require(lastVersion.contractAddress == contractAddress || _newSemanticVersion[0] > lastVersion.semanticVersion[0]);\n        } else {\n            versions.length += 1;\n            uint16[3] memory zeroVersion;\n            require(isValidBump(zeroVersion, _newSemanticVersion));\n        }\n\n        uint versionId = versions.push(Version(_newSemanticVersion, contractAddress, _contentURI)) - 1;\n        versionIdForSemantic[semanticVersionHash(_newSemanticVersion)] = versionId;\n        latestVersionIdForContract[contractAddress] = versionId;\n\n        NewVersion(versionId, _newSemanticVersion);\n    }\n\n    function getLatest() public view returns (uint16[3] semanticVersion, address contractAddress, bytes contentURI) {\n        return getByVersionId(versions.length - 1);\n    }\n\n    function getLatestForContractAddress(address _contractAddress) public view returns (uint16[3] semanticVersion, address contractAddress, bytes contentURI) {\n        return getByVersionId(latestVersionIdForContract[_contractAddress]);\n    }\n\n    function getBySemanticVersion(uint16[3] _semanticVersion) public view returns (uint16[3] semanticVersion, address contractAddress, bytes contentURI) {\n        return getByVersionId(versionIdForSemantic[semanticVersionHash(_semanticVersion)]);\n    }\n\n    function getByVersionId(uint _versionId) public view returns (uint16[3] semanticVersion, address contractAddress, bytes contentURI) {\n        require(_versionId > 0);\n        Version storage version = versions[_versionId];\n        return (version.semanticVersion, version.contractAddress, version.contentURI);\n    }\n\n    function getVersionsCount() public view returns (uint256) {\n        uint256 len = versions.length;\n        return len > 0 ? len - 1 : 0;\n    }\n\n    function isValidBump(uint16[3] _oldVersion, uint16[3] _newVersion) public pure returns (bool) {\n        bool hasBumped;\n        uint i = 0;\n        while (i < 3) {\n            if (hasBumped) {\n                if (_newVersion[i] != 0) {\n                    return false;\n                }\n            } else if (_newVersion[i] != _oldVersion[i]) {\n                if (_oldVersion[i] > _newVersion[i] || _newVersion[i] - _oldVersion[i] != 1) {\n                    return false;\n                }\n                hasBumped = true;\n            }\n            i++;\n        }\n        return hasBumped;\n    }\n\n    function semanticVersionHash(uint16[3] version) internal pure returns (bytes32) {\n        return keccak256(version[0], version[1], version[2]);\n    }\n}\n",
  "sourcePath": "@aragon/os/contracts/apm/Repo.sol",
  "compiler": {
    "name": "solc",
    "version": "0.4.18+commit.9cf6e910.Emscripten.clang"
  },
  "schemaVersion": "1.0.1",
  "updatedAt": "2018-03-05T17:18:03.431Z"
}