{
  "contractName": "TokenManager",
  "abi": [
    {
      "constant": true,
      "inputs": [
        {
          "name": "_holder",
          "type": "address"
        }
      ],
      "name": "tokenGrantsCount",
      "outputs": [
        {
          "name": "",
          "type": "uint256"
        }
      ],
      "payable": false,
      "stateMutability": "view",
      "type": "function"
    },
    {
      "constant": true,
      "inputs": [
        {
          "name": "_holder",
          "type": "address"
        }
      ],
      "name": "spendableBalanceOf",
      "outputs": [
        {
          "name": "",
          "type": "uint256"
        }
      ],
      "payable": false,
      "stateMutability": "view",
      "type": "function"
    },
    {
      "constant": false,
      "inputs": [
        {
          "name": "_receiver",
          "type": "address"
        },
        {
          "name": "_amount",
          "type": "uint256"
        },
        {
          "name": "_start",
          "type": "uint64"
        },
        {
          "name": "_cliff",
          "type": "uint64"
        },
        {
          "name": "_vesting",
          "type": "uint64"
        },
        {
          "name": "_revokable",
          "type": "bool"
        }
      ],
      "name": "assignVested",
      "outputs": [
        {
          "name": "",
          "type": "uint256"
        }
      ],
      "payable": false,
      "stateMutability": "nonpayable",
      "type": "function"
    },
    {
      "constant": true,
      "inputs": [
        {
          "name": "",
          "type": "uint256"
        }
      ],
      "name": "holders",
      "outputs": [
        {
          "name": "",
          "type": "address"
        }
      ],
      "payable": false,
      "stateMutability": "view",
      "type": "function"
    },
    {
      "constant": false,
      "inputs": [
        {
          "name": "_receiver",
          "type": "address"
        },
        {
          "name": "_amount",
          "type": "uint256"
        }
      ],
      "name": "mint",
      "outputs": [],
      "payable": false,
      "stateMutability": "nonpayable",
      "type": "function"
    },
    {
      "constant": true,
      "inputs": [
        {
          "name": "_from",
          "type": "address"
        },
        {
          "name": "_to",
          "type": "address"
        },
        {
          "name": "_amount",
          "type": "uint256"
        }
      ],
      "name": "onTransfer",
      "outputs": [
        {
          "name": "",
          "type": "bool"
        }
      ],
      "payable": false,
      "stateMutability": "view",
      "type": "function"
    },
    {
      "constant": true,
      "inputs": [],
      "name": "EVMSCRIPT_REGISTRY_APP_ID",
      "outputs": [
        {
          "name": "",
          "type": "bytes32"
        }
      ],
      "payable": false,
      "stateMutability": "view",
      "type": "function"
    },
    {
      "constant": true,
      "inputs": [
        {
          "name": "_holder",
          "type": "address"
        },
        {
          "name": "_time",
          "type": "uint256"
        }
      ],
      "name": "transferableBalance",
      "outputs": [
        {
          "name": "",
          "type": "uint256"
        }
      ],
      "payable": false,
      "stateMutability": "view",
      "type": "function"
    },
    {
      "constant": true,
      "inputs": [],
      "name": "appId",
      "outputs": [
        {
          "name": "",
          "type": "bytes32"
        }
      ],
      "payable": false,
      "stateMutability": "view",
      "type": "function"
    },
    {
      "constant": true,
      "inputs": [],
      "name": "ISSUE_ROLE",
      "outputs": [
        {
          "name": "",
          "type": "bytes32"
        }
      ],
      "payable": false,
      "stateMutability": "view",
      "type": "function"
    },
    {
      "constant": true,
      "inputs": [],
      "name": "getInitializationBlock",
      "outputs": [
        {
          "name": "",
          "type": "uint256"
        }
      ],
      "payable": false,
      "stateMutability": "view",
      "type": "function"
    },
    {
      "constant": true,
      "inputs": [],
      "name": "transferable",
      "outputs": [
        {
          "name": "",
          "type": "bool"
        }
      ],
      "payable": false,
      "stateMutability": "view",
      "type": "function"
    },
    {
      "constant": true,
      "inputs": [],
      "name": "EVMSCRIPT_REGISTRY_APP",
      "outputs": [
        {
          "name": "",
          "type": "bytes32"
        }
      ],
      "payable": false,
      "stateMutability": "view",
      "type": "function"
    },
    {
      "constant": false,
      "inputs": [
        {
          "name": "_holder",
          "type": "address"
        },
        {
          "name": "_amount",
          "type": "uint256"
        }
      ],
      "name": "burn",
      "outputs": [],
      "payable": false,
      "stateMutability": "nonpayable",
      "type": "function"
    },
    {
      "constant": true,
      "inputs": [
        {
          "name": "_sender",
          "type": "address"
        },
        {
          "name": "_role",
          "type": "bytes32"
        },
        {
          "name": "params",
          "type": "uint256[]"
        }
      ],
      "name": "canPerform",
      "outputs": [
        {
          "name": "",
          "type": "bool"
        }
      ],
      "payable": false,
      "stateMutability": "view",
      "type": "function"
    },
    {
      "constant": true,
      "inputs": [],
      "name": "ASSIGN_ROLE",
      "outputs": [
        {
          "name": "",
          "type": "bytes32"
        }
      ],
      "payable": false,
      "stateMutability": "view",
      "type": "function"
    },
    {
      "constant": true,
      "inputs": [],
      "name": "BURN_ROLE",
      "outputs": [
        {
          "name": "",
          "type": "bytes32"
        }
      ],
      "payable": false,
      "stateMutability": "view",
      "type": "function"
    },
    {
      "constant": false,
      "inputs": [
        {
          "name": "_receiver",
          "type": "address"
        },
        {
          "name": "_amount",
          "type": "uint256"
        }
      ],
      "name": "assign",
      "outputs": [],
      "payable": false,
      "stateMutability": "nonpayable",
      "type": "function"
    },
    {
      "constant": true,
      "inputs": [
        {
          "name": "_sender",
          "type": "address"
        },
        {
          "name": "",
          "type": "bytes"
        }
      ],
      "name": "canForward",
      "outputs": [
        {
          "name": "",
          "type": "bool"
        }
      ],
      "payable": false,
      "stateMutability": "view",
      "type": "function"
    },
    {
      "constant": true,
      "inputs": [],
      "name": "allHolders",
      "outputs": [
        {
          "name": "",
          "type": "address[]"
        }
      ],
      "payable": false,
      "stateMutability": "view",
      "type": "function"
    },
    {
      "constant": false,
      "inputs": [
        {
          "name": "_amount",
          "type": "uint256"
        }
      ],
      "name": "issue",
      "outputs": [],
      "payable": false,
      "stateMutability": "nonpayable",
      "type": "function"
    },
    {
      "constant": true,
      "inputs": [],
      "name": "kernel",
      "outputs": [
        {
          "name": "",
          "type": "address"
        }
      ],
      "payable": false,
      "stateMutability": "view",
      "type": "function"
    },
    {
      "constant": false,
      "inputs": [
        {
          "name": "_evmScript",
          "type": "bytes"
        }
      ],
      "name": "forward",
      "outputs": [],
      "payable": false,
      "stateMutability": "nonpayable",
      "type": "function"
    },
    {
      "constant": true,
      "inputs": [
        {
          "name": "_owner",
          "type": "address"
        },
        {
          "name": "_spender",
          "type": "address"
        },
        {
          "name": "_amount",
          "type": "uint256"
        }
      ],
      "name": "onApprove",
      "outputs": [
        {
          "name": "",
          "type": "bool"
        }
      ],
      "payable": false,
      "stateMutability": "view",
      "type": "function"
    },
    {
      "constant": false,
      "inputs": [
        {
          "name": "_token",
          "type": "address"
        },
        {
          "name": "_transferable",
          "type": "bool"
        },
        {
          "name": "_maxAccountTokens",
          "type": "uint256"
        },
        {
          "name": "_logHolders",
          "type": "bool"
        }
      ],
      "name": "initialize",
      "outputs": [],
      "payable": false,
      "stateMutability": "nonpayable",
      "type": "function"
    },
    {
      "constant": true,
      "inputs": [],
      "name": "MINT_ROLE",
      "outputs": [
        {
          "name": "",
          "type": "bytes32"
        }
      ],
      "payable": false,
      "stateMutability": "view",
      "type": "function"
    },
    {
      "constant": true,
      "inputs": [],
      "name": "maxAccountTokens",
      "outputs": [
        {
          "name": "",
          "type": "uint256"
        }
      ],
      "payable": false,
      "stateMutability": "view",
      "type": "function"
    },
    {
      "constant": true,
      "inputs": [],
      "name": "REVOKE_VESTINGS_ROLE",
      "outputs": [
        {
          "name": "",
          "type": "bytes32"
        }
      ],
      "payable": false,
      "stateMutability": "view",
      "type": "function"
    },
    {
      "constant": false,
      "inputs": [
        {
          "name": "_owner",
          "type": "address"
        }
      ],
      "name": "proxyPayment",
      "outputs": [
        {
          "name": "",
          "type": "bool"
        }
      ],
      "payable": true,
      "stateMutability": "payable",
      "type": "function"
    },
    {
      "constant": true,
      "inputs": [
        {
          "name": "_script",
          "type": "bytes"
        }
      ],
      "name": "getExecutor",
      "outputs": [
        {
          "name": "",
          "type": "address"
        }
      ],
      "payable": false,
      "stateMutability": "view",
      "type": "function"
    },
    {
      "constant": false,
      "inputs": [
        {
          "name": "_holder",
          "type": "address"
        },
        {
          "name": "_vestingId",
          "type": "uint256"
        }
      ],
      "name": "revokeVesting",
      "outputs": [],
      "payable": false,
      "stateMutability": "nonpayable",
      "type": "function"
    },
    {
      "constant": true,
      "inputs": [],
      "name": "token",
      "outputs": [
        {
          "name": "",
          "type": "address"
        }
      ],
      "payable": false,
      "stateMutability": "view",
      "type": "function"
    },
    {
      "constant": true,
      "inputs": [],
      "name": "logHolders",
      "outputs": [
        {
          "name": "",
          "type": "bool"
        }
      ],
      "payable": false,
      "stateMutability": "view",
      "type": "function"
    },
    {
      "constant": true,
      "inputs": [],
      "name": "isForwarder",
      "outputs": [
        {
          "name": "",
          "type": "bool"
        }
      ],
      "payable": false,
      "stateMutability": "pure",
      "type": "function"
    },
    {
      "anonymous": false,
      "inputs": [
        {
          "indexed": true,
          "name": "receiver",
          "type": "address"
        },
        {
          "indexed": false,
          "name": "vestingId",
          "type": "uint256"
        },
        {
          "indexed": false,
          "name": "amount",
          "type": "uint256"
        }
      ],
      "name": "NewVesting",
      "type": "event"
    },
    {
      "anonymous": false,
      "inputs": [
        {
          "indexed": true,
          "name": "receiver",
          "type": "address"
        },
        {
          "indexed": false,
          "name": "vestingId",
          "type": "uint256"
        }
      ],
      "name": "RevokeVesting",
      "type": "event"
    }
  ],
  "bytecode": "0x6060604052341561000f57600080fd5b612fde8061001e6000396000f3006060604052600436106101ac576000357c0100000000000000000000000000000000000000000000000000000000900463ffffffff16806302a72a4c146101b15780630f8f8b83146101fe57806321cb18cd1461024b5780632a11ced0146102e557806340c10f19146103485780634a3931491461038a57806360b1e0571461040357806372f8393c1461043457806380afdea81461048a578063856222f1146104bb5780638b3dd749146104ec57806392ff0d31146105155780639b3fdf4c146105425780639dc29fac14610573578063a1658fad146105b5578063a51d9a8e14610653578063b930908f14610684578063be760488146106b5578063c0774df3146106f7578063c80a3aa61461078b578063cc872b66146107f5578063d4aae0c414610818578063d948d4681461086d578063da682aeb146108ca578063e918c62f14610943578063e9a9c8501461099b578063ecfda432146109cc578063edc168f1146109f5578063f48c305414610a26578063f92a79ff14610a6c578063fa6799f214610b09578063fc0c546a14610b4b578063fd2c0d6814610ba0578063fd64eccb14610bcd575b600080fd5b34156101bc57600080fd5b6101e8600480803573ffffffffffffffffffffffffffffffffffffffff16906020019091905050610bfa565b6040518082815260200191505060405180910390f35b341561020957600080fd5b610235600480803573ffffffffffffffffffffffffffffffffffffffff16906020019091905050610c46565b6040518082815260200191505060405180910390f35b341561025657600080fd5b6102cf600480803573ffffffffffffffffffffffffffffffffffffffff1690602001909190803590602001909190803567ffffffffffffffff1690602001909190803567ffffffffffffffff1690602001909190803567ffffffffffffffff169060200190919080351515906020019091905050610c59565b6040518082815260200191505060405180910390f35b34156102f057600080fd5b6103066004808035906020019091905050610ef5565b604051808273ffffffffffffffffffffffffffffffffffffffff1673ffffffffffffffffffffffffffffffffffffffff16815260200191505060405180910390f35b341561035357600080fd5b610388600480803573ffffffffffffffffffffffffffffffffffffffff16906020019091908035906020019091905050610f34565b005b341561039557600080fd5b6103e9600480803573ffffffffffffffffffffffffffffffffffffffff1690602001909190803573ffffffffffffffffffffffffffffffffffffffff16906020019091908035906020019091905050610faf565b604051808215151515815260200191505060405180910390f35b341561040e57600080fd5b610416611083565b60405180826000191660001916815260200191505060405180910390f35b341561043f57600080fd5b610474600480803573ffffffffffffffffffffffffffffffffffffffff169060200190919080359060200190919050506110bc565b6040518082815260200191505060405180910390f35b341561049557600080fd5b61049d6112ef565b60405180826000191660001916815260200191505060405180910390f35b34156104c657600080fd5b6104ce6112f5565b60405180826000191660001916815260200191505060405180910390f35b34156104f757600080fd5b6104ff61132e565b6040518082815260200191505060405180910390f35b341561052057600080fd5b610528611338565b604051808215151515815260200191505060405180910390f35b341561054d57600080fd5b61055561134b565b60405180826000191660001916815260200191505060405180910390f35b341561057e57600080fd5b6105b3600480803573ffffffffffffffffffffffffffffffffffffffff169060200190919080359060200190919050506113e6565b005b34156105c057600080fd5b610639600480803573ffffffffffffffffffffffffffffffffffffffff16906020019091908035600019169060200190919080359060200190820180359060200190808060200260200160405190810160405280939291908181526020018383602002808284378201915050505050509190505061152b565b604051808215151515815260200191505060405180910390f35b341561065e57600080fd5b61066661172b565b60405180826000191660001916815260200191505060405180910390f35b341561068f57600080fd5b610697611764565b60405180826000191660001916815260200191505060405180910390f35b34156106c057600080fd5b6106f5600480803573ffffffffffffffffffffffffffffffffffffffff1690602001909190803590602001909190505061179d565b005b341561070257600080fd5b610771600480803573ffffffffffffffffffffffffffffffffffffffff1690602001909190803590602001908201803590602001908080601f01602080910402602001604051908101604052809392919081815260200183838082843782019150505050505091905050611803565b604051808215151515815260200191505060405180910390f35b341561079657600080fd5b61079e6118ef565b6040518080602001828103825283818151815260200191508051906020019060200280838360005b838110156107e15780820151818401526020810190506107c6565b505050509050019250505060405180910390f35b341561080057600080fd5b6108166004808035906020019091905050611983565b005b341561082357600080fd5b61082b6119e7565b604051808273ffffffffffffffffffffffffffffffffffffffff1673ffffffffffffffffffffffffffffffffffffffff16815260200191505060405180910390f35b341561087857600080fd5b6108c8600480803590602001908201803590602001908080601f01602080910402602001604051908101604052809392919081815260200183838082843782019150505050505091905050611a0c565b005b34156108d557600080fd5b610929600480803573ffffffffffffffffffffffffffffffffffffffff1690602001909190803573ffffffffffffffffffffffffffffffffffffffff16906020019091908035906020019091905050611af8565b604051808215151515815260200191505060405180910390f35b341561094e57600080fd5b610999600480803573ffffffffffffffffffffffffffffffffffffffff1690602001909190803515159060200190919080359060200190919080351515906020019091905050611b05565b005b34156109a657600080fd5b6109ae611c8f565b60405180826000191660001916815260200191505060405180910390f35b34156109d757600080fd5b6109df611cc8565b6040518082815260200191505060405180910390f35b3415610a0057600080fd5b610a08611cce565b60405180826000191660001916815260200191505060405180910390f35b610a52600480803573ffffffffffffffffffffffffffffffffffffffff16906020019091905050611d07565b604051808215151515815260200191505060405180910390f35b3415610a7757600080fd5b610ac7600480803590602001908201803590602001908080601f01602080910402602001604051908101604052809392919081815260200183838082843782019150505050505091905050611d6e565b604051808273ffffffffffffffffffffffffffffffffffffffff1673ffffffffffffffffffffffffffffffffffffffff16815260200191505060405180910390f35b3415610b1457600080fd5b610b49600480803573ffffffffffffffffffffffffffffffffffffffff16906020019091908035906020019091905050611e75565b005b3415610b5657600080fd5b610b5e612210565b604051808273ffffffffffffffffffffffffffffffffffffffff1673ffffffffffffffffffffffffffffffffffffffff16815260200191505060405180910390f35b3415610bab57600080fd5b610bb3612236565b604051808215151515815260200191505060405180910390f35b3415610bd857600080fd5b610be0612249565b604051808215151515815260200191505060405180910390f35b6000606760008373ffffffffffffffffffffffffffffffffffffffff1673ffffffffffffffffffffffffffffffffffffffff168152602001908152602001600020805490509050919050565b6000610c5282426110bc565b9050919050565b6000610c63612e17565b600060405180807f41535349474e5f524f4c45000000000000000000000000000000000000000000815250600b0190506040518091039020610ca58a8a612252565b610cb033838361152b565b1515610cbb57600080fd5b6032610cc68c610bfa565b101515610cd257600080fd5b8767ffffffffffffffff168967ffffffffffffffff1611158015610d0a57508667ffffffffffffffff168867ffffffffffffffff1611155b1515610d1557600080fd5b60a0604051908101604052808b81526020018a67ffffffffffffffff1681526020018967ffffffffffffffff1681526020018867ffffffffffffffff16815260200187151581525093506001606760008d73ffffffffffffffffffffffffffffffffffffffff1673ffffffffffffffffffffffffffffffffffffffff1681526020019081526020016000208054806001018281610db29190612e67565b916000526020600020906002020160008790919091506000820151816000015560208201518160010160006101000a81548167ffffffffffffffff021916908367ffffffffffffffff16021790555060408201518160010160086101000a81548167ffffffffffffffff021916908367ffffffffffffffff16021790555060608201518160010160106101000a81548167ffffffffffffffff021916908367ffffffffffffffff16021790555060808201518160010160186101000a81548160ff0219169083151502179055505050039250610e8e8b8b612282565b8a73ffffffffffffffffffffffffffffffffffffffff167f627ad26dcfe82ec79b33fda0ddd062f6fab9f4914acac8345f79090dfd86fb54848c604051808381526020018281526020019250505060405180910390a2829450505050509695505050505050565b606981815481101515610f0457fe5b90600052602060002090016000915054906101000a900473ffffffffffffffffffffffffffffffffffffffff1681565b60405180807f4d494e545f524f4c45000000000000000000000000000000000000000000000081525060090190506040518091039020610f748383612252565b610f7f33838361152b565b1515610f8a57600080fd5b610f94848461238e565b1515610f9f57600080fd5b610fa9848461247f565b50505050565b60008060003073ffffffffffffffffffffffffffffffffffffffff168673ffffffffffffffffffffffffffffffffffffffff16148061101957503073ffffffffffffffffffffffffffffffffffffffff168573ffffffffffffffffffffffffffffffffffffffff16145b915081151561106c5761102c858561238e565b9050606460149054906101000a900460ff1680156110475750805b801561105c57508361105987426110bc565b10155b151561106b576000925061107a565b5b61107585612575565b600192505b50509392505050565b60405180807f65766d7265672e617261676f6e706d2e657468000000000000000000000000008152506013019050604051809103902081565b6000806000806000806110ce88610bfa565b945060009350600092505b848310156111f057606760008973ffffffffffffffffffffffffffffffffffffffff1673ffffffffffffffffffffffffffffffffffffffff1681526020019081526020016000208381548110151561112d57fe5b906000526020600020906002020191506111be82600001548867ffffffffffffffff168460010160009054906101000a900467ffffffffffffffff1667ffffffffffffffff168560010160089054906101000a900467ffffffffffffffff1667ffffffffffffffff168660010160109054906101000a900467ffffffffffffffff1667ffffffffffffffff166126a3565b90506111d381856126ff90919063ffffffff16565b93506111e96001846126ff90919063ffffffff16565b92506110d9565b6112e284606460009054906101000a900473ffffffffffffffffffffffffffffffffffffffff1673ffffffffffffffffffffffffffffffffffffffff166370a082318b6000604051602001526040518263ffffffff167c0100000000000000000000000000000000000000000000000000000000028152600401808273ffffffffffffffffffffffffffffffffffffffff1673ffffffffffffffffffffffffffffffffffffffff168152602001915050602060405180830381600087803b15156112b957600080fd5b6102c65a03f115156112ca57600080fd5b5050506040518051905061272090919063ffffffff16565b9550505050505092915050565b60015481565b60405180807f49535355455f524f4c4500000000000000000000000000000000000000000000815250600a019050604051809103902081565b6000600354905090565b606460149054906101000a900460ff1681565b60405180807f61707000000000000000000000000000000000000000000000000000000000008152506003019050604051809103902060405180807f65766d7265672e617261676f6e706d2e6574680000000000000000000000000081525060130190506040518091039020604051808360001916600019168152602001826000191660001916815260200192505050604051809103902081565b60405180807f4255524e5f524f4c450000000000000000000000000000000000000000000000815250600901905060405180910390206114268383612252565b61143133838361152b565b151561143c57600080fd5b606460009054906101000a900473ffffffffffffffffffffffffffffffffffffffff1673ffffffffffffffffffffffffffffffffffffffff1663d3ce77fe85856000604051602001526040518363ffffffff167c0100000000000000000000000000000000000000000000000000000000028152600401808373ffffffffffffffffffffffffffffffffffffffff1673ffffffffffffffffffffffffffffffffffffffff16815260200182815260200192505050602060405180830381600087803b151561150957600080fd5b6102c65a03f1151561151a57600080fd5b505050604051805190505050505050565b6000611535612e99565b6000808451111561154e57602084510290508391508082525b60008060009054906101000a900473ffffffffffffffffffffffffffffffffffffffff1673ffffffffffffffffffffffffffffffffffffffff16148061172057506000809054906101000a900473ffffffffffffffffffffffffffffffffffffffff1673ffffffffffffffffffffffffffffffffffffffff1663fdef9106873088866000604051602001526040518563ffffffff167c0100000000000000000000000000000000000000000000000000000000028152600401808573ffffffffffffffffffffffffffffffffffffffff1673ffffffffffffffffffffffffffffffffffffffff1681526020018473ffffffffffffffffffffffffffffffffffffffff1673ffffffffffffffffffffffffffffffffffffffff168152602001836000191660001916815260200180602001828103825283818151815260200191508051906020019080838360005b838110156116b657808201518184015260208101905061169b565b50505050905090810190601f1680156116e35780820380516001836020036101000a031916815260200191505b5095505050505050602060405180830381600087803b151561170457600080fd5b6102c65a03f1151561171557600080fd5b505050604051805190505b925050509392505050565b60405180807f41535349474e5f524f4c45000000000000000000000000000000000000000000815250600b019050604051809103902081565b60405180807f4255524e5f524f4c4500000000000000000000000000000000000000000000008152506009019050604051809103902081565b60405180807f41535349474e5f524f4c45000000000000000000000000000000000000000000815250600b01905060405180910390206117dd8383612252565b6117e833838361152b565b15156117f357600080fd5b6117fd8484612282565b50505050565b600080606460009054906101000a900473ffffffffffffffffffffffffffffffffffffffff1673ffffffffffffffffffffffffffffffffffffffff166370a08231856000604051602001526040518263ffffffff167c0100000000000000000000000000000000000000000000000000000000028152600401808273ffffffffffffffffffffffffffffffffffffffff1673ffffffffffffffffffffffffffffffffffffffff168152602001915050602060405180830381600087803b15156118cb57600080fd5b6102c65a03f115156118dc57600080fd5b5050506040518051905011905092915050565b6118f7612ead565b606980548060200260200160405190810160405280929190818152602001828054801561197957602002820191906000526020600020905b8160009054906101000a900473ffffffffffffffffffffffffffffffffffffffff1673ffffffffffffffffffffffffffffffffffffffff168152602001906001019080831161192f575b5050505050905090565b60405180807f49535355455f524f4c4500000000000000000000000000000000000000000000815250600a01905060405180910390206119c28261273c565b6119cd33838361152b565b15156119d857600080fd5b6119e2308461247f565b505050565b6000809054906101000a900473ffffffffffffffffffffffffffffffffffffffff1681565b611a14612e99565b611a1c612ead565b611a263384611803565b1515611a3157600080fd5b6000604051805910611a405750595b9080825280601f01601f191660200182016040525091506001604051805910611a665750595b90808252806020026020018201604052509050606460009054906101000a900473ffffffffffffffffffffffffffffffffffffffff16816000815181101515611aab57fe5b9060200190602002019073ffffffffffffffffffffffffffffffffffffffff16908173ffffffffffffffffffffffffffffffffffffffff1681525050611af2838383612789565b50505050565b6000600190509392505050565b6000600354141515611b1657600080fd5b611b1e6129d1565b3073ffffffffffffffffffffffffffffffffffffffff168473ffffffffffffffffffffffffffffffffffffffff1663f77c47916000604051602001526040518163ffffffff167c0100000000000000000000000000000000000000000000000000000000028152600401602060405180830381600087803b1515611ba157600080fd5b6102c65a03f11515611bb257600080fd5b5050506040518051905073ffffffffffffffffffffffffffffffffffffffff16141515611bde57600080fd5b83606460006101000a81548173ffffffffffffffffffffffffffffffffffffffff021916908373ffffffffffffffffffffffffffffffffffffffff16021790555082606460146101000a81548160ff02191690831515021790555060008214611c475781611c69565b7fffffffffffffffffffffffffffffffffffffffffffffffffffffffffffffffff5b60658190555080606660006101000a81548160ff02191690831515021790555050505050565b60405180807f4d494e545f524f4c4500000000000000000000000000000000000000000000008152506009019050604051809103902081565b60655481565b60405180807f5245564f4b455f56455354494e47535f524f4c450000000000000000000000008152506014019050604051809103902081565b6000606460009054906101000a900473ffffffffffffffffffffffffffffffffffffffff1673ffffffffffffffffffffffffffffffffffffffff163373ffffffffffffffffffffffffffffffffffffffff16141515611d6557600080fd5b60009050919050565b6000611d786129f2565b73ffffffffffffffffffffffffffffffffffffffff166304bf2a7f836000604051602001526040518263ffffffff167c01000000000000000000000000000000000000000000000000000000000281526004018080602001828103825283818151815260200191508051906020019080838360005b83811015611e08578082015181840152602081019050611ded565b50505050905090810190601f168015611e355780820380516001836020036101000a031916815260200191505b5092505050602060405180830381600087803b1515611e5357600080fd5b6102c65a03f11515611e6457600080fd5b505050604051805190509050919050565b60008060405180807f5245564f4b455f56455354494e47535f524f4c4500000000000000000000000081525060140190506040518091039020611eb785612b50565b611ec233838361152b565b1515611ecd57600080fd5b606760008773ffffffffffffffffffffffffffffffffffffffff1673ffffffffffffffffffffffffffffffffffffffff16815260200190815260200160002085815481101515611f1957fe5b906000526020600020906002020193508360010160189054906101000a900460ff161515611f4657600080fd5b611fc784600001544267ffffffffffffffff168660010160009054906101000a900467ffffffffffffffff1667ffffffffffffffff168760010160089054906101000a900467ffffffffffffffff1667ffffffffffffffff168860010160109054906101000a900467ffffffffffffffff1667ffffffffffffffff166126a3565b9250606760008773ffffffffffffffffffffffffffffffffffffffff1673ffffffffffffffffffffffffffffffffffffffff1681526020019081526020016000208581548110151561201557fe5b90600052602060002090600202016000808201600090556001820160006101000a81549067ffffffffffffffff02191690556001820160086101000a81549067ffffffffffffffff02191690556001820160106101000a81549067ffffffffffffffff02191690556001820160186101000a81549060ff02191690555050606460009054906101000a900473ffffffffffffffffffffffffffffffffffffffff1673ffffffffffffffffffffffffffffffffffffffff166323b872dd8730866000604051602001526040518463ffffffff167c0100000000000000000000000000000000000000000000000000000000028152600401808473ffffffffffffffffffffffffffffffffffffffff1673ffffffffffffffffffffffffffffffffffffffff1681526020018373ffffffffffffffffffffffffffffffffffffffff1673ffffffffffffffffffffffffffffffffffffffff1681526020018281526020019350505050602060405180830381600087803b151561219457600080fd5b6102c65a03f115156121a557600080fd5b5050506040518051905015156121ba57600080fd5b8573ffffffffffffffffffffffffffffffffffffffff167fd84a4ab319cd8ac27a1baf06f5020baf3eb7692cca480d7a7fb68596befe5ca9866040518082815260200191505060405180910390a2505050505050565b606460009054906101000a900473ffffffffffffffffffffffffffffffffffffffff1681565b606660009054906101000a900460ff1681565b60006001905090565b61225a612ec1565b61227a8373ffffffffffffffffffffffffffffffffffffffff1683612b7e565b905092915050565b61228c828261238e565b151561229757600080fd5b606460009054906101000a900473ffffffffffffffffffffffffffffffffffffffff1673ffffffffffffffffffffffffffffffffffffffff1663a9059cbb83836000604051602001526040518363ffffffff167c0100000000000000000000000000000000000000000000000000000000028152600401808373ffffffffffffffffffffffffffffffffffffffff1673ffffffffffffffffffffffffffffffffffffffff16815260200182815260200192505050602060405180830381600087803b151561236457600080fd5b6102c65a03f1151561237557600080fd5b50505060405180519050151561238a57600080fd5b5050565b600060655482606460009054906101000a900473ffffffffffffffffffffffffffffffffffffffff1673ffffffffffffffffffffffffffffffffffffffff166370a08231866000604051602001526040518263ffffffff167c0100000000000000000000000000000000000000000000000000000000028152600401808273ffffffffffffffffffffffffffffffffffffffff1673ffffffffffffffffffffffffffffffffffffffff168152602001915050602060405180830381600087803b151561245957600080fd5b6102c65a03f1151561246a57600080fd5b50505060405180519050011115905092915050565b606460009054906101000a900473ffffffffffffffffffffffffffffffffffffffff1673ffffffffffffffffffffffffffffffffffffffff1663827f32c083836000604051602001526040518363ffffffff167c0100000000000000000000000000000000000000000000000000000000028152600401808373ffffffffffffffffffffffffffffffffffffffff1673ffffffffffffffffffffffffffffffffffffffff16815260200182815260200192505050602060405180830381600087803b151561254c57600080fd5b6102c65a03f1151561255d57600080fd5b505050604051805190505061257182612575565b5050565b606660009054906101000a900460ff1615806125da5750606860008273ffffffffffffffffffffffffffffffffffffffff1673ffffffffffffffffffffffffffffffffffffffff16815260200190815260200160002060009054906101000a900460ff165b156125e4576126a0565b6001606860008373ffffffffffffffffffffffffffffffffffffffff1673ffffffffffffffffffffffffffffffffffffffff16815260200190815260200160002060006101000a81548160ff021916908315150217905550606980548060010182816126509190612ed5565b9160005260206000209001600083909190916101000a81548173ffffffffffffffffffffffffffffffffffffffff021916908373ffffffffffffffffffffffffffffffffffffffff160217905550505b50565b60008082861015156126b857600091506126f5565b838610156126c8578691506126f5565b6126ed6126de886126d98989612720565b612bea565b6126e88588612720565b612c20565b905080870391505b5095945050505050565b600080828401905083811015151561271657600080fd5b8091505092915050565b600082821115151561273157600080fd5b818303905092915050565b612744612ec1565b60016040518059106127535750595b908082528060200260200182016040525090508181600081518110151561277657fe5b9060200190602002018181525050919050565b612791612e99565b600061279b612e99565b60008060008060009054906101000a900473ffffffffffffffffffffffffffffffffffffffff16915060015490506127d289611d6e565b9450600073ffffffffffffffffffffffffffffffffffffffff168573ffffffffffffffffffffffffffffffffffffffff161415151561281057600080fd5b61282588888b612c3b9092919063ffffffff16565b9350600073ffffffffffffffffffffffffffffffffffffffff1663279cea3590507c01000000000000000000000000000000000000000000000000000000000292508473ffffffffffffffffffffffffffffffffffffffff16837c01000000000000000000000000000000000000000000000000000000009004856040518263ffffffff167c010000000000000000000000000000000000000000000000000000000002815260040180828051906020019080838360005b838110156128f85780820151818401526020810190506128dd565b50505050905090810190601f1680156129255780820380516001836020036101000a031916815260200191505b509150506000604051808303818661646e5a03f492505050151561294857600080fd5b612950612d01565b95508173ffffffffffffffffffffffffffffffffffffffff166000809054906101000a900473ffffffffffffffffffffffffffffffffffffffff1673ffffffffffffffffffffffffffffffffffffffff161415156129ad57600080fd5b8060001916600154600019161415156129c557600080fd5b50505050509392505050565b60006003541415156129e257600080fd5b6129ea612d37565b600381905550565b6000806000809054906101000a900473ffffffffffffffffffffffffffffffffffffffff1673ffffffffffffffffffffffffffffffffffffffff166342c71f1d60405180807f61707000000000000000000000000000000000000000000000000000000000008152506003019050604051809103902060405180807f65766d7265672e617261676f6e706d2e657468000000000000000000000000008152506013019050604051809103902060405180836000191660001916815260200182600019166000191681526020019250505060405180910390206000604051602001526040518263ffffffff167c0100000000000000000000000000000000000000000000000000000000028152600401808260001916600019168152602001915050602060405180830381600087803b1515612b2c57600080fd5b6102c65a03f11515612b3d57600080fd5b5050506040518051905090508091505090565b612b58612ec1565b612b778273ffffffffffffffffffffffffffffffffffffffff1661273c565b9050919050565b612b86612ec1565b6002604051805910612b955750595b9080825280602002602001820160405250905082816000815181101515612bb857fe5b906020019060200201818152505081816001815181101515612bd657fe5b906020019060200201818152505092915050565b60008082840290506000841480612c0b5750828482811515612c0857fe5b04145b1515612c1657600080fd5b8091505092915050565b6000808284811515612c2e57fe5b0490508091505092915050565b612c43612e99565b60008060008060609350612c5688612d3f565b60200284019250612c6687612d3f565b60200283019150612c7686612d7b565b6020028201905080604051805910612c8b5750595b9080825280601f01601f19166020018201604052509450836020860152826040860152816060860152612cc985612cc18a612d89565b868b51612d93565b612cde85612cd689612d89565b858a51612d93565b612cf685612ceb88612db2565b8460208a5102612d93565b505050509392505050565b612d09612e99565b3d8060008114612d2e576040519250602082018301604052602082036020843e612d2f565b5b505080905090565b600043905090565b60008060208351811515612d4f57fe5b0611612d5c576000612d5f565b60015b60ff1660208351811515612d6f57fe5b04600101019050919050565b600081516001019050919050565b6000819050919050565b60008260208601019050612dab818560208501612dbc565b5050505050565b6000819050919050565b6000806000808593508692508491505b602082101515612df15783518352602083019250602084019350602082039150612dcc565b6001826020036101000a0390508019845116818451168181178552505050505050505050565b60a06040519081016040528060008152602001600067ffffffffffffffff168152602001600067ffffffffffffffff168152602001600067ffffffffffffffff1681526020016000151581525090565b815481835581811511612e9457600202816002028360005260206000209182019101612e939190612f01565b5b505050565b602060405190810160405280600081525090565b602060405190810160405280600081525090565b602060405190810160405280600081525090565b815481835581811511612efc57818360005260206000209182019101612efb9190612f8d565b5b505050565b612f8a91905b80821115612f86576000808201600090556001820160006101000a81549067ffffffffffffffff02191690556001820160086101000a81549067ffffffffffffffff02191690556001820160106101000a81549067ffffffffffffffff02191690556001820160186101000a81549060ff021916905550600201612f07565b5090565b90565b612faf91905b80821115612fab576000816000905550600101612f93565b5090565b905600a165627a7a723058204d01cab922f0b08c8f4b7b5c3cdfcd520a85650000bb90d449a99eafac8d969b0029",
  "source": "pragma solidity 0.4.18;\n\nimport \"@aragon/os/contracts/apps/AragonApp.sol\";\n\nimport \"@aragon/os/contracts/lib/minime/ITokenController.sol\";\nimport \"@aragon/os/contracts/lib/minime/MiniMeToken.sol\";\nimport \"@aragon/os/contracts/common/IForwarder.sol\";\n\nimport \"@aragon/os/contracts/lib/zeppelin/token/ERC20.sol\";\nimport \"@aragon/os/contracts/lib/zeppelin/math/SafeMath.sol\";\n\nimport \"@aragon/os/contracts/lib/misc/Migrations.sol\";\n\n\ncontract TokenManager is ITokenController, AragonApp { // ,IForwarder makes coverage crash (removes pure and interface doesnt match)\n    using SafeMath for uint256;\n\n    MiniMeToken public token;\n    bool public transferable;\n    uint256 public maxAccountTokens;\n    bool public logHolders;\n\n    bytes32 constant public MINT_ROLE = keccak256(\"MINT_ROLE\");\n    bytes32 constant public ISSUE_ROLE = keccak256(\"ISSUE_ROLE\");\n    bytes32 constant public ASSIGN_ROLE = keccak256(\"ASSIGN_ROLE\");\n    bytes32 constant public REVOKE_VESTINGS_ROLE = keccak256(\"REVOKE_VESTINGS_ROLE\");\n    bytes32 constant public BURN_ROLE = keccak256(\"BURN_ROLE\");\n\n    uint256 constant MAX_VESTINGS_PER_ADDRESS = 50;\n    struct TokenVesting {\n        uint256 amount;\n        uint64 start;\n        uint64 cliff;\n        uint64 vesting;\n        bool revokable;\n    }\n\n    mapping (address => TokenVesting[]) vestings;\n    mapping (address => bool) everHeld;\n\n    // Returns all holders the token had (since managing it).\n    // Some of them can have a balance of 0.\n    address[] public holders;\n\n\n    // Other token specific events can be watched on the token address directly (avoid duplication)\n    event NewVesting(address indexed receiver, uint256 vestingId, uint256 amount);\n    event RevokeVesting(address indexed receiver, uint256 vestingId);\n\n    /**\n    * @notice Initializes TokenManager\n    * @param _token MiniMeToken address for the managed token (token manager must be the token controller)\n    * @param _transferable whether the token can be transferred by holders\n    * @param _maxAccountTokens maximum amount of tokens an account can have (0 for infinite tokens)\n    * @param _logHolders Whether the token manager will store all token holders (makes token transfers more expensive!)\n    */\n    function initialize(\n        MiniMeToken _token,\n        bool _transferable,\n        uint256 _maxAccountTokens,\n        bool _logHolders\n        )\n        onlyInit external\n    {\n\n        initialized();\n\n        require(_token.controller() == address(this));\n\n        token = _token;\n        transferable = _transferable;\n        maxAccountTokens = _maxAccountTokens == 0 ? uint256(-1) : _maxAccountTokens;\n        logHolders = _logHolders;\n    }\n\n    /**\n    * @notice Mint `_amount` of tokens for `_receiver`\n    * @param _receiver The address receiving the tokens\n    * @param _amount Number of tokens minted\n    */\n    function mint(address _receiver, uint256 _amount) authP(MINT_ROLE, arr(_receiver, _amount)) external {\n        require(isBalanceIncreaseAllowed(_receiver, _amount));\n        _mint(_receiver, _amount);\n    }\n\n    /**\n    * @notice Mint `_amount` of tokens for the token manager\n    * @param _amount Number of tokens minted\n    */\n    function issue(uint256 _amount) authP(ISSUE_ROLE, arr(_amount)) external {\n        _mint(address(this), _amount);\n    }\n\n    /**\n    * @notice Assign `_amount` of tokens for `_receiver` from Token Manager's holdings\n    * @param _receiver The address receiving the tokens\n    * @param _amount Number of tokens transfered\n    */\n    function assign(address _receiver, uint256 _amount) authP(ASSIGN_ROLE, arr(_receiver, _amount)) external {\n        _assign(_receiver, _amount);\n    }\n\n    /**\n    * @notice Burn `_amount` tokens from `_holder`\n    * @param _holder Holder being removed tokens\n    * @param _amount Number of tokens being burned\n    */\n    function burn(address _holder, uint256 _amount) authP(BURN_ROLE, arr(_holder, _amount)) external {\n        // minime.destroyTokens() never returns false, only reverts on failure\n        token.destroyTokens(_holder, _amount);\n    }\n\n    /**\n    * @notice Assign `_amount` of tokens for `_receiver` from Token Manager's holdings with a `_revokable` revokable vesting starting `_start`, cliff on `_cliff` (first portion of tokens transferable) and vesting on `_vesting` (all tokens transferable)\n    * @param _receiver The address receiving the tokens\n    * @param _amount Number of tokens transfered\n    * @param _start Date the vesting calculations start\n    * @param _cliff Date when the initial proportional amount of tokens are transferable\n    * @param _vesting Date when all tokens are transferable\n    * @param _revokable Whether the vesting can be revoked by the token manager\n    */\n    function assignVested(\n        address _receiver,\n        uint256 _amount,\n        uint64 _start,\n        uint64 _cliff,\n        uint64 _vesting,\n        bool _revokable\n    ) authP(ASSIGN_ROLE, arr(_receiver, _amount)) external returns (uint256)\n    {\n        require(tokenGrantsCount(_receiver) < MAX_VESTINGS_PER_ADDRESS);\n\n        require(_start <= _cliff && _cliff <= _vesting);\n\n        TokenVesting memory tokenVesting = TokenVesting(\n            _amount,\n            _start,\n            _cliff,\n            _vesting,\n            _revokable\n        );\n        uint256 vestingId = vestings[_receiver].push(tokenVesting) - 1;\n\n        _assign(_receiver, _amount);\n\n        NewVesting(_receiver, vestingId, _amount);\n\n        return vestingId;\n    }\n\n    /**\n    * @notice Revoke vesting `_vestingId` from `_holder` returning unvested tokens to Token Manager\n    * @param _holder Address getting vesting revoked\n    * @param _vestingId Numeric id of the vesting\n    */\n    function revokeVesting(address _holder, uint256 _vestingId) authP(REVOKE_VESTINGS_ROLE, arr(_holder)) external {\n        TokenVesting storage v = vestings[_holder][_vestingId];\n        require(v.revokable);\n\n        uint nonVested = calculateNonVestedTokens(\n            v.amount,\n            uint64(now),\n            v.start,\n            v.cliff,\n            v.vesting\n        );\n\n        // To make vestingIds immutable over time, we just zero out the revoked vesting\n        delete vestings[_holder][_vestingId];\n\n        // transferFrom always works as controller\n        // onTransfer hook always allows if transfering to token controller\n        require(token.transferFrom(_holder, address(this), nonVested));\n\n        RevokeVesting(_holder, _vestingId);\n    }\n\n    /**\n    * @dev IForwarder interface conformance. Forwards any token holder action.\n    * @param _evmScript script being executed\n    */\n    function forward(bytes _evmScript) public {\n        require(canForward(msg.sender, _evmScript));\n        bytes memory input = new bytes(0); // TODO: Consider input for this\n        address[] memory blacklist = new address[](1);\n        blacklist[0] = address(token);\n        runScript(_evmScript, input, blacklist);\n    }\n\n    function isForwarder() public pure returns (bool) {\n        return true;\n    }\n\n    function canForward(address _sender, bytes) public view returns (bool) {\n        return token.balanceOf(_sender) > 0;\n    }\n\n    function allHolders() public view returns (address[]) { return holders; }\n\n    /*\n    * @dev Notifies the controller about a token transfer allowing the\n    *      controller to decide whether to allow it or react if desired\n    * @param _from The origin of the transfer\n    * @param _to The destination of the transfer\n    * @param _amount The amount of the transfer\n    * @return False if the controller does not authorize the transfer\n    */\n    function onTransfer(address _from, address _to, uint _amount) public view returns (bool) {\n        bool includesTokenManager = _from == address(this) || _to == address(this);\n\n        if (!includesTokenManager) {\n            bool toCanReceive = isBalanceIncreaseAllowed(_to, _amount);\n            if (!(transferable && toCanReceive && (transferableBalance(_from, now) >= _amount))) {\n                return false;\n            }\n        }\n\n        _logHolderIfNeeded(_to);\n\n        return true;\n    }\n\n    function isBalanceIncreaseAllowed(address _receiver, uint _inc) internal returns (bool) {\n        return token.balanceOf(_receiver) + _inc <= maxAccountTokens;\n    }\n\n    function tokenGrantsCount(address _holder) public view returns (uint256) {\n        return vestings[_holder].length;\n    }\n\n    function spendableBalanceOf(address _holder) public view returns (uint256) {\n        return transferableBalance(_holder, now);\n    }\n\n    function transferableBalance(address _holder, uint256 _time) public view returns (uint256) {\n        uint256 vs = tokenGrantsCount(_holder);\n        uint256 totalNonTransferable = 0;\n\n        for (uint256 i = 0; i < vs; i = i.add(1)) {\n            TokenVesting storage v = vestings[_holder][i];\n            uint nonTransferable = calculateNonVestedTokens(\n                v.amount,\n                uint64(_time),\n                v.start,\n                v.cliff,\n                v.vesting\n            );\n            totalNonTransferable = totalNonTransferable.add(nonTransferable);\n        }\n\n        return token.balanceOf(_holder).sub(totalNonTransferable);\n    }\n\n    /**\n    * @dev Calculate amount of non-vested tokens at a specifc time.\n    * @param tokens uint256 The amount of tokens grantted.\n    * @param time uint64 The time to be checked\n    * @param start uint64 A time representing the begining of the grant\n    * @param cliff uint64 The cliff period.\n    * @param vesting uint64 The vesting period.\n    * @return An uint256 representing the amount of non-vested tokensof a specif grant.\n    *  transferableTokens\n    *   |                         _/--------   vestedTokens rect\n    *   |                       _/\n    *   |                     _/\n    *   |                   _/\n    *   |                 _/\n    *   |                /\n    *   |              .|\n    *   |            .  |\n    *   |          .    |\n    *   |        .      |\n    *   |      .        |\n    *   |    .          |\n    *   +===+===========+---------+----------> time\n    *      Start       Clift    Vesting\n    */\n    function calculateNonVestedTokens(\n        uint256 tokens,\n        uint256 time,\n        uint256 start,\n        uint256 cliff,\n        uint256 vesting) private view returns (uint256)\n    {\n        // Shortcuts for before cliff and after vesting cases.\n        if (time >= vesting) {\n            return 0;\n        }\n        if (time < cliff) {\n            return tokens;\n        }\n\n        // Interpolate all vested tokens.\n        // As before cliff the shortcut returns 0, we can use just calculate a value\n        // in the vesting rect (as shown in above's figure)\n\n        // vestedTokens = tokens * (time - start) / (vesting - start)\n        uint256 vestedTokens = SafeMath.div(\n            SafeMath.mul(\n                tokens,\n                SafeMath.sub(\n                    time,\n                    start\n                )\n            ),\n            SafeMath.sub(\n                vesting,\n                start\n            )\n        );\n\n        return tokens - vestedTokens;\n    }\n\n    function _assign(address _receiver, uint256 _amount) internal {\n        require(isBalanceIncreaseAllowed(_receiver, _amount));\n        require(token.transfer(_receiver, _amount));\n    }\n\n    function _mint(address _receiver, uint256 _amount) internal {\n        token.generateTokens(_receiver, _amount); // minime.generateTokens() never returns false\n        _logHolderIfNeeded(_receiver);\n    }\n\n    function _logHolderIfNeeded(address _newHolder) internal {\n        // costs 3 sstores (2 full (20k fas) and 1 increase (5k fas)), but makes frontend easier\n        if (!logHolders || everHeld[_newHolder]) {\n            return;\n        }\n\n        everHeld[_newHolder] = true;\n        holders.push(_newHolder);\n    }\n\n    /**\n    * @notice Called when `_owner` sends ether to the MiniMe Token contract\n    * @param _owner The address that sent the ether to create tokens\n    * @return True if the ether is accepted, false for it to throw\n    */\n    function proxyPayment(address _owner) payable public returns (bool) {\n        // Even though it is tested, solidity-coverage doesnt get it because\n        // MiniMeToken is not instrumented and entire tx is reverted\n        require(msg.sender == address(token));\n        _owner;\n        return false;\n    }\n\n    /**\n    * @dev Notifies the controller about an approval allowing the\n    * controller to react if desired\n    * @param _owner The address that calls `approve()`\n    * @param _spender The spender in the `approve()` call\n    * @param _amount The amount in the `approve()` call\n    * @return False if the controller does not authorize the approval\n    */\n    function onApprove(address _owner, address _spender, uint _amount) public view returns (bool) {\n        _owner;\n        _spender;\n        _amount;\n        return true;\n    }\n}\n",
  "sourcePath": "@aragon/apps-token-manager/contracts/TokenManager.sol",
  "compiler": {
    "name": "solc",
    "version": "0.4.18+commit.9cf6e910.Emscripten.clang"
  },
  "schemaVersion": "1.0.1",
  "updatedAt": "2018-02-26T13:03:38.127Z"
}