{
  "contractName": "Voting",
  "abi": [
    {
      "constant": false,
      "inputs": [
        {
          "name": "_minAcceptQuorumPct",
          "type": "uint256"
        }
      ],
      "name": "changeMinAcceptQuorumPct",
      "outputs": [],
      "payable": false,
      "stateMutability": "nonpayable",
      "type": "function"
    },
    {
      "constant": true,
      "inputs": [],
      "name": "MODIFY_QUORUM_ROLE",
      "outputs": [
        {
          "name": "",
          "type": "bytes32"
        }
      ],
      "payable": false,
      "stateMutability": "view",
      "type": "function"
    },
    {
      "constant": false,
      "inputs": [
        {
          "name": "_token",
          "type": "address"
        },
        {
          "name": "_supportRequiredPct",
          "type": "uint256"
        },
        {
          "name": "_minAcceptQuorumPct",
          "type": "uint256"
        },
        {
          "name": "_voteTime",
          "type": "uint64"
        }
      ],
      "name": "initialize",
      "outputs": [],
      "payable": false,
      "stateMutability": "nonpayable",
      "type": "function"
    },
    {
      "constant": true,
      "inputs": [
        {
          "name": "_voteId",
          "type": "uint256"
        },
        {
          "name": "_voter",
          "type": "address"
        }
      ],
      "name": "getVoterState",
      "outputs": [
        {
          "name": "",
          "type": "uint8"
        }
      ],
      "payable": false,
      "stateMutability": "view",
      "type": "function"
    },
    {
      "constant": true,
      "inputs": [
        {
          "name": "_voteId",
          "type": "uint256"
        }
      ],
      "name": "getVote",
      "outputs": [
        {
          "name": "open",
          "type": "bool"
        },
        {
          "name": "executed",
          "type": "bool"
        },
        {
          "name": "creator",
          "type": "address"
        },
        {
          "name": "startDate",
          "type": "uint64"
        },
        {
          "name": "snapshotBlock",
          "type": "uint256"
        },
        {
          "name": "minAcceptQuorum",
          "type": "uint256"
        },
        {
          "name": "yea",
          "type": "uint256"
        },
        {
          "name": "nay",
          "type": "uint256"
        },
        {
          "name": "totalVoters",
          "type": "uint256"
        },
        {
          "name": "script",
          "type": "bytes"
        }
      ],
      "payable": false,
      "stateMutability": "view",
      "type": "function"
    },
    {
      "constant": true,
      "inputs": [],
      "name": "EVMSCRIPT_REGISTRY_APP_ID",
      "outputs": [
        {
          "name": "",
          "type": "bytes32"
        }
      ],
      "payable": false,
      "stateMutability": "view",
      "type": "function"
    },
    {
      "constant": true,
      "inputs": [],
      "name": "appId",
      "outputs": [
        {
          "name": "",
          "type": "bytes32"
        }
      ],
      "payable": false,
      "stateMutability": "view",
      "type": "function"
    },
    {
      "constant": true,
      "inputs": [],
      "name": "getInitializationBlock",
      "outputs": [
        {
          "name": "",
          "type": "uint256"
        }
      ],
      "payable": false,
      "stateMutability": "view",
      "type": "function"
    },
    {
      "constant": true,
      "inputs": [],
      "name": "EVMSCRIPT_REGISTRY_APP",
      "outputs": [
        {
          "name": "",
          "type": "bytes32"
        }
      ],
      "payable": false,
      "stateMutability": "view",
      "type": "function"
    },
    {
      "constant": true,
      "inputs": [
        {
          "name": "_sender",
          "type": "address"
        },
        {
          "name": "_role",
          "type": "bytes32"
        },
        {
          "name": "params",
          "type": "uint256[]"
        }
      ],
      "name": "canPerform",
      "outputs": [
        {
          "name": "",
          "type": "bool"
        }
      ],
      "payable": false,
      "stateMutability": "view",
      "type": "function"
    },
    {
      "constant": true,
      "inputs": [],
      "name": "voteTime",
      "outputs": [
        {
          "name": "",
          "type": "uint64"
        }
      ],
      "payable": false,
      "stateMutability": "view",
      "type": "function"
    },
    {
      "constant": true,
      "inputs": [],
      "name": "CREATE_VOTES_ROLE",
      "outputs": [
        {
          "name": "",
          "type": "bytes32"
        }
      ],
      "payable": false,
      "stateMutability": "view",
      "type": "function"
    },
    {
      "constant": true,
      "inputs": [
        {
          "name": "_voteId",
          "type": "uint256"
        }
      ],
      "name": "getVoteMetadata",
      "outputs": [
        {
          "name": "",
          "type": "string"
        }
      ],
      "payable": false,
      "stateMutability": "view",
      "type": "function"
    },
    {
      "constant": true,
      "inputs": [
        {
          "name": "_sender",
          "type": "address"
        },
        {
          "name": "_evmCallScript",
          "type": "bytes"
        }
      ],
      "name": "canForward",
      "outputs": [
        {
          "name": "",
          "type": "bool"
        }
      ],
      "payable": false,
      "stateMutability": "view",
      "type": "function"
    },
    {
      "constant": true,
      "inputs": [
        {
          "name": "_voteId",
          "type": "uint256"
        }
      ],
      "name": "canExecute",
      "outputs": [
        {
          "name": "",
          "type": "bool"
        }
      ],
      "payable": false,
      "stateMutability": "view",
      "type": "function"
    },
    {
      "constant": true,
      "inputs": [
        {
          "name": "_voteId",
          "type": "uint256"
        },
        {
          "name": "_voter",
          "type": "address"
        }
      ],
      "name": "canVote",
      "outputs": [
        {
          "name": "",
          "type": "bool"
        }
      ],
      "payable": false,
      "stateMutability": "view",
      "type": "function"
    },
    {
      "constant": true,
      "inputs": [],
      "name": "kernel",
      "outputs": [
        {
          "name": "",
          "type": "address"
        }
      ],
      "payable": false,
      "stateMutability": "view",
      "type": "function"
    },
    {
      "constant": false,
      "inputs": [
        {
          "name": "_executionScript",
          "type": "bytes"
        },
        {
          "name": "_metadata",
          "type": "string"
        }
      ],
      "name": "newVote",
      "outputs": [
        {
          "name": "voteId",
          "type": "uint256"
        }
      ],
      "payable": false,
      "stateMutability": "nonpayable",
      "type": "function"
    },
    {
      "constant": false,
      "inputs": [
        {
          "name": "_evmScript",
          "type": "bytes"
        }
      ],
      "name": "forward",
      "outputs": [],
      "payable": false,
      "stateMutability": "nonpayable",
      "type": "function"
    },
    {
      "constant": true,
      "inputs": [],
      "name": "minAcceptQuorumPct",
      "outputs": [
        {
          "name": "",
          "type": "uint256"
        }
      ],
      "payable": false,
      "stateMutability": "view",
      "type": "function"
    },
    {
      "constant": false,
      "inputs": [
        {
          "name": "_voteId",
          "type": "uint256"
        },
        {
          "name": "_supports",
          "type": "bool"
        },
        {
          "name": "_executesIfDecided",
          "type": "bool"
        }
      ],
      "name": "vote",
      "outputs": [],
      "payable": false,
      "stateMutability": "nonpayable",
      "type": "function"
    },
    {
      "constant": true,
      "inputs": [
        {
          "name": "_script",
          "type": "bytes"
        }
      ],
      "name": "getExecutor",
      "outputs": [
        {
          "name": "",
          "type": "address"
        }
      ],
      "payable": false,
      "stateMutability": "view",
      "type": "function"
    },
    {
      "constant": false,
      "inputs": [
        {
          "name": "_voteId",
          "type": "uint256"
        }
      ],
      "name": "executeVote",
      "outputs": [],
      "payable": false,
      "stateMutability": "nonpayable",
      "type": "function"
    },
    {
      "constant": true,
      "inputs": [],
      "name": "supportRequiredPct",
      "outputs": [
        {
          "name": "",
          "type": "uint256"
        }
      ],
      "payable": false,
      "stateMutability": "view",
      "type": "function"
    },
    {
      "constant": true,
      "inputs": [],
      "name": "token",
      "outputs": [
        {
          "name": "",
          "type": "address"
        }
      ],
      "payable": false,
      "stateMutability": "view",
      "type": "function"
    },
    {
      "constant": true,
      "inputs": [],
      "name": "PCT_BASE",
      "outputs": [
        {
          "name": "",
          "type": "uint256"
        }
      ],
      "payable": false,
      "stateMutability": "view",
      "type": "function"
    },
    {
      "constant": true,
      "inputs": [],
      "name": "isForwarder",
      "outputs": [
        {
          "name": "",
          "type": "bool"
        }
      ],
      "payable": false,
      "stateMutability": "pure",
      "type": "function"
    },
    {
      "anonymous": false,
      "inputs": [
        {
          "indexed": true,
          "name": "voteId",
          "type": "uint256"
        }
      ],
      "name": "StartVote",
      "type": "event"
    },
    {
      "anonymous": false,
      "inputs": [
        {
          "indexed": true,
          "name": "voteId",
          "type": "uint256"
        },
        {
          "indexed": true,
          "name": "voter",
          "type": "address"
        },
        {
          "indexed": false,
          "name": "supports",
          "type": "bool"
        },
        {
          "indexed": false,
          "name": "stake",
          "type": "uint256"
        }
      ],
      "name": "CastVote",
      "type": "event"
    },
    {
      "anonymous": false,
      "inputs": [
        {
          "indexed": true,
          "name": "voteId",
          "type": "uint256"
        }
      ],
      "name": "ExecuteVote",
      "type": "event"
    },
    {
      "anonymous": false,
      "inputs": [
        {
          "indexed": false,
          "name": "minAcceptQuorumPct",
          "type": "uint256"
        }
      ],
      "name": "ChangeMinQuorum",
      "type": "event"
    }
  ],
  "bytecode": "0x6060604052341561000f57600080fd5b6128788061001e6000396000f30060606040526004361061015f576000357c0100000000000000000000000000000000000000000000000000000000900463ffffffff168063036e4220146101645780633c624c75146101875780633ee31e70146101b85780634b12311c146102165780635a55c1f01461027a57806360b1e0571461039d57806380afdea8146103ce5780638b3dd749146103ff5780639b3fdf4c14610428578063a1658fad14610459578063bcf93dd6146104f7578063be2c64d414610534578063c05218c614610565578063c0774df314610601578063cc63604a14610695578063cdb2867b146106d0578063d4aae0c41461072a578063d5db2c801461077f578063d948d468146107d5578063dc474b1a14610832578063df133bca1461085b578063f92a79ff14610894578063f98a4eca14610931578063fad167ab14610954578063fc0c546a1461097d578063fc157cb4146109d2578063fd64eccb146109fb575b600080fd5b341561016f57600080fd5b6101856004808035906020019091905050610a28565b005b341561019257600080fd5b61019a610ae3565b60405180826000191660001916815260200191505060405180910390f35b34156101c357600080fd5b610214600480803573ffffffffffffffffffffffffffffffffffffffff1690602001909190803590602001909190803590602001909190803567ffffffffffffffff16906020019091905050610b1c565b005b341561022157600080fd5b610256600480803590602001909190803573ffffffffffffffffffffffffffffffffffffffff16906020019091905050610c01565b6040518082600281111561026657fe5b60ff16815260200191505060405180910390f35b341561028557600080fd5b61029b6004808035906020019091905050610c76565b604051808b1515151581526020018a1515151581526020018973ffffffffffffffffffffffffffffffffffffffff1673ffffffffffffffffffffffffffffffffffffffff1681526020018867ffffffffffffffff1667ffffffffffffffff16815260200187815260200186815260200185815260200184815260200183815260200180602001828103825283818151815260200191508051906020019080838360005b8381101561035957808201518184015260208101905061033e565b50505050905090810190601f1680156103865780820380516001836020036101000a031916815260200191505b509b50505050505050505050505060405180910390f35b34156103a857600080fd5b6103b0610dde565b60405180826000191660001916815260200191505060405180910390f35b34156103d957600080fd5b6103e1610e17565b60405180826000191660001916815260200191505060405180910390f35b341561040a57600080fd5b610412610e1d565b6040518082815260200191505060405180910390f35b341561043357600080fd5b61043b610e27565b60405180826000191660001916815260200191505060405180910390f35b341561046457600080fd5b6104dd600480803573ffffffffffffffffffffffffffffffffffffffff169060200190919080356000191690602001909190803590602001908201803590602001908080602002602001604051908101604052809392919081815260200183836020028082843782019150505050505091905050610ec2565b604051808215151515815260200191505060405180910390f35b341561050257600080fd5b61050a6110c2565b604051808267ffffffffffffffff1667ffffffffffffffff16815260200191505060405180910390f35b341561053f57600080fd5b6105476110dc565b60405180826000191660001916815260200191505060405180910390f35b341561057057600080fd5b6105866004808035906020019091905050611115565b6040518080602001828103825283818151815260200191508051906020019080838360005b838110156105c65780820151818401526020810190506105ab565b50505050905090810190601f1680156105f35780820380516001836020036101000a031916815260200191505b509250505060405180910390f35b341561060c57600080fd5b61067b600480803573ffffffffffffffffffffffffffffffffffffffff1690602001909190803590602001908201803590602001908080601f016020809104026020016040519081016040528093929190818152602001838380828437820191505050505050919050506111dd565b604051808215151515815260200191505060405180910390f35b34156106a057600080fd5b6106b6600480803590602001909190505061122e565b604051808215151515815260200191505060405180910390f35b34156106db57600080fd5b610710600480803590602001909190803573ffffffffffffffffffffffffffffffffffffffff1690602001909190505061131b565b604051808215151515815260200191505060405180910390f35b341561073557600080fd5b61073d611446565b604051808273ffffffffffffffffffffffffffffffffffffffff1673ffffffffffffffffffffffffffffffffffffffff16815260200191505060405180910390f35b341561078a57600080fd5b6107bf60048080359060200190820180359060200191909192908035906020019082018035906020019190919290505061146b565b6040518082815260200191505060405180910390f35b34156107e057600080fd5b610830600480803590602001908201803590602001908080601f01602080910402602001604051908101604052809392919081815260200183838082843782019150505050505091905050611551565b005b341561083d57600080fd5b610845611584565b6040518082815260200191505060405180910390f35b341561086657600080fd5b61089260048080359060200190919080351515906020019091908035151590602001909190505061158a565b005b341561089f57600080fd5b6108ef600480803590602001908201803590602001908080601f016020809104026020016040519081016040528093929190818152602001838380828437820191505050505050919050506115b0565b604051808273ffffffffffffffffffffffffffffffffffffffff1673ffffffffffffffffffffffffffffffffffffffff16815260200191505060405180910390f35b341561093c57600080fd5b61095260048080359060200190919050506116b7565b005b341561095f57600080fd5b6109676116d7565b6040518082815260200191505060405180910390f35b341561098857600080fd5b6109906116dd565b604051808273ffffffffffffffffffffffffffffffffffffffff1673ffffffffffffffffffffffffffffffffffffffff16815260200191505060405180910390f35b34156109dd57600080fd5b6109e5611703565b6040518082815260200191505060405180910390f35b3415610a0657600080fd5b610a0e61170f565b604051808215151515815260200191505060405180910390f35b60405180807f4d4f444946595f51554f52554d5f524f4c45000000000000000000000000000081525060120190506040518091039020610a6a82606654611718565b610a75338383610ec2565b1515610a8057600080fd5b600083111515610a8f57600080fd5b8260655410151515610aa057600080fd5b826066819055507f28bb663e324957c72fa46db87d8afa7591b1c293b2c7ad06e3574eace993ff6d836040518082815260200191505060405180910390a1505050565b60405180807f4d4f444946595f51554f52554d5f524f4c4500000000000000000000000000008152506012019050604051809103902081565b6000600354141515610b2d57600080fd5b610b35611784565b600082111515610b4457600080fd5b670de0b6b3a76400008311151515610b5b57600080fd5b818310151515610b6a57600080fd5b83606460006101000a81548173ffffffffffffffffffffffffffffffffffffffff021916908373ffffffffffffffffffffffffffffffffffffffff160217905550826065819055508160668190555080606760006101000a81548167ffffffffffffffff021916908367ffffffffffffffff1602179055506001606881818054905001915081610bfa919061256c565b5050505050565b6000606883815481101515610c1257fe5b90600052602060002090600a020160090160008373ffffffffffffffffffffffffffffffffffffffff1673ffffffffffffffffffffffffffffffffffffffff16815260200190815260200160002060009054906101000a900460ff16905092915050565b6000806000806000806000806000610c8c61259e565b600060688c815481101515610c9d57fe5b90600052602060002090600a02019050610cb6816117a5565b9a508060080160009054906101000a900460ff1699508060000160009054906101000a900473ffffffffffffffffffffffffffffffffffffffff1698508060000160149054906101000a900467ffffffffffffffff1697508060010154965080600201549550806003015494508060040154935080600501549250806007018054600181600116156101000203166002900480601f016020809104026020016040519081016040528092919081815260200182805460018160011615610100020316600290048015610dc95780601f10610d9e57610100808354040283529160200191610dc9565b820191906000526020600020905b815481529060010190602001808311610dac57829003601f168201915b50505050509150509193959799509193959799565b60405180807f65766d7265672e617261676f6e706d2e657468000000000000000000000000008152506013019050604051809103902081565b60015481565b6000600354905090565b60405180807f61707000000000000000000000000000000000000000000000000000000000008152506003019050604051809103902060405180807f65766d7265672e617261676f6e706d2e6574680000000000000000000000000081525060130190506040518091039020604051808360001916600019168152602001826000191660001916815260200192505050604051809103902081565b6000610ecc61259e565b60008084511115610ee557602084510290508391508082525b60008060009054906101000a900473ffffffffffffffffffffffffffffffffffffffff1673ffffffffffffffffffffffffffffffffffffffff1614806110b757506000809054906101000a900473ffffffffffffffffffffffffffffffffffffffff1673ffffffffffffffffffffffffffffffffffffffff1663fdef9106873088866000604051602001526040518563ffffffff167c0100000000000000000000000000000000000000000000000000000000028152600401808573ffffffffffffffffffffffffffffffffffffffff1673ffffffffffffffffffffffffffffffffffffffff1681526020018473ffffffffffffffffffffffffffffffffffffffff1673ffffffffffffffffffffffffffffffffffffffff168152602001836000191660001916815260200180602001828103825283818151815260200191508051906020019080838360005b8381101561104d578082015181840152602081019050611032565b50505050905090810190601f16801561107a5780820380516001836020036101000a031916815260200191505b5095505050505050602060405180830381600087803b151561109b57600080fd5b6102c65a03f115156110ac57600080fd5b505050604051805190505b925050509392505050565b606760009054906101000a900467ffffffffffffffff1681565b60405180807f4352454154455f564f5445535f524f4c450000000000000000000000000000008152506011019050604051809103902081565b61111d6125b2565b60688281548110151561112c57fe5b90600052602060002090600a02016006018054600181600116156101000203166002900480601f0160208091040260200160405190810160405280929190818152602001828054600181600116156101000203166002900480156111d15780601f106111a6576101008083540402835291602001916111d1565b820191906000526020600020905b8154815290600101906020018083116111b457829003601f168201915b50505050509050919050565b60006112268360405180807f4352454154455f564f5445535f524f4c450000000000000000000000000000008152506011019050604051809103902061122161182a565b610ec2565b905092915050565b600080600060688481548110151561124257fe5b90600052602060002090600a020191508160080160009054906101000a900460ff16156112725760009250611314565b61128782600301548360050154606554611835565b156112955760019250611314565b6112b0826004015483600301546118b690919063ffffffff16565b90506112bb826117a5565b156112c95760009250611314565b6112da826003015482606554611835565b15156112e95760009250611314565b611300826003015483600501548460020154611835565b151561130f5760009250611314565b600192505b5050919050565b60008060688481548110151561132d57fe5b90600052602060002090600a02019050611346816117a5565b801561143d57506000606460009054906101000a900473ffffffffffffffffffffffffffffffffffffffff1673ffffffffffffffffffffffffffffffffffffffff16634ee2cd7e8584600101546000604051602001526040518363ffffffff167c0100000000000000000000000000000000000000000000000000000000028152600401808373ffffffffffffffffffffffffffffffffffffffff1673ffffffffffffffffffffffffffffffffffffffff16815260200182815260200192505050602060405180830381600087803b151561142057600080fd5b6102c65a03f1151561143157600080fd5b50505060405180519050115b91505092915050565b6000809054906101000a900473ffffffffffffffffffffffffffffffffffffffff1681565b600060405180807f4352454154455f564f5445535f524f4c45000000000000000000000000000000815250601101905060405180910390206114cd338260006040518059106114b75750595b9080825280602002602001820160405250610ec2565b15156114d857600080fd5b61154686868080601f01602080910402602001604051908101604052809392919081815260200183838082843782019150505050505085858080601f0160208091040260200160405190810160405280939291908181526020018383808284378201915050505050506118d7565b915050949350505050565b61155b33826111dd565b151561156657600080fd5b6115808160206040519081016040528060008152506118d7565b5050565b60665481565b611594833361131b565b151561159f57600080fd5b6115ab83833384611adf565b505050565b60006115ba611dfe565b73ffffffffffffffffffffffffffffffffffffffff166304bf2a7f836000604051602001526040518263ffffffff167c01000000000000000000000000000000000000000000000000000000000281526004018080602001828103825283818151815260200191508051906020019080838360005b8381101561164a57808201518184015260208101905061162f565b50505050905090810190601f1680156116775780820380516001836020036101000a031916815260200191505b5092505050602060405180830381600087803b151561169557600080fd5b6102c65a03f115156116a657600080fd5b505050604051805190509050919050565b6116c08161122e565b15156116cb57600080fd5b6116d481611f5c565b50565b60655481565b606460009054906101000a900473ffffffffffffffffffffffffffffffffffffffff1681565b670de0b6b3a764000081565b60006001905090565b6117206125c6565b600260405180591061172f5750595b908082528060200260200182016040525090508281600081518110151561175257fe5b90602001906020020181815250508181600181518110151561177057fe5b906020019060200201818152505092915050565b600060035414151561179557600080fd5b61179d6120c1565b600381905550565b60006117f2606760009054906101000a900467ffffffffffffffff168360000160149054906101000a900467ffffffffffffffff1667ffffffffffffffff166120c990919063ffffffff16565b67ffffffffffffffff164267ffffffffffffffff1610801561182357508160080160009054906101000a900460ff16155b9050919050565b6118326125c6565b90565b600080600080861480156118495750600085115b1561185757600092506118ad565b61186a84866120fe90919063ffffffff16565b9150670de0b6b3a76400008281151561187f57fe5b0490506000670de0b6b3a76400008381151561189757fe5b06146118a5578086116118aa565b808610155b92505b50509392505050565b60008082840190508381101515156118cd57600080fd5b8091505092915050565b600080606880548091906001016118ee919061256c565b91506068828154811015156118ff57fe5b90600052602060002090600a02019050838160070190805190602001906119279291906125da565b50338160000160006101000a81548173ffffffffffffffffffffffffffffffffffffffff021916908373ffffffffffffffffffffffffffffffffffffffff160217905550428160000160146101000a81548167ffffffffffffffff021916908367ffffffffffffffff160217905550828160060190805190602001906119ae92919061265a565b5060016119b96120c1565b038160010181905550606460009054906101000a900473ffffffffffffffffffffffffffffffffffffffff1673ffffffffffffffffffffffffffffffffffffffff1663981b24d082600101546000604051602001526040518263ffffffff167c010000000000000000000000000000000000000000000000000000000002815260040180828152602001915050602060405180830381600087803b1515611a5f57600080fd5b6102c65a03f11515611a7057600080fd5b5050506040518051905081600501819055506066548160020181905550817f33c2d6285ba1442f7dd954820743aacec7468bc52e1671024b948f48f132264060405160405180910390a2611ac4823361131b565b15611ad857611ad7826001336001611adf565b5b5092915050565b6000806000606887815481101515611af357fe5b90600052602060002090600a02019250606460009054906101000a900473ffffffffffffffffffffffffffffffffffffffff1673ffffffffffffffffffffffffffffffffffffffff16634ee2cd7e8685600101546000604051602001526040518363ffffffff167c0100000000000000000000000000000000000000000000000000000000028152600401808373ffffffffffffffffffffffffffffffffffffffff1673ffffffffffffffffffffffffffffffffffffffff16815260200182815260200192505050602060405180830381600087803b1515611bd457600080fd5b6102c65a03f11515611be557600080fd5b5050506040518051905091508260090160008673ffffffffffffffffffffffffffffffffffffffff1673ffffffffffffffffffffffffffffffffffffffff16815260200190815260200160002060009054906101000a900460ff16905060016002811115611c4f57fe5b816002811115611c5b57fe5b1415611c8157611c7882846003015461213490919063ffffffff16565b83600301819055505b600280811115611c8d57fe5b816002811115611c9957fe5b1415611cbf57611cb682846004015461213490919063ffffffff16565b83600401819055505b8515611ce957611cdc8284600301546118b690919063ffffffff16565b8360030181905550611d09565b611d008284600401546118b690919063ffffffff16565b83600401819055505b85611d15576002611d18565b60015b8360090160008773ffffffffffffffffffffffffffffffffffffffff1673ffffffffffffffffffffffffffffffffffffffff16815260200190815260200160002060006101000a81548160ff02191690836002811115611d7457fe5b02179055508473ffffffffffffffffffffffffffffffffffffffff16877fb34ee265e3d4f5ec4e8b52d59b2a9be8fceca2f274ebc080d8fba797fea9391f888560405180831515151581526020018281526020019250505060405180910390a3838015611de65750611de58761122e565b5b15611df557611df487611f5c565b5b50505050505050565b6000806000809054906101000a900473ffffffffffffffffffffffffffffffffffffffff1673ffffffffffffffffffffffffffffffffffffffff166342c71f1d60405180807f61707000000000000000000000000000000000000000000000000000000000008152506003019050604051809103902060405180807f65766d7265672e617261676f6e706d2e657468000000000000000000000000008152506013019050604051809103902060405180836000191660001916815260200182600019166000191681526020019250505060405180910390206000604051602001526040518263ffffffff167c0100000000000000000000000000000000000000000000000000000000028152600401808260001916600019168152602001915050602060405180830381600087803b1515611f3857600080fd5b6102c65a03f11515611f4957600080fd5b5050506040518051905090508091505090565b6000611f6661259e565b606883815481101515611f7557fe5b90600052602060002090600a0201915060018260080160006101000a81548160ff0219169083151502179055506000604051805910611fb15750595b9080825280601f01601f1916602001820160405250905061208e826007018054600181600116156101000203166002900480601f0160208091040260200160405190810160405280929190818152602001828054600181600116156101000203166002900480156120635780601f1061203857610100808354040283529160200191612063565b820191906000526020600020905b81548152906001019060200180831161204657829003601f168201915b50505050508260006040518059106120785750595b9080825280602002602001820160405250612150565b50827fbf8e2b108bb7c980e08903a8a46527699d5e84905a082d56dacb4150725c8cab60405160405180910390a2505050565b600043905090565b60008082840190508367ffffffffffffffff168167ffffffffffffffff16101515156120f457600080fd5b8091505092915050565b6000808284029050600084148061211f575082848281151561211c57fe5b04145b151561212a57600080fd5b8091505092915050565b600082821115151561214557600080fd5b818303905092915050565b61215861259e565b600061216261259e565b60008060008060009054906101000a900473ffffffffffffffffffffffffffffffffffffffff1691506001549050612199896115b0565b9450600073ffffffffffffffffffffffffffffffffffffffff168573ffffffffffffffffffffffffffffffffffffffff16141515156121d757600080fd5b6121ec88888b6123989092919063ffffffff16565b9350600073ffffffffffffffffffffffffffffffffffffffff1663279cea3590507c01000000000000000000000000000000000000000000000000000000000292508473ffffffffffffffffffffffffffffffffffffffff16837c01000000000000000000000000000000000000000000000000000000009004856040518263ffffffff167c010000000000000000000000000000000000000000000000000000000002815260040180828051906020019080838360005b838110156122bf5780820151818401526020810190506122a4565b50505050905090810190601f1680156122ec5780820380516001836020036101000a031916815260200191505b509150506000604051808303818661646e5a03f492505050151561230f57600080fd5b61231761245e565b95508173ffffffffffffffffffffffffffffffffffffffff166000809054906101000a900473ffffffffffffffffffffffffffffffffffffffff1673ffffffffffffffffffffffffffffffffffffffff1614151561237457600080fd5b80600019166001546000191614151561238c57600080fd5b50505050509392505050565b6123a061259e565b600080600080606093506123b388612494565b602002840192506123c387612494565b602002830191506123d3866124d0565b60200282019050806040518059106123e85750595b9080825280601f01601f191660200182016040525094508360208601528260408601528160608601526124268561241e8a6124de565b868b516124e8565b61243b85612433896124de565b858a516124e8565b6124538561244888612507565b8460208a51026124e8565b505050509392505050565b61246661259e565b3d806000811461248b576040519250602082018301604052602082036020843e61248c565b5b505080905090565b600080602083518115156124a457fe5b06116124b15760006124b4565b60015b60ff16602083518115156124c457fe5b04600101019050919050565b600081516001019050919050565b6000819050919050565b60008260208601019050612500818560208501612511565b5050505050565b6000819050919050565b6000806000808593508692508491505b6020821015156125465783518352602083019250602084019350602082039150612521565b6001826020036101000a0390508019845116818451168181178552505050505050505050565b81548183558181151161259957600a0281600a02836000526020600020918201910161259891906126da565b5b505050565b602060405190810160405280600081525090565b602060405190810160405280600081525090565b602060405190810160405280600081525090565b828054600181600116156101000203166002900490600052602060002090601f016020900481019282601f1061261b57805160ff1916838001178555612649565b82800160010185558215612649579182015b8281111561264857825182559160200191906001019061262d565b5b5090506126569190612797565b5090565b828054600181600116156101000203166002900490600052602060002090601f016020900481019282601f1061269b57805160ff19168380011785556126c9565b828001600101855582156126c9579182015b828111156126c85782518255916020019190600101906126ad565b5b5090506126d69190612797565b5090565b61279491905b8082111561279057600080820160006101000a81549073ffffffffffffffffffffffffffffffffffffffff02191690556000820160146101000a81549067ffffffffffffffff02191690556001820160009055600282016000905560038201600090556004820160009055600582016000905560068201600061276391906127bc565b6007820160006127739190612804565b6008820160006101000a81549060ff021916905550600a016126e0565b5090565b90565b6127b991905b808211156127b557600081600090555060010161279d565b5090565b90565b50805460018160011615610100020316600290046000825580601f106127e25750612801565b601f0160209004906000526020600020908101906128009190612797565b5b50565b50805460018160011615610100020316600290046000825580601f1061282a5750612849565b601f0160209004906000526020600020908101906128489190612797565b5b505600a165627a7a72305820cf78a1e881ae05241ade20452622b741c90a38b5bd8eccccaa1ca7c20ab9fe700029",
  "source": "pragma solidity 0.4.18;\n\nimport \"@aragon/os/contracts/apps/AragonApp.sol\";\n\nimport \"@aragon/os/contracts/common/IForwarder.sol\";\n\nimport \"@aragon/os/contracts/lib/minime/MiniMeToken.sol\";\nimport \"@aragon/os/contracts/lib/zeppelin/math/SafeMath.sol\";\nimport \"@aragon/os/contracts/lib/zeppelin/math/SafeMath64.sol\";\nimport \"@aragon/os/contracts/lib/misc/Migrations.sol\";\n\n\ncontract Voting is IForwarder, AragonApp {\n    using SafeMath for uint256;\n    using SafeMath64 for uint64;\n\n    MiniMeToken public token;\n    uint256 public supportRequiredPct;\n    uint256 public minAcceptQuorumPct;\n    uint64 public voteTime;\n\n    uint256 constant public PCT_BASE = 10 ** 18;\n\n    bytes32 constant public CREATE_VOTES_ROLE = keccak256(\"CREATE_VOTES_ROLE\");\n    bytes32 constant public MODIFY_QUORUM_ROLE = keccak256(\"MODIFY_QUORUM_ROLE\");\n\n    enum VoterState { Absent, Yea, Nay }\n\n    struct Vote {\n        address creator;\n        uint64 startDate;\n        uint256 snapshotBlock;\n        uint256 minAcceptQuorumPct;\n        uint256 yea;\n        uint256 nay;\n        uint256 totalVoters;\n        string metadata;\n        bytes executionScript;\n        bool executed;\n        mapping (address => VoterState) voters;\n    }\n\n    Vote[] votes;\n\n    event StartVote(uint256 indexed voteId);\n    event CastVote(uint256 indexed voteId, address indexed voter, bool supports, uint256 stake);\n    event ExecuteVote(uint256 indexed voteId);\n    event ChangeMinQuorum(uint256 minAcceptQuorumPct);\n\n    /**\n    * @notice Initializes Voting app (some parameters won't be modifiable after being set)\n    * @param _token MiniMeToken address that will be used as governance token\n    * @param _supportRequiredPct Percentage of voters that must support a vote for it to succeed (expressed as a 10^18 percetage, (eg 10^16 = 1%, 10^18 = 100%)\n    * @param _minAcceptQuorumPct Percetage of total voting power that must support a vote for it to succeed (expressed as a 10^18 percetage, (eg 10^16 = 1%, 10^18 = 100%)\n    * @param _voteTime Seconds that a vote will be open for token holders to vote (unless it is impossible for the fate of the vote to change)\n    */\n    function initialize(\n        MiniMeToken _token,\n        uint256 _supportRequiredPct,\n        uint256 _minAcceptQuorumPct,\n        uint64 _voteTime\n    ) onlyInit external\n    {\n        initialized();\n\n        require(_minAcceptQuorumPct > 0);\n        require(_supportRequiredPct <= PCT_BASE);\n        require(_supportRequiredPct >= _minAcceptQuorumPct);\n\n        token = _token;\n        supportRequiredPct = _supportRequiredPct;\n        minAcceptQuorumPct = _minAcceptQuorumPct;\n        voteTime = _voteTime;\n\n        votes.length += 1;\n    }\n\n    /**\n    * @notice Change minimum acceptance quorum to `_minAcceptQuorumPct`\n    * @param _minAcceptQuorumPct New acceptance quorum\n    */\n    function changeMinAcceptQuorumPct(uint256 _minAcceptQuorumPct) authP(MODIFY_QUORUM_ROLE, arr(_minAcceptQuorumPct, minAcceptQuorumPct)) external {\n        require(_minAcceptQuorumPct > 0);\n        require(supportRequiredPct >= _minAcceptQuorumPct);\n        minAcceptQuorumPct = _minAcceptQuorumPct;\n\n        ChangeMinQuorum(_minAcceptQuorumPct);\n    }\n\n    /**\n    * @notice Create new vote to execute `_executionScript`\n    * @param _executionScript EVM script to be executed on approval\n    * @return voteId id for newly created vote\n    */\n    function newVote(bytes _executionScript, string _metadata) auth(CREATE_VOTES_ROLE) external returns (uint256 voteId) {\n        return _newVote(_executionScript, _metadata);\n    }\n\n    /**\n    * @notice Vote `_supports` in vote with id `_voteId`\n    * @param _voteId Id for vote\n    * @param _supports Whether voter supports the vote\n    * @param _executesIfDecided Whether it should execute the vote if it becomes decided\n    */\n    function vote(uint256 _voteId, bool _supports, bool _executesIfDecided) external {\n        require(canVote(_voteId, msg.sender));\n        _vote(\n            _voteId,\n            _supports,\n            msg.sender,\n            _executesIfDecided\n        );\n    }\n\n    /**\n    * @notice Execute the result of vote `_voteId`\n    * @param _voteId Id for vote\n    */\n    function executeVote(uint256 _voteId) external {\n        require(canExecute(_voteId));\n        _executeVote(_voteId);\n    }\n\n    function isForwarder() public pure returns (bool) {\n        return true;\n    }\n\n    /**\n    * @dev IForwarder interface conformance\n    * @param _evmScript Start vote with script\n    */\n    function forward(bytes _evmScript) public {\n        require(canForward(msg.sender, _evmScript));\n        _newVote(_evmScript, \"\");\n    }\n\n    function canForward(address _sender, bytes _evmCallScript) public view returns (bool) {\n        return canPerform(_sender, CREATE_VOTES_ROLE, arr());\n    }\n\n    function canVote(uint256 _voteId, address _voter) public view returns (bool) {\n        Vote storage vote = votes[_voteId];\n\n        return _isVoteOpen(vote) && token.balanceOfAt(_voter, vote.snapshotBlock) > 0;\n    }\n\n    function canExecute(uint256 _voteId) public view returns (bool) {\n        Vote storage vote = votes[_voteId];\n\n        if (vote.executed)\n            return false;\n\n        // Voting is already decided\n        if (_isValuePct(vote.yea, vote.totalVoters, supportRequiredPct))\n            return true;\n\n        uint256 totalVotes = vote.yea.add(vote.nay);\n\n        // vote ended?\n        if (_isVoteOpen(vote))\n            return false;\n        // has Support?\n        if (!_isValuePct(vote.yea, totalVotes, supportRequiredPct))\n            return false;\n        // has Min Quorum?\n        if (!_isValuePct(vote.yea, vote.totalVoters, vote.minAcceptQuorumPct))\n            return false;\n\n        return true;\n    }\n\n    function getVote(uint256 _voteId) public view returns (bool open, bool executed, address creator, uint64 startDate, uint256 snapshotBlock, uint256 minAcceptQuorum, uint256 yea, uint256 nay, uint256 totalVoters, bytes script) {\n        Vote storage vote = votes[_voteId];\n\n        open = _isVoteOpen(vote);\n        executed = vote.executed;\n        creator = vote.creator;\n        startDate = vote.startDate;\n        snapshotBlock = vote.snapshotBlock;\n        minAcceptQuorum = vote.minAcceptQuorumPct;\n        yea = vote.yea;\n        nay = vote.nay;\n        totalVoters = vote.totalVoters;\n        script = vote.executionScript;\n    }\n\n    function getVoteMetadata(uint256 _voteId) public view returns (string) {\n        return votes[_voteId].metadata;\n    }\n\n    function getVoterState(uint256 _voteId, address _voter) public view returns (VoterState) {\n        return votes[_voteId].voters[_voter];\n    }\n\n    function _newVote(bytes _executionScript, string _metadata) internal returns (uint256 voteId) {\n        voteId = votes.length++;\n        Vote storage vote = votes[voteId];\n        vote.executionScript = _executionScript;\n        vote.creator = msg.sender;\n        vote.startDate = uint64(now);\n        vote.metadata = _metadata;\n        vote.snapshotBlock = getBlockNumber() - 1; // avoid double voting in this very block\n        vote.totalVoters = token.totalSupplyAt(vote.snapshotBlock);\n        vote.minAcceptQuorumPct = minAcceptQuorumPct;\n\n        StartVote(voteId);\n\n        if (canVote(voteId, msg.sender)) {\n            _vote(\n                voteId,\n                true,\n                msg.sender,\n                true\n            );\n        }\n    }\n\n    function _vote(\n        uint256 _voteId,\n        bool _supports,\n        address _voter,\n        bool _executesIfDecided\n    ) internal\n    {\n        Vote storage vote = votes[_voteId];\n\n        // this could re-enter, though we can asume the governance token is not maliciuous\n        uint256 voterStake = token.balanceOfAt(_voter, vote.snapshotBlock);\n        VoterState state = vote.voters[_voter];\n\n        // if voter had previously voted, decrease count\n        if (state == VoterState.Yea)\n            vote.yea = vote.yea.sub(voterStake);\n        if (state == VoterState.Nay)\n            vote.nay = vote.nay.sub(voterStake);\n\n        if (_supports)\n            vote.yea = vote.yea.add(voterStake);\n        else\n            vote.nay = vote.nay.add(voterStake);\n\n        vote.voters[_voter] = _supports ? VoterState.Yea : VoterState.Nay;\n\n        CastVote(\n            _voteId,\n            _voter,\n            _supports,\n            voterStake\n        );\n\n        if (_executesIfDecided && canExecute(_voteId))\n            _executeVote(_voteId);\n    }\n\n    function _executeVote(uint256 _voteId) internal {\n        Vote storage vote = votes[_voteId];\n\n        vote.executed = true;\n\n        bytes memory input = new bytes(0); // TODO: Consider input for voting scripts\n        runScript(vote.executionScript, input, new address[](0));\n\n        ExecuteVote(_voteId);\n    }\n\n    function _isVoteOpen(Vote storage vote) internal view returns (bool) {\n        return uint64(now) < (vote.startDate.add(voteTime)) && !vote.executed;\n    }\n\n    /**\n    * @dev Calculates whether `_value` is at least a percent `_pct` over `_total`\n    */\n    function _isValuePct(uint256 _value, uint256 _total, uint256 _pct) internal pure returns (bool) {\n        if (_value == 0 && _total > 0)\n            return false;\n\n        uint256 m = _total.mul(_pct);\n        uint256 v = m / PCT_BASE;\n\n        // If division is exact, allow same value, otherwise require value to be greater\n        return m % PCT_BASE == 0 ? _value >= v : _value > v;\n    }\n}\n",
  "sourcePath": "@aragon/apps-voting/contracts/Voting.sol",
  "compiler": {
    "name": "solc",
    "version": "0.4.18+commit.9cf6e910.Emscripten.clang"
  },
  "schemaVersion": "1.0.1",
  "updatedAt": "2018-03-05T17:18:03.419Z"
}