{
  "contractName": "Voting",
  "abi": [
    {
      "constant": false,
      "inputs": [
        {
          "name": "_minAcceptQuorumPct",
          "type": "uint256"
        }
      ],
      "name": "changeMinAcceptQuorumPct",
      "outputs": [],
      "payable": false,
      "stateMutability": "nonpayable",
      "type": "function"
    },
    {
      "constant": true,
      "inputs": [],
      "name": "MODIFY_QUORUM_ROLE",
      "outputs": [
        {
          "name": "",
          "type": "bytes32"
        }
      ],
      "payable": false,
      "stateMutability": "view",
      "type": "function"
    },
    {
      "constant": false,
      "inputs": [
        {
          "name": "_token",
          "type": "address"
        },
        {
          "name": "_supportRequiredPct",
          "type": "uint256"
        },
        {
          "name": "_minAcceptQuorumPct",
          "type": "uint256"
        },
        {
          "name": "_voteTime",
          "type": "uint64"
        }
      ],
      "name": "initialize",
      "outputs": [],
      "payable": false,
      "stateMutability": "nonpayable",
      "type": "function"
    },
    {
      "constant": true,
      "inputs": [
        {
          "name": "_voteId",
          "type": "uint256"
        }
      ],
      "name": "getVote",
      "outputs": [
        {
          "name": "open",
          "type": "bool"
        },
        {
          "name": "executed",
          "type": "bool"
        },
        {
          "name": "creator",
          "type": "address"
        },
        {
          "name": "startDate",
          "type": "uint64"
        },
        {
          "name": "snapshotBlock",
          "type": "uint256"
        },
        {
          "name": "minAcceptQuorum",
          "type": "uint256"
        },
        {
          "name": "yea",
          "type": "uint256"
        },
        {
          "name": "nay",
          "type": "uint256"
        },
        {
          "name": "totalVoters",
          "type": "uint256"
        },
        {
          "name": "script",
          "type": "bytes"
        }
      ],
      "payable": false,
      "stateMutability": "view",
      "type": "function"
    },
    {
      "constant": true,
      "inputs": [],
      "name": "EVMSCRIPT_REGISTRY_APP_ID",
      "outputs": [
        {
          "name": "",
          "type": "bytes32"
        }
      ],
      "payable": false,
      "stateMutability": "view",
      "type": "function"
    },
    {
      "constant": true,
      "inputs": [],
      "name": "appId",
      "outputs": [
        {
          "name": "",
          "type": "bytes32"
        }
      ],
      "payable": false,
      "stateMutability": "view",
      "type": "function"
    },
    {
      "constant": true,
      "inputs": [],
      "name": "getInitializationBlock",
      "outputs": [
        {
          "name": "",
          "type": "uint256"
        }
      ],
      "payable": false,
      "stateMutability": "view",
      "type": "function"
    },
    {
      "constant": true,
      "inputs": [],
      "name": "EVMSCRIPT_REGISTRY_APP",
      "outputs": [
        {
          "name": "",
          "type": "bytes32"
        }
      ],
      "payable": false,
      "stateMutability": "view",
      "type": "function"
    },
    {
      "constant": true,
      "inputs": [
        {
          "name": "_sender",
          "type": "address"
        },
        {
          "name": "_role",
          "type": "bytes32"
        },
        {
          "name": "params",
          "type": "uint256[]"
        }
      ],
      "name": "canPerform",
      "outputs": [
        {
          "name": "",
          "type": "bool"
        }
      ],
      "payable": false,
      "stateMutability": "view",
      "type": "function"
    },
    {
      "constant": true,
      "inputs": [],
      "name": "voteTime",
      "outputs": [
        {
          "name": "",
          "type": "uint64"
        }
      ],
      "payable": false,
      "stateMutability": "view",
      "type": "function"
    },
    {
      "constant": true,
      "inputs": [],
      "name": "CREATE_VOTES_ROLE",
      "outputs": [
        {
          "name": "",
          "type": "bytes32"
        }
      ],
      "payable": false,
      "stateMutability": "view",
      "type": "function"
    },
    {
      "constant": true,
      "inputs": [
        {
          "name": "_voteId",
          "type": "uint256"
        }
      ],
      "name": "getVoteMetadata",
      "outputs": [
        {
          "name": "metadata",
          "type": "string"
        }
      ],
      "payable": false,
      "stateMutability": "view",
      "type": "function"
    },
    {
      "constant": true,
      "inputs": [
        {
          "name": "_sender",
          "type": "address"
        },
        {
          "name": "_evmCallScript",
          "type": "bytes"
        }
      ],
      "name": "canForward",
      "outputs": [
        {
          "name": "",
          "type": "bool"
        }
      ],
      "payable": false,
      "stateMutability": "view",
      "type": "function"
    },
    {
      "constant": true,
      "inputs": [
        {
          "name": "_voteId",
          "type": "uint256"
        }
      ],
      "name": "canExecute",
      "outputs": [
        {
          "name": "",
          "type": "bool"
        }
      ],
      "payable": false,
      "stateMutability": "view",
      "type": "function"
    },
    {
      "constant": true,
      "inputs": [
        {
          "name": "_voteId",
          "type": "uint256"
        },
        {
          "name": "_voter",
          "type": "address"
        }
      ],
      "name": "canVote",
      "outputs": [
        {
          "name": "",
          "type": "bool"
        }
      ],
      "payable": false,
      "stateMutability": "view",
      "type": "function"
    },
    {
      "constant": true,
      "inputs": [],
      "name": "kernel",
      "outputs": [
        {
          "name": "",
          "type": "address"
        }
      ],
      "payable": false,
      "stateMutability": "view",
      "type": "function"
    },
    {
      "constant": false,
      "inputs": [
        {
          "name": "_executionScript",
          "type": "bytes"
        },
        {
          "name": "_metadata",
          "type": "string"
        }
      ],
      "name": "newVote",
      "outputs": [
        {
          "name": "voteId",
          "type": "uint256"
        }
      ],
      "payable": false,
      "stateMutability": "nonpayable",
      "type": "function"
    },
    {
      "constant": false,
      "inputs": [
        {
          "name": "_evmScript",
          "type": "bytes"
        }
      ],
      "name": "forward",
      "outputs": [],
      "payable": false,
      "stateMutability": "nonpayable",
      "type": "function"
    },
    {
      "constant": true,
      "inputs": [],
      "name": "minAcceptQuorumPct",
      "outputs": [
        {
          "name": "",
          "type": "uint256"
        }
      ],
      "payable": false,
      "stateMutability": "view",
      "type": "function"
    },
    {
      "constant": false,
      "inputs": [
        {
          "name": "_voteId",
          "type": "uint256"
        },
        {
          "name": "_supports",
          "type": "bool"
        },
        {
          "name": "_executesIfDecided",
          "type": "bool"
        }
      ],
      "name": "vote",
      "outputs": [],
      "payable": false,
      "stateMutability": "nonpayable",
      "type": "function"
    },
    {
      "constant": true,
      "inputs": [
        {
          "name": "_script",
          "type": "bytes"
        }
      ],
      "name": "getExecutor",
      "outputs": [
        {
          "name": "",
          "type": "address"
        }
      ],
      "payable": false,
      "stateMutability": "view",
      "type": "function"
    },
    {
      "constant": false,
      "inputs": [
        {
          "name": "_voteId",
          "type": "uint256"
        }
      ],
      "name": "executeVote",
      "outputs": [],
      "payable": false,
      "stateMutability": "nonpayable",
      "type": "function"
    },
    {
      "constant": true,
      "inputs": [],
      "name": "supportRequiredPct",
      "outputs": [
        {
          "name": "",
          "type": "uint256"
        }
      ],
      "payable": false,
      "stateMutability": "view",
      "type": "function"
    },
    {
      "constant": true,
      "inputs": [],
      "name": "token",
      "outputs": [
        {
          "name": "",
          "type": "address"
        }
      ],
      "payable": false,
      "stateMutability": "view",
      "type": "function"
    },
    {
      "constant": true,
      "inputs": [],
      "name": "PCT_BASE",
      "outputs": [
        {
          "name": "",
          "type": "uint256"
        }
      ],
      "payable": false,
      "stateMutability": "view",
      "type": "function"
    },
    {
      "constant": true,
      "inputs": [],
      "name": "isForwarder",
      "outputs": [
        {
          "name": "",
          "type": "bool"
        }
      ],
      "payable": false,
      "stateMutability": "pure",
      "type": "function"
    },
    {
      "anonymous": false,
      "inputs": [
        {
          "indexed": true,
          "name": "voteId",
          "type": "uint256"
        }
      ],
      "name": "StartVote",
      "type": "event"
    },
    {
      "anonymous": false,
      "inputs": [
        {
          "indexed": true,
          "name": "voteId",
          "type": "uint256"
        },
        {
          "indexed": true,
          "name": "voter",
          "type": "address"
        },
        {
          "indexed": false,
          "name": "supports",
          "type": "bool"
        },
        {
          "indexed": false,
          "name": "stake",
          "type": "uint256"
        }
      ],
      "name": "CastVote",
      "type": "event"
    },
    {
      "anonymous": false,
      "inputs": [
        {
          "indexed": true,
          "name": "voteId",
          "type": "uint256"
        }
      ],
      "name": "ExecuteVote",
      "type": "event"
    },
    {
      "anonymous": false,
      "inputs": [
        {
          "indexed": false,
          "name": "minAcceptQuorumPct",
          "type": "uint256"
        }
      ],
      "name": "ChangeMinQuorum",
      "type": "event"
    }
  ],
  "bytecode": "0x6060604052341561000f57600080fd5b6126ef8061001e6000396000f300606060405260043610610154576000357c0100000000000000000000000000000000000000000000000000000000900463ffffffff168063036e4220146101595780633c624c751461017c5780633ee31e70146101ad5780635a55c1f01461020b57806360b1e0571461032e57806380afdea81461035f5780638b3dd749146103905780639b3fdf4c146103b9578063a1658fad146103ea578063bcf93dd614610488578063be2c64d4146104c5578063c05218c6146104f6578063c0774df314610592578063cc63604a14610626578063cdb2867b14610661578063d4aae0c4146106bb578063d5db2c8014610710578063d948d46814610766578063dc474b1a146107c3578063df133bca146107ec578063f92a79ff14610825578063f98a4eca146108c2578063fad167ab146108e5578063fc0c546a1461090e578063fc157cb414610963578063fd64eccb1461098c575b600080fd5b341561016457600080fd5b61017a60048080359060200190919050506109b9565b005b341561018757600080fd5b61018f610a74565b60405180826000191660001916815260200191505060405180910390f35b34156101b857600080fd5b610209600480803573ffffffffffffffffffffffffffffffffffffffff1690602001909190803590602001909190803590602001909190803567ffffffffffffffff16906020019091905050610aad565b005b341561021657600080fd5b61022c6004808035906020019091905050610b92565b604051808b1515151581526020018a1515151581526020018973ffffffffffffffffffffffffffffffffffffffff1673ffffffffffffffffffffffffffffffffffffffff1681526020018867ffffffffffffffff1667ffffffffffffffff16815260200187815260200186815260200185815260200184815260200183815260200180602001828103825283818151815260200191508051906020019080838360005b838110156102ea5780820151818401526020810190506102cf565b50505050905090810190601f1680156103175780820380516001836020036101000a031916815260200191505b509b50505050505050505050505060405180910390f35b341561033957600080fd5b610341610cfa565b60405180826000191660001916815260200191505060405180910390f35b341561036a57600080fd5b610372610d33565b60405180826000191660001916815260200191505060405180910390f35b341561039b57600080fd5b6103a3610d39565b6040518082815260200191505060405180910390f35b34156103c457600080fd5b6103cc610d43565b60405180826000191660001916815260200191505060405180910390f35b34156103f557600080fd5b61046e600480803573ffffffffffffffffffffffffffffffffffffffff169060200190919080356000191690602001909190803590602001908201803590602001908080602002602001604051908101604052809392919081815260200183836020028082843782019150505050505091905050610dde565b604051808215151515815260200191505060405180910390f35b341561049357600080fd5b61049b610fde565b604051808267ffffffffffffffff1667ffffffffffffffff16815260200191505060405180910390f35b34156104d057600080fd5b6104d8610ff8565b60405180826000191660001916815260200191505060405180910390f35b341561050157600080fd5b6105176004808035906020019091905050611031565b6040518080602001828103825283818151815260200191508051906020019080838360005b8381101561055757808201518184015260208101905061053c565b50505050905090810190601f1680156105845780820380516001836020036101000a031916815260200191505b509250505060405180910390f35b341561059d57600080fd5b61060c600480803573ffffffffffffffffffffffffffffffffffffffff1690602001909190803590602001908201803590602001908080601f016020809104026020016040519081016040528093929190818152602001838380828437820191505050505050919050506110f9565b604051808215151515815260200191505060405180910390f35b341561063157600080fd5b610647600480803590602001909190505061114a565b604051808215151515815260200191505060405180910390f35b341561066c57600080fd5b6106a1600480803590602001909190803573ffffffffffffffffffffffffffffffffffffffff16906020019091905050611227565b604051808215151515815260200191505060405180910390f35b34156106c657600080fd5b6106ce611352565b604051808273ffffffffffffffffffffffffffffffffffffffff1673ffffffffffffffffffffffffffffffffffffffff16815260200191505060405180910390f35b341561071b57600080fd5b610750600480803590602001908201803590602001919091929080359060200190820180359060200191909192905050611377565b6040518082815260200191505060405180910390f35b341561077157600080fd5b6107c1600480803590602001908201803590602001908080601f0160208091040260200160405190810160405280939291908181526020018383808284378201915050505050509190505061145d565b005b34156107ce57600080fd5b6107d6611490565b6040518082815260200191505060405180910390f35b34156107f757600080fd5b610823600480803590602001909190803515159060200190919080351515906020019091905050611496565b005b341561083057600080fd5b610880600480803590602001908201803590602001908080601f016020809104026020016040519081016040528093929190818152602001838380828437820191505050505050919050506114bc565b604051808273ffffffffffffffffffffffffffffffffffffffff1673ffffffffffffffffffffffffffffffffffffffff16815260200191505060405180910390f35b34156108cd57600080fd5b6108e360048080359060200190919050506115c3565b005b34156108f057600080fd5b6108f86115e3565b6040518082815260200191505060405180910390f35b341561091957600080fd5b6109216115e9565b604051808273ffffffffffffffffffffffffffffffffffffffff1673ffffffffffffffffffffffffffffffffffffffff16815260200191505060405180910390f35b341561096e57600080fd5b61097661160f565b6040518082815260200191505060405180910390f35b341561099757600080fd5b61099f61161b565b604051808215151515815260200191505060405180910390f35b60405180807f4d4f444946595f51554f52554d5f524f4c450000000000000000000000000000815250601201905060405180910390206109fb82606654611624565b610a06338383610dde565b1515610a1157600080fd5b600083111515610a2057600080fd5b8260655410151515610a3157600080fd5b826066819055507f28bb663e324957c72fa46db87d8afa7591b1c293b2c7ad06e3574eace993ff6d836040518082815260200191505060405180910390a1505050565b60405180807f4d4f444946595f51554f52554d5f524f4c4500000000000000000000000000008152506012019050604051809103902081565b6000600354141515610abe57600080fd5b610ac6611690565b600082111515610ad557600080fd5b670de0b6b3a76400008311151515610aec57600080fd5b818310151515610afb57600080fd5b83606460006101000a81548173ffffffffffffffffffffffffffffffffffffffff021916908373ffffffffffffffffffffffffffffffffffffffff160217905550826065819055508160668190555080606760006101000a81548167ffffffffffffffff021916908367ffffffffffffffff1602179055506001606881818054905001915081610b8b91906123e3565b5050505050565b6000806000806000806000806000610ba8612415565b600060688c815481101515610bb957fe5b90600052602060002090600a02019050610bd2816116b1565b9a508060080160009054906101000a900460ff1699508060000160009054906101000a900473ffffffffffffffffffffffffffffffffffffffff1698508060000160149054906101000a900467ffffffffffffffff1697508060010154965080600201549550806003015494508060040154935080600501549250806007018054600181600116156101000203166002900480601f016020809104026020016040519081016040528092919081815260200182805460018160011615610100020316600290048015610ce55780601f10610cba57610100808354040283529160200191610ce5565b820191906000526020600020905b815481529060010190602001808311610cc857829003601f168201915b50505050509150509193959799509193959799565b60405180807f65766d7265672e617261676f6e706d2e657468000000000000000000000000008152506013019050604051809103902081565b60015481565b6000600354905090565b60405180807f61707000000000000000000000000000000000000000000000000000000000008152506003019050604051809103902060405180807f65766d7265672e617261676f6e706d2e6574680000000000000000000000000081525060130190506040518091039020604051808360001916600019168152602001826000191660001916815260200192505050604051809103902081565b6000610de8612415565b60008084511115610e0157602084510290508391508082525b60008060009054906101000a900473ffffffffffffffffffffffffffffffffffffffff1673ffffffffffffffffffffffffffffffffffffffff161480610fd357506000809054906101000a900473ffffffffffffffffffffffffffffffffffffffff1673ffffffffffffffffffffffffffffffffffffffff1663fdef9106873088866000604051602001526040518563ffffffff167c0100000000000000000000000000000000000000000000000000000000028152600401808573ffffffffffffffffffffffffffffffffffffffff1673ffffffffffffffffffffffffffffffffffffffff1681526020018473ffffffffffffffffffffffffffffffffffffffff1673ffffffffffffffffffffffffffffffffffffffff168152602001836000191660001916815260200180602001828103825283818151815260200191508051906020019080838360005b83811015610f69578082015181840152602081019050610f4e565b50505050905090810190601f168015610f965780820380516001836020036101000a031916815260200191505b5095505050505050602060405180830381600087803b1515610fb757600080fd5b6102c65a03f11515610fc857600080fd5b505050604051805190505b925050509392505050565b606760009054906101000a900467ffffffffffffffff1681565b60405180807f4352454154455f564f5445535f524f4c450000000000000000000000000000008152506011019050604051809103902081565b611039612429565b60688281548110151561104857fe5b90600052602060002090600a02016006018054600181600116156101000203166002900480601f0160208091040260200160405190810160405280929190818152602001828054600181600116156101000203166002900480156110ed5780601f106110c2576101008083540402835291602001916110ed565b820191906000526020600020905b8154815290600101906020018083116110d057829003601f168201915b50505050509050919050565b60006111428360405180807f4352454154455f564f5445535f524f4c450000000000000000000000000000008152506011019050604051809103902061113d61171c565b610dde565b905092915050565b600080600060688481548110151561115e57fe5b90600052602060002090600a020191508160080160009054906101000a900460ff161561118e5760009250611220565b6111a382600301548360050154606554611727565b156111b15760019250611220565b816004015482600301540190506111c7826116b1565b156111d55760009250611220565b6111e6826003015482606554611727565b15156111f55760009250611220565b61120c826003015483600501548460020154611727565b151561121b5760009250611220565b600192505b5050919050565b60008060688481548110151561123957fe5b90600052602060002090600a02019050611252816116b1565b801561134957506000606460009054906101000a900473ffffffffffffffffffffffffffffffffffffffff1673ffffffffffffffffffffffffffffffffffffffff16634ee2cd7e8584600101546000604051602001526040518363ffffffff167c0100000000000000000000000000000000000000000000000000000000028152600401808373ffffffffffffffffffffffffffffffffffffffff1673ffffffffffffffffffffffffffffffffffffffff16815260200182815260200192505050602060405180830381600087803b151561132c57600080fd5b6102c65a03f1151561133d57600080fd5b50505060405180519050115b91505092915050565b6000809054906101000a900473ffffffffffffffffffffffffffffffffffffffff1681565b600060405180807f4352454154455f564f5445535f524f4c45000000000000000000000000000000815250601101905060405180910390206113d9338260006040518059106113c35750595b9080825280602002602001820160405250610dde565b15156113e457600080fd5b61145286868080601f01602080910402602001604051908101604052809392919081815260200183838082843782019150505050505085858080601f016020809104026020016040519081016040528093929190818152602001838380828437820191505050505050611798565b915050949350505050565b61146733826110f9565b151561147257600080fd5b61148c816020604051908101604052806000815250611798565b5050565b60665481565b6114a08333611227565b15156114ab57600080fd5b6114b7838333846119a0565b505050565b60006114c6611cbf565b73ffffffffffffffffffffffffffffffffffffffff166304bf2a7f836000604051602001526040518263ffffffff167c01000000000000000000000000000000000000000000000000000000000281526004018080602001828103825283818151815260200191508051906020019080838360005b8381101561155657808201518184015260208101905061153b565b50505050905090810190601f1680156115835780820380516001836020036101000a031916815260200191505b5092505050602060405180830381600087803b15156115a157600080fd5b6102c65a03f115156115b257600080fd5b505050604051805190509050919050565b6115cc8161114a565b15156115d757600080fd5b6115e081611e1d565b50565b60655481565b606460009054906101000a900473ffffffffffffffffffffffffffffffffffffffff1681565b670de0b6b3a764000081565b60006001905090565b61162c61243d565b600260405180591061163b5750595b908082528060200260200182016040525090508281600081518110151561165e57fe5b90602001906020020181815250508181600181518110151561167c57fe5b906020019060200201818152505092915050565b60006003541415156116a157600080fd5b6116a9611f82565b600381905550565b6000606760009054906101000a900467ffffffffffffffff168260000160149054906101000a900467ffffffffffffffff160167ffffffffffffffff164267ffffffffffffffff1610801561171557508160080160009054906101000a900460ff16155b9050919050565b61172461243d565b90565b6000806000808614801561173b5750600085115b15611749576000925061178f565b8385029150670de0b6b3a76400008281151561176157fe5b0490506000670de0b6b3a76400008381151561177957fe5b06146117875780861161178c565b808610155b92505b50509392505050565b600080606880548091906001016117af91906123e3565b91506068828154811015156117c057fe5b90600052602060002090600a02019050838160070190805190602001906117e8929190612451565b50338160000160006101000a81548173ffffffffffffffffffffffffffffffffffffffff021916908373ffffffffffffffffffffffffffffffffffffffff160217905550428160000160146101000a81548167ffffffffffffffff021916908367ffffffffffffffff1602179055508281600601908051906020019061186f9291906124d1565b50600161187a611f82565b038160010181905550606460009054906101000a900473ffffffffffffffffffffffffffffffffffffffff1673ffffffffffffffffffffffffffffffffffffffff1663981b24d082600101546000604051602001526040518263ffffffff167c010000000000000000000000000000000000000000000000000000000002815260040180828152602001915050602060405180830381600087803b151561192057600080fd5b6102c65a03f1151561193157600080fd5b5050506040518051905081600501819055506066548160020181905550817f33c2d6285ba1442f7dd954820743aacec7468bc52e1671024b948f48f132264060405160405180910390a26119858233611227565b15611999576119988260013360016119a0565b5b5092915050565b60008060006068878154811015156119b457fe5b90600052602060002090600a02019250606460009054906101000a900473ffffffffffffffffffffffffffffffffffffffff1673ffffffffffffffffffffffffffffffffffffffff16634ee2cd7e8685600101546000604051602001526040518363ffffffff167c0100000000000000000000000000000000000000000000000000000000028152600401808373ffffffffffffffffffffffffffffffffffffffff1673ffffffffffffffffffffffffffffffffffffffff16815260200182815260200192505050602060405180830381600087803b1515611a9557600080fd5b6102c65a03f11515611aa657600080fd5b5050506040518051905091508260090160008673ffffffffffffffffffffffffffffffffffffffff1673ffffffffffffffffffffffffffffffffffffffff16815260200190815260200160002060009054906101000a900460ff16905060016002811115611b1057fe5b816002811115611b1c57fe5b1415611b4257611b39828460030154611f8a90919063ffffffff16565b83600301819055505b600280811115611b4e57fe5b816002811115611b5a57fe5b1415611b8057611b77828460040154611f8a90919063ffffffff16565b83600401819055505b8515611baa57611b9d828460030154611fa690919063ffffffff16565b8360030181905550611bca565b611bc1828460040154611fa690919063ffffffff16565b83600401819055505b85611bd6576002611bd9565b60015b8360090160008773ffffffffffffffffffffffffffffffffffffffff1673ffffffffffffffffffffffffffffffffffffffff16815260200190815260200160002060006101000a81548160ff02191690836002811115611c3557fe5b02179055508473ffffffffffffffffffffffffffffffffffffffff16877fb34ee265e3d4f5ec4e8b52d59b2a9be8fceca2f274ebc080d8fba797fea9391f888560405180831515151581526020018281526020019250505060405180910390a3838015611ca75750611ca68761114a565b5b15611cb657611cb587611e1d565b5b50505050505050565b6000806000809054906101000a900473ffffffffffffffffffffffffffffffffffffffff1673ffffffffffffffffffffffffffffffffffffffff166342c71f1d60405180807f61707000000000000000000000000000000000000000000000000000000000008152506003019050604051809103902060405180807f65766d7265672e617261676f6e706d2e657468000000000000000000000000008152506013019050604051809103902060405180836000191660001916815260200182600019166000191681526020019250505060405180910390206000604051602001526040518263ffffffff167c0100000000000000000000000000000000000000000000000000000000028152600401808260001916600019168152602001915050602060405180830381600087803b1515611df957600080fd5b6102c65a03f11515611e0a57600080fd5b5050506040518051905090508091505090565b6000611e27612415565b606883815481101515611e3657fe5b90600052602060002090600a0201915060018260080160006101000a81548160ff0219169083151502179055506000604051805910611e725750595b9080825280601f01601f19166020018201604052509050611f4f826007018054600181600116156101000203166002900480601f016020809104026020016040519081016040528092919081815260200182805460018160011615610100020316600290048015611f245780601f10611ef957610100808354040283529160200191611f24565b820191906000526020600020905b815481529060010190602001808311611f0757829003601f168201915b5050505050826000604051805910611f395750595b9080825280602002602001820160405250611fc7565b50827fbf8e2b108bb7c980e08903a8a46527699d5e84905a082d56dacb4150725c8cab60405160405180910390a2505050565b600043905090565b6000828211151515611f9b57600080fd5b818303905092915050565b6000808284019050838110151515611fbd57600080fd5b8091505092915050565b611fcf612415565b6000611fd9612415565b60008060008060009054906101000a900473ffffffffffffffffffffffffffffffffffffffff1691506001549050612010896114bc565b9450600073ffffffffffffffffffffffffffffffffffffffff168573ffffffffffffffffffffffffffffffffffffffff161415151561204e57600080fd5b61206388888b61220f9092919063ffffffff16565b9350600073ffffffffffffffffffffffffffffffffffffffff1663279cea3590507c01000000000000000000000000000000000000000000000000000000000292508473ffffffffffffffffffffffffffffffffffffffff16837c01000000000000000000000000000000000000000000000000000000009004856040518263ffffffff167c010000000000000000000000000000000000000000000000000000000002815260040180828051906020019080838360005b8381101561213657808201518184015260208101905061211b565b50505050905090810190601f1680156121635780820380516001836020036101000a031916815260200191505b509150506000604051808303818661646e5a03f492505050151561218657600080fd5b61218e6122d5565b95508173ffffffffffffffffffffffffffffffffffffffff166000809054906101000a900473ffffffffffffffffffffffffffffffffffffffff1673ffffffffffffffffffffffffffffffffffffffff161415156121eb57600080fd5b80600019166001546000191614151561220357600080fd5b50505050509392505050565b612217612415565b6000806000806060935061222a8861230b565b6020028401925061223a8761230b565b6020028301915061224a86612347565b602002820190508060405180591061225f5750595b9080825280601f01601f1916602001820160405250945083602086015282604086015281606086015261229d856122958a612355565b868b5161235f565b6122b2856122aa89612355565b858a5161235f565b6122ca856122bf8861237e565b8460208a510261235f565b505050509392505050565b6122dd612415565b3d8060008114612302576040519250602082018301604052602082036020843e612303565b5b505080905090565b6000806020835181151561231b57fe5b061161232857600061232b565b60015b60ff166020835181151561233b57fe5b04600101019050919050565b600081516001019050919050565b6000819050919050565b60008260208601019050612377818560208501612388565b5050505050565b6000819050919050565b6000806000808593508692508491505b6020821015156123bd5783518352602083019250602084019350602082039150612398565b6001826020036101000a0390508019845116818451168181178552505050505050505050565b81548183558181151161241057600a0281600a02836000526020600020918201910161240f9190612551565b5b505050565b602060405190810160405280600081525090565b602060405190810160405280600081525090565b602060405190810160405280600081525090565b828054600181600116156101000203166002900490600052602060002090601f016020900481019282601f1061249257805160ff19168380011785556124c0565b828001600101855582156124c0579182015b828111156124bf5782518255916020019190600101906124a4565b5b5090506124cd919061260e565b5090565b828054600181600116156101000203166002900490600052602060002090601f016020900481019282601f1061251257805160ff1916838001178555612540565b82800160010185558215612540579182015b8281111561253f578251825591602001919060010190612524565b5b50905061254d919061260e565b5090565b61260b91905b8082111561260757600080820160006101000a81549073ffffffffffffffffffffffffffffffffffffffff02191690556000820160146101000a81549067ffffffffffffffff0219169055600182016000905560028201600090556003820160009055600482016000905560058201600090556006820160006125da9190612633565b6007820160006125ea919061267b565b6008820160006101000a81549060ff021916905550600a01612557565b5090565b90565b61263091905b8082111561262c576000816000905550600101612614565b5090565b90565b50805460018160011615610100020316600290046000825580601f106126595750612678565b601f016020900490600052602060002090810190612677919061260e565b5b50565b50805460018160011615610100020316600290046000825580601f106126a157506126c0565b601f0160209004906000526020600020908101906126bf919061260e565b5b505600a165627a7a72305820587a25a76ad6eca2cde9bfee244a8d923fdc28158ed45da0bd5de14e78bd81390029",
  "source": "pragma solidity 0.4.18;\n\nimport \"@aragon/os/contracts/apps/AragonApp.sol\";\n\nimport \"@aragon/os/contracts/common/IForwarder.sol\";\n\nimport \"@aragon/os/contracts/lib/minime/MiniMeToken.sol\";\nimport \"@aragon/os/contracts/lib/zeppelin/math/SafeMath.sol\";\nimport \"@aragon/os/contracts/lib/misc/Migrations.sol\";\n\n\ncontract Voting is IForwarder, AragonApp {\n    using SafeMath for uint256;\n\n    MiniMeToken public token;\n    uint256 public supportRequiredPct;\n    uint256 public minAcceptQuorumPct;\n    uint64 public voteTime;\n\n    uint256 constant public PCT_BASE = 10 ** 18;\n\n    bytes32 constant public CREATE_VOTES_ROLE = keccak256(\"CREATE_VOTES_ROLE\");\n    bytes32 constant public MODIFY_QUORUM_ROLE = keccak256(\"MODIFY_QUORUM_ROLE\");\n\n    enum VoterState { Absent, Yea, Nay }\n\n    struct Vote {\n        address creator;\n        uint64 startDate;\n        uint256 snapshotBlock;\n        uint256 minAcceptQuorumPct;\n        uint256 yea;\n        uint256 nay;\n        uint256 totalVoters;\n        string metadata;\n        bytes executionScript;\n        bool executed;\n        mapping (address => VoterState) voters;\n    }\n\n    Vote[] votes;\n\n    event StartVote(uint256 indexed voteId);\n    event CastVote(uint256 indexed voteId, address indexed voter, bool supports, uint256 stake);\n    event ExecuteVote(uint256 indexed voteId);\n    event ChangeMinQuorum(uint256 minAcceptQuorumPct);\n\n    /**\n    * @notice Initializes Voting app (some parameters won't be modifiable after being set)\n    * @param _token MiniMeToken address that will be used as governance token\n    * @param _supportRequiredPct Percentage of voters that must support a vote for it to succeed (expressed as a 10^18 percetage, (eg 10^16 = 1%, 10^18 = 100%)\n    * @param _minAcceptQuorumPct Percetage of total voting power that must support a vote for it to succeed (expressed as a 10^18 percetage, (eg 10^16 = 1%, 10^18 = 100%)\n    * @param _voteTime Seconds that a vote will be open for token holders to vote (unless it is impossible for the fate of the vote to change)\n    */\n    function initialize(\n        MiniMeToken _token,\n        uint256 _supportRequiredPct,\n        uint256 _minAcceptQuorumPct,\n        uint64 _voteTime\n    ) onlyInit external\n    {\n        initialized();\n\n        require(_minAcceptQuorumPct > 0);\n        require(_supportRequiredPct <= PCT_BASE);\n        require(_supportRequiredPct >= _minAcceptQuorumPct);\n\n        token = _token;\n        supportRequiredPct = _supportRequiredPct;\n        minAcceptQuorumPct = _minAcceptQuorumPct;\n        voteTime = _voteTime;\n\n        votes.length += 1;\n    }\n\n    /**\n    * @notice Change minimum acceptance quorum to `_minAcceptQuorumPct`\n    * @param _minAcceptQuorumPct New acceptance quorum\n    */\n    function changeMinAcceptQuorumPct(uint256 _minAcceptQuorumPct) authP(MODIFY_QUORUM_ROLE, arr(_minAcceptQuorumPct, minAcceptQuorumPct)) external {\n        require(_minAcceptQuorumPct > 0);\n        require(supportRequiredPct >= _minAcceptQuorumPct);\n        minAcceptQuorumPct = _minAcceptQuorumPct;\n\n        ChangeMinQuorum(_minAcceptQuorumPct);\n    }\n\n    /**\n    * @notice Create new vote to execute `_executionScript`\n    * @param _executionScript EVM script to be executed on approval\n    * @return voteId id for newly created vote\n    */\n    function newVote(bytes _executionScript, string _metadata) auth(CREATE_VOTES_ROLE) external returns (uint256 voteId) {\n        return _newVote(_executionScript, _metadata);\n    }\n\n    /**\n    * @notice Vote `_supports` in vote with id `_voteId`\n    * @param _voteId Id for vote\n    * @param _supports Whether voter supports the vote\n    * @param _executesIfDecided Whether it should execute the vote if it becomes decided\n    */\n    function vote(uint256 _voteId, bool _supports, bool _executesIfDecided) external {\n        require(canVote(_voteId, msg.sender));\n        _vote(\n            _voteId,\n            _supports,\n            msg.sender,\n            _executesIfDecided\n        );\n    }\n\n    /**\n    * @notice Execute the result of vote `_voteId`\n    * @param _voteId Id for vote\n    */\n    function executeVote(uint256 _voteId) external {\n        require(canExecute(_voteId));\n        _executeVote(_voteId);\n    }\n\n    function isForwarder() public pure returns (bool) {\n        return true;\n    }\n\n    /**\n    * @dev IForwarder interface conformance\n    * @param _evmScript Start vote with script\n    */\n    function forward(bytes _evmScript) public {\n        require(canForward(msg.sender, _evmScript));\n        _newVote(_evmScript, \"\");\n    }\n\n    function canForward(address _sender, bytes _evmCallScript) public view returns (bool) {\n        return canPerform(_sender, CREATE_VOTES_ROLE, arr());\n    }\n\n    function canVote(uint256 _voteId, address _voter) public view returns (bool) {\n        Vote storage vote = votes[_voteId];\n\n        return _isVoteOpen(vote) && token.balanceOfAt(_voter, vote.snapshotBlock) > 0;\n    }\n\n    function canExecute(uint256 _voteId) public view returns (bool) {\n        Vote storage vote = votes[_voteId];\n\n        if (vote.executed)\n            return false;\n\n        // Voting is already decided\n        if (_isValuePct(vote.yea, vote.totalVoters, supportRequiredPct))\n            return true;\n\n        uint256 totalVotes = vote.yea + vote.nay;\n\n        // vote ended?\n        if (_isVoteOpen(vote))\n            return false;\n        // has Support?\n        if (!_isValuePct(vote.yea, totalVotes, supportRequiredPct))\n            return false;\n        // has Min Quorum?\n        if (!_isValuePct(vote.yea, vote.totalVoters, vote.minAcceptQuorumPct))\n            return false;\n\n        return true;\n    }\n\n    function getVote(uint256 _voteId) public view returns (bool open, bool executed, address creator, uint64 startDate, uint256 snapshotBlock, uint256 minAcceptQuorum, uint256 yea, uint256 nay, uint256 totalVoters, bytes script) {\n        Vote storage vote = votes[_voteId];\n\n        open = _isVoteOpen(vote);\n        executed = vote.executed;\n        creator = vote.creator;\n        startDate = vote.startDate;\n        snapshotBlock = vote.snapshotBlock;\n        minAcceptQuorum = vote.minAcceptQuorumPct;\n        yea = vote.yea;\n        nay = vote.nay;\n        totalVoters = vote.totalVoters;\n        script = vote.executionScript;\n    }\n\n    function getVoteMetadata(uint256 _voteId) public view returns (string metadata) {\n        return votes[_voteId].metadata;\n    }\n\n    function _newVote(bytes _executionScript, string _metadata) internal returns (uint256 voteId) {\n        voteId = votes.length++;\n        Vote storage vote = votes[voteId];\n        vote.executionScript = _executionScript;\n        vote.creator = msg.sender;\n        vote.startDate = uint64(now);\n        vote.metadata = _metadata;\n        vote.snapshotBlock = getBlockNumber() - 1; // avoid double voting in this very block\n        vote.totalVoters = token.totalSupplyAt(vote.snapshotBlock);\n        vote.minAcceptQuorumPct = minAcceptQuorumPct;\n\n        StartVote(voteId);\n\n        if (canVote(voteId, msg.sender)) {\n            _vote(\n                voteId,\n                true,\n                msg.sender,\n                true\n            );\n        }\n    }\n\n    function _vote(\n        uint256 _voteId,\n        bool _supports,\n        address _voter,\n        bool _executesIfDecided\n    ) internal\n    {\n        Vote storage vote = votes[_voteId];\n\n        // this could re-enter, though we can asume the governance token is not maliciuous\n        uint256 voterStake = token.balanceOfAt(_voter, vote.snapshotBlock);\n        VoterState state = vote.voters[_voter];\n\n        // if voter had previously voted, decrease count\n        if (state == VoterState.Yea)\n            vote.yea = vote.yea.sub(voterStake);\n        if (state == VoterState.Nay)\n            vote.nay = vote.nay.sub(voterStake);\n\n        if (_supports)\n            vote.yea = vote.yea.add(voterStake);\n        else\n            vote.nay = vote.nay.add(voterStake);\n\n        vote.voters[_voter] = _supports ? VoterState.Yea : VoterState.Nay;\n\n        CastVote(\n            _voteId,\n            _voter,\n            _supports,\n            voterStake\n        );\n\n        if (_executesIfDecided && canExecute(_voteId))\n            _executeVote(_voteId);\n    }\n\n    function _executeVote(uint256 _voteId) internal {\n        Vote storage vote = votes[_voteId];\n\n        vote.executed = true;\n\n        bytes memory input = new bytes(0); // TODO: Consider input for voting scripts\n        runScript(vote.executionScript, input, new address[](0));\n\n        ExecuteVote(_voteId);\n    }\n\n    function _isVoteOpen(Vote storage vote) internal returns (bool) {\n        return uint64(now) < (vote.startDate + voteTime) && !vote.executed;\n    }\n\n    /**\n    * @dev Calculates whether `_value` is at least a percent `_pct` over `_total`\n    */\n    function _isValuePct(uint256 _value, uint256 _total, uint256 _pct) internal returns (bool) {\n        if (_value == 0 && _total > 0)\n            return false;\n\n        uint256 m = _total * _pct;\n        uint256 v = m / PCT_BASE;\n\n        // If division is exact, allow same value, otherwise require value to be greater\n        return m % PCT_BASE == 0 ? _value >= v : _value > v;\n    }\n}\n",
  "sourcePath": "@aragon/apps-voting/contracts/Voting.sol",
  "compiler": {
    "name": "solc",
    "version": "0.4.18+commit.9cf6e910.Emscripten.clang"
  },
  "schemaVersion": "1.0.1",
  "updatedAt": "2018-02-26T13:03:38.130Z"
}